S02B00002F686F6D652F73747564656E74732F6C706233322F576172702D436F75727365776F726B2D322F6267
S1130000000600201D050000450500004505000010
S113001000000000000000000000000000000000DC
S11300200000000000000000000000004505000082
S11300300000000000000000450500004505000028
S11300404505000045050000450500004505000084
S1130050450500004505000045050000B5160000F3
S113006005340000450500000F340000450500007C
S11300701934000045050000450500004505000051
S11300804505000045050000450500004505000044
S11300908D160000A516000045050000450500006A
S11300A04505000045050000450500004505000024
S11300B04505000045050000C51600004505000083
S1130400FFFFFFFFFFFFFFFFFFFFFFFFFE3DFFFFBB
S11304100448054B10B5834203D0044B002B00D095
S1130420984710BD38FFFF1F38FFFF1F0000000072
S113043006480749091A8B10C90FC91810B5491085
S113044003D0044B002B00D0984710BD38FFFF1F8A
S113045038FFFF1F0000000010B5074C2378002B65
S113046009D1FFF7D5FF054B002B02D0044800E06B
S113047000BF0123237010BD38FFFF1F00000000E0
S113048098710000054B10B5002B03D004490548B2
S113049000E000BFFFF7CCFF10BDC0460000000025
S11304A03CFFFF1F98710000402292029A1A924664
S11304B07047C046154B002B00D1114B9D46FFF7EA
S11304C0F3FF00218B460F461148124A121A00F01E
S11304D009F90C4B002B00D098470B4B002B00D094
S11304E098470020002104000D000B4800F032F86A
S11304F000F06EF82000290001F0A4FA00F03EF8A4
S113050000000800000000000000000000060020B9
S113051038FFFF1F68030020A905000072B60648D3
S11305200649074A02600A6002F07CFF02F0BCFF41
S113053062B6FFF7BFFF000080E100E080E200E068
S1130540FFFFFFFF0048004745050000C317C01820
S11305505840704710B5010000230022002000F02D
S11305601FFA10BD10B50A00002100F0BBF810BD41
S1130570014B18687047C04600FEFF1F084B10B5BA
S11305800400002B02D0002100F078FA054B186813
S1130590836A002B00D09847200000F0DBFFC046A0
S11305A07D0A0000E056000070B5074D074C641B3F
S11305B0A41005D0013CA300EB589847002CF9D1B6
S11305C006F0F0FD70BDC046BC710000C0710000B3
S11305D070B50C4D0C4E761BB61005D0002408CD1A
S11305E001349847A642FAD106F0D6FD074D084ECD
S11305F0761BB61005D0002408CD01349847A642D6
S1130600FAD170BDB8710000B8710000B871000073
S1130610BC71000010B5034B0100186800F00CF920
S113062010BDC04600FEFF1F10B5034B0100186843
S113063000F0ACF810BDC04600FEFF1FF0B5C64682
S113064000B50F2A43D90B00032603431E400C00B8
S11306500300002E40D11500103D2D09AC462D019C
S1130660A846804400E03B00676825685F60E7684F
S11306701D60DF601F00A56810379D60103443457E
S1130680F1D165460F230C2401352D01491913407E
S11306904519144223D08C59AC5104369C1B032CAD
S11306A0F9D80324043B9B0801339B002240ED1836
S11306B0C918561E002A07D0002300E02300CA5C94
S11306C05C1CEA549E42F9D104BC9046F0BD05007E
S11306D0561E002AF0D1F7E7561E0500ECE71A0073
S11306E0F6E7C046F0B5050083074AD0541E002A39
S11306F044D0CEB20300032202E00135013C3DD3D5
S113070001332E701342F8D1032C2FD9FF220A4053
S1130710150215432A0415430F2C35D92700103F21
S11307203F093E01B4461E001A00103666441560A7
S113073055609560D5601032B242F8D10F260C2274
S113074001373F012640DB193700224217D03E1FF4
S1130750B608B400A4461A001C1D644420C2A24278
S1130760FCD103240136B6009B193C40002C05D073
S1130770C9B21C19197001339C42FBD1F0BD34007D
S1130780F4E714000300BFE72700E0E770B50500B5
S1130790002915D00C1F2368002B27DB280000F04C
S11307A0CBF9244B1A68002A05D0A2420CD921683F
S11307B06018824224D0626028001C6000F0BEF9F8
S11307C070BDA34203D81A005368002BF9D11168F5
S11307D05018A0421BD027D821686018834207D044
S11307E063605460280000F0A9F9E9E7E418D5E74C
S11307F018685B6884466144216063605460F1E773
S1130800106852688446614421606260D4E72068BD
S11308100918501811608342E4D118685B68844653
S1130820614411605360DDE70C2328002B6000F065
S113083085F9C5E754FFFF1FF8B50323CD1C9D437D
S1130840083506000C2D2AD20C25A94229D83000DF
S113085000F072F92A4F3A68002A0AD013685B1B29
S113086004D441E023685B1B1FD522005468002C8C
S1130870F8D17B68002B3DD02900300000F042F80D
S1130880431C2AD00323C41C9C43A04205D0211A34
S1130890300000F037F8431C1FD0256010E0002D15
S11308A0D3DA0C2300203360F8BD0B2B05D8636822
S11308B0A2421DD0536003E014002360E4182560B5
S11308C0300000F03BF9200007220B30231D904339
S11308D0C21AE9D01B1AA350E6E70C233000336098
S11308E000F02CF90020DFE70B2BE5D81400536847
S11308F03B60E5E70021300000F004F87860BBE7D6
S113090054FFFF1F002370B5064C05000800236048
S113091000F022FE431C00D070BD2368002BFBD0E6
S11309202B60F9E76403002003000A7801311A7090
S11309300133002AF9D1704710B5830727D0037813
S1130940002B26D00300032102E01A78002A1CD0D1
S113095001330B42F9D119680F4A104C8A188A43A3
S113096022420FD1043319680B4A8A188A4322425F
S113097008D104331968084A8A188A432242F1D0FC
S113098000E001331A78002AFBD1181A10BD0300C5
S1130990E1E70020FAE7C046FFFEFEFE808080808B
S11309A0F0B546464F46D646C0B51F002F4B82B021
S11309B01C6805000E009046002C2DD063681F2B88
S11309C050DC002D1CD08822A0589146002834D039
S11309D07832825894469A00914681444246494668
S11309E00A600121624699400A43944680228A465D
S11309F06146520081504946803A8F50022D16D0EC
S1130A0000205A1C02339B0062601E5102B01CBCC1
S1130A1090469946A246F0BD154C1C60154B002B20
S1130A20CCD01B6801938823019AE250C6E755464F
S1130A30843281580D438550E2E70F4B002B11D0CF
S1130A4084204000FFF7E6FD00280BD0802200231D
S1130A5052008350043283504B460022E0509446A7
S1130A606368B8E701204042D0E7C046E8FFFF1FB3
S1130A705CFFFF1F0000000015060000F0B5DE4615
S1130A804E46454657462B4B88469B46E0B51E6866
S1130A9083B00190002E45D088237568F7586C1EEA
S1130AA040D40135AD00783375199A460AE0002F19
S1130AB005D03B00A20080339B58434505D0043D3C
S1130AC0013C2FD34346002BF1D173682A68013BC4
S1130AD0A34222D000232B60002AF0D073689946E9
S1130AE0002F18D001235146A3407958194212D03F
S1130AF0822040003858A1007958009018420ED145
S1130B00019890475B4672681B684A4501D1B3421D
S1130B10D5D01E00BEE79047F4E77460DCE7080018
S1130B209047EFE703B03CBC90469946A246AB46DB
S1130B30F0BDC046E8FFFF1F7047C0467047C0467F
S1130B4002B4714649084900095C49008E4402BC5C
S1130B507047C04603B47146490840004900095E25
S1130B6049008E4403BC7047002243088B4274D36F
S1130B7003098B425FD3030A8B4244D3030B8B429A
S1130B8028D3030C8B420DD3FF22090212BA030CA3
S1130B908B4202D31212090265D0030B8B4219D384
S1130BA000E0090AC30B8B4201D3CB03C01A5241A4
S1130BB0830B8B4201D38B03C01A5241430B8B42EC
S1130BC001D34B03C01A5241030B8B4201D30B03D5
S1130BD0C01A5241C30A8B4201D3CB02C01A5241FC
S1130BE0830A8B4201D38B02C01A5241430A8B42BF
S1130BF001D34B02C01A5241030A8B4201D30B02A8
S1130C00C01A5241CDD2C3098B4201D3CB01C01AC1
S1130C10524183098B4201D38B01C01A52414309CB
S1130C208B4201D34B01C01A524103098B4201D3B9
S1130C300B01C01A5241C3088B4201D3CB00C01A26
S1130C40524183088B4201D38B00C01A524143089E
S1130C508B4201D34B00C01A5241411A00D20146C3
S1130C60524110467047FFE701B5002000F0F0F84C
S1130C7002BDC0460029F7D076E7704703460B4310
S1130C807FD4002243088B4274D303098B425FD381
S1130C90030A8B4244D3030B8B4228D3030C8B42AD
S1130CA00DD3FF22090212BA030C8B4202D3121293
S1130CB0090265D0030B8B4219D300E0090AC30B68
S1130CC08B4201D3CB03C01A5241830B8B4201D315
S1130CD08B03C01A5241430B8B4201D34B03C01AFE
S1130CE05241030B8B4201D30B03C01A5241C30A76
S1130CF08B4201D3CB02C01A5241830A8B4201D3E7
S1130D008B02C01A5241430A8B4201D34B02C01AD0
S1130D105241030A8B4201D30B02C01A5241CDD275
S1130D20C3098B4201D3CB01C01A524183098B42C0
S1130D3001D38B01C01A524143098B4201D34B01A9
S1130D40C01A524103098B4201D30B01C01A52410C
S1130D50C3088B4201D3CB00C01A524183088B4293
S1130D6001D38B00C01A524143088B4201D34B007C
S1130D70C01A5241411A00D20146524110467047EE
S1130D805DE0CA0F00D04942031000D340425340F3
S1130D9000229C4603098B422DD3030A8B4212D3B3
S1130DA0FC22890112BA030A8B420CD389019211E5
S1130DB08B4208D3890192118B4204D389013AD022
S1130DC0921100E08909C3098B4201D3CB01C01AF7
S1130DD0524183098B4201D38B01C01A524143090A
S1130DE08B4201D34B01C01A524103098B4201D3F8
S1130DF00B01C01A5241C3088B4201D3CB00C01A65
S1130E00524183088B4201D38B00C01A5241D9D27C
S1130E1043088B4201D34B00C01A5241411A00D2FD
S1130E200146634652415B10104601D34042002BF9
S1130E3000D54942704763465B1000D3404201B578
S1130E40002000F005F802BD0029F8D016E770472D
S1130E507047C046F0B557464E464546DE46E0B5B7
S1130E6098460C034B000600924687B0240B5B0D9A
S1130E70CF0F002B6CD0DD4A934200D186E0420FA5
S1130E80E4001443802212041443D94AC500944652
S1130E9063440093002399469B46434642461E03FF
S1130EA0D20F5B0050469046360B5B0D00D178E0C4
S1130EB0CE4A93421DD0CE49420F8C4600996344DA
S1130EC0F6008C46164380229C4412046346164363
S1130ED0C200002000930099434601318C464946E4
S1130EE07B4001930F2900D97EE0C24B89005958F9
S1130EF08F465246009B324300D056E1BB49002640
S1130F008C466344494600930223194389460220D0
S1130F10E1E7434601933400150083465B46022B08
S1130F205ED0032B00D1F3E1012B00D018E10022A5
S1130F3000240025019B12052243DB071A432800E5
S1130F40110007B03CBC90469946A246AB46F0BDA2
S1130F502500054300D141E1002C00D1ADE1200082
S1130F6000F0DAFA010002000B391D2310005B1AAD
S1130F703100350008388440D94085400C439E48F0
S1130F80831A0093002399469B4686E70500254370
S1130F9000D01CE1082200930223002491469B46C2
S1130FA07BE75246324300D10AE1002E00D176E1BC
S1130FB0300000F0B1FA02000B3A1D2301009B1A25
S1130FC052460839DA408E40164352468A40009B06
S1130FD08949181A03008C466344002000937AE779
S1130FE000240025814AA5E72F0C2D042D0C2B008D
S1130FF0110C1204120C53439846130028007B432F
S1131000994648434844834640460B00000C8246B8
S113101058467B4350440293814506D99A4680231F
S11310205B029946CA4453460293030C9B464346CB
S11310301B0400041B0C9846030043440493330C24
S113104099462B003604360C7343984633007B4391
S11310509A464B465D435F4343465544180C40193A
S1131060824503D980235B029A465744050CEB1949
S1131070059343461D042D0C00044019250C24043B
S1131080240C270057436A4390462A003B0C9A4697
S11310904A436143414451448344884503D98023EE
S11310A05B02984642443F040B0C3F0C0904C919E7
S11310B0270098464B4677435C436E435D433B0CA5
S11310C09946A4194C4442440395A64204D980236A
S11310D05B02984645440395029B3F045B441E0013
S11310E08342804123049846059B3F0C474498461D
S11310F076188E428941474440423D18A84693469B
S113110049428A46C3449F42BF4180458041039B74
S1131110DA449846534640427F420743240C9345A1
S113112092418A4589413F19DC0D049B75021D4398
S1131130681E85415346524249420A43BF184744F8
S1131140F60D7F0235435A023C431543FB0100D49C
S1131150C1E001216A080D401543E2071543640804
S113116026496144002956DD6B0709D00F222A4025
S1131170042A05D02A1DAA42AD416D426419150006
S1131180E30104D580211E4AC900144061441D4A6C
S1131190914200DD24E76207ED0864024905154326
S11311A0240B4A0DC6E60197B8E6104A032094467C
S11311B063444A46009303231A43914652468AE6FF
S11311C049460123194389460026012083E60C225F
S11311D000930323050091469B465EE6042399464B
S11311E000230093013300249B4656E6FF070000CA
S11311F001FCFFFFE45600000DFCFFFFFF030000AD
S1131200FFFFFFFEFE070000002380240025444A60
S1131210019324038EE60120401A382800DD86E677
S11312201F285BDD1F2223005242511ACB401900B4
S1131230202803D03B4A6244944025436A1E9541CA
S11312402A000A4307210D000024154011425BD0F7
S11312500F2100241140042953D0111D91429241C1
S11312605242A4180A0023024BD50122002400256F
S113127060E680231B031C4209D01E4207D133437E
S11312801C0343461500240B254A019352E6802291
S1131290120314432403224A240B01974AE600F064
S11312A03BF903001A00153220301C2A00DC84E6C6
S11312B05646083B00229E4089E600F02DF90100C5
S11312C00200153120321C2900DC4EE634000838B7
S11312D00025844053E6009B9C4641E712492200C6
S11312E061442E008D408A40C640691E8D413243C0
S11312F02A43C4405307B6D00F2111400429ACD16E
S1131300B1E765076402240BD2081543002211E6F5
S11313108022120314432403014A240B0AE6C04624
S1131320FF0700003E0400001E04000010B5041E68
S113133010D000F0F1F80F4B1B1A0A2811DC0B2215
S11313402100121AD14015300A035B058440120BA8
S11313505B0D01E0002300221B051343200019004C
S113136010BD22000B3882405B0512030024120BCF
S11313705B0DF1E71E04000070B543004602C40F84
S1131380FE201B0E591C750A08420CD0E022920064
S113139094466D07360B63441B053343E40723432C
S11313A02800190070BD002B14D1002D1BD028007B
S11313B000F0B2F80A281CDC0B232A001B1ADA40BE
S11313C0030015339D400E4B12031B1A5B05160BCD
S11313D05B0DE1E7002D09D0320B80263603094B63
S11313E06D071643D8E700230026D5E70026054BF2
S11313F0D2E703002A000B3B9A400025E3E7C046EE
S113140089030000FF07000002004B00F0B5080349
S11314105B0D3D4ECC0F400A510F5F1C0843D500B5
S113142037420AD039495E18FE2E16DDFF2300210B
S1131430DB050B43E0071843F0BD002B06D128431E
S113144027D005218901490ADBB2F1E70543EDD034
S11314508021C903FF230143EAE7002E1CDD92012A
S113146011004A1E9141C0006D0F014329434B07EF
S113147048D00F230B40042B00D004318023DB041D
S11314800B403FD0721CFE2ED0D08901490AD3B242
S1131490CEE700230021CBE73200173222DB802184
S11314A01E2209040843921B1F2A1DDD0221494202
S11314B08E1B0100F1400E00202A04D0144A9446E9
S11314C063449840054329004D1EA9413143002639
S11314D04B07CED180200B00C004012203400142FF
S11314E0D3D1AFE70023ACE70A498C462900634413
S11314F0D1409D400A00290098404D1EA941014356
S11315001143E4E733009DE7FE07000080FCFFFF82
S1131510A2FCFFFF82FCFFFF1C2101231B04984255
S113152001D3000C10391B0A984201D3000A083970
S11315301B09984201D30009043902A2105C401827
S11315407047C046040302020101010100000000CB
S113155000000000FEE7C0460A4A0300116810B507
S1131560002901D10849116010680849C3188B4249
S113157006D9FEF7FDFF0C2303600120404210BD95
S11315801360FCE7ECFFFF1F6803002068030020E2
S1131590837802209842804140427047437A002079
S11315A0013B012B03D90B78013001330B707047D9
S11315B0C023174A9B001360164A1360164A13602F
S11315C00023164A1360164A1360164A1360164A1B
S11315D01360164A1360164A1360164A1360164ABB
S11315E01360164A1360164A1360164A1360164AAB
S11315F01360164A1360164A1360164A1360164A9B
S11316001360164A1360164A1360164A1360704733
S11316100090145404901454089014540C901454CE
S11316201090145414901454189014541C9014547E
S113163020901454249014543090145400A0145442
S113164004A0145408A014540CA0145410A014544E
S113165014A0145418A014541CA0145428A01454F6
S11316602CA0145434A0145403003038092805D98C
S11316701A00613A052A02D8573B180070471A002D
S1131680413A0020052AF9D8373BF6E710B5002087
S113169003F0D2FB002803D00021080003F0C0FBB4
S11316A010BD0000024A1368013313607047C0463E
S11316B080FEFF1F10B50721014803F06BF810BD31
S11316C000C007400122024B52421A607047C046D4
S11316D0A090044037B5002002F0D3F9C0230024C1
S11316E00D4A9B0013600D4A0D4D13600D4A2000F6
S11316F013600D4B2C716C71AC711A68FA239B004A
S113170053430A492B6003F0E5FB2900200001AA9A
S113171003F046FC37BDC046189014541C90145472
S11317209000002000A0145484FEFF1F60000020DD
S113173010B58024002003F00FFC0A4B64001C60E9
S1131740094B07201C60094B1C6002F04BFC06206F
S113175002F048FC200002F045FC002002F096F95B
S113176010BDC046189014541C90145400A0145476
S113177010B5002002F094F98023054A9B00136001
S1131780044A00200449136002F008FD10BDC0465D
S11317900CA0145410A014543C00002010B50020D8
S11317A002F038FD0020034B1860034B186002F070
S11317B07CF910BD0CA0145410A01454014B1B88C8
S11317C07047C04674FEFF1F0FB41FB50E4B1B7845
S11317D0DCB2002B0FD107AB03934023200000930E
S11317E006990A4B03AA01F0FBF9002807DA200046
S11317F0074901F019F91FBC08BC04B018470520BB
S113180001F011FFF7E7C04676FEFF1FF9FFFF1F47
S1131810286C000010B50400002901D0FFF7C8FEB1
S11318200021022000F02CFE2100042000F028FEFC
S1131830002802D00148FFF7C7FF10BD4E57000033
S1131840F8B50E00040027481500FFF7BDFF264831
S1131850FFF7BAFF2548FFF7B7FF320021002448FD
S1131860FFF7B2FF234B24481968244B244E1A680F
S1131870244B254F1B68FFF7A7FF244B244CF95832
S1131880244872693368FFF79FFF21786278A3794F
S11318902148C9B2D2B2DBB2FFF796FF1F4B217ABF
S11318A0227E1B781E48C9B2D2B2DBB2FFF78CFF8E
S11318B01C4B1D4819785A781C4BC9B21B69D2B20B
S11318C0FFF782FF1A4B1B4899781B4BC9B2FA5891
S11318D07368FFF779FF194B2A7819681848FFF7DE
S11318E073FFF8BDAC570000EC5700001E58000011
S11318F05758000078FEFF1F8B58000084FEFF1F1E
S113190000D003408CFEFF1F007004403C10000018
S113191000400640C2580000F8580000005006403D
S11319202759000000E007405759000000ED00E08F
S113193000D00740915900003410000080FEFF1FC2
S1131940C959000010B501F07BF80028FBDB10BD7D
S113195070B5FFF7F7FF0400FFF7F4FFFF2605005B
S113196020003040FFF780FE040028003040FFF7DD
S11319707BFE24012018C0B270BD70B5FFF7E2FFF2
S11319800600FFF7DFFF0500FFF7DCFF0400FFF7A9
S1131990D9FFFF22FA23642116401540303E14403B
S11319A09B00303D4D4373435A39303C4C435B19E3
S11319B010401B193038181870BD000070B50C00A9
S11319C0160088B00CAA157806A908800A4A05A84A
S11319D005700A4D12682D684A6004AA16700193B6
S11319E0009023000020029502F03CFD002800D066
S11319F0022008B070BDC04678FEFF1F7CFEFF1FAA
S1131A00F7B56A46CB1DDB08DB00D31A02AF9D464F
S1131A100C000500FFF75EFE0021094B02AE1B68B7
S1131A202A00019300943300080003F015FB04001E
S1131A30FFF77EFE002C00D00424BD462000F2BD3A
S1131A4088FEFF1FF0B50027B1B01DAC0722390096
S1131A502000FEF747FEDB4A0125249203220DAB4A
S1131A6027930FAB289311AB2A9315AB2C9317AB89
S1131A702D9319AB2E931BAB13AE09A938002F93EA
S1131A8024AB1A7126910C93257029942B9601F09E
S1131A90E3FF280001F0E0FF8022CB4B12021A6022
S1131AA001F0E0FD3B003A0039003800009500F0F9
S1131AB0D7FFC648FFF788FEFA20800001F0B3FD87
S1131AC0C348FFF781FEFA20800001F0ACFDC14855
S1131AD0FFF77AFEFA20800001F0A5FDBE4A2B0034
S1131AE00221BE4801F0E2FD2900280001F0EAFDD0
S1131AF0380003F0DFF87C21B94B3800219304ABA4
S1131B005B181F80023104AB5B1821A91F7022955A
S1131B1003F0FCF82A00390009A8FEF7E3FD3A2097
S1131B201D9B04A91193A2880A87A27909180A7037
S1131B300322063804A909180A701393A28804A979
S1131B40B280A2790A38B271052232700D93A2884C
S1131B5002260A85A27909180A70242104AA5218B7
S1131B6016700F93A28804A90A86A279083009186E
S1131B700A700422063804A909180A701593A28869
S1131B801C3004A909180A80A279801904A909182B
S1131B900A70442104AA5118082250200A7017938D
S1131BA0A28804A909180A80A279801904A909182D
S1131BB00A704C22092104A8801801701993A38883
S1131BC00C3204A880180380A3795A2404A80019AD
S1131BD003700A2304A8063C001903705C2004ABBC
S1131BE01B180CAA1F7027A82B0001F0B9FF7D4811
S1131BF0FFF7EAFD3900300000F042FC0822030040
S1131C009343DBB20590BB4202D07748FFF7DCFD7B
S1131C107648FFF7D9FD7648FFF7D6FD7549764833
S1131C2002F0B8F9754C00272000FFF7CDFDC02362
S1131C30734A9B001360734A73481360734A1360BA
S1131C40FFF7C2FDFFF7B4FC2000FFF7BDFDE12163
S1131C501D20C90000F0C8FC01226D4B6D481A70AC
S1131C60FFF7B2FD6C4B6D481F70FFF7ADFD01F03F
S1131C7015F96B48FFF7A8FD6A4801F0D4FC6A48DF
S1131C80FFF7A2FD01F0E0FA664801F0CCFC01F098
S1131C90DBFA644801F0C7FC6448FFF795FD0323B1
S1131CA007970693624C3900208809AA80B2FFF78F
S1131CB0C7FD6048FFF788FD5F48FFF785FD5F4873
S1131CC0FFF782FD5E48FFF77FFD5E48FFF77CFD6E
S1131CD05D48FFF779FD5D48FFF776FD5C48FFF747
S1131CE073FD5C48FFF770FD5B48FFF76DFD39003D
S1131CF0069A5A48FFF768FD5948FFF765FD5948A9
S1131D00FFF762FD5848FFF75FFD5848FFF75CFD99
S1131D105748FFF759FD5748FFF756FD5648FFF758
S1131D2053FD5648FFF750FD5548FFF74DFD554804
S1131D30FFF74AFD5448FFF747FD5448FFF744FDB9
S1131D405348FFF741FDFFF7FDFDFF210600014069
S1131D500A2900D153E3080050382A2800D9DEE0CC
S1131D60FEF7F8FE4803DD00A0FFDD00DD00DD0026
S1131D70DD00DD00DD00DD004603DD00DD00DD000B
S1131D80DD00DD00DD009A00DF00F10001010B0140
S1131D9014014C01E801DD00570185019201920113
S1131DA0CC01A0FFCF01DD00DE01E801EA014F0212
S1131DB0DD00DD005B02DD000603364B07930123E3
S1131DC06FE7C0469D15000058030020F759000036
S1131DD0125A0000185A000064FEFF1F20FFFF1F64
S1131DE0E0070100215A0000465A00007A5A000018
S1131DF0825A0000C0FEFF1FB8FEFF1FC55A000034
S1131E0000901454049014549F5A000008901454E1
S1131E10F8FFFF1FC05A000076FEFF1FCC5A0000D7
S1131E20EC5A000088130000115B0000365B0000D0
S1131E3074FEFF1F605B00006A5B0000875B0000AC
S1131E40A35B0000BF5B0000DC5B0000035C0000E0
S1131E50225C00004E5C0000795C00009C5C000089
S1131E60CB5C0000E75C00000B5D00002F5D000010
S1131E70565D00007E5D00009C5D0000B95D0000C1
S1131E80D85D0000F75D0000115E00003C5E0000BC
S1131E90675E0000F0FFFF1FE448FFF795FCE4488D
S1131EA0FFF792FCE348FFF78FFCE348FFF78CFC55
S1131EB0E248FFF789FCE248FFF786FCE148FFF7B8
S1131EC083FCE148FFF780FCE048FFF77DFCE04835
S1131ED0FFF77AFCDF48FFF777FCDF48FFF774FC75
S1131EE0DE48FFF771FCDE48FFF76EFCDD48FFF7C4
S1131EF06BFCDD48FFF768FCDC48FFF765FCDC4859
S1131F00FFF762FCDB48FFF75FFCDB48FFF75CFC94
S1131F10FFF718FDFF210140352900D14DE7D748CF
S1131F200EE0D748FFF750FCFFF727FDD54BD64A04
S1131F3018601968914201D1D44A1A601968D448CA
S1131F40FFF742FCAEE6D348FFF73EFCFFF715FD72
S1131F50D14BCD4A18601968914201D1CB4A1A601D
S1131F601968CE48ECE7CE48FFF72EFCFFF705FDD5
S1131F70CC4B18601968CC48E2E7CC48FFF724FC46
S1131F80FFF7E6FC07000100C948D9E7C948FFF795
S1131F901BFCFFF7DDFCC84D010004002800FFF71F
S1131FA013FCC648FFF710FCFFF7D2FC0AAE010091
S1131FB030702800FFF708FCC148992C00D1ACE030
S1131FC0B04B1FAD1B682C802093BE4B1A881B8816
S1131FD0FFF7CEFBBC4B0BAA1B68177002930123BF
S1131FE0290000200193009602F03CFA011E02D061
S1131FF0B648FFF7E9FBFFF7D1FB53E6B448FFF718
S1132000E3FBFFF7BAFC80B220802188B14889B293
S113201096E73900B048FFF7D7FBFFF793FCAF48CA
S1132020FFF7D2FBFFF78EFCAD48FFF7CDFBFFF7C0
S113203089FCAC48FFF7C8FBFFF79FFC0500AA48E2
S1132040FFF7C2FBFFF799FC0400A848FFF7BCFBAD
S1132050FFF793FCA648FFF7B7FBFFF779FC2300D3
S11320603A000699A3480095FFF7AEFB1AE6A2488A
S1132070FFF7AAFB012420000021FFF7CBFB21007E
S11320803C20FFF7C7FBF6E79C48FFF79DFB9C4805
S1132090FFF79AFBFFF75CFC6C2304AAD2181070BC
S11320A09848FFF791FBFFF768FC6C2304AAD31848
S11320B01A782388F6B2050001009BB26C2E10D169
S11320C09148FFF781FB0024AC4200DBEAE51FAB3B
S11320D01A7800230121FF200093FFF76FFC0134DD
S11320E0F2E78A48FFF770FB0024AC4200DBD9E535
S11320F001211FA8FFF784FC0134F6E72388238815
S1132100D0E50021022000F0BBF9031E059000D1A8
S1132110C8E57F48082B00D1C4E5FFF755FBC1E5AE
S11321200021082000F0ACF9059B7A48002B00D16F
S1132130B8E5F2E77148F0E71FA9002001F054FC6C
S1132140FA211F988900FEF70FFD01007248FFF77E
S11321503BFB01F09BFE01007048FFF735FB01F0EB
S11321602FFB01006E48FFF72FFB6E4B6E4819687A
S11321704B1E9941FFF728FB002001F08CFC010065
S11321806A48FFF721FB002001F094FC0100684835
S1132190FFF71AFB002001F092FC01006548FFF7ED
S11321A013FB002001F060FC01006348FFF70CFB07
S11321B0012001F059FC01006048FFF705FB604B6A
S11321C0604819684B1E9941FFF7FEFA002001F0A0
S11321D053FC01005C48FFF7F7FA5C4B5C48196854
S11321E04B1E9941FFF7F0FA5A4B5B4819684B1E96
S11321F09941FFF7E9FA002001F066FC0100574815
S11322009EE6079B5648002B87D05648FFF7DCFA1A
S1132210FFF79EFB079B587044E55348FFF7D4FA39
S11322201A4801F000FA514877E7C0467A5E000088
S1132230855E0000C35E0000055F0000465F00008D
S1132240865F0000B65F0000F35F000032600000AC
S113225070600000AD600000EB60000028610000C9
S113226067610000A4610000E16100001C620000DD
S11322705962000096620000D3620000E762000029
S11322800363000078FEFF1F0F27000010270000E3
S1132290316300005163000084FEFF1F7F63000070
S11322A0996300008CFEFF1FC8630000E363000015
S11322B01964000030640000636400007964000065
S11322C0A264000074FEFF1F7CFEFF1FC8640000B0
S11322D0E964000022650000516500008B65000080
S11322E0B4650000CD6500000C660000386600008F
S11322F070660000A1660000DE6600000167000051
S11323002F6700004E6700006E670000B967000089
S11323100468000062680000BF680000D168000023
S1132320E76800003C80845E0E6900001F690000BD
S113233030690000416900005569000069690000C6
S11323403C8004507D6900008E690000348084590B
S11323509F6900003480045AB0690000C26900001B
S1132360D3690000116A0000496A0000686A00002D
S11323702448FFF729FAFFF700FB85B22900224819
S1132380FFF722FA2148FFF71FFAFFF7DBFAC4B27E
S1132390683C604244411E48FFF716FA01F0FEF81B
S11323A0122320220121002000F040F906001948E0
S11323B0FFF70AFA1848FFF707FA1848E4B2FFF7DC
S11323C003FA200000F094F931001548FFF7FCF9F6
S11323D0002D08D02900042000F052F8011E02D07C
S11323E01048FFF7F1F900F02BFB7128E9D102E660
S11323F00D4892E60D48FFF7E7F90D488DE60D48C4
S11324008BE6C046726A0000BE6A0000F46A0000EF
S11324102E6400001D6B00003F6B00002D64000063
S1132420E2680000556B0000936B0000A96B00008C
S1132430CB6B0000F66B00001FB5040001A900205F
S113244002F08CFC694601A802F0C6FB009B6846BA
S11324501C1901A9009402F047FB012201A90020E4
S113246002F0A8FC1FBD00000022034B1A6080226A
S1132470024BD205DA67704700901C5804E100E073
S113248070B50D000A2408281CD8FEF759FB051D59
S11324902A3F546771795C0001F0F8FC0524012897
S11324A010D0FFF7E1FF2800FFF7C6FF0021080066
S11324B001F078FB01210400002001F003F9002C55
S11324C022D10024200070BD01F0E0FC0624012884
S11324D0F8D0FFF7C9FF2800FFF7AEFF0021012065
S11324E0E6E701F0D3FC08240128EBD001F068F9F9
S11324F0002803D00121002001F0E4F8002102208B
S113250001F050FB0028DCD00924DBE701F0BEFC1D
S113251007240028D6D0FFF7A7FF2800FFF78CFF79
S11325200021032001F03EFB040001F0AFFC012177
S11325300028C4D1C1E7FFF797FF2800FFF77CFF0D
S113254000210420EEE70021082001F02BFB041EEB
S1132550DAD10121080001F0B5F8B3E7FFF784FFF1
S11325602800FFF769FF0021052001F01BFBCBE7E2
S1132570FFF77AFF2800FFF75FFF00210620F4E74A
S1132580FFF772FF2800FFF757FF00210720ECE751
S1132590F0B506000D00114B89B05A7806AC2280C4
S11325A00F4A05AF12680792D88880B2FFF706F980
S11325B03E7004AE3570FFF7DBF80A4B3A001B6837
S11325C021000293012300200193009601F04AFFA9
S11325D0002800D0022009B0F0BDC046F0FFFF1F64
S11325E078FEFF1F7CFEFF1F70B50C0005000A4833
S11325F0FFF7EAF8094B0A495D70DC8000231A00F2
S1132600084C58000253980001334250132BF8D160
S11326100548FFF7D9F870BD4E6C0000F0FFFF1FAE
S1132620C000002098000020746C0000F8B506007B
S11326301F000F4B1400D8880D0080B2FFF7BEF8BE
S113264031000920FFF7A4FF290006002A20FFF724
S11326509FFF210005000F20FFF79AFF39000400B7
S11326600E20FFF795FF35432C432043C0B2F8BD3D
S1132670F0FFFF1F70B588B06A46184B04001B7842
S11326800E001375182822D8C31F0320012B23D949
S1132690134B06AD5A782A80124A12680792D888DA
S11326A080B2FFF78BF86B461C75FFF761F80E4B91
S11326B029001B68002002930C4B0196009305AA85
S11326C0012301F0DCFE002806D0022004E02300F0
S11326D01D3B0320142BDBD908B070BDA36C000094
S11326E0F0FFFF1F78FEFF1F7CFEFF1FF2FFFF1F9E
S11326F070B5324C0500E08880B2FFF75FF8022124
S11327000120FFF7B7FFA178E278C9B2D2B200285E
S11327101DD02B48FFF758F802210320FFF7AAFF2A
S1132720A178E278C9B2D2B2002822D02448FFF7B7
S11327304BF802210520FFF79DFFA178E278C9B28A
S1132740D2B2002827D01E48FFF73EF870BD002DF6
S113275003D01C48FFF738F8DEE7920889011143DB
S11327608022194B920151401848C918FFF72CF8E0
S1132770D2E7002D03D01348FFF726F8D9E79208D3
S1132780890111438022104B920151400F48C9180E
S1132790FFF71AF8CDE7002D03D00A48FFF714F825
S11327A0D4E79208890111438022074B92015140DA
S11327B00648C918FFF708F8C8E7C046F0FFFF1F2E
S11327C0A56C0000AC6C000000E0FFFFBC6C0000D6
S11327D00369C268934201D880681B18013B981AA8
S11327E07047F7B58368C46801931F1B43680500ED
S11327F00E001819A418974207D83A00FDF71EFFD7
S1132800019B6868E41A2200F119FDF717FFEC60D8
S1132810F7BD0023F7B506001700C56801910093C2
S11328203369B4689D421FD2013B5B1B641BBC42ED
S113283000D93C009C4200D91C007368220058193E
S11328400199FDF7FBFE009B2D191B190093019BB9
S11328503F1B1B190193B368AB4200D10025F560FF
S1132860002FDDD10098FEBD1B19DDE7022310B552
S11328700F4C104A236163610F4BA261E36164232F
S1132880A2640E4A2362E26400230422A362636208
S1132890E362A3656365E36522650949E01DFEF70C
S11328A043F820000749FEF73FF82023A37110BD29
S11328B00C010020C16C000088010020840100206C
S11328C0CA6C0000CE6C0000F0B5274B85B01B78B5
S11328D00E0002900192002B01D1FFF7C7FF1823CD
S11328E0029A00255343204AD3185A6D9C6D0392D3
S11328F0944219D91B6D019D1B1B9D4200D91D00DB
S11329001827029B30005F43174B2A00DF19FB6C2A
S113291076191919FDF792FE019B64195B1B01934B
S11329203B6DA34200D10024039B019F1B1B9F42CC
S113293000D91F00002F0CD01823029A30005343F3
S1132940094AED19D318D96C3A000919FDF776FE36
S1132950E419002D05D01823029A03485343C018E4
S11329608465280005B0F0BD0C01002010B50B00F3
S1132970EFF31084012181F310881900FFF7A4FFFD
S113298084F3108810BD0000F8B516001822451C09
S113299055434243164B0F005D199B18DC6A012C0A
S11329A010D0022C1BD0002C1FD12800FFF710FFE1
S11329B0864205D8320039002800FFF712FF3400A0
S11329C02000F8BD2800FFF703FF3400864200D939
S11329D00400220039002800FFF703FFF0E732006B
S11329E02800FFF716FF0400EAE70024E8E7C046E2
S11329F00C010020F8B50B4B04001B780E001700E7
S1132A00002B01D1FFF732FFEFF31085012181F391
S1132A1010883A0031002000FFF7B6FF85F31088D4
S1132A20F8BDC0460C01002070B5050008000C007C
S1132A30FDF782FF210002002800FFF7DBFF70BDD5
S1132A4013B56B46DC1D012221000020FFF78EFF29
S1132A50012801D1207816BD01204042FBE7000087
S1132A60F7B5164C0193237805000F001600002BD0
S1132A7001D1FFF7FBFE2369AB421CD9EFF31082AF
S1132A80012181F31088002D0CD01823691C5943AF
S1132A906B43675061184E600199E3181962002175
S1132AA09962596218204543089B6419E36282F3D2
S1132AB010880020FEBD01204042FBE70C010020ED
S1132AC0826810B504004068531C834205D820680E
S1132AD08154A360E3680133E360A26863689A42A7
S1132AE009D121682069FFF785FFA368984203D0C4
S1132AF001235B42E36010BD0023A360FBE70000F9
S1132B00F0B5050017000800012685B00A9C029163
S1132B100093B84219D2009A0196964200D20192CB
S1132B2001230B9A1A4003920B9A1A4202D1002CE9
S1132B3010D10024EB680126002B4BDB009B012BFA
S1132B401FD9013B00937E43F8E73900FEF70CF8E8
S1132B500136DEE70B9B20269B0704D5009B10362D
S1132B60002B00D0103E019BA342E3D23100280089
S1132B70FFF7A6FFEB68013C002BDBDB002CF2D156
S1132B80D7E731000298FDF7EFFF8742DBD90298BF
S1132B903100FEF76FF8114B0291195C2800FFF722
S1132BA08FFFEB68002B05DB39003000FDF7DCFFFD
S1132BB0BE4211D2039B002B0CD0002C0AD0019BE7
S1132BC0A34207D220212800FFF77AFFEB68013CDB
S1132BD0002BF2DA05B0F0BD0600D8E7D56C000092
S1132BE0F0B58FB007900E001800149915000693E5
S1132BF0FDF7B8FC069B079A0993149B0D920A9360
S1132C0000230B930C9331780136002907D10C9BD8
S1132C100293002B00DD09E10C980FB0F0BD2529CB
S1132C2000D0B3E000270822042006E0302B0DD1A9
S1132C30022300E001231F430E003378711C2D2B67
S1132C40F8D0F3D8232B10D02B2B0CD000240A213E
S1132C503378721C18003038092808D84C43303CAB
S1132C6016001C19F4E70743E6E71743E4E70021DD
S1132C7002912E2B0ED116000A203278711C1300FB
S1132C80303B092B06D8029B0E004343303BD3183C
S1132C900293F2E7042331780A0001369A43682A42
S1132CA001D13178F8E7782909D86F290BD863293D
S1132CB067D017D8252969D0582900D195E00C9BF5
S1132CC0002BA0DAA3E7703908000829F7D8FDF72C
S1132CD041FFA500F6FFF6FF9400F6FF8300F6FF20
S1132CE0F6FF8C006429EAD12B681A1D1B682A6040
S1132CF0DA1798180393012350400493092849DCF8
S1132D00029B049A0593934200D20592002C05D0AD
S1132D10039B002B01DB7B0700D5013C02231F42F0
S1132D2002D0029B002B05D001231F4202D1002CAC
S1132D3036D100240C9B0493002BC0DB039B002B97
S1132D403ADA2D215B42039309A8FFF7B9FE0C9BE5
S1132D50002BB4DB03233B40022B05D1029B002B49
S1132D6002D1002C2CD100240C9B0493002BA6DB55
S1132D700A22029B03990197009409A8FFF7C0FE59
S1132D809DE72B6819681A1D2A60C9B209A8FFF7C4
S1132D9097FE94E70A21FDF771FF049B0133ACE72A
S1132DA0059BA342C6D2202109A8FFF789FE0C9BEC
S1132DB0013C002BBBDABDE77B07C8D52B21C3E759
S1132DC0059BA342D0D2302109A8FFF779FE0C9BC2
S1132DD0013C002BC5DAC7E70A22296801970B1DBD
S1132DE02B60029B00940968C7E7296801970B1DB3
S1132DF02B60029B00941022F5E72B681A1D2A60B1
S1132E001C6821780134002900D158E709A8FFF78C
S1132E1057FE0C9B0293002BF3DA50E729680B1D35
S1132E202B600023019308330093E4E70B9A002AF4
S1132E3003D006990798FFF7DDFD0C9B02930B9BCB
S1132E400393039A029B944663440C93E4E60000C4
S1132E5037B50E25FF350400280001F0B5F80A2027
S1132E6000F0E1FB280001F0BDF80C2001F0BAF8F5
S1132E70FA23084A9B0014700021019301230800DF
S1132E800093054B02F0E8F80400280001F09CF8D8
S1132E9020003EBD0C020020EC010020C02310B530
S1132EA08024854A9B001360844A64001360FEF703
S1132EB011FC834B20001C60824B1C60824B1C6005
S1132EC001F082F8642000F0AEFB200001F08AF8E3
S1132ED0642000F0A8FB200001F076F8642000F0E4
S1132EE0A2FBAE20FFF7B4FFA020FFF7B1FF7220D2
S1132EF0FFF7AEFFA120FFF7ABFF0020FFF7A8FF0D
S1132F00A220FFF7A5FF0020FFF7A2FFA420FFF7F0
S1132F109FFFA820FFF79CFF3F20FFF799FFAD20FC
S1132F20FFF796FF8E20FFF793FFB020FFF790FF87
S1132F300B20FFF78DFFB120FFF78AFF3120FFF749
S1132F4087FFB320FFF784FFF020FFF781FF8A207B
S1132F50FFF77EFF6420FFF77BFF8B20FFF778FFEE
S1132F607820FFF775FF8A20FFF772FF6420FFF7D0
S1132F706FFFBB20FFF76CFF3A20FFF769FFBE200D
S1132F80FFF766FF3E20FFF763FF8720FFF760FF30
S1132F900620FFF75DFF8120FFF75AFF9120FFF71E
S1132FA057FF8220FFF754FF5020FFF751FF832083
S1132FB0FFF74EFF7D20FFF74BFFAF20FFF748FFE1
S1132FC042490020FFF730FD2620FFF741FF012092
S1132FD0FFF73EFF3E490020FFF726FD2520FFF7BF
S1132FE037FF0020FFF734FF0020FFF731FF5F2099
S1132FF0FFF72EFF3F20FFF72BFF36490020FFF796
S113300013FD8A20FFF724FFFF20FFF721FF8B2009
S1133010FFF71EFFFF20FFF71BFF8C20FFF718FFB1
S1133020FF20FFF715FFBB20FFF712FF3E20FFF73D
S11330300FFF8720FFF70CFF0F20FFF709FF812008
S1133040FFF706FFFF20FFF703FF8220FFF700FFD3
S1133050FF20FFF7FDFE8320FFF7FAFEFF20FFF7B6
S1133060F7FEAF20FFF7F4FE2220FFF7F1FE002069
S1133070FFF7EEFE0020FFF7EBFE5F20FFF7E8FE10
S11330803F20FFF7E5FE0020FFF7E2FE3F20FFF7B9
S1133090DFFE0020FFF7DCFE0020FFF7D9FE3F2013
S11330A0FFF7D6FE0020FFF7D3FE0B490020FFF701
S11330B0BBFC002010BDC04620901454249014542E
S11330C034A014543090145400A01454E56C00003F
S11330D00E6D00002D6D00004B6D0000F8B5434EE1
S11330E0F08880B2FEF76AFB414F42480023F95E44
S11330F0FEF76AFB02210120FFF7BCFA012104005C
S11331003D48FEF761FB3D48002C53D18025B37840
S1133110F278D9B2D4B29B0192081343AD01384A74
S11331206B409B1837483B80FEF74EFB2100364826
S1133130FEF74AFB0023F95E3448FEF745FB344FA3
S113314034480023F95EFEF73FFB02210320FFF71A
S113315091FA032104003048FEF736FB2F48002C77
S113316028D1B378F278D9B2D4B29B019208134330
S1133170234A6B409B182A483B80FEF725FB21001D
S11331802848FEF721FB0023F95E2748FEF71CFBC5
S1133190264F27480023F95EFEF716FB022105207F
S11331A0FFF768FA052104002248FEF70DFB002C06
S11331B004D02148FEF708FB2000F8BDB378F2786C
S11331C0D9B2D6B29B01920813435D400C4B1B4805
S11331D0ED183D80FEF7F8FA31001948FEF7F4FACD
S11331E00023F95E1748FEF7EFFAE5E7F0FFFF1F4B
S11331F0A40200206B6D00008D6D0000BF6D000007
S113320000E0FFFFE46D0000EF6D0000FA6D0000C8
S1133210A60200200E6E0000306E0000626E0000F8
S1133220876E0000926E00009D6E0000A8020020D0
S1133230B16E0000D36E0000056F00002A6F00001D
S1133240356F0000406F0000F0B5564887B0FEF7B8
S1133250BBFAFFF743FF5448FEF7B6FA0023534C7A
S113326001222100524F534E3B60013B3360524BCD
S11332705888013218804868023301C1132AF7D1F3
S11332804E4B0020185EFDF761F94D4B18804D4BF5
S11332900020185EFDF75AF94B4D4C4B2880002056
S11332A0185EFDF753F94A4B454A80B211881880DD
S11332B02B880A1C994200D21A1C91B2454B8842B1
S11332C042D81A80002519883B4B43489984FEF75D
S11332D07BFA05944149384A6B009A5A5B5E05981B
S11332E01900514301600291009329002B003C48CE
S11332F00195FEF769FA059B3A681B68934200D969
S11333003B603268934200D23360059B013504333D
S11333100593132DDED132683968324D8B1A5B0860
S113332031482B60FEF750FA0023012128681A0067
S11333300D002E4E33602768874207D96768B8426C
S113334009D92B00013206E01880BBE7874202D27C
S11333506768B842F5D3013104341329EBD1002B4B
S113336000D03260224B30681A884408A418A4B2F2
S11333701C80FDF7DBFF1F4A1F4BFDF76BFD00228E
S11333800023FDF767FDFEF73FF81C4B1860FDF7BF
S1133390F3FF02000B001A482100FEF715FA07B0EC
S11333A0F0BDC046546F0000786F00005402002046
S11333B0B4020020B80200202C020020A402002045
S11333C0AA020020A6020020AC020020A8020020CD
S11333D0AE020020B0020020A16F000090FEFF1F8B
S11333E0C36F0000A00200200D700000BC0200208A
S11333F0C0020020B6F3FDD478E9E63FC402002001
S11334003970000010B5002000F0FAFD10BD10B5B1
S1133410002001F02DFD10BD10B5002001F006FACA
S113342010BD0000082310B5164A9178194202D045
S113343091780B439370882100222220124B49017A
S11334405A501249124C08708020124940025850B8
S11334501968114801401960195910480840C021E1
S113346089040143195180210D4B1A7219767F3951
S11334701A7059700B490A700C3299791142FCD1B7
S113348010BDC04600D007400070044000E0074073
S11334900410000044100000FFFFF3FFFFFFFFF0E3
S11334A000400640005006401249134810B58142BE
S11334B005D00022114B9B089B009A420FD1104B60
S11334C0104A9960002310491048521A9A420AD1AE
S11334D000210F4B0F4AD21A013A08D210BD84586A
S11334E08C500432E9E7CC5CC4540133EEE7197024
S11334F00133F1E7000000000000000000000000BC
S113350000ED00E0F8720000C071000000FEFF1F33
S113351038FFFF1F6803002003004170002018706B
S113352058609860704710B5437804000120FF2B61
S113353008D000F0DDFA63780133DBB2637000F089
S1133540CBFA002010BD0020704770B504000D00B8
S113355000F0CEFAE1682943E16000F0BDFA0020F2
S113356070BD000000220A4B9A641A0040329A632C
S11335701A0030329A621A0020329A611A0010320C
S11335809A60044A1360044B9B60DB607047C0463A
S1133590CC020020C80200201C0300200022024BA1
S11335A01A60186880B270470C007C5070B543787C
S11335B004000D00002B0BD0002500F099FA63786D
S11335C0013BDBB26370257000F086FA280070BD01
S11335D002200029FBD02378002B17D0FFF7DEFF51
S11335E06368A268834204D8C01A824206D30320C7
S11335F0EDE7C01A80235B02C018F6E700F078FA02
S11336000023237000F068FA0220E0E74B1CEED0A0
S113361000F06EFA0123237000F05EFAFFF7BEFF9C
S1133620A5606060E3E770B50500FFF7B7FF80268B
S113363004007602FFF7B2FF0300844203D8031BA1
S11336409D42F7D270BD301BC318F9E710B50128AD
S113365001D100F04DFA10BD10B5012801D100F0E0
S11336603BFA10BD10B5FFF77DFF01230020084A87
S113367008491360084A094C10600860042121605D
S1133680074C216007490B6007490860136010BDAF
S1133690388004500000845000000450000004519D
S11336A00400045104000C500000045310B5044CF1
S11336B0206021710020A2602373637310BDC04693
S11336C02C0300200422F0B587B005AC3B4E0190DA
S11336D002912070617033790092834226D90022CE
S11336E0337B1500737301230092A3700393334F4C
S11336F03B7BAB421DD8009B002B02D0029B012BCD
S113370048D10120FFF7A2FF0C20019B002558435C
S11337103368181800F0D6F8019B01207371022653
S1133720FFF79AFFA6703B7BAB421AD8009807B00C
S1133730F0BDBA68AB009B58002B0FD01A790399DF
S11337400A420BD020001A6899689047002805D0D7
S1133750029B7D73002B1BD0052300930135EDB232
S1133760C5E7BA68AB009B58002B0ED01A793242D9
S11337700BD020001A6899689047002805D0029B56
S11337807D73002B17D0062300930135EDB2CAE7F1
S1133790052300930023A370013DEDB2FF2DC5D096
S11337A0064BAA009B68D358002BF5D020001A685A
S11337B099689047F0E706230093B7E72C030020AD
S11337C0014B58797047C0462C03002013B5040000
S11337D0002021780190022920D0032922D0012938
S11337E025D1227901AB144801F00AF9002814D13B
S11337F0A3795A1E9341114ADB01137063785A1E50
S113380093410F4A5B001370A2780E4B1A70E27852
S11338100D4B1A7062790D4B1A7016BD0100227996
S113382001ABE0E701A9044801F02CF9DEE701A9A6
S1133830014801F0C9F8D9E7004006401840865312
S11338400040865000400650014006501840165073
S1133850084A43099B009B18F822C0051205104032
S1133860184380235B0518430068431E9841C0B287
S11338707047C04628800440074A43099B009B18B0
S1133880F822C00512051040184380235B05184335
S1133890002303607047C04628800440F821084A8A
S11338A043099B009B180905C2050A401343802263
S11338B0520513431F2210401E3A82401A6070477B
S11338C028800440072373B5009300230400104D9F
S11338D01A000121280001F0BDFA2000FFF776FF4D
S11338E0637A280000930023217A1A0001F0B2FAC7
S11338F0E379084A9B041360074BA17A1D682800EA
S113390001F0DCF82800E17A01F0E7F8002076BD48
S11339100070044000700C59B870000010B50548E0
S113392001F012F8044B1968C9B20131FDF71CF912
S113393010BDC0460040064044801C5E10B5FFF731
S1133940EDFF10BD10B5054800F0FEFF044B1968EB
S1133950C9B20131FDF708F910BDC0460040064068
S11339604480145810B5FFF7EDFF10BD0B4B1B68D6
S1133970DBB2022B0CD0032B0DD00020834206D1E6
S1133980074A106880221202904200D01800704743
S1133990044B1868FBE7FA208000F8E700700C5924
S11339A0580300205C03002010B5FFF7DFFF10BDB3
S11339B0054B10B5186801F088F80023984201D02F
S11339C0024B1B68180010BDB8700000580300209B
S11339D0044B01201B6810B5DBB2002B01D0FFF7AC
S11339E0E7FF10BD0480045210B50C0012282AD839
S11339F0FDF7A6F80A0A0A0F290F12152929181B20
S1133A00292929291E222600FFF788FF206000208B
S1133A1010BDFFF797FFF9E7FFF7A8FFF6E7FFF7F9
S1133A20C7FFF3E70A4B2360F1E7FFF7D1FFEDE7A8
S1133A30084800F089FFE9E7064800F06FFFE5E772
S1133A40FA239B00EFE7002302202360E0E7C0464F
S1133A50006CDC020040064010B5024B185CFFF716
S1133A601DFF10BD5D70000010B5024B185CFFF720
S1133A70EFFE10BD5D70000010B5BB20FFF7E8FE3F
S1133A8010BD10B57620FFF709FF10BD10B57620E4
S1133A90FFF7F2FE10BD10B57620FFF7D9FE10BD7A
S1133AA010B56620FFF7FAFE10BD10B56620FFF7CB
S1133AB0E3FE10BD10B56620FFF7CAFE10BD10B5B9
S1133AC09420FFF7C5FE10BD10B5024B185CFFF73C
S1133AD0BFFE10BD5F700000044A1368002B04D0C1
S1133AE0013B1360002B00D162B670473C030020F9
S1133AF072B6024A13680133136070473C03002016
S1133B0010B5064C064801F037FC042801D100200A
S1133B1010BD013C002CF5D10320F9E7EA030000B5
S1133B2000E0074010B50B4B0B490A78002A07D078
S1133B30084C0A4801F020FC012806D1002003E0CB
S1133B40013B002BF1D1032010BD013C002CF0D12E
S1133B50F9E7C046EA03000002D0075100E007403D
S1133B60F7B507000E00150001200193002F15D0B2
S1133B70002913D0FFF76AFD094C10220021200010
S1133B80FCF7B0FD27602671002D03D0019BA560D2
S1133B90237363730120FFF75FFD0020FEBDC04661
S1133BA040030020F0B5B14C8DB002900391237B0B
S1133BB001206373FFF74AFD2379029A934206D8E2
S1133BC00120FFF749FD022738000DB0F0BD029A2D
S1133BD023689200D35809AC1D780193039B2A00F3
S1133BE02372029B2370019B636002239A43049215
S1133BF0012A01D0052D0AD101219D4801F010FBB5
S1133C00002807D10120FFF727FD0127DCE7032166
S1133C10072DF2D80123002763723C000593934ECD
S1133C20337BA3422AD80120FFF716FD914800F008
S1133C30AFFE049B012B4AD10138022835D9039BDE
S1133C40012B00D00DE106270120FFF7FFFC002324
S1133C50012609AD6B72013CE4B2FF2C00D1AFE048
S1133C60824BA2009B68D358002BF4D01A793242BD
S1133C70F1D028001A6899689047ECE7B268A3006D
S1133C809B58002B0ED01A7905990A420AD01A685B
S1133C90996809A89047002804D0039B04277473EB
S1133CA0012BC0D10134E4B2B9E7FFF75BFE724BDC
S1133CB09842C4D8FFF732FE704EB042BFD8FFF727
S1133CC041FEB042BBD8FFF739FEB042B7D8039BE0
S1133CD0012B00D0C1E00A2D00D9BCE02800FCF77C
S1133CE02FFF060A0D1E879A7B822F73780000220D
S1133CF007AB1A702DE0032207ABFAE75C4801F02A
S1133D003BFB012808D00021594801F099FAFFF73C
S1133D1009FF071E00D057E7012207ABE9E7544823
S1133D2001F02AFB042808D00221514801F088FA46
S1133D30FFF7E6FE071E00D046E7042207ABD8E7EC
S1133D40072207AB1A80019AD2789A70019A1279E5
S1133D50DA702B00083B022B06D8019B06AA5B797C
S1133D609372019B9B79D372019B5B78002B0AD0E1
S1133D70012D08D9019B02229978414B00294DD08D
S1133D8019690A431A613A4807A901F07DFA002823
S1133D9000D00327002D45D1FFF7C4FE071E00D035
S1133DA012E700270120FFF751FC029B2F4D00244E
S1133DB0AB73022309AE737201932B7BA34236D8F3
S1133DC00120FFF749FCFFE6082207ABFF321A8007
S1133DD0BFE72C4A07ABFAE7022207AB1A700222AC
S1133DE0FF329A80B5E7022207AB1A70264AF8E739
S1133DF0022207AB1A70013A1D489A8001F0BCFAFE
S1133E000128A6D000211A4801F01AFAFFF78AFE09
S1133E10071E9ED0D8E6052207AB6AE719699143CD
S1133E201961B0E7012DBDD1FFF76AFEB6E7AA68B4
S1133E30A3009B58002B0BD01A7901990A4207D092
S1133E4030001A6899689047002801D005276C73E0
S1133E500134E4B2B1E70327B6E6002F00D13AE714
S1133E60F2E6002F00D0EFE6EDE6C0464003002066
S1133E7000E007400040064040420F0080841E00DE
S1133E8000ED00E0070300000102000010B5064841
S1133E9001F072FA03000020012B03D00B30042B35
S1133EA000D10A3810BDC04600E00740F7B5FF2432
S1133EB003681D4A1E0A26401C40B3009F581B4A33
S1133EC005009B5830000193FFF7C6FD0022210036
S1133ED0380001F059FA019BA400E41884232A79DC
S1133EE05B05234352001A6080236A795B052343F0
S1133EF01A609023AA795B05234312011A600C4BC4
S1133F001C43EB791B042360EB79002B0AD0094B8B
S1133F109B57002B06D01F2213401E3A9A401300D1
S1133F20054A1360F7BDC046BC700000C4700000B1
S1133F3000001818CC70000000E100E0F8B5FF2480
S1133F4005000368114A180A20401C4083009F584A
S1133F500F4A9E58FFF780FD38002100012201F02E
S1133F6013FA6A682100380001F01DFA88232A7ABE
S1133F70A400A4195B05234392001A6098235B05EF
S1133F801C436B7A9B012360F8BDC046BC700000E3
S1133F90C470000070B50C00002807D1002C0FD1AC
S1133FA070BD05000835FFF781FF28000368013361
S1133FB0F7D1F3E7250020000C35FFF7BFFF2C00F5
S1133FC023680133F6D1EBE7FF22030A04491340C7
S1133FD09B0059580123104083404B607047C046F2
S1133FE0BC700000FF22030A044913409B00595887
S1133FF00123104083408B607047C046BC700000B2
S1134000084B8200D258942310B502325B05134347
S11340101B78002B02D000F03FFA10BD00F092FA9A
S1134020FBE7C04664700000020080230C325B058D
S113403013431A78002AFCD00171704770B50D0043
S1134040084B8000C458200029001830FFF7AEFA4E
S11340500328F8D0002801D004232374207CC0B2A4
S113406070BDC0465003002010B5104B8000C458EA
S1134070E37C002B05D0237C052B02D0237C042B6E
S11340800BD10B4B18589823821C5B051343002259
S11340901A7001F0F7F901236374A37C002B03D099
S11340A020001830FFF73FFA10BDC046500300202F
S11340B064700000F0B51700002289B005930EABC0
S11340C01B7805000393830032481E5832481C585D
S11340D007AB1A80A37C880A04930223FF3363820C
S11340E08B0A0193CBB21E2801D11A000B0A5B0084
S11340F0D8B2019B00211E2B05D08F4203D101238E
S113410003995B1A59B20143CBB202930299019805
S113411007AB197001211E2801D15A704918A360F8
S11341203000E1600299FFF77FFF28000F99FFF745
S113413085FF237C002B0CD1002F0AD0059BA760A0
S1134140E36030003978FFF76FFF28000F99FFF71D
S113415075FF237C039A1A4314D1019B1E2B01D0B3
S1134160002F0FD0002301273000A360E76001F087
S113417077F9029930003943FFF756FF28000F9969
S1134180FFF75CFF0023207CE374049BC0B2A3749C
S113419009B0F0BD6470000050030020F7B583003F
S11341A00193184B8200D75805000C000126002FFC
S11341B026D1154B3900D358200024220193FCF753
S11341C091FA200039001830FFF7A6F92800FFF70C
S11341D067FC019801F0EFF80A4BAA00D4501F22A3
S11341E00A4B5B5D134032009A40094B1A609C22D3
S11341F0019B520502331343802266743E001A70F9
S11342003000FEBD500300206470000068700000A0
S113421000E100E0F7B50E4E8500AB59002701938D
S11342200C4B0400EA589C2302325B0513431F70B5
S1134230FFF73BFC084B01981A5D1F231A401E3BF5
S11342409340064A1830D367FFF77DF9AF51F7BDA5
S113425050030020647000006870000004E100E076
S11342600A4B800070B5C5584B686A690C009342CC
S11342700BD0074BC658FFF765FB002301006268AB
S1134280300001F0A7F863686B6170BD5003002033
S113429064700000F0B587B004920593334A0FAB05
S11342A01E7883009C580391627C0700002A03D186
S11342B00320207407B0F0BD002E01D11E220E92FF
S11342C02B4A3800D55800230399E360A360237474
S11342D023606374A674FFF7C3FF90231021AA1C04
S11342E05B05134319708423E91C5B050B4302210E
S11342F0197098235B05134302934023029A280004
S1134300137001F0ADF8039B380019880E9B049AD2
S1134310019301230093059BFFF7CCFE0D9B002B1B
S113432017D0237C002B11D10C9B2800A3600D9B7C
S1134330E3600C9B1978FFF777FE002E03D038005A
S11343400E99FFF77BFE207CC0B2B3E7237C042BDD
S1134350F9D100230126029A1370EB785B093342EA
S113436002D0280001F08EF86674ECE750030020B8
S113437064700000F0B589B0079311AB1B78069206
S1134380364A029383009C580591627C0600002AF9
S113439003D10320207409B0F0BD029A002A01D190
S11343A01E32109200272E4A0599D5580E9B3000D4
S11343B023600F9BA7606360029BE760A37427746C
S11343C06774FFF74DFF9023AA1C5B051A43102363
S11343D01370842304925B05EA1C134302221A70AF
S11343E09823AA185B051A434023280013700392EC
S11343F001F036F8059B069A1988109B300001934A
S11344000097079BFFF756FE237CDAB2BB4215D117
S1134410049BA91C1A708C235B050B430F9901297B
S113442000D108221A702B79029B002B03D0300094
S11344301099FFF703FE207CC0B2ACE7237C042B69
S1134440F9D10126039B1F70EB785B09334202D03C
S1134450280001F017F86674EDE7C0465003002009
S1134460647000001FB501240394089C0294079C07
S11344700194069C0094FFF70DFF04B010BD1FB516
S113448001240394089C0294079C0194069C0094C4
S1134490FFF770FF04B010BD244B70B58400E558DD
S11344A08423EA1C5B05134302221A709023A91883
S11344B05B050B431B78EA78DBB292061DD5942288
S11344C052050A431278002A17D0194AA458012B1E
S11344D014D1EA781A4204D004332374FFF7C4FDDC
S11344E00BE0E368013BE360002BF7D0A3682800EE
S11344F05A1CA2605978FFF797FD70BD6268013AB3
S11345006260002A06D08C235B05012A0AD00022AF
S11345100B4309E0FFF7A8FD23685A1C22602A799F
S11345201A70EAE708220B431A70F5E7647000007A
S113453050030020C31C8420400518430223037049
S1134540704700000122F0B5904B8100CD5889B02E
S1134550EB1C0193EB7890261B091A40059201226B
S1134560EB7876059B091A4002923200AB1D1A4380
S1134570944612780090D2B20792942252051A43BC
S11345801278AF1CD0B203909820400503431878EA
S1134590C0B206907E480C58310039430191097825
S11345A0C9B20491002A35D0079A002A0ED01023EC
S11345B0624628001370FFF7BDFF236B002B52D017
S11345C06A4601211078626B98474CE0069A002AEB
S11345D020D0402228001A70FFF7ACFF23002C33B0
S11345E01B78002B03D19822520517433B70236B91
S11345F0002B04D06A4680211078626B9847E37DD3
S1134600002B04D0200080211830FEF79EFF0A23DF
S1134610237028E02800FFF78DFF059B002B24D092
S1134620EB1C1E4310233370029B002B10D0EB783D
S11346305B07DA0F002B48DB019B1A70236B002BFE
S113464004D06A4604211078626B98472B790AE0FB
S1134650082323702C342378002B04D198235B0582
S11346601F43029B3B7009B0F0BD029B002BDED1BF
S1134670049B012B54D1EB78049A134230D0019B54
S1134680029A1A702B7923002C331B78002B07D144
S1134690039B002B04D198235B051F43039B3B70B2
S11346A0236B002B04D06A4608211078626B98476C
S11346B0A37D002B04D0200008211830FEF745FF0D
S11346C000236360E3602375CDE71023019A137020
S11346D0236B002B04D06A4602211078626B984742
S11346E06368002B50D028008022E3680C30520508
S11346F01978024310780028FCD029710133E36053
S11347006368013B63606368002BACD1E36023758D
S1134710236B002BA7D06A4610211078626B53E7F5
S11347202B79A268DBB2002A2CD02269137023698A
S113473001332361A368013BA360A368002B00D06D
S113474091E7039B002B11D123002C331B78002B02
S113475004D198235B051F43039B3B70E37D002B2F
S113476004D0200020211830FEF7EFFE00236375EB
S11347702361236B002B00D175E76A462021107852
S1134780626B21E7072343E7062341E764700000D7
S113479050030020042902D0072907D07047902332
S11347A003305B05184310230370F7E79C230330A1
S11347B05B0518438023F7E7DC2270B50024094B1E
S11347C08000C558084B5205C35808331A43146077
S11347D0AA7CA24203D028001430FEF7A4FE2C7455
S11347E070BDC046540300206C7000000C4B800068
S11347F070B5C5580B4B0024C058D42302005B0588
S1134800083213431C602200074900F05CFEEB7C75
S1134810A34203D028002030FEF785FE6C7470BDDF
S1134820540300206C7000001B000200F8B52B4AF2
S113483083009C580600227C002A02D1627C002A54
S11348403ED0274AD558DC232F005B051A000837D1
S11348503A431268002A15D02A1D13431B68002B03
S113486010D0A368002B0DD023681A780133EA60B6
S11348702360A368013BA360A368002B02D130002E
S1134880FFF79AFFD4235B051F433A68002A0DD033
S11348902A1D13431B68002B08D0EB686268137051
S11348A0E36A002B0DD021003000984728000D4901
S11348B000F04AFE002803D028000A4900F048FE10
S11348C0F8BD636801336360E368013BE360E36858
S11348D0002BEBD13000FFF789FFE7E754030020FA
S11348E06C70000013000100842252050243127808
S11348F00300D0B2002A0CD08020013340050343CA
S11349001878013843425841024B40421840024B48
S1134910C0187047808D5B0080841E00020070B553
S1134920074B083213431C78064B103213431D788F
S1134930FFF7DAFFEDB2E4B26419E04070BDC0469F
S1134940000090100000101010B50D4B821D134391
S11349501A780400D3B2002A0FD0012B07D1FFF735
S1134960C3FF084B08341C432378D84010BD0020F3
S1134970022BFBD1044B1868F8E70448F6E7C0465D
S1134980000008110000901058030020006CDC02A5
S11349900C4A811D0A4312780300D0B2012A04D0C4
S11349A002280BD000280BD1704780220133520516
S11349B013431B78002BF7D10220F5E70320F3E71C
S11349C00520F1E70000081102009C2318325B0562
S11349D0134380221A700022064B03431A70064BBD
S11349E0063018430378DAB2002BFBD1034B1000D6
S11349F00B6070470000081300000811006CDC0213
S1134A00F8B504000D0016001F00FFF7C1FF0128D0
S1134A1023D1002D25D08023621C5B0513431D7018
S1134A20842302225B0523431A702200104B0832B0
S1134A3013437200D2B21A7040220E4B0E48234325
S1134A4006341A7004432378012BFCD1002D0DD1B8
S1134A500A4B334100203B60F8BD0228DBD1012D15
S1134A60D9D139002000FFF7AFFFD4E7044BF0E7BA
S1134A7000009010000008130000081180841E003C
S1134A8000127A0010B50A4C030022680120002AA3
S1134A900CD0084A7F301A4310700748063303438A
S1134AA01A78022AFCD1002023680B6010BDC0468E
S1134AB05803002000000813000008119C23C901BA
S1134AC05B050343C9B2197070479C235B0503431C
S1134AD01878431E9841C0B27047942349015B057E
S1134AE00343C9B21970704770B506680C003000F2
S1134AF02049FCF739F81F4905003000FCF7BAF8E3
S1134B000E00E12130000901FCF72EF8E121E080DC
S1134B1009013000FCF7AEF80E003C213000FCF730
S1134B2023F83C2120813000FCF7A4F86E22A17206
S1134B300321114BFF322380238895420AD80F4961
S1134B409B0700D10E490123CA5CAA420CD363809F
S1134B50A58070BD01339BB223800B40AD1A5A422D
S1134B605A416E32FF32E7E70133AD1A0D2BEBD118
S1134B70EEE7C04680510100B207000098700000C3
S1134B80707000000188114A03008A18002030B5B3
S1134B90812A17D85A88541E0B2C13D89C88651E5A
S1134BA01E2D0FD8DD88172D0CD81D893B2D09D853
S1134BB09B7A3B2B06D88B0705D0054B9B5CA34205
S1134BC04041C0B230BD034BF8E7C0464EF8FFFF8A
S1134BD0987000007070000070B5134D83880288CF
S1134BE05B196E25FF35554344885B1995085B199D
S1134BF00E4D6600755B5B19920710D00B600A6856
S1134C000B4BC4885343827A00899B18E12212011A
S1134C1062439B183C2242439B180B6070BD022CDC
S1134C20ECD8013BEAE7C0464A05F5FF7E70000078
S1134C30805101008023084A1B0212689A4209D15C
S1134C40A02310305B0518430368002B02D1013305
S1134C50FF3303607047C0465803002001008022E0
S1134C6010B5002301245205103111430C600B6070
S1134C7090214360490504601C3001430B60882186
S1134C80490501430B6084214905014310430B602E
S1134C90036010BD0200902314325B05134300220D
S1134CA01A604260103201601A60704703680B603A
S1134CB070470000104B820070B5D5588022040064
S1134CC00E4B92051A602800FFF7C8FF2800FFF773
S1134CD0B1FF0B4B1F261A5D01231800094932400E
S1134CE0095DC025314090408B40074A6D0050510A
S1134CF053511060136070BDA87000003C80845E46
S1134D00AC700000AD70000000E100E0F7B50027D2
S1134D10114B8000C55808000E000197FFF732FFC1
S1134D200400B84216D001A93000FFF755FF38003F
S1134D30FEF73AFE010080200002814206D0FBF714
S1134D4013FF01000198FBF70FFF01902800019960
S1134D50FFF7A0FF2000FEBDA8700000F7B50025F6
S1134D60124B8000C4580E00200001A90195FFF7E2
S1134D709DFF2800FEF718FE0500802000028542F2
S1134D800ED00B4B290004341C43FBF7EDFE2768BF
S1134D90019C29004443B8B2FBF7E6FE24180194B1
S1134DA0310001A8FFF7A0FEF7BDC046A8700000BF
S1134DB000007810F0B50027184B800085B0C55866
S1134DC008000E0001920397FFF7DCFE0400B842CE
S1134DD003D10024200005B0F0BD300003A9FFF783
S1134DE0FBFE38002E68FEF7DFFD01008020000284
S1134DF0814206D0FBF7B8FE01000398FBF7B4FE2E
S1134E000390039BB342E4D3AB6088231C355B055A
S1134E101D43019B9A002A60DCE7C046A87000008D
S1134E20044B8000C25888231C325B05134389005D
S1134E3019607047A8700000054B8000C258882391
S1134E4014325B0513431868431E9841C0B270477F
S1134E50A87000006B46E0221B78D2021B041340AA
S1134E60024A09070B43801803607047441000008E
S1134E70084B8200D258902310B503325B051343CC
S1134E801B78002B02D000F013F910BD00F078F964
S1134E90FBE7C046B07000009C210C4B0C4A80001C
S1134EA0C3588258002003324905114310B51871C4
S1134EB00870942149050A4310701A7F824203D076
S1134EC020331800FEF72FFB10BDC04660030020FE
S1134ED0B0700000F7B50C0005001B4B3022002118
S1134EE087002000FE58FBF7FDFB2800FEF7C9FDF4
S1134EF0FEF728FD2060300000F080FB2000002138
S1134F002030FEF709FBF31C01939023F21C5B0590
S1134F101343102230001A70032100F0ADFB30005F
S1134F20002100F0CEFB094BFC50094B5A5D1F23B6
S1134F301A401E3B9340074A13609823019A5B056D
S1134F40134340221A70F7BDB070000060030020C4
S1134F50B470000000E100E0F8B50D4E85000D4B83
S1134F60AF590400E85800F049FB38002030FEF740
S1134F70EAFA094B20001A5D1F231A401E3B934096
S1134F80064AD367FEF782FD0023AB51F8BDC04645
S1134F9060030020B0700000B470000004E100E081
S1134FA00A4B800070B5C658094B0C00C358150055
S1134FB030001A68096800F028FB2860A3793000E3
S1134FC06279217900F06AFB70BDC046B0700000C0
S1134FD060030020F7B51E4A83009C58050022791F
S1134FE00420002A16D11B4A9E58002903D0280009
S1134FF001AAFFF7D5FF982300214020F21C5B058E
S113500013431970187027698F4204D12800FFF7E1
S113501043FF0020FEBD0123237194235B05A1619E
S113502033431B780720002BF4D0A368191E02D049
S113503019780133A360B1712369013B2361A3692A
S11350400133A3619C235B051A4380231370E0E7BB
S113505060030020B0700000F8B5134F134C8500B6
S11350602C59ED590127069E2777A2602661E3603B
S11350706661FFF7AFFF002814D1200007992030A4
S1135080FEF794FA0328F8D000280BD09C230022C2
S113509003355B052B4322711A70942303205B05AF
S11350A01D432A70F8BDC046B070000060030020A4
S11350B010B51E4B8200D3581979002934D01C49ED
S11350C051585A69002A11D09C2252050A43127879
S11350D0002A0BD08A79DC68D2B2002C03D022706B
S11350E0DA680132DA605A69013A5A611A69002AA7
S11350F012D0942252050A431278002A0CD09A68DE
S1135100141E02D0147801329A608C711A69013A23
S11351101A619A6901329A611A69002A04D15B6999
S1135120002B01D1FFF7B8FE10BDC046600300207C
S1135130B0700000104A8000815800220F4B10B557
S1135140C3580331581CC2779C2040050843DA62D7
S11351501A701A835A629A621A6302709420400584
S113516001430A701A0038321278002A03D0012150
S1135170181DFEF7EAF910BDB070000060030020AE
S113518070B5254B8200D358591CC97F002942D0E1
S113519022495258D96A002917DB94214905114341
S11351A00978002911D0D969CCB2596A002905D0EF
S11351B0DD6A002D02DD0C78013159629471D96ADF
S11351C00139D962596B01315963D96A002905DA69
S11351D09421D41C4905214300240C70196B002927
S11351E011DD9C2149051143097800290BD09279DE
S11351F0996AD2B2002903D00A709A6A01329A627B
S11352001A6B013A1A63DA6A002A04DC1B6B002B5E
S113521001DCFFF78FFF70BD60030020B070000059
S1135220012903D0032909D00020704794235B058A
S113523018430078431E9841C0B2F6E78423F6E78A
S1135240431C034849011843C9B201707047C04662
S113525000008812831C9420490140051843C9B2F8
S113526001707047831C034889011843C9B2017057
S11352707047C04600000813831C8C20C9004005F9
S11352801843C9B201707047F7B50400364EE31CE9
S11352901E43337808780D00DBB2072860D8FBF78B
S11352A04FFC04192B0E192B2B45304B01341C4396
S11352B0002323703378012BFCD10020FEBD012B89
S11352C0FCD12A4B01341C43402323703378042B34
S11352D0FCD1F2E70021012801D004200231337807
S11352E098423FD12000FFF7ABFF0421204A136905
S11352F08B43136130BFE0E70227B84207D1002790
S11353000B79BB4203D020004979FFF7ABFF194B5F
S113531001341C4327703378154ADBB20193019B97
S113532001330193042311690B43E2E70421114B78
S1135330621C1A4311706A78A11C0B431A70002A6C
S113534006D1AB78002B03D02000E978FFF782FF69
S1135350AB79002BDFD02000E979FFF78DFFDAE786
S11353600120ABE70320A9E70000301000008812F9
S113537000ED00E000001010C31C02481843007840
S1135380C0B2704700003010012314308B40012A52
S113539004D1802212051043036070478022D20496
S11353A0DB431043F8E701238B40002A01D043601C
S11353B070478360FCE70023C2220370437083704C
S11353C0C37043718371C371037242728372C37277
S11353D070470000F0B5002487B00293FA23012639
S11353E0270025009B0053430390049100930194EC
S11353F07642AB000593194BAA009B185988049870
S1135400A140FBF7B1FB009B009AC31A824200D96A
S1135410131AB3421FD2114AA900525C2700019209
S1135420002B02D00135322D13D10134032C01D0CD
S1135430002B0DD1029A002A00D013603F2201995B
S1135440BB0111400B43039ADBB2537007B0F0BDAC
S113545000251E00CDE73300E4E7C046CE7000000F
S1135460942302305B0503431B78002B05D088236B
S11354705B05184304230370704780231B051843FE
S11354803023F8E7942210B55205841C2243117886
S11354900300CAB2022001290DD18021C90421438D
S11354A08024CD300870E4000333197849090800DA
S11354B01040114200D110BD013C002C01D0C04667
S11354C0F3E70920F7E7012310B58B400400080C2B
S11354D004280AD8FBF734FB030E14171A008020A3
S11354E0002A03D000050443236010BDC004DB433D
S11354F00443F9E7201D8024002A0AD02405F2E79A
S113550020000830F7E720000C30F4E720001030CA
S1135510F1E7E404EBE70200002300B5080C0428DB
S113552008D80133FBF70CFB03080A0C0E001068C3
S1135530C8400340180000BD5068F9E79068F7E7D9
S1135540D068F5E71069F3E710B5FFF7E4FF10BD85
S1135550294A0300881800B510284BD8FBF7F0FA45
S1135560433C27201912094A4A4A4A2E4A4A4A4ABF
S11355703500D02080220433400503435203002029
S11355801A6000BDCC20802204334005034312037B
S1135590F5E7C8208022043340050343D202EEE736
S11355A0C42080220433400503439202E7E7C0206D
S11355B080220433400503435202E0E7FC208022AA
S11355C00433400503431206D9E7F820802204334C
S11355D040050343D205D2E7BC20802204334005B2
S11355E003431202CBE7B82080220433400503436F
S11355F0D201C4E70320C4E7F2FFFEFF0423C37013
S113560000238370437003717047F0B5130B89B0A6
S11356100126039308230124764202939B190790E1
S113562004910592019302270025631E069321002D
S113563005987943FBF798FA049B834207D31B1A16
S1135640B34204D21E00069B0390029501930135D8
S11356507F00092D01D0002EE9D1082C02D001349D
S1135660002EE0D1019B029A1B0103981343079A71
S1135670DBB2537009B0F0BD842310B50224C21C00
S11356805B0513434A0022401A70902300195B05FE
S113569018431023C9001940017010BD10B58C24A3
S11356A003306405C9000443C9B221708821920003
S11356B049050143D2B20A70802252051043037097
S11356C010BD8023012202305B0503430A401A7097
S11356D08C235B0518430823890019400170704727
S11356E004FEFF1FE80F0000160F0000160F000055
S11356F0120F00001C0F00001C0F00000812000015
S1135700120F00001C0F0000081200001C0F000004
S1135710120F0000A6110000A6110000A61100003F
S113572072120000096757617270537069436F6D9C
S11357306D6F6E53696E6B4275666665725B256448
S11357405D203D205B3078253032585D0A0077615A
S113575072705365744C6F77506F7765724D6F64D8
S113576065286B57617270506F7765724D6F646511
S1135770564C50532C2030202F2A20736C656570B2
S1135780207365636F6E6473203A20697272656C6E
S11357906576616E742068657265202A2F29282930
S11357A0206661696C65642E2E2E0A000D0A0A0AB1
S11357B00A5B202A09090909576172702028485791
S11357C0207265766973696F6E204329202F204704
S11357D06C61757820284857207265766973696F03
S11357E06E2042290909092A205D0A000D5B202048
S11357F00909090920202020202043616D62726973
S1135800646765202F2050687973636F6D706C61D5
S1135810622020200909090920205D0A0A000D5B85
S11358202020090909092020202020203442323573
S113583020436F75727365776F726B202D204C65F2
S11358406F6E204272696E646C65792020200909AC
S11358500920205D0A0A000D09537570706C793DAA
S113586025646D562C0944656661756C7420546119
S11358707267657420526561642052656769737448
S113588065723D3078253032780A000D094932437B
S11358903D25646B622F732C095350493D25646B7D
S11358A0622F732C09554152543D2564622F732C89
S11358B0094932432050756C6C2D55703D25640A9E
S11358C00A000D0953494D2D3E53434743363D309D
S11358D0782530327809095254432D3E53523D30D5
S11358E0782530327809095254432D3E5453523DA1
S11358F03078253032780A000D094D43475F433133
S11359003D3078253032780909094D43475F4332E9
S11359103D30782530327809094D43475F533D3097
S113592078253032780A000D094D43475F53433DD3
S11359303078253032780909094D43475F4D433D9E
S113594030782530327809094F53435F43523D3054
S113595078253032780A000D09534D435F504D507D
S1135960524F543D307825303278090909534D435C
S11359705F504D4354524C3D3078253032780909FC
S11359805343422D3E5343523D3078253032780AFA
S1135990000D09504D435F52454753433D30782530
S11359A030327809090953494D5F53434743343D25
S11359B0307825303278095254432D3E5450523DAC
S11359C03078253032780A0A000D0925647320697D
S11359D06E205254432048616E646C657220746F6B
S11359E02D646174652C09256420506D677220450F
S11359F072726F72730A000A0A0A0D426F6F746939
S1135A006E6720576172702C20696E20332E2E2E03
S1135A102000322E2E2E2000312E2E2E0A0A0A0DA0
S1135A200041626F757420746F20737769746368C2
S1135A302043505520746F20564C5052206D6F6493
S1135A40652E2E2E2000776172705365744C6F772B
S1135A50506F7765724D6F6465286B576172705033
S1135A606F7765724D6F6465564C505228292066D5
S1135A7061696C65642E2E2E0A00646F6E652E0AB1
S1135A800D0041626F757420746F204750494F5F59
S1135A904452565F496E697428292E2E2E200041E7
S1135AA0626F757420746F206C6F77506F776572B6
S1135AB050696E53746174657328292E2E2E20004C
S1135AC0426F6F7420646F6E652E0A000A43616C26
S1135AD06C696E672064657653534431333331699E
S1135AE06E69742829206E6F772E0A000A46696E43
S1135AF069736865642063616C6C696E67206465B2
S1135B007653534431333331696E697428292E0A2C
S1135B10000A43616C6C696E6720636C617373691E
S1135B2066696572416C676F726974686D282920B3
S1135B306E6F772E0A000A46696E69736865642081
S1135B4063616C6C696E6720636C61737369666909
S1135B506572416C676F726974686D28292E0A003A
S1135B600D53656C6563743A0A000D2D2027612777
S1135B703A207365742064656661756C742073657E
S1135B806E736F722E0A000D2D202762273A207340
S1135B9065742049324320626175642072617465C2
S1135BA02E0A000D2D202763273A20736574205395
S1135BB05049206261756420726174652E0A000D7B
S1135BC02D202764273A20736574205541525420B0
S1135BD06261756420726174652E0A000D2D2027A0
S1135BE065273A207365742064656661756C74205A
S1135BF07265676973746572206164647265737336
S1135C002E0A000D2D202766273A207772697465C5
S1135C10206279746520746F2073656E736F722EC1
S1135C200A000D2D202767273A20736574206465C8
S1135C306661756C742073656E736F722073757012
S1135C40706C7920766F6C746167652E0A000D2D77
S1135C50202768273A20706F776572646F776E200B
S1135C60636F6D6D616E6420746F20616C6C207362
S1135C70656E736F72732E0A000D2D202769273A03
S1135C80207365742070756C6C2D757020656E6161
S1135C90626C652076616C75652E0A000D2D2027D7
S1135CA06A273A20726570656174207265616420A8
S1135CB072656720307825303278206F6E207365E6
S1135CC06E736F72202325642E0A000D2D20276B1E
S1135CD0273A20736C65657020756E74696C207248
S1135CE0657365742E0A000D2D20276C273A2073E6
S1135CF0656E642072657065617465642062797490
S1135D0065206F6E204932432E0A000D2D20276D29
S1135D10273A2073656E64207265706561746564EA
S1135D202062797465206F6E205350492E0A000D4D
S1135D302D20276E273A20656E61626C652073659D
S1135D406E736F7220737570706C7920766F6C74DB
S1135D506167652E0A000D2D20276F273A2064699C
S1135D607361626C652073656E736F7220737570F6
S1135D70706C7920766F6C746167652E0A000D2D46
S1135D80202770273A2073776974636820746F2022
S1135D90564C5052206D6F64652E0A000D2D20273D
S1135DA072273A2073776974636820746F205255A0
S1135DB04E206D6F64652E0A000D2D202773273A3F
S1135DC020706F77657220757020616C6C2073652C
S1135DD06E736F72732E0A000D2D202774273A20DC
S1135DE064756D702070726F636573736F72207366
S1135DF0746174652E0A000D2D202775273A2073CF
S1135E0065742049324320616464726573732E0A99
S1135E10000D2D202778273A2064697361626C6530
S1135E202053574420616E64207370696E20666F3E
S1135E307220313020736563732E0A000D2D2027E4
S1135E407A273A2070657270657475616C6C79207C
S1135E5064756D7020616C6C2073656E736F722055
S1135E60646174612E0A000D456E74657220736559
S1135E706C656374696F6E3E20000D0953656C6533
S1135E8063743A0A000D092D202731272041445814
S1135E904C33363209090928307830302D2D3078CA
S1135EA03244293A20312E3656202D2D20332E35DA
S1135EB0562028636F6D70696C6564206F75742952
S1135EC0200A000D092D2027322720424D58303555
S1135ED035616363656C20090928307830302D2DD5
S1135EE030783346293A20322E3456202D2D203353
S1135EF02E36562028636F6D70696C6564206F754B
S1135F007429200A000D092D2027332720424D58DB
S1135F103035356779726F09090928307830302DAA
S1135F202D30783346293A20322E3456202D2D2018
S1135F30332E36562028636F6D70696C6564206F4C
S1135F40757429200A000D092D2027342720424D7D
S1135F50583035356D616709090928307834302D9A
S1135F602D30783532293A20322E3456202D2D20EA
S1135F70332E36562028636F6D70696C6564206F0C
S1135F80757429200A000D092D20273527204D4D31
S1135F9041383435315109090928307830302D2DF4
S1135FA030783331293A20312E393556202D2D20A1
S1135FB0332E36560A000D092D20273627204C5043
S1135FC05332354809090928307830382D2D307876
S1135FD03234293A20312E3756202D2D20332E36B7
S1135FE0562028636F6D70696C6564206F75742921
S1135FF0200A000D092D20273727204D4147333132
S1136000313009090928307830302D2D307831317C
S1136010293A20312E393556202D2D20332E36564F
