S02B00002F686F6D652F73747564656E74732F6C706233322F576172702D436F75727365776F726B2D322F6267
S1130000000600201D050000450500004505000010
S113001000000000000000000000000000000000DC
S11300200000000000000000000000004505000082
S11300300000000000000000450500004505000028
S11300404505000045050000450500004505000084
S1130050450500004505000045050000AD0F000002
S1130060A12D000045050000AB2D00004505000052
S1130070B52D0000450500004505000045050000BC
S11300804505000045050000450500004505000044
S1130090850F00009D0F0000450500004505000088
S11300A04505000045050000450500004505000024
S11300B04505000045050000BD0F00004505000092
S1130400FFFFFFFFFFFFFFFFFFFFFFFFFE3DFFFFBB
S11304100448054B10B5834203D0044B002B00D095
S1130420984710BD10FFFF1F10FFFF1F00000000C2
S113043006480749091A8B10C90FC91810B5491085
S113044003D0044B002B00D0984710BD10FFFF1FB2
S113045010FFFF1F0000000010B5074C2378002B8D
S113046009D1FFF7D5FF054B002B02D0044800E06B
S113047000BF0123237010BD10FFFF1F0000000008
S1130480A8690000054B10B5002B03D004490548AA
S113049000E000BFFFF7CCFF10BDC0460000000025
S11304A014FFFF1FA8690000402292029A1A924684
S11304B07047C046154B002B00D1114B9D46FFF7EA
S11304C0F3FF00218B460F461148124A121A00F01E
S11304D005F90C4B002B00D098470B4B002B00D098
S11304E098470020002104000D000B4800F02EF86E
S11304F000F06AF82000290001F002F800F03AF850
S113050000000800000000000000000000060020B9
S113051010FFFF1F38020020A105000072B6064834
S11305200649074A02600A6002F04AFC02F08AFCAB
S113053062B6FFF7BFFF000080E100E080E200E068
S1130540FFFFFFFF004800474505000010B501000C
S113055000230022002000F01FFA10BD10B50A008D
S1130560002100F0BBF810BD014B18687047C0466D
S113057000FEFF1F084B10B50400002B02D0002121
S113058000F078FA054B1868836A002B00D098476E
S1130590200000F05BFCC046750A00007C5000009F
S11305A070B5074D074C641BA41005D0013CA30093
S11305B0EB589847002CF9D106F0FCF970BDC04601
S11305C0CC690000D069000070B50C4D0C4E761B50
S11305D0B61005D0002408CD01349847A642FAD1BC
S11305E006F0E2F9074D084E761BB61005D000243C
S11305F008CD01349847A642FAD170BDC8690000FD
S1130600C8690000C8690000CC69000010B5034B3C
S11306100100186800F00CF910BDC04600FEFF1F71
S113062010B5034B0100186800F0ACF810BDC046CB
S113063000FEFF1FF0B5C64600B50F2A43D90B00D4
S1130640032603431E400C000300002E40D1150076
S1130650103D2D09AC462D01A846804400E03B0026
S1130660676825685F60E7681D60DF601F00A56834
S113067010379D6010344345F1D165460F230C2497
S113068001352D01491913404519144223D08C59C1
S1130690AC5104369C1B032CF9D80324043B9B085F
S11306A001339B002240ED18C918561E002A07D0BA
S11306B0002300E02300CA5C5C1CEA549E42F9D18A
S11306C004BC9046F0BD0500561E002AF0D1F7E7A1
S11306D0561E0500ECE71A00F6E7C046F0B5050023
S11306E083074AD0541E002A44D0CEB2030003220A
S11306F002E00135013C3DD301332E701342F8D1A1
S1130700032C2FD9FF220A40150215432A0415434E
S11307100F2C35D92700103F3F093E01B4461E0077
S11307201A0010366644156055609560D560103225
S1130730B242F8D10F260C2201373F012640DB19C3
S11307403700224217D03E1FB608B400A4461A0050
S11307501C1D644420C2A242FCD103240136B6000D
S11307609B193C40002C05D0C9B21C1919700133E7
S11307709C42FBD1F0BD3400F4E714000300BFE752
S11307802700E0E770B50500002915D00C1F236889
S1130790002B27DB280000F0CBF9244B1A68002A31
S11307A005D0A2420CD921686018824224D062602C
S11307B028001C6000F0BEF970BDA34203D81A00E3
S11307C05368002BF9D111685018A0421BD027D8C8
S11307D021686018834207D063605460280000F0E9
S11307E0A9F9E9E7E418D5E718685B688446614429
S11307F0216063605460F1E7106852688446614484
S113080021606260D4E7206809185018116083429F
S1130810E4D118685B688446614411605360DDE785
S11308200C2328002B6000F085F9C5E72CFFFF1F7F
S1130830F8B50323CD1C9D43083506000C2D2AD2A0
S11308400C25A94229D8300000F072F92A4F3A68E1
S1130850002A0AD013685B1B04D441E023685B1BA5
S11308601FD522005468002CF8D17B68002B3DD0A2
S11308702900300000F042F8431C2AD00323C41C92
S11308809C43A04205D0211A300000F037F8431CE5
S11308901FD0256010E0002DD3DA0C230020336034
S11308A0F8BD0B2B05D86368A2421DD0536003E04A
S11308B014002360E4182560300000F03BF92000A8
S11308C007220B30231D9043C21AE9D01B1AA350F0
S11308D0E6E70C233000336000F02CF90020DFE75A
S11308E00B2BE5D8140053683B60E5E7002130008A
S11308F000F004F87860BBE72CFFFF1F002370B5FD
S1130900064C05000800236000F0A2FA431C00D046
S113091070BD2368002BFBD02B60F9E73402002064
S113092003000A7801311A700133002AF9D17047A3
S113093010B5830727D00378002B26D003000321AA
S113094002E01A78002A1CD001330B42F9D119684D
S11309500F4A104C8A188A4322420FD10433196873
S11309600B4A8A188A43224208D104331968084A78
S11309708A188A432242F1D000E001331A78002A0F
S1130980FBD1181A10BD0300E1E70020FAE7C046C6
S1130990FFFEFEFE80808080F0B546464F46D64678
S11309A0C0B51F002F4B82B01C6805000E00904696
S11309B0002C2DD063681F2B50DC002D1CD0882206
S11309C0A0589146002834D07832825894469A0030
S11309D091468144424649460A6001216246994053
S11309E00A43944680228A46614652008150494611
S11309F0803A8F50022D16D000205A1C02339B00DF
S1130A0062601E5102B01CBC90469946A246F0BDDD
S1130A10154C1C60154B002BCCD01B68019388230C
S1130A20019AE250C6E75546843281580D438550F9
S1130A30E2E70F4B002B11D084204000FFF7E6FDC6
S1130A4000280BD0802200235200835004328350AC
S1130A504B460022E05094466368B8E701204042C8
S1130A60D0E7C046C0FFFF1F34FFFF1F0000000097
S1130A700D060000F0B5DE464E46454657462B4B64
S1130A8088469B46E0B51E6883B00190002E45D091
S1130A9088237568F7586C1E40D40135AD0078334F
S1130AA075199A460AE0002F05D03B00A200803356
S1130AB09B58434505D0043D013C2FD34346002BAE
S1130AC0F1D173682A68013BA34222D000232B6032
S1130AD0002AF0D073689946002F18D0012351469C
S1130AE0A3407958194212D0822040003858A100FE
S1130AF07958009018420ED1019890475B4672686D
S1130B001B684A4501D1B342D5D01E00BEE79047C9
S1130B10F4E77460DCE708009047EFE703B03CBCFF
S1130B2090469946A246AB46F0BDC046C0FFFF1FA3
S1130B307047C0467047C04602B471464908490030
S1130B40095C49008E4402BC7047C04603B4714638
S1130B50490840004900095E49008E4403BC7047BF
S1130B60002243088B4274D303098B425FD3030AE8
S1130B708B4244D3030B8B4228D3030C8B420DD3FB
S1130B80FF22090212BA030C8B4202D31212090289
S1130B9065D0030B8B4219D300E0090AC30B8B42C7
S1130BA001D3CB03C01A5241830B8B4201D38B0375
S1130BB0C01A5241430B8B4201D34B03C01A52411A
S1130BC0030B8B4201D30B03C01A5241C30A8B425D
S1130BD001D3CB02C01A5241830A8B4201D38B0248
S1130BE0C01A5241430A8B4201D34B02C01A5241EC
S1130BF0030A8B4201D30B02C01A5241CDD2C3095E
S1130C008B4201D3CB01C01A524183098B4201D3D9
S1130C108B01C01A524143098B4201D34B01C01AC4
S1130C20524103098B4201D30B01C01A5241C3083C
S1130C308B4201D3CB00C01A524183088B4201D3AB
S1130C408B00C01A524143088B4201D34B00C01A97
S1130C505241411A00D20146524110467047FFE703
S1130C6001B5002000F0F0F802BDC0460029F7D01D
S1130C7076E7704703460B437FD4002243088B4238
S1130C8074D303098B425FD3030A8B4244D3030B0F
S1130C908B4228D3030C8B420DD3FF22090212BAD4
S1130CA0030C8B4202D31212090265D0030B8B4250
S1130CB019D300E0090AC30B8B4201D3CB03C01A3A
S1130CC05241830B8B4201D38B03C01A5241430B15
S1130CD08B4201D34B03C01A5241030B8B4201D305
S1130CE00B03C01A5241C30A8B4201D3CB02C01A70
S1130CF05241830A8B4201D38B02C01A5241430AE8
S1130D008B4201D34B02C01A5241030A8B4201D3D6
S1130D100B02C01A5241CDD2C3098B4201D3CB017D
S1130D20C01A524183098B4201D38B01C01A52412C
S1130D3043098B4201D34B01C01A524103098B4230
S1130D4001D30B01C01A5241C3088B4201D3CB001B
S1130D50C01A524183088B4201D38B00C01A5241FE
S1130D6043088B4201D34B00C01A5241411A00D2AE
S1130D7001465241104670475DE0CA0F00D0494217
S1130D80031000D34042534000229C4603098B4287
S1130D902DD3030A8B4212D3FC22890112BA030A0F
S1130DA08B420CD3890192118B4208D38901921191
S1130DB08B4204D389013AD0921100E08909C30916
S1130DC08B4201D3CB01C01A524183098B4201D318
S1130DD08B01C01A524143098B4201D34B01C01A03
S1130DE0524103098B4201D30B01C01A5241C3087B
S1130DF08B4201D3CB00C01A524183088B4201D3EA
S1130E008B00C01A5241D9D243088B4201D34B0004
S1130E10C01A5241411A00D20146634652415B1046
S1130E20104601D34042002B00D549427047634627
S1130E305B1000D3404201B5002000F005F802BD6C
S1130E400029F8D016E770477047C046FEE7C04651
S1130E500A4A0300116810B5002901D1084911603C
S1130E6010680849C3188B4206D9FFF77DFB0C2391
S1130E7003600120404210BD1360FCE7C4FFFF1F64
S1130E8038020020380200208378022098428041F2
S1130E9040427047437A0020013B012B03D90B7871
S1130EA0013001330B707047C023174A9B00136055
S1130EB0164A1360164A13600023164A1360164A32
S1130EC01360164A1360164A1360164A1360164AD2
S1130ED01360164A1360164A1360164A1360164AC2
S1130EE01360164A1360164A1360164A1360164AB2
S1130EF01360164A1360164A1360164A1360164AA2
S1130F001360164A136070470090145404901454EC
S1130F10089014540C9014541090145414901454B5
S1130F20189014541C901454209014542490145465
S1130F303090145400A0145404A0145408A0145461
S1130F400CA0145410A0145414A0145418A0145435
S1130F501CA0145428A014542CA0145434A01454C9
S1130F6003003038092805D91A00613A052A02D845
S1130F70573B180070471A00413A0020052AF9D857
S1130F80373BF6E710B5002003F024FC002803D01B
S1130F900021080003F012FC10BD0000024A13688F
S1130FA0013313607047C04680FEFF1F10B5072150
S1130FB0014803F0BDF810BD00C007400122024BF8
S1130FC052421A607047C046A090044037B50020D2
S1130FD002F025FAC02300240D4A9B0013600D4A39
S1130FE00D4D13600D4A200013600D4B2C716C7174
S1130FF0AC711A68FA239B0053430A492B6003F02F
S113100037FC2900200001AA03F098FC37BDC04634
S1131010189014541C9014547000002000A0145410
S113102084FEFF1F4000002010B58024002003F040
S113103061FC0A4B64001C60094B07201C60094BCF
S11310401C6002F09DFC062002F09AFC200002F0D5
S113105097FC002002F0E8F910BDC0461890145423
S11310601C90145400A0145410B5002002F0E6F9AA
S11310708023054A9B001360044A0020044913603E
S113108002F05AFD10BDC0460CA0145410A0145414
S11310901C00002010B5002002F08AFD0020034B44
S11310A01860034B186002F0CEF910BD0CA0145464
S11310B010A01454014B1B887047C04674FEFF1FD8
S11310C00FB41FB50E4B1B78DCB2002B0FD107AB4E
S11310D0039340232000009306990A4B03AA01F0CE
S11310E01DFB002807DA2000074901F03BFA1FBC6A
S11310F008BC04B01847052001F063FFF7E7C046B9
S113110076FEFF1FD9FFFF1F8267000010B50400A1
S1131110002901D0FFF7C8FE0021022000F078FF6B
S11311202100042000F074FF002802D00148FFF7DA
S1131130C7FF10BDAA500000F8B50E0004002748F0
S11311401500FFF7BDFF2648FFF7BAFF2548FFF754
S1131150B7FF320021002448FFF7B2FF234B244895
S11311601968244B244E1A68244B254F1B68FFF73B
S1131170A7FF244B244CF958244872693368FFF7BD
S11311809FFF21786278A3792148C9B2D2B2DBB239
S1131190FFF796FF1F4B217A227E1B781E48C9B2A7
S11311A0D2B2DBB2FFF78CFF1C4B1D4819785A787A
S11311B01C4BC9B21B69D2B2FFF782FF1A4B1B4802
S11311C099781B4BC9B2FA587368FFF779FF194B2A
S11311D02A7819681848FFF773FFF8BD0851000012
S11311E0485100007A510000B451000078FEFF1FFE
S11311F0E851000084FEFF1F00D003408CFEFF1F57
S1131200007004403C100000004006401F520000E3
S113121055520000005006408452000000E0074090
S1131220B452000000ED00E000D00740EE52000090
S11312303410000080FEFF1F2653000010B501F09B
S11312409DF90028FBDB10BD70B5FFF7F7FF040024
S1131250FFF7F4FFFF26050020003040FFF780FE73
S1131260040028003040FFF77BFE24012018C0B2A0
S113127070BD70B5FFF7E2FF0600FFF7DFFF050062
S1131280FFF7DCFF0400FFF7D9FFFF22FA236421F4
S113129016401540303E14409B00303D4D4373438F
S11312A05A39303C4C435B1910401B19303818181C
S11312B070BD0000F0B591B01C0016AB0C9119780C
S11312C017AB05921A7818AB1B7805000D931CAB6D
S11312D01B780EA80E931DAB1B880F1C09932123AA
S11312E01B18DB7F08931FAB1B880F9320AB1B7865
S11312F00A93914200D9171C059BFFB2002C05D11B
S1131300002B05D15448FFF7DBFE01E0002BF9D197
S1131310280000252E00514B1B88FFF7D1FE099BA6
S113132004950293069500230793079B199A934209
S113133000DC8FE00E9B002B04D001370D9BFFB225
S11313409F42F0D9069B3100F2184548FFF7B8FEDA
S1131350322001F036FE3200089B04994148FFF721
S1131360AFFE322001F02DFE29003F48FFF7A8FE12
S1131370322001F026FE11B0F0BD039B2C22FB1895
S11313800B936B469B18187801210C9B98470028F7
S113139048D1029B099A0136934204D9643B9BB21B
S11313A002932E4B1B88002C27D0E368089A9B7865
S11313B09B1A5A425341049AD31804930A9B002B54
S11313C00BD0E268E368E068039980785B78127870
S11313D0791800902548FFF773FE1B9B002B02DD54
S11313E0180001F0EEFD039B01330393039B1A9A4B
S11313F09342C2DB079B013396E7059B089A9B78CF
S11314009B1A5A425341049AD31804930A9B002B03
S1131410E3D0059B16489A78039BD2B2F918FFF7DC
S11314204FFEDAE7022810D10B991248FFF748FE65
S1131430069B0F9A01330693029B9342CDD26433E9
S11314409BB20293054B1B88C7E7033843425841BC
S11314502D18C2E70023C8E75453000074FEFF1F91
S1131460CE530000E65300001754000081530000DF
S1131470A6530000BB53000070B50C00160088B0E2
S11314800CAA157806A908800A4A05A805700A4D11
S113149012682D684A6004AA167001930090230014
S11314A00020029502F0ACFC002800D0022008B015
S11314B070BDC04678FEFF1F7CFEFF1FF7B56A466D
S11314C0CB1DDB08DB00D31A02AF9D460C000500E0
S11314D0FFF77CFD0021094B02AE1B682A00019333
S11314E000943300080003F085FA0400FFF79CFD24
S11314F0002C00D00424BD462000F2BD88FEFF1F4E
S1131500F0B50027BDB029AC072239002000FFF751
S1131510E5F8CF4A01253092032219AB33931BAB74
S113152034931DAB369321AB389323AB399325AB5E
S11315303A9327AB1FAE15A938003B9330AB1A7111
S11315403291189325703594379601F053FF280093
S113155001F050FF8022BF4B12021A6001F050FDCF
S11315603B003A0039003800009501F017F8BA4AF8
S11315702B000221B94801F067FD2900280001F081
S11315806FFD380003F064F89C21B54B38002D93AF
S113159008AB5B181F80023108AB5B182DA91F70C4
S11315A02E9503F081F82A00390015A8FFF796F864
S11315B05820299B08A91D93A28809180A80A2799A
S11315C0023008A909180A700322063808A9091864
S11315D00A701F93A2880C38B280A27908A9B2714C
S11315E0052232701993A28809180A80A279023060
S11315F008A909180A704421022608AA521816706C
S11316001B93A288063008A909180A80A2798019B8
S113161008A909180A700422063808A909180A70CA
S11316202193A2881C3008A909180A80A27980197C
S113163008A909180A70642108AA51180822702000
S11316400A702393A28808A909180A80A27980192C
S113165008A909180A706C22092108A880180170C9
S11316602593A3880C3208A880180380A3797A24D0
S113167008A8001903700A2308A8063C001903707F
S11316807C2008AB1B1818AA1F7033A82B0001F08C
S113169035FF7448FFF714FD3900300000F0B8FC42
S11316A0082203009343DBB20D90BB4202D06E4884
S11316B0FFF706FD6D48FFF703FD6D48FFF700FDDA
S11316C06C496D4802F034F96C4C2000FFF7F8FCCB
S11316D0C0236B4A9B0013606A4A6B4813606B4AD1
S11316E01360FFF7EDFCFFF7DFFB2000FFF7E8FCDA
S11316F06748FFF7E5FC4020664901F0F5FA00244D
S113170001F006FB2100020001346348FFF7D8FC16
S11317100A2CF5D1E1211D20C90000F02DFD012284
S11317205E4B5F481A70FFF7CBFC5E4B5D4A1C783A
S113173000235D481370FFF7C3FC5A4BE4B21C70DE
S11317405A4C00F01BFF0500012001F03AFC002D6B
S113175010DA013C002CF4D1554B15AA188821004D
S113176080B2FFF7E9FC9622524B520052481A60AD
S1131770FFF7A6FC5148FFF7A3FC002701F02CF962
S11317804F48FFF79DFC03230F970E930023454A10
S1131790474C13702088390015AA80B2FFF7CCFC9F
S11317A04848FFF78DFC4848FFF78AFC4748FFF795
S11317B087FC4748FFF784FC4648FFF781FC46480E
S11317C0FFF77EFC4548FFF77BFC4548FFF778FCB4
S11317D04448FFF775FC4448FFF772FC39000E9A41
S11317E04248FFF76DFC4248FFF76AFC4148FFF7A7
S11317F067FC4148FFF764FC4048FFF761FC404840
S1131800FFF75EFC3F48FFF75BFC3F48FFF758FCDF
S11318103E48FFF755FC3E48FFF752FC3D48FFF7B2
S11318204FFC3D48FFF74CFC3C48FFF749FC3C4863
S1131830FFF746FCFFF702FDFF21050001400A29DE
S113184000D177E3080050382A2800D9DDE069E0A8
S1131850950E00002802002064FEFF1FF8FEFF1F03
S1131860E00701002C54000051540000855400008E
S11318708D54000098FEFF1F90FEFF1F05550000C9
S11318800090145404901454AA5400000890145462
S1131890CB540000E40C0000E8540000D8FFFF1F04
S11318A00055000076FEFF1F0C550000B80B000029
S11318B074FEFF1F78FEFF1F506700002B550000C9
S11318C04B550000705500007A55000097550000F4
S11318D0B3550000CF550000EC550000135600002E
S11318E0325600005E56000089560000AC560000D7
S11318F0DB560000F75600001B5700003F5700005E
S1131900665700008E570000AC570000C95700000E
S1131910E857000007580000215800004C58000008
S113192077580000FFF712F90103710032FF7100CC
S1131930710071007100710071007100FF0271008B
S1131940710071007100710071002F007300850037
S113195095009F00A800DF00EA007100FB00590118
S1131960660166019C0132FF9F017100AC01B60162
S11319704402A90271007100B6027100BE02C84B94
S11319800F93012301E7C748FFF79AFBC648FFF707
S113199097FBC648FFF794FBC548FFF791FBC54882
S11319A0FFF78EFBC448FFF78BFBC448FFF788FBA7
S11319B0C348FFF785FBC348FFF782FBC248FFF724
S11319C07FFBC248FFF77CFBC148FFF779FBC148A6
S11319D0FFF776FBC048FFF773FBC048FFF770FBC7
S11319E0BF48FFF76DFBBF48FFF76AFBBE48FFF730
S11319F067FBBE48FFF764FBBD48FFF761FBFFF7D9
S1131A001DFCFF2101403529B9D0BA480EE0BA487F
S1131A10FFF756FBFFF72DFCB84BB94A186019685D
S1131A20914201D1B74A1A601968B748FFF748FBD9
S1131A30ACE6B648FFF744FBFFF71BFCB44BB04AD7
S1131A4018601968914201D1AE4A1A601968B14808
S1131A50ECE7B148FFF734FBFFF70BFCAF4B186022
S1131A601968AF48E2E7AF48FFF72AFBFFF7ECFB42
S1131A7007000100AC48D9E7AC48FFF721FBFFF7AA
S1131A80E3FBAB4D010004002800FFF719FBA94854
S1131A90FFF716FBFFF7D8FB16AE010030702800E5
S1131AA0FFF70EFBA448992C36D0944B2BAD1B6842
S1131AB02C802C93A14B1A881B88FFF7D5FAA04BD6
S1131AC017AA1B68177002930123290000200193B1
S1131AD0009602F095F9011E02D09A48FFF7F0FA39
S1131AE0FFF7D8FA52E69848FFF7EAFAFFF7C1FB86
S1131AF080B220802188954889B297E79448FFF7FF
S1131B00DFFA944C2000FFF7DBFA2000FFF7D8FA45
S1131B109148FFF7D5FA9148FFF7D2FA36E6390033
S1131B208F48FFF7CDFAFFF789FB10908D48FFF738
S1131B30C7FAFFF783FB11908B48FFF7C1FAFFF751
S1131B407DFB12908948FFF7BBFAFFF792FB060072
S1131B508748FFF7B5FAFFF78CFB05008548FFF7C8
S1131B60AFFAFFF786FB04008348FFF7A9FAFFF7F3
S1131B706BFB2B003A0013900E9980480096FFF7F8
S1131B809FFA6E4B0E9A1B889BB2022A21D07C4886
S1131B90032A1FD0129807933038421E90410A90AE
S1131BA01098139A3038431E98413123029300232E
S1131BB006901198A4B2303808920490384A7149BA
S1131BC0714809940596039501930097FFF772FBFA
S1131BD086E76E48FFF774FA82E76D48FFF770FAFC
S1131BE0012420000021FFF791FA21003C20FFF797
S1131BF08DFAF6E75648FFF763FA6648FFF760FA8E
S1131C00FFF722FB2BAE30706348FFF759FAFFF75A
S1131C1030FB4A4BEDB21B880400010032789BB2C2
S1131C206C2D10D15D48FFF74BFA0025A54200DB6F
S1131C30ACE52BAB1A7800230121FF200093FFF7BA
S1131C401BFC0135F2E75648FFF73AFA0025A54296
S1131C5000DB9BE501212BA8FFF730FC0135F6E7FB
S1131C602388238892E50021022000F0D1F9031E85
S1131C700D9000D18AE54B48082B00D186E54BE74F
S1131C800021082000F0C4F90D9B4748002B00D127
S1131C907CE541E72E48FFF713FA44483CE7C04689
S1131CA0D0FFFF1F8A58000095580000D358000049
S1131CB0155900005659000096590000C6590000F5
S1131CC0035A0000425A0000805A0000BD5A000026
S1131CD0FB5A0000385B0000775B0000B45B000037
S1131CE0F15B00002C5C0000695C0000A65C000055
S1131CF0D25C0000E65C0000025D000078FEFF1F7D
S1131D000F27000010270000305D0000505D000028
S1131D1084FEFF1F7E5D0000985D00008CFEFF1FA7
S1131D20C75D0000E25D0000185E00002F5E000049
S1131D30625E0000785E0000A15E000074FEFF1F7A
S1131D407CFEFF1FC75E0000E85E0000215F00000C
S1131D50505F00007E5F0000AE5F0000DF5F0000A8
S1131D60116000004B600000746000008D60000092
S1131D70CC600000F8600000306100006161000088
S1131D80D7610000B12100009E610000AC61000039
S1131D90086200002B6200004A6200006A620000D0
S1131DA0B5620000006300005E630000BB630000D6
S1131DB02BA9002001F0E6FAFA212B988900FEF7FE
S1131DC0CFFE01005C48FFF77BF901F02DFD010017
S1131DD05A48FFF775F901F0C1F901005848FFF7B7
S1131DE06FF9584B584819684B1E9941FFF768F929
S1131DF0002001F01EFB01005448FFF761F90020A8
S1131E0001F026FB01005248FFF75AF9002001F0C7
S1131E1024FB01004F48FFF753F9002001F0F2FAC8
S1131E2001004D48FFF74CF9012001F0EBFA0100E5
S1131E304A48FFF745F94A4B4A4819684B1E9941ED
S1131E40FFF73EF9002001F0E5FA01004648FFF7EC
S1131E5037F9464B464819684B1E9941FFF730F94C
S1131E60444B454819684B1E9941FFF729F9002056
S1131E7001F0F8FA01004148D8E50F9B4048002BD7
S1131E8000D149E63F48FFF71BF9FFF7DDF90F9B47
S1131E9058707BE43C48FFF713F93C4801F091F893
S1131EA03B4839E63B48FFF70BF9FFF7E2F985B207
S1131EB029003948FFF704F93848FFF701F9FFF71B
S1131EC0BDF9C4B2683C604244413548FFF7F8F8B4
S1131ED001F032F80121002000F054F906003148E5
S1131EE0FFF7EEF83048FFF7EBF83048E4B2FFF7BD
S1131EF0E7F8200000F09AF9200000F027FF3100F5
S1131F002B48FFF7DDF8002D08D02900042000F04D
S1131F107FF8011E02D02748FFF7D2F800F02EFB0D
S1131F207128E6D1DCE52448F6E52448FFF7C8F833
S1131F302348F1E52348EFE5E7630000F963000077
S1131F400F6400003C80845E366400004764000037
S1131F5058640000696400007D640000916400001E
S1131F603C800450A5640000B664000034808459A9
S1131F70C76400003480045AD8640000EA64000096
S1131F80FB64000039650000716500001027000043
S1131F90906500009A650000E66500001C6600007C
S1131FA02D5E000045660000676600002C5E0000A0
S1131FB00A6400007D660000BB660000D166000074
S1131FC0F36600001E6700001FB5040001A900208D
S1131FD002F092FB694601A802F0CCFA009B684625
S1131FE01C1901A9009402F04DFA012201A9002054
S1131FF002F0AEFB1FBD00000022034B1A608022DA
S1132000024BD205DA67704700901C5804E100E0E7
S113201070B50D000A2408281CD8FEF78DFD051D97
S11320202A3F546771795C0001F0FEFB0524012806
S113203010D0FFF7E1FF2800FFF7C6FF00210800DA
S113204001F07EFA01210400002001F009F8002CBF
S113205022D10024200070BD01F0E6FB06240128F3
S1132060F8D0FFF7C9FF2800FFF7AEFF00210120D9
S1132070E6E701F0D9FB08240128EBD001F06EF863
S1132080002803D00121002000F0EAFF00210220F3
S113209001F056FA0028DCD00924DBE701F0C4FB88
S11320A007240028D6D0FFF7A7FF2800FFF78CFFEE
S11320B00021032001F044FA040001F0B5FB0121E2
S11320C00028C4D1C1E7FFF797FF2800FFF77CFF82
S11320D000210420EEE70021082001F031FA041E5B
S11320E0DAD10121080000F0BBFFB3E7FFF784FF5A
S11320F02800FFF769FF0021052001F021FACBE752
S1132100FFF77AFF2800FFF75FFF00210620F4E7BE
S1132110FFF772FF2800FFF757FF00210720ECE7C5
S1132120F0B506000D00114B89B05A7806AC228038
S11321300F4A05AF12680792D88880B2FEF7BAFF3B
S11321403E7004AE3570FEF78FFF0A4B3A001B68F1
S113215021000293012300200193009601F050FE18
S1132160002800D0022009B0F0BDC046D0FFFF1FF8
S113217078FEFF1F7CFEFF1F014B5870D98070470B
S1132180D0FFFF1F70B50400084B0D00D88880B243
S1132190FEF790FF21000920FFF7C2FF2900040089
S11321A02A20FFF7BDFF2043C0B270BDD0FFFF1F40
S11321B070B588B06A46184B04001B780E0013757E
S11321C0182822D8C31F0320012B23D9134B06AD93
S11321D05A782A80124A12680792D88880B2FEF789
S11321E069FF6B461C75FEF73FFF0E4B29001B6809
S11321F0002002930C4B0196009305AA012301F0E1
S11322000CFE002806D0022004E023001D3B03201E
S1132210142BDBD908B070BDA8670000D0FFFF1FE6
S113222078FEFF1F7CFEFF1FD2FFFF1F70B5324CEC
S11322300500E08880B2FEF73DFF02210120FFF790
S1132240B7FFA178E278C9B2D2B200281DD02B48DA
S1132250FEF736FF02210320FFF7AAFFA178E278F8
S1132260C9B2D2B2002822D02448FEF729FF0221A5
S11322700520FFF79DFFA178E278C9B2D2B2002809
S113228027D01E48FEF71CFF70BD002D03D01C484C
S1132290FEF716FFDEE79208890111438022194BED
S11322A0920151401848C918FEF70AFFD2E7002DE1
S11322B003D01348FEF704FFD9E7920889011143BC
S11322C08022104B920151400F48C918FEF7F8FEC6
S11322D0CDE7002D03D00A48FEF7F2FED4E79208BA
S11322E0890111438022074B920151400648C918C5
S11322F0FEF7E6FEC8E7C046D0FFFF1FAA6700004E
S1132300B167000000E0FFFFC16700000369C26815
S1132310934201D880681B18013B981A7047F7B59F
S11323208368C46801931F1B436805000E001819D5
S1132330A418974207D83A00FEF77CF9019B686815
S1132340E41A2200F119FEF775F9EC60F7BD0023D9
S1132350F7B506001700C568019100933369B468A6
S11323609D421FD2013B5B1B641BBC4200D93C0055
S11323709C4200D91C007368220058190199FEF789
S113238059F9009B2D191B190093019B3F1B1B1925
S11323900193B368AB4200D10025F560002FDDD175
S11323A00098FEBD1B19DDE7022310B50F4C104A3F
S11323B0236163610F4BA261E3616423A2640E4A4B
S11323C02362E26400230422A3626362E362A365DE
S11323D06365E36522650949E01DFEF7A1FA200063
S11323E00749FEF79DFA2023A37110BD7800002051
S11323F0C6670000F4000020F0000020CF67000052
S1132400D3670000F0B5274B85B01B780E0002900F
S11324100192002B01D1FFF7C7FF1823029A002570
S11324205343204AD3185A6D9C6D0392944219D990
S11324301B6D019D1B1B9D4200D91D001827029B8B
S113244030005F43174B2A00DF19FB6C761919190A
S1132450FEF7F0F8019B64195B1B01933B6DA342EB
S113246000D10024039B019F1B1B9F4200D91F0026
S1132470002F0CD01823029A30005343094AED1957
S1132480D318D96C3A000919FEF7D4F8E419002DD1
S113249005D01823029A03485343C01884652800C2
S11324A005B0F0BD7800002010B50B00EFF31084E8
S11324B0012181F310881900FFF7A4FF84F3108829
S11324C010BD0000F8B516001822451C55434243C0
S11324D0164B0F005D199B18DC6A012C10D0022CDE
S11324E01BD0002C1FD12800FFF710FF864205D80F
S11324F0320039002800FFF712FF34002000F8BD35
S11325002800FFF703FF3400864200D904002200AC
S113251039002800FFF703FFF0E732002800FFF737
S113252016FF0400EAE70024E8E7C046780000202C
S1132530F8B50B4B04001B780E001700002B01D1DB
S1132540FFF732FFEFF31085012181F310883A0081
S113255031002000FFF7B6FF85F31088F8BDC046B0
S11325607800002070B5050008000C00FEF7E0F9C3
S1132570210002002800FFF7DBFF70BD13B56B4696
S1132580DC1D012221000020FFF78EFF012801D16C
S1132590207816BD01204042FBE70000F7B5164C39
S11325A00193237805000F001600002B01D1FFF7DB
S11325B0FBFE2369AB421CD9EFF31082012181F3A6
S11325C01088002D0CD01823691C59436B436750A5
S11325D061184E600199E3181962002199625962E9
S11325E018204543089B6419E36282F31088002095
S11325F0FEBD01204042FBE778000020826810B550
S113260004004068531C834205D820688154A360A9
S1132610E3680133E360A26863689A4209D12168E0
S11326202069FFF785FFA368984203D001235B422A
S1132630E36010BD0023A360FBE70000F0B50500D4
S113264017000800012685B00A9C02910093B84245
S113265019D2009A0196964200D2019201230B9A54
S11326601A4003920B9A1A4202D1002C10D1002472
S1132670EB680126002B4BDB009B012B1FD9013B90
S113268000937E43F8E73900FEF76AFA0136DEE785
S11326900B9B20269B0704D5009B1036002B00D0F3
S11326A0103E019BA342E3D231002800FFF7A6FFAE
S11326B0EB68013C002BDBDB002CF2D1D7E73100C7
S11326C00298FEF74DFA8742DBD902983100FEF7F3
S11326D0CDFA114B0291195C2800FFF78FFFEB68CC
S11326E0002B05DB39003000FEF73AFABE4211D266
S11326F0039B002B0CD0002C0AD0019BA34207D2D1
S113270020212800FFF77AFFEB68013C002BF2DA66
S113271005B0F0BD0600D8E7DA670000F0B58FB069
S113272007900E001800149915000693FDF716FF84
S1132730069B079A0993149B0D920A9300230B930B
S11327400C9331780136002907D10C9B0293002B9E
S113275000DD09E10C980FB0F0BD252900D0B3E0ED
S113276000270822042006E0302B0DD1022300E0CC
S113277001231F430E003378711C2D2BF8D0F3D89E
S1132780232B10D02B2B0CD000240A213378721C5D
S113279018003038092808D84C43303C16001C195E
S11327A0F4E70743E6E71743E4E7002102912E2B01
S11327B00ED116000A203278711C1300303B092B0D
S11327C006D8029B0E004343303BD3180293F2E732
S11327D0042331780A0001369A43682A01D13178FA
S11327E0F8E7782909D86F290BD8632967D017D857
S11327F0252969D0582900D195E00C9B002BA0DA3B
S1132800A3E7703908000829F7D8FEF79FF9A50057
S1132810F6FFF6FF9400F6FF8300F6FFF6FF8C0048
S11328206429EAD12B681A1D1B682A60DA179818E4
S11328300393012350400493092849DC029B049A22
S11328400593934200D20592002C05D0039B002BE4
S113285001DB7B0700D5013C02231F4202D0029B0F
S1132860002B05D001231F4202D1002C36D10024B5
S11328700C9B0493002BC0DB039B002B3ADA2D2125
S11328805B42039309A8FFF7B9FE0C9B002BB4DB52
S113289003233B40022B05D1029B002B02D1002CC9
S11328A02CD100240C9B0493002BA6DB0A22029B50
S11328B003990197009409A8FFF7C0FE9DE72B68D0
S11328C019681A1D2A60C9B209A8FFF797FE94E790
S11328D00A21FEF7CFF9049B0133ACE7059BA34221
S11328E0C6D2202109A8FFF789FE0C9B013C002BCE
S11328F0BBDABDE77B07C8D52B21C3E7059BA34201
S1132900D0D2302109A8FFF779FE0C9B013C002BA3
S1132910C5DAC7E70A22296801970B1D2B60029BC1
S113292000940968C7E7296801970B1D2B60029B77
S113293000941022F5E72B681A1D2A601C68217880
S11329400134002900D158E709A8FFF757FE0C9B72
S11329500293002BF3DA50E729680B1D2B60002348
S1132960019308330093E4E70B9A002A03D00699F5
S11329700798FFF7DDFD0C9B02930B9B0393039ACF
S1132980029B944663440C93E4E6000037B50E259D
S1132990FF350400280000F0E5FF0A2000F011FBD9
S11329A0280000F0EDFF0C2000F0EAFFFA23084AAB
S11329B09B00147000210193012308000093054B30
S11329C002F018F80400280000F0CCFF20003EBDFF
S11329D07801002058010020C02310B58024854AC6
S11329E09B001360844A64001360FEF7EFFA834B84
S11329F020001C60824B1C60824B1C6000F0B2FF04
S1132A00642000F0DEFA200000F0BAFF642000F039
S1132A10D8FA200000F0A6FF642000F0D2FAAE201D
S1132A20FFF7B4FFA020FFF7B1FF7220FFF7AEFF5E
S1132A30A120FFF7ABFF0020FFF7A8FFA220FFF7BC
S1132A40A5FF0020FFF7A2FFA420FFF79FFFA82007
S1132A50FFF79CFF3F20FFF799FFAD20FFF796FF9C
S1132A608E20FFF793FFB020FFF790FF0B20FFF7B6
S1132A708DFFB120FFF78AFF3120FFF787FFB320D6
S1132A80FFF784FFF020FFF781FF8A20FFF77EFF26
S1132A906420FFF77BFF8B20FFF778FF7820FFF798
S1132AA075FF8A20FFF772FF6420FFF76FFFBB20DA
S1132AB0FFF76CFF3A20FFF769FFBE20FFF766FFC0
S1132AC03E20FFF763FF8720FFF760FF0620FFF734
S1132AD05DFF8120FFF75AFF9120FFF757FF822007
S1132AE0FFF754FF5020FFF751FF8320FFF74EFFFD
S1132AF07D20FFF74BFFAF20FFF748FF424900203E
S1132B00FFF730FD2620FFF741FF0120FFF73EFFCE
S1132B103E490020FFF726FD2520FFF737FF002060
S1132B20FFF734FF0020FFF731FF5F20FFF72EFF90
S1132B303F20FFF72BFF36490020FFF713FD8A20C3
S1132B40FFF724FFFF20FFF721FF8B20FFF71EFF75
S1132B50FF20FFF71BFF8C20FFF718FFFF20FFF774
S1132B6015FFBB20FFF712FF3E20FFF70FFF872062
S1132B70FFF70CFF0F20FFF709FF8120FFF706FF87
S1132B80FF20FFF703FF8220FFF700FFFF20FFF77E
S1132B90FDFE8320FFF7FAFEFF20FFF7F7FEAF20CC
S1132BA0FFF7F4FE2220FFF7F1FE0020FFF7EEFE10
S1132BB00020FFF7EBFE5F20FFF7E8FE3F20FFF762
S1132BC0E5FE0020FFF7E2FE3F20FFF7DFFE0020D6
S1132BD0FFF7DCFE0020FFF7D9FE3F20FFF7D6FE0B
S1132BE00020FFF7D3FE0B490020FFF7BBFC0020B9
S1132BF010BDC046209014542490145434A014548E
S1132C003090145400A01454EA67000013680000C4
S1132C10326800005068000070B588B06A46144BF2
S1132C2004001B780E0003201375052C1DD8114BCE
S1132C3006AD5A782A80104A12680792D88880B262
S1132C40FEF738FA6B461C75FEF70EFA0B4B29009B
S1132C501B68002002930A4B0196009305AA0123E6
S1132C6001F0DBF8002800D0022008B070BDC04697
S1132C70A8670000C8FFFF1F78FEFF1F7CFEFF1F30
S1132C80CAFFFF1FF0B505000C0089B0002802D070
S1132C900320052D20D1114B06AE5A7804AF3280A3
S1132CA00F4A64BA12680792D88880B2FEF702FA13
S1132CB03D7005AD2C800224FEF7D6F9094B3A008D
S1132CC01B6831000293002001230194009501F058
S1132CD097F8002800D0200009B0F0BDC8FFFF1FFE
S1132CE078FEFF1F7CFEFF1F084B10B55870D9807B
S1132CF0A0210020FF31FFF7C5FF802105204901F5
S1132D00FFF7C0FF322000F05CF910BDC8FFFF1FC1
S1132D1010B50C4CE08880B2FEF7CCF902210420F7
S1132D20FFF77AFFA378E2781B0213431BB2002853
S1132D3004D00548FEF7C4F9002010BD64205843B0
S1132D4000B2FAE7C8FFFF1FAA67000070B5104D74
S1132D500400E88880B2FEF7ADF902210420FFF7F1
S1132D605BFFA978EA78C9B2D2B2002803D0094837
S1132D70FEF7A6F970BD002C03D00748FEF7A0F9B2
S1132D80F8E709021143054809B2FEF799F9F1E79A
S1132D90C8FFFF1FAA670000B1670000C1670000F9
S1132DA010B5002000F0FAFD10BD10B5002001F0B0
S1132DB02DFD10BD10B5002001F006FA10BD000075
S1132DC0082310B5164A9178194202D091780B4322
S1132DD09370882100222220124B49015A50124933
S1132DE0124C08708020124940025850196811484A
S1132DF001401960195910480840C0218904014351
S1132E00195180210D4B1A7219767F391A70597035
S1132E100B490A700C3299791142FCD110BDC0469D
S1132E2000D007400070044000E007400410000098
S1132E3044100000FFFFF3FFFFFFFFF000400640D7
S1132E40005006401249134810B5814205D00022B3
S1132E50114B9B089B009A420FD1104B104A99606A
S1132E60002310491048521A9A420AD100210F4BEC
S1132E700F4AD21A013A08D210BD84588C50043239
S1132E80E9E7CC5CC4540133EEE719700133F1E790
S1132E9000000000000000000000000000ED00E061
S1132EA0E06A0000D069000000FEFF1F10FFFF1F52
S1132EB038020020030041700020187058609860A8
S1132EC0704710B5437804000120FF2B08D000F0B0
S1132ED0DDFA63780133DBB2637000F0CBFA0020D3
S1132EE010BD0020704770B504000D0000F0CEFA4C
S1132EF0E1682943E16000F0BDFA002070BD0000E4
S1132F0000220A4B9A641A0040329A631A00303243
S1132F109A621A0020329A611A0010329A60044AA6
S1132F201360044B9B60DB607047C0469C0100202B
S1132F3098010020EC0100200022024B1A6018685E
S1132F4080B270470C007C5070B5437804000D00CB
S1132F50002B0BD0002500F099FA6378013BDBB21B
S1132F606370257000F086FA280070BD02200029E5
S1132F70FBD02378002B17D0FFF7DEFF6368A2682D
S1132F80834204D8C01A824206D30320EDE7C01A54
S1132F9080235B02C018F6E700F078FA0023237060
S1132FA000F068FA0220E0E74B1CEED000F06EFA65
S1132FB00123237000F05EFAFFF7BEFFA560606096
S1132FC0E3E770B50500FFF7B7FF8026040076023B
S1132FD0FFF7B2FF0300844203D8031B9D42F7D2DC
S1132FE070BD301BC318F9E710B5012801D100F0FA
S1132FF04DFA10BD10B5012801D100F03BFA10BD07
S113300010B5FFF77DFF01230020084A084913602B
S1133010084A094C1060086004212160074C2160B3
S113302007490B6007490860136010BD38800450DD
S113303000008450000004500000045104000451B6
S113304004000C500000045310B5044C206021719E
S11330500020A2602373637310BDC046FC010020EE
S11330600422F0B587B005AC3B4E0190029120706C
S1133070617033790092834226D90022337B150094
S1133080737301230092A3700393334F3B7BAB42D2
S11330901DD8009B002B02D0029B012B48D101209C
S11330A0FFF7A2FF0C20019B002558433368181832
S11330B000F0D6F8019B012073710226FFF79AFFF6
S11330C0A6703B7BAB421AD8009807B0F0BDBA6833
S11330D0AB009B58002B0FD01A7903990A420BD0EE
S11330E020001A6899689047002805D0029B7D73D8
S11330F0002B1BD0052300930135EDB2C5E7BA6858
S1133100AB009B58002B0ED01A7932420BD0200012
S11331101A6899689047002805D0029B7D73002B9C
S113312017D0062300930135EDB2CAE705230093B7
S11331300023A370013DEDB2FF2DC5D0064BAA00BC
S11331409B68D358002BF5D020001A6899689047E3
S1133150F0E706230093B7E7FC010020014B587900
S11331607047C046FC01002013B5040000202178FC
S11331700190022920D0032922D0012925D12279C6
S113318001AB144801F00AF9002814D1A3795A1E9E
S11331909341114ADB01137063785A1E93410F4A1D
S11331A05B001370A2780E4B1A70E2780D4B1A7004
S11331B062790D4B1A7016BD0100227901ABE0E76C
S11331C001A9044801F02CF9DEE701A9014801F046
S11331D0C9F8D9E70040064018408653004086509D
S11331E0004006500140065018401650084A430952
S11331F09B009B18F822C005120510401843802339
S11332005B0518430068431E9841C0B27047C0462E
S113321028800440074A43099B009B18F822C005F4
S113322012051040184380235B05184300230360F4
S11332307047C04628800440F821084A43099B008F
S11332409B180905C2050A40134380225205134303
S11332501F2210401E3A82401A60704728800440A2
S1133260072373B5009300230400104D1A000121B5
S1133270280001F0BDFA2000FFF776FF637A2800EA
S113328000930023217A1A0001F0B2FAE379084A84
S11332909B041360074BA17A1D68280001F0DCF839
S11332A02800E17A01F0E7F8002076BD00700440C0
S11332B000700C59C868000010B5054801F012F8F8
S11332C0044B1968C9B20131FDF74AFC10BDC04670
S11332D00040064044801C5E10B5FFF7EDFF10BDB2
S11332E010B5054800F0FEFF044B1968C9B201315E
S11332F0FDF736FC10BDC04600400640448014581B
S113330010B5FFF7EDFF10BD0B4B1B68DBB2022BB2
S11333100CD0032B0DD00020834206D1074A10683D
S113332080221202904200D018007047044B1868A3
S1133330FBE7FA208000F8E700700C59280200200F
S11333402C02002010B5FFF7DFFF10BD054B10B5B0
S1133350186801F088F80023984201D0024B1B68DA
S1133360180010BDC868000028020020044B01208A
S11333701B6810B5DBB2002B01D0FFF7E7FF10BDCF
S11333800480045210B50C0012282AD8FDF7D4FB8F
S11333900A0A0A0F290F12152929181B2929292974
S11333A01E222600FFF788FF2060002010BDFFF7D3
S11333B097FFF9E7FFF7A8FFF6E7FFF7C7FFF3E783
S11333C00A4B2360F1E7FFF7D1FFEDE7084800F06F
S11333D089FFE9E7064800F06FFFE5E7FA239B0061
S11333E0EFE7002302202360E0E7C046006CDC0224
S11333F00040064010B5024B185CFFF71DFF10BDDE
S11334007068000010B5024B185CFFF7EFFE10BDAA
S11334107068000010B5BB20FFF7E8FE10BD10B5C2
S11334207620FFF709FF10BD10B57620FFF7F2FEF6
S113343010BD10B57620FFF7D9FE10BD10B566207B
S1133440FFF7FAFE10BD10B56620FFF7E3FE10BDCE
S113345010B56620FFF7CAFE10BD10B59420FFF723
S1133460C5FE10BD10B5024B185CFFF7BFFE10BDC2
S113347072680000044A1368002B04D0013B1360F7
S1133480002B00D162B670470C02002072B6024ACB
S113349013680133136070470C02002010B5064C0A
S11334A0064801F037FC042801D1002010BD013C7E
S11334B0002CF5D10320F9E7EA03000000E00740FF
S11334C010B50B4B0B490A78002A07D0084C0A4860
S11334D001F020FC012806D1002003E0013B002B71
S11334E0F1D1032010BD013C002CF0D1F9E7C04616
S11334F0EA03000002D0075100E00740F7B50700D7
S11335000E00150001200193002F15D0002913D0BF
S1133510FFF76AFD094C102200212000FDF7DEF8B8
S113352027602671002D03D0019BA560237363736C
S11335300120FFF75FFD0020FEBDC0461002002001
S1133540F0B5B14C8DB002900391237B01206373DD
S1133550FFF74AFD2379029A934206D80120FFF728
S113356049FD022738000DB0F0BD029A236892008D
S1133570D35809AC1D780193039B2A002372029B44
S11335802370019B636002239A430492012A01D0B1
S1133590052D0AD101219D4801F010FB002807D117
S11335A00120FFF727FD0127DCE70321072DF2D8CF
S11335B00123002763723C000593934E337BA3429F
S11335C02AD80120FFF716FD914800F0AFFE049BB6
S11335D0012B4AD10138022835D9039B012B00D095
S11335E00DE106270120FFF7FFFC0023012609ADAA
S11335F06B72013CE4B2FF2C00D1AFE0824BA2001D
S11336009B68D358002BF4D01A793242F1D02800A9
S11336101A6899689047ECE7B268A3009B58002B9E
S11336200ED01A7905990A420AD01A68996809A82D
S11336309047002804D0039B04277473012BC0D146
S11336400134E4B2B9E7FFF75BFE724B9842C4D889
S1133650FFF732FE704EB042BFD8FFF741FEB042D2
S1133660BBD8FFF739FEB042B7D8039B012B00D07B
S1133670C1E00A2D00D9BCE02800FDF75DFA060A76
S11336800D1E879A7B822F737800002207AB1A7075
S11336902DE0032207ABFAE75C4801F03BFB01286D
S11336A008D00021594801F099FAFFF709FF071ED5
S11336B000D057E7012207ABE9E7544801F02AFBA1
S11336C0042808D00221514801F088FAFFF7E6FEE9
S11336D0071E00D046E7042207ABD8E7072207AB52
S11336E01A80019AD2789A70019A1279DA702B00B2
S11336F0083B022B06D8019B06AA5B799372019BB7
S11337009B79D372019B5B78002B0AD0012D08D9D9
S1133710019B02229978414B00294DD019690A4333
S11337201A613A4807A901F07DFA002800D003275E
S1133730002D45D1FFF7C4FE071E00D012E7002775
S11337400120FFF751FC029B2F4D0024AB73022391
S113375009AE737201932B7BA34236D80120FFF785
S113376049FCFFE6082207ABFF321A80BFE72C4A68
S113377007ABFAE7022207AB1A700222FF329A80E3
S1133780B5E7022207AB1A70264AF8E7022207AB14
S11337901A70013A1D489A8001F0BCFA0128A6D09B
S11337A000211A4801F01AFAFFF78AFE071E9ED07C
S11337B0D8E6052207AB6AE7196991431961B0E7B6
S11337C0012DBDD1FFF76AFEB6E7AA68A3009B5896
S11337D0002B0BD01A7901990A4207D030001A68DD
S11337E099689047002801D005276C730134E4B22E
S11337F0B1E70327B6E6002F00D13AE7F2E6002F3F
S113380000D0EFE6EDE6C0461002002000E00740DD
S11338100040064040420F0080841E0000ED00E09E
S1133820070300000102000010B5064801F072FA17
S113383003000020012B03D00B30042B00D10A38E5
S113384010BDC04600E00740F7B5FF2403681D4AD9
S11338501E0A26401C40B3009F581B4A05009B5873
S113386030000193FFF7C6FD00222100380001F06B
S113387059FA019BA400E41884232A795B052343A5
S113388052001A6080236A795B0523431A609023EF
S1133890AA795B05234312011A600C4B1C43EB7994
S11338A01B042360EB79002B0AD0094B9B57002B98
S11338B006D01F2213401E3A9A401300054A136093
S11338C0F7BDC046CC680000D4680000000018189A
S11338D0DC68000000E100E0F8B5FF24050003689F
S11338E0114A180A20401C4083009F580F4A9E58D2
S11338F0FFF780FD38002100012201F013FA6A6805
S11339002100380001F01DFA88232A7AA400A419A2
S11339105B05234392001A6098235B051C436B7A72
S11339209B012360F8BDC046CC680000D468000049
S113393070B50C00002807D1002C0FD170BD050014
S11339400835FFF781FF280003680133F7D1F3E757
S1133950250020000C35FFF7BFFF2C00236801333E
S1133960F6D1EBE7FF22030A044913409B005958A0
S11339700123104083404B607047C046CC68000070
S1133980FF22030A044913409B00595801231040A5
S113399083408B607047C046CC680000084B8200AF
S11339A0D258942310B502325B0513431B78002BC5
S11339B002D000F03FFA10BD00F092FAFBE7C046D7
S11339C074680000020080230C325B0513431A78EC
S11339D0002AFCD00171704770B50D00084B8000BF
S11339E0C458200029001830FFF7AEFA0328F8D095
S11339F0002801D004232374207CC0B270BDC046CB
S1133A002002002010B5104B8000C458E37C002B2A
S1133A1005D0237C052B02D0237C042B0BD10B4B2C
S1133A2018589823821C5B05134300221A7001F076
S1133A30F7F901236374A37C002B03D02000183012
S1133A40FFF73FFA10BDC046200200207468000052
S1133A50F0B51700002289B005930EAB1B78050062
S1133A600393830032481E5832481C5807AB1A800F
S1133A70A37C880A04930223FF3363828B0A019395
S1133A80CBB21E2801D11A000B0A5B00D8B2019BED
S1133A9000211E2B05D08F4203D1012303995B1A09
S1133AA059B20143CBB202930299019807AB197042
S1133AB001211E2801D15A704918A3603000E16029
S1133AC00299FFF77FFF28000F99FFF785FF237CFA
S1133AD0002B0CD1002F0AD0059BA760E3603000B7
S1133AE03978FFF76FFF28000F99FFF775FF237CE4
S1133AF0039A1A4314D1019B1E2B01D0002F0FD01F
S1133B00002301273000A360E76001F077F90299F0
S1133B1030003943FFF756FF28000F99FFF75CFF89
S1133B200023207CE374049BC0B2A37409B0F0BDED
S1133B307468000020020020F7B583000193184B3D
S1133B408200D75805000C000126002F26D1154B02
S1133B503900D358200024220193FCF7BFFD200034
S1133B6039001830FFF7A6F92800FFF767FC019821
S1133B7001F0EFF80A4BAA00D4501F220A4B5B5DF8
S1133B80134032009A40094B1A609C22019B520553
S1133B9002331343802266743E001A703000FEBD67
S1133BA020020020746800007868000000E100E052
S1133BB0F7B50E4E8500AB59002701930C4B04005A
S1133BC0EA589C2302325B0513431F70FFF73BFC4A
S1133BD0084B01981A5D1F231A401E3B9340064A66
S1133BE01830D367FFF77DF9AF51F7BD20020020ED
S1133BF0746800007868000004E100E00A4B80006B
S1133C0070B5C5584B686A690C0093420BD0074BDA
S1133C10C658FFF765FB002301006268300001F01D
S1133C20A7F863686B6170BD20020020746800000F
S1133C30F0B587B004920593334A0FAB1E78830026
S1133C409C580391627C0700002A03D1032020744E
S1133C5007B0F0BD002E01D11E220E922B4A38006F
S1133C60D55800230399E360A3602374236063742D
S1133C70A674FFF7C3FF90231021AA1C5B0513430E
S1133C8019708423E91C5B050B43022119709823E6
S1133C905B05134302934023029A2800137001F03A
S1133CA0ADF8039B380019880E9B049A01930123F5
S1133CB00093059BFFF7CCFE0D9B002B17D0237CB4
S1133CC0002B11D10C9B2800A3600D9BE3600C9B7F
S1133CD01978FFF777FE002E03D038000E99FFF70E
S1133CE07BFE207CC0B2B3E7237C042BF9D10023F4
S1133CF00126029A1370EB785B09334202D0280044
S1133D0001F08EF86674ECE720020020746800006D
S1133D10F0B589B0079311AB1B780692364A02932B
S1133D2083009C580591627C0600002A03D103207D
S1133D30207409B0F0BD029A002A01D11E321092FB
S1133D4000272E4A0599D5580E9B300023600F9BFF
S1133D50A7606360029BE760A37427746774FFF72E
S1133D604DFF9023AA1C5B051A4310231370842370
S1133D7004925B05EA1C134302221A709823AA18C2
S1133D805B051A43402328001370039201F036F8B0
S1133D90059B069A1988109B300001930097079B96
S1133DA0FFF756FE237CDAB2BB4215D1049BA91C53
S1133DB01A708C235B050B430F99012900D108224B
S1133DC01A702B79029B002B03D030001099FFF757
S1133DD003FE207CC0B2ACE7237C042BF9D101267E
S1133DE0039B1F70EB785B09334202D0280001F07B
S1133DF017F86674EDE7C0462002002074680000DE
S1133E001FB501240394089C0294079C0194069C0A
S1133E100094FFF70DFF04B010BD1FB501240394F7
S1133E20089C0294079C0194069C0094FFF770FF81
S1133E3004B010BD244B70B58400E5588423EA1CFB
S1133E405B05134302221A709023A9185B050B43E8
S1133E501B78EA78DBB292061DD5942252050A43F8
S1133E601278002A17D0194AA458012B14D1EA78E1
S1133E701A4204D004332374FFF7C4FD0BE0E36853
S1133E80013BE360002BF7D0A36828005A1CA26012
S1133E905978FFF797FD70BD6268013A6260002AA5
S1133EA006D08C235B05012A0AD000220B4309E0CB
S1133EB0FFF7A8FD23685A1C22602A791A70EAE7E2
S1133EC008220B431A70F5E77468000020020020F2
S1133ED0C31C84204005184302230370704700006C
S1133EE00122F0B5904B8100CD5889B0EB1C0193B1
S1133EF0EB7890261B091A4005920122EB7876058F
S1133F009B091A4002923200AB1D1A439446127860
S1133F100090D2B20792942252051A431278AF1C31
S1133F20D0B203909820400503431878C0B206909D
S1133F307E480C583100394301910978C9B2049183
S1133F40002A35D0079A002A0ED010236246280092
S1133F501370FFF7BDFF236B002B52D06A4601217B
S1133F601078626B98474CE0069A002A20D04022D1
S1133F7028001A70FFF7ACFF23002C331B78002BAA
S1133F8003D19822520517433B70236B002B04D0B6
S1133F906A4680211078626B9847E37D002B04D039
S1133FA0200080211830FEF79EFF0A23237028E0AA
S1133FB02800FFF78DFF059B002B24D0EB1C1E432C
S1133FC010233370029B002B10D0EB785B07DA0FC1
S1133FD0002B48DB019B1A70236B002B04D06A462C
S1133FE004211078626B98472B790AE00823237028
S1133FF02C342378002B04D198235B051F43029BA8
S11340003B7009B0F0BD029B002BDED1049B012B59
S113401054D1EB78049A134230D0019B029A1A705F
S11340202B7923002C331B78002B07D1039B002B07
S113403004D198235B051F43039B3B70236B002B28
S113404004D06A4608211078626B9847A37D002B40
S113405004D0200008211830FEF745FF00236360D8
S1134060E3602375CDE71023019A1370236B002BB3
S113407004D06A4602211078626B98476368002B6B
S113408050D028008022E3680C305205197802438E
S113409010780028FCD029710133E3606368013B88
S11340A063606368002BACD1E3602375236B002B42
S11340B0A7D06A4610211078626B53E72B79A26867
S11340C0DBB2002A2CD022691370236901332361E7
S11340D0A368013BA360A368002B00D091E7039B76
S11340E0002B11D123002C331B78002B04D19823EF
S11340F05B051F43039B3B70E37D002B04D0200032
S113410020211830FEF7EFFE002363752361236B33
S1134110002B00D175E76A4620211078626B21E7F5
S1134120072343E7062341E77468000020020020C8
S1134130042902D0072907D07047902303305B0578
S1134140184310230370F7E79C2303305B051843DF
S11341508023F7E7DC2270B50024094B8000C558A2
S1134160084B5205C35808331A431460AA7CA24270
S113417003D028001430FEF7A4FE2C7470BDC04692
S1134180240200207C6800000C4B800070B5C558E8
S11341900B4B0024C058D42302005B0508321343A0
S11341A01C602200074900F05CFEEB7CA34203D0B4
S11341B028002030FEF785FE6C7470BD24020020B8
S11341C07C6800001B000200F8B52B4A83009C5851
S11341D00600227C002A02D1627C002A3ED0274AB3
S11341E0D558DC232F005B051A0008373A431268C0
S11341F0002A15D02A1D13431B68002B10D0A36876
S1134200002B0DD023681A780133EA602360A36879
S1134210013BA360A368002B02D13000FFF79AFF93
S1134220D4235B051F433A68002A0DD02A1D13438B
S11342301B68002B08D0EB6862681370E36A002BDC
S11342400DD021003000984728000D4900F04AFEA7
S1134250002803D028000A4900F048FEF8BD63682E
S113426001336360E368013BE360E368002BEBD157
S11342703000FFF789FFE7E7240200207C68000094
S11342801300010084225205024312780300D0B2C5
S1134290002A0CD0802001334005034318780138EC
S11342A043425841024B40421840024BC0187047E9
S11342B0808D5B0080841E00020070B5074B0832BD
S11342C013431C78064B103213431D78FFF7DAFFB3
S11342D0EDB2E4B26419E04070BDC0460000901035
S11342E00000101010B50D4B821D13431A78040002
S11342F0D3B2002A0FD0012B07D1FFF7C3FF084B1D
S113430008341C432378D84010BD0020022BFBD175
S1134310044B1868F8E70448F6E7C04600000811A3
S11343200000901028020020006CDC020C4A811D61
S11343300A4312780300D0B2012A04D002280BD019
S113434000280BD1704780220133520513431B7898
S1134350002BF7D10220F5E70320F3E70520F1E76E
S11343600000081102009C2318325B0513438022CD
S11343701A700022064B03431A70064B063018438A
S11343800378DAB2002BFBD1034B10000B607047AB
S11343900000081300000811006CDC02F8B50400EA
S11343A00D0016001F00FFF7C1FF012823D1002DC7
S11343B025D08023621C5B0513431D7084230222D5
S11343C05B0523431A702200104B0832134372001A
S11343D0D2B21A7040220E4B0E48234306341A7090
S11343E004432378012BFCD1002D0DD10A4B33411A
S11343F000203B60F8BD0228DBD1012DD9D1390062
S11344002000FFF7AFFFD4E7044BF0E70000901063
S1134410000008130000081180841E0000127A00B6
S113442010B50A4C030022680120002A0CD0084A67
S11344307F301A4310700748063303431A78022A60
S1134440FCD1002023680B6010BDC0462802002068
S113445000000813000008119C23C9015B050343F5
S1134460C9B2197070479C235B0503431878431E37
S11344709841C0B27047942349015B050343C9B214
S11344801970704770B506680C0030002049FCF7BD
S113449067FB1F4905003000FCF7E8FB0E00E12133
S11344A030000901FCF75CFBE121E08009013000E8
S11344B0FCF7DCFB0E003C213000FCF751FB3C21F7
S11344C020813000FCF7D2FB6E22A1720321114B34
S11344D0FF322380238895420AD80F499B0700D1D5
S11344E00E490123CA5CAA420CD36380A58070BD27
S11344F001339BB223800B40AD1A5A425A416E32AB
S1134500FF32E7E70133AD1A0D2BEBD1EEE7C046DE
S113451080510100B2070000A86800008068000014
S11345200188114A03008A18002030B5812A17D85F
S11345305A88541E0B2C13D89C88651E1E2D0FD828
S1134540DD88172D0CD81D893B2D09D89B7A3B2B70
S113455006D88B0705D0054B9B5CA3424041C0B2F3
S113456030BD034BF8E7C0464EF8FFFFA8680000D3
S11345708068000070B5134D838802885B196E252E
S1134580FF35554344885B1995085B190E4D660049
S1134590755B5B19920710D00B600A680B4BC488DB
S11345A05343827A00899B18E122120162439B18CB
S11345B03C2242439B180B6070BD022CECD8013B9B
S11345C0EAE7C0464A05F5FF8E6800008051010005
S11345D08023084A1B0212689A4209D1A023103092
S11345E05B0518430368002B02D10133FF330360DA
S11345F07047C046280200200100802210B5002325
S113460001245205103111430C600B60902143606A
S1134610490504601C3001430B60882149050143AE
S11346200B6084214905014310430B60036010BDF6
S11346300200902314325B05134300221A60426087
S1134640103201601A60704703680B607047000005
S1134650104B820070B5D558802204000E4B920591
S11346601A602800FFF7C8FF2800FFF7B1FF0B4BC3
S11346701F261A5D0123180009493240095DC0252F
S1134680314090408B40074A6D00505153511060A7
S1134690136070BDB86800003C80845EBC68000094
S11346A0BD68000000E100E0F7B50027114B800071
S11346B0C55808000E000197FFF732FF0400B84206
S11346C016D001A93000FFF755FF3800FEF73AFE77
S11346D0010080200002814206D0FCF741FA01006B
S11346E00198FCF73DFA019028000199FFF7A0FF1B
S11346F02000FEBDB8680000F7B50025124B80000D
S1134700C4580E00200001A90195FFF79DFF280061
S1134710FEF718FE05008020000285420ED00B4BE8
S1134720290004341C43FCF71BFA2768019C290068
S11347304443B8B2FCF714FA24180194310001A8D8
S1134740FFF7A0FEF7BDC046B8680000000078106F
S1134750F0B50027184B800085B0C55808000E003E
S113476001920397FFF7DCFE0400B84203D1002452
S1134770200005B0F0BD300003A9FFF7FBFE3800B0
S11347802E68FEF7DFFD010080200002814206D082
S1134790FCF7E6F901000398FCF7E2F90390039BA8
S11347A0B342E4D3AB6088231C355B051D43019BF6
S11347B09A002A60DCE7C046B8680000044B800019
S11347C0C25888231C325B05134389001960704763
S11347D0B8680000054B8000C258882314325B057A
S11347E013431868431E9841C0B27047B86800006C
S11347F06B46E0221B78D2021B041340024A0907CD
S11348000B4380180360704744100000084B82007B
S1134810D258902310B503325B0513431B78002B49
S113482002D000F013F910BD00F078F9FBE7C046A0
S1134830C06800009C210C4B0C4A8000C35882586D
S1134840002003324905114310B5187108709421F2
S113485049050A4310701A7F824203D0203318009E
S1134860FEF72FFB10BDC04630020020C0680000D8
S1134870F7B50C0005001B4B3022002187002000F7
S1134880FE58FBF72BFF2800FEF7C9FDFEF728FDB5
S11348902060300000F080FB200000212030FEF773
S11348A009FBF31C01939023F21C5B0513431022B4
S11348B030001A70032100F0ADFB3000002100F03D
S11348C0CEFB094BFC50094B5A5D1F231A401E3B7B
S11348D09340074A13609823019A5B0513434022CF
S11348E01A70F7BDC068000030020020C4680000E0
S11348F000E100E0F8B50D4E85000D4BAF59040002
S1134900E85800F049FB38002030FEF7EAFA094B7A
S113491020001A5D1F231A401E3B9340064AD367AA
S1134920FEF782FD0023AB51F8BDC04630020020E3
S1134930C0680000C468000004E100E00A4B800085
S113494070B5C658094B0C00C358150030001A68DE
S1134950096800F028FB2860A37930006279217986
S113496000F06AFB70BDC046C06800003002002041
S1134970F7B51E4A83009C58050022790420002ABA
S113498016D11B4A9E58002903D0280001AAFFF71C
S1134990D5FF982300214020F21C5B0513431970B6
S11349A0187027698F4204D12800FFF743FF0020C5
S11349B0FEBD0123237194235B05A16133431B785E
S11349C00720002BF4D0A368191E02D019780133F4
S11349D0A360B1712369013B2361A3690133A3611E
S11349E09C235B051A4380231370E0E73002002008
S11349F0C0680000F8B5134F134C85002C59ED59CD
S1134A000127069E2777A2602661E3606661FFF7AF
S1134A10AFFF002814D1200007992030FEF794FA44
S1134A200328F8D000280BD09C23002203355B0513
S1134A302B4322711A70942303205B051D432A70B3
S1134A40F8BDC046C06800003002002010B51E4BFF
S1134A508200D3581979002934D01C4951585A6915
S1134A60002A11D09C2252050A431278002A0BD046
S1134A708A79DC68D2B2002C03D02270DA68013261
S1134A80DA605A69013A5A611A69002A12D09422EA
S1134A9052050A431278002A0CD09A68141E02D0D8
S1134AA0147801329A608C711A69013A1A619A6910
S1134AB001329A611A69002A04D15B69002B01D181
S1134AC0FFF7B8FE10BDC04630020020C0680000E9
S1134AD0104A8000815800220F4B10B5C35803318F
S1134AE0581CC2779C2040050843DA621A701A8366
S1134AF05A629A621A6302709420400501430A7054
S1134B001A0038321278002A03D00121181DFEF74A
S1134B10EAF910BDC06800003002002070B5254BD2
S1134B208200D358591CC97F002942D022495258C7
S1134B30D96A002917DB9421490511430978002912
S1134B4011D0D969CCB2596A002905D0DD6A002D8B
S1134B5002DD0C78013159629471D96A0139D96244
S1134B60596B01315963D96A002905DA9421D41C9F
S1134B704905214300240C70196B002911DD9C2187
S1134B8049051143097800290BD09279996AD2B268
S1134B90002903D00A709A6A01329A621A6B013AA8
S1134BA01A63DA6A002A04DC1B6B002B01DCFFF7B2
S1134BB08FFF70BD30020020C0680000012903D0BF
S1134BC0032909D00020704794235B05184300781B
S1134BD0431E9841C0B2F6E78423F6E7431C03481A
S1134BE049011843C9B201707047C04600008812D9
S1134BF0831C9420490140051843C9B201707047D1
S1134C00831C034889011843C9B201707047C04628
S1134C1000000813831C8C20C90040051843C9B246
S1134C2001707047F7B50400364EE31C1E43337819
S1134C3008780D00DBB2072860D8FBF77DFF041964
S1134C402B0E192B2B45304B01341C4300232370AE
S1134C503378012BFCD10020FEBD012BFCD12A4B63
S1134C6001341C43402323703378042BFCD1F2E736
S1134C700021012801D004200231337898423FD129
S1134C802000FFF7ABFF0421204A13698B43136113
S1134C9030BFE0E70227B84207D100270B79BB42B7
S1134CA003D020004979FFF7ABFF194B01341C43B3
S1134CB027703378154ADBB20193019B01330193CA
S1134CC0042311690B43E2E70421114B621C1A43CC
S1134CD011706A78A11C0B431A70002A06D1AB78B4
S1134CE0002B03D02000E978FFF782FFAB79002B7B
S1134CF0DFD02000E979FFF78DFFDAE70120ABE789
S1134D000320A9E7000030100000881200ED00E045
S1134D1000001010C31C024818430078C0B270474A
S1134D2000003010012314308B40012A04D180226A
S1134D3012051043036070478022D204DB43104302
S1134D40F8E701238B40002A01D043607047836059
S1134D50FCE70023C222037043708370C370437165
S1134D608371C371037242728372C372704700000D
S1134D70F0B5002487B00293FA230126270025000A
S1134D809B00534303900491009301947642AB003B
S1134D900593194BAA009B1859880498A140FBF766
S1134DA0DFFE009B009AC31A824200D9131AB34251
S1134DB01FD2114AA900525C27000192002B02D095
S1134DC00135322D13D10134032C01D0002B0DD128
S1134DD0029A002A00D013603F220199BB011140BE
S1134DE00B43039ADBB2537007B0F0BD00251E00DD
S1134DF0CDE73300E4E7C046DE68000094230230C8
S1134E005B0503431B78002B05D088235B051843FF
S1134E1004230370704780231B0518433023F8E7ED
S1134E20942210B55205841C224311780300CAB29F
S1134E30022001290DD18021C90421438024CD30D1
S1134E400870E4000333197849090800104011423E
S1134E5000D110BD013C002C01D0C046F3E709206D
S1134E60F7E7012310B58B400400080C04280AD886
S1134E70FBF762FE030E14171A008020002A03D0E9
S1134E8000050443236010BDC004DB430443F9E779
S1134E90201D8024002A0AD02405F2E720000830CF
S1134EA0F7E720000C30F4E720001030F1E7E404C9
S1134EB0EBE70200002300B5080C042808D80133EE
S1134EC0FBF73AFE03080A0C0E001068C8400340C2
S1134ED0180000BD5068F9E79068F7E7D068F5E777
S1134EE01069F3E710B5FFF7E4FF10BD294A03008A
S1134EF0881800B510284BD8FBF71EFE433C27202A
S1134F001912094A4A4A4A2E4A4A4A4A3500D020C6
S1134F108022043340050343520300201A6000BD7D
S1134F20CC2080220433400503431203F5E7C82054
S1134F308022043340050343D202EEE7C4208022DA
S1134F400433400503439202E7E7C0208022043380
S1134F50400503435202E0E7FC208022043340056D
S1134F6003431206D9E7F8208022043340050343A3
S1134F70D205D2E7BC208022043340050343120249
S1134F80CBE7B8208022043340050343D201C4E7B1
S1134F900320C4E7F2FFFEFF0423C37000238370E1
S1134FA0437003717047F0B5130B89B00126039366
S1134FB008230124764202939B19079004910592D9
S1134FC0019302270025631E069321000598794367
S1134FD0FBF7C6FD049B834207D31B1AB34204D2DA
S1134FE01E00069B03900295019301357F00092D55
S1134FF001D0002EE9D1082C02D00134002EE0D1DA
S1135000019B029A1B0103981343079ADBB2537066
S113501009B0F0BD842310B50224C21C5B05134300
S11350204A0022401A70902300195B05184310238C
S1135030C9001940017010BD10B58C2403306405FB
S1135040C9000443C9B22170882192004905014373
S1135050D2B20A70802252051043037010BD80231F
S1135060012202305B0503430A401A708C235B055E
S113507018430823890019400170704704FEFF1F7C
S1135080096757617270537069436F6D6D6F6E532A
S1135090696E6B4275666665725B25645D203D20B2
S11350A05B3078253032585D0A0077617270536541
S11350B0744C6F77506F7765724D6F6465286B57CA
S11350C0617270506F7765724D6F6465564C5053C2
S11350D02C2030202F2A20736C6565702073656343
S11350E06F6E6473203A20697272656C6576616EC6
S11350F0742068657265202A2F2928292066616931
S11351006C65642E2E2E0A000D0A0A0A0A5B202AF8
S11351100909090957617270202848572072657679
S11351206973696F6E204329202F20476C6175785D
S113513020284857207265766973696F6E2042296A
S11351400909092A205D0A000D5B202009090909C3
S113515020202020202043616D62726964676520ED
S11351602F2050687973636F6D706C61622020200A
S11351700909090920205D0A0A000D5B202009099C
S113518009092020202020203442323520436F7525
S1135190727365776F726B202D204C656F6E2042A1
S11351A072696E646C657920202009090909202040
S11351B05D0A0A000D09537570706C793D25646DA4
S11351C0562C0944656661756C7420546172676578
S11351D07420526561642052656769737465723D19
S11351E03078253032780A000D094932433D256470
S11351F06B622F732C095350493D25646B622F73E6
S11352002C09554152543D2564622F732C094932AF
S1135210432050756C6C2D55703D25640A0A000DB1
S11352200953494D2D3E53434743363D307825308D
S1135230327809095254432D3E53523D307825307B
S1135240327809095254432D3E5453523D30782547
S11352503032780A000D094D43475F43313D3078C1
S1135260253032780909094D43475F43323D307890
S11352702530327809094D43475F533D3078253056
S113528032780A000D094D43475F53433D3078257A
S11352903032780909094D43475F4D433D30782545
S11352A030327809094F53435F43523D30782530FB
S11352B032780A000D09534D435F504D50524F54FC
S11352C03D307825303278090909534D435F504DFC
S11352D04354524C3D3078253032780909534342C7
S11352E02D3E5343523D3078253032780A000D0963
S11352F0504D435F52454753433D30782530327813
S113530009090953494D5F53434743343D307825D8
S1135310303278095254432D3E5450523D30782552
S11353203032780A0A000D0925647320696E205210
S113533054432048616E646C657220746F2D6461FF
S113534074652C09256420506D6772204572726F54
S113535072730A001B5B306D1B5B343B34336D1B73
S11353605B313B33376D0D53616E6974792063682B
S113537065636B206661696C6564211B5B306D0A33
S1135380000D09307825303278202D2D3E205B30F9
S113539078253032782030782530327820307825DE
S11353A03032785D0A000D09307825303278202DAE
S11353B02D3E203078253032780A000D09307825CA
S11353C0303278202D2D3E202D2D2D2D0A000D0A52
S11353D00925642F256420737563636573732072D4
S11353E06174652E0A000D0925642F2564207375E8
S11353F063636573736573206D61746368656420AA
S11354007265662E2076616C7565206F6620307833
S1135410253032782E0A000D09256420626164204B
S1135420636F6D6D616E64732E0A0A0041626F755D
S11354307420746F20737769746368204350552017
S1135440746F20564C5052206D6F64652E2E2E20A2
S113545000776172705365744C6F77506F77657223
S11354604D6F6465286B57617270506F7765724D2C
S11354706F6465564C50522829206661696C6564D6
S11354802E2E2E0A00646F6E652E0A0D0041626F87
S1135490757420746F204750494F5F4452565F49DA
S11354A06E697428292E2E2E200041626F75742097
S11354B0746F206C6F77506F77657250696E537498
S11354C06174657328292E2E2E2000496E69746933
S11354D0616C6973696E6720494E413231392073BA
S11354E0656E736F722E0A00282534642920494E94
S11354F041323139203D20253464207541200A0091
S1135500426F6F7420646F6E652E0A00507265736B
S11355107320616E79206B657920746F2073686FD6
S113552077206D656E752E2E2E0A000A43616C6C11
S1135530696E672064657653534431333331696E41
S113554069742829206E6F772E0A000A46696E69ED
S1135550736865642063616C6C696E67206465764A
S113556053534431333331696E697428292E0A0048
S11355700D53656C6563743A0A000D2D202761276D
S11355803A207365742064656661756C7420736574
S11355906E736F722E0A000D2D202762273A207336
S11355A065742049324320626175642072617465B8
S11355B02E0A000D2D202763273A2073657420538B
S11355C05049206261756420726174652E0A000D71
S11355D02D202764273A20736574205541525420A6
S11355E06261756420726174652E0A000D2D202796
S11355F065273A207365742064656661756C742050
S1135600726567697374657220616464726573732B
S11356102E0A000D2D202766273A207772697465BB
S1135620206279746520746F2073656E736F722EB7
S11356300A000D2D202767273A20736574206465BE
S11356406661756C742073656E736F722073757008
S1135650706C7920766F6C746167652E0A000D2D6D
S1135660202768273A20706F776572646F776E2001
S1135670636F6D6D616E6420746F20616C6C207358
S1135680656E736F72732E0A000D2D202769273AF9
S1135690207365742070756C6C2D757020656E6157
S11356A0626C652076616C75652E0A000D2D2027CD
S11356B06A273A207265706561742072656164209E
S11356C072656720307825303278206F6E207365DC
S11356D06E736F72202325642E0A000D2D20276B14
S11356E0273A20736C65657020756E74696C20723E
S11356F0657365742E0A000D2D20276C273A2073DC
S1135700656E642072657065617465642062797485
S113571065206F6E204932432E0A000D2D20276D1F
S1135720273A2073656E64207265706561746564E0
S11357302062797465206F6E205350492E0A000D43
S11357402D20276E273A20656E61626C6520736593
S11357506E736F7220737570706C7920766F6C74D1
S11357606167652E0A000D2D20276F273A20646992
S11357707361626C652073656E736F7220737570EC
S1135780706C7920766F6C746167652E0A000D2D3C
S1135790202770273A2073776974636820746F2018
S11357A0564C5052206D6F64652E0A000D2D202733
S11357B072273A2073776974636820746F20525596
S11357C04E206D6F64652E0A000D2D202773273A35
S11357D020706F77657220757020616C6C20736522
S11357E06E736F72732E0A000D2D202774273A20D2
S11357F064756D702070726F636573736F7220735C
S1135800746174652E0A000D2D202775273A2073C4
S113581065742049324320616464726573732E0A8F
S1135820000D2D202778273A2064697361626C6526
S11358302053574420616E64207370696E20666F34
S11358407220313020736563732E0A000D2D2027DA
S11358507A273A2070657270657475616C6C792072
S113586064756D7020616C6C2073656E736F72204B
S1135870646174612E0A000D456E7465722073654F
S11358806C656374696F6E3E20000D0953656C6529
S113589063743A0A000D092D20273127204144580A
S11358A04C33363209090928307830302D2D3078C0
S11358B03244293A20312E3656202D2D20332E35D0
S11358C0562028636F6D70696C6564206F75742948
S11358D0200A000D092D2027322720424D5830354B
S11358E035616363656C20090928307830302D2DCB
S11358F030783346293A20322E3456202D2D203349
S11359002E36562028636F6D70696C6564206F7540
S11359107429200A000D092D2027332720424D58D1
S11359203035356779726F09090928307830302DA0
S11359302D30783346293A20322E3456202D2D200E
S1135940332E36562028636F6D70696C6564206F42
S1135950757429200A000D092D2027342720424D73
S1135960583035356D616709090928307834302D90
S11359702D30783532293A20322E3456202D2D20E0
S1135980332E36562028636F6D70696C6564206F02
S1135990757429200A000D092D20273527204D4D27
S11359A041383435315109090928307830302D2DEA
S11359B030783331293A20312E393556202D2D2097
S11359C0332E36560A000D092D20273627204C5039
S11359D05332354809090928307830382D2D30786C
S11359E03234293A20312E3756202D2D20332E36AD
S11359F0562028636F6D70696C6564206F75742917
S1135A00200A000D092D20273727204D4147333127
S1135A10313009090928307830302D2D3078313172
S1135A20293A20312E393556202D2D20332E365645
S1135A302028636F6D70696C6564206F757429200C
S1135A400A000D092D2027382720484443313030DF
S1135A503009090928307830302D2D307831462925
S1135A603A20332E3056202D2D20352E3056202826
S1135A70636F6D70696C6564206F757429200A000A
S1135A800D092D2027392720534937303231090990
S1135A900928307830302D2D30783046293A20319D
S1135AA02E3956202D2D20332E36562028636F6D27
S1135AB070696C6564206F757429200A000D092DC6
S1135AC020276127204C33474432304809090928EC
S1135AD0307830462D2D30783339293A20322E3221
S1135AE056202D2D20332E36562028636F6D706975
S1135AF06C6564206F757429200A000D092D202718
S1135B00622720424D45363830090909283078414A
S1135B10412D2D30784638293A20312E3656202D05
S1135B202D20332E36562028636F6D70696C6564A2
S1135B30206F757429200A000D092D202764272061
S1135B405443533334373235090909283078303017
S1135B502D2D30783144293A20322E3756202D2DE0
S1135B6020332E33562028636F6D70696C65642072
S1135B706F757429200A000D092D202765272053ED
S1135B804934373035090909286E2F61293A202014
S1135B90202020202020322E3756202D2D20352E57
S1135BA035562028636F6D70696C6564206F757459
S1135BB029200A000D092D20276727204343533845
S1135BC0313109090928307830302D2D3078464696
S1135BD0293A20312E3856202D2D20332E365620AA
S1135BE028636F6D70696C6564206F757429200A71
S1135BF0000D092D2027682720414D4738383334BC
S1135C0009090928307830302D2D3F293A20332EC8
S1135C103356202D2D20332E33562028636F6D707C
S1135C20696C6564206F757429200A000D092D20A4
S1135C30276A272041533732363209090928307838
S1135C4030302D2D30783242293A20322E375620EA
S1135C502D2D20332E36562028636F6D70696C65A8
S1135C6064206F757429200A000D092D20276B27E5
S1135C702041533732363309090928307830302D22
S1135C802D30783242293A20322E3756202D2D20BD
S1135C90332E36562028636F6D70696C6564206FEF
S1135CA0757429200A000D092D20276C2720494EE0
S1135CB04132313909090928307830302D2D3078B6
S1135CC03035293A20332E3056202D2D20352E35CF
S1135CD00A000D09456E7465722073656C65637402
S1135CE0696F6E3E20000D09496E76616C6964200F
S1135CF073656C656374696F6E20272563272021A3
S1135D000A000D0A09536574204932432062617503
S1135D1064207261746520696E206B627073202840
S1135D20652E672E2C20273030303127293E200065
S1135D300D0A0949324320626175642072617465F9
S1135D402073657420746F202564206B622F7300A8
S1135D500D0A09536574205350492062617564200B
S1135D607261746520696E206B6270732028652EE1
S1135D70672E2C20273030303127293E20000D0A91
S1135D8009535049206261756420726174653A2038
S1135D902564206B622F73000D0A09536574205526
S1135DA04152542062617564207261746520696E89
S1135DB0206B6270732028652E672E2C20273030CC
S1135DC0303127293E20000D0A09554152542062E2
S1135DD061756420726174653A202564206B622FBA
S1135DE073000D0A09456E74657220322D6E796256
S1135DF0626C652072656769737465722068657882
S1135E0020616464726573732028652E672E2C20CC
S1135E1027336527293E20000D0A09456E746572F3
S1135E206564205B3078253032785D2E0A0A000DD7
S1135E300A09456E746572204932432061646472B4
S1135E402E2028652E672E2C202730662729206FC8
S1135E5072202739392720666F7220535049203E1B
S1135E6020000D0A09456E7465726564205B307804
S1135E70253032785D2E0A000D0A09456E7465726C
S1135E8020686578206279746520746F2073656E6C
S1135E90642028652E672E2C2027306627293E2073
S1135EA0000D0A09535049207772697465206661B0
S1135EB0696C65642E204144584C33363220446961
S1135EC07361626C6564000D0A094932432077727C
S1135ED0697465206661696C65642C206572726FF3
S1135EE0722025642E0A0A000D0A094F7665727223
S1135EF06964652073656E736F7220737570706C5E
S1135F007920766F6C7461676520696E206D562008
S1135F1028652E672E2C20273138303027293E2043
S1135F20000D0A094F766572726964652073656EA7
S1135F30736F7220737570706C7920766F6C7461F6
S1135F4067652073657420746F202564206D560086
S1135F500D0A094E4F54453A2046697273742070F5
S1135F606F7765722073656E736F727320616E64F0
S1135F7020656E61626C65204932430A0A000D098E
S1135F80506F776572646F776E20636F6D6D616EAD
S1135F9064206162616E646F6E65642E20424D58A8
S1135FA03035352064697361626C65640A000D09DB
S1135FB0506F776572646F776E20636F6D6D616E7D
S1135FC064206162616E646F6E65642E204C334799
S1135FD0443230482064697361626C65640A000D60
S1135FE009506F776572646F776E20636F6D6D61B2
S1135FF06E64206162616E646F6E65642E2054432A
S11360005333343732352064697361626C65640AD2
S1136010000D0A094175746F2D696E6372656D65B3
