:10000000000600201D050000450500004505000014
:1000100000000000000000000000000000000000E0
:100020000000000000000000000000004505000086
:10003000000000000000000045050000450500002C
:100040004505000045050000450500004505000088
:10005000450500004505000045050000AD0F000006
:1000600025290000450500002F2900004505000056
:100070003929000045050000450500004505000040
:100080004505000045050000450500004505000048
:10009000850F00009D0F000045050000450500008C
:1000A0004505000045050000450500004505000028
:1000B0004505000045050000BD0F00004505000096
:10040000FFFFFFFFFFFFFFFFFFFFFFFFFE3DFFFFBF
:100410000448054B10B5834203D0044B002B00D099
:10042000984710BDF8FEFF1FF8FEFF1F00000000F8
:1004300006480749091A8B10C90FC91810B5491089
:1004400003D0044B002B00D0984710BDF8FEFF1FCF
:10045000F8FEFF1F0000000010B5074C2378002BAA
:1004600009D1FFF7D5FF054B002B02D0044800E06F
:1004700000BF0123237010BDF8FEFF1F0000000025
:100480000C620000054B10B5002B03D00449054851
:1004900000E000BFFFF7CCFF10BDC0460000000029
:1004A000FCFEFF1F0C620000402292029A1A924644
:1004B0007047C046154B002B00D1114B9D46FFF7EE
:1004C000F3FF00218B460F461148124A121A00F022
:1004D00005F90C4B002B00D098470B4B002B00D09C
:1004E00098470020002104000D000B4800F02EF872
:1004F00000F06AF82000290000F01CFF00F03AF834
:1005000000000800000000000000000000060020BD
:10051000F8FEFF1FDC010020A105000072B60648AE
:100520000649074A02600A6002F00CFA02F04CFA2F
:1005300062B6FFF7BFFF000080E100E080E200E06C
:10054000FFFFFFFF004800474505000010B5010010
:1005500000230022002000F01FFA10BD10B50A0091
:10056000002100F0BBF810BD014B18687047C04671
:1005700000FEFF1F084B10B50400002B02D0002125
:1005800000F078FA054B1868836A002B00D0984772
:10059000200000F05BFCC046750A0000004C000023
:1005A00070B5074D074C641BA41005D0013CA30097
:1005B000EB589847002CF9D105F02EFE70BDC046CF
:1005C000306200003462000070B50C4D0C4E761B9A
:1005D000B61005D0002408CD01349847A642FAD1C0
:1005E00005F014FE074D084E761BB61005D000240A
:1005F00008CD01349847A642FAD170BD2C620000A4
:100600002C6200002C6200003062000010B5034B29
:100610000100186800F00CF910BDC04600FEFF1F75
:1006200010B5034B0100186800F0ACF810BDC046CF
:1006300000FEFF1FF0B5C64600B50F2A43D90B00D8
:10064000032603431E400C000300002E40D115007A
:10065000103D2D09AC462D01A846804400E03B002A
:10066000676825685F60E7681D60DF601F00A56838
:1006700010379D6010344345F1D165460F230C249B
:1006800001352D01491913404519144223D08C59C5
:10069000AC5104369C1B032CF9D80324043B9B0863
:1006A00001339B002240ED18C918561E002A07D0BE
:1006B000002300E02300CA5C5C1CEA549E42F9D18E
:1006C00004BC9046F0BD0500561E002AF0D1F7E7A5
:1006D000561E0500ECE71A00F6E7C046F0B5050027
:1006E00083074AD0541E002A44D0CEB2030003220E
:1006F00002E00135013C3DD301332E701342F8D1A5
:10070000032C2FD9FF220A40150215432A04154352
:100710000F2C35D92700103F3F093E01B4461E007B
:100720001A0010366644156055609560D560103229
:10073000B242F8D10F260C2201373F012640DB19C7
:100740003700224217D03E1FB608B400A4461A0054
:100750001C1D644420C2A242FCD103240136B60011
:100760009B193C40002C05D0C9B21C1919700133EB
:100770009C42FBD1F0BD3400F4E714000300BFE756
:100780002700E0E770B50500002915D00C1F23688D
:10079000002B27DB280000F0CBF9244B1A68002A35
:1007A00005D0A2420CD921686018824224D0626030
:1007B00028001C6000F0BEF970BDA34203D81A00E7
:1007C0005368002BF9D111685018A0421BD027D8CC
:1007D00021686018834207D063605460280000F0ED
:1007E000A9F9E9E7E418D5E718685B68844661442D
:1007F000216063605460F1E7106852688446614488
:1008000021606260D4E720680918501811608342A3
:10081000E4D118685B688446614411605360DDE789
:100820000C2328002B6000F085F9C5E714FFFF1F9B
:10083000F8B50323CD1C9D43083506000C2D2AD2A4
:100840000C25A94229D8300000F072F92A4F3A68E5
:10085000002A0AD013685B1B04D441E023685B1BA9
:100860001FD522005468002CF8D17B68002B3DD0A6
:100870002900300000F042F8431C2AD00323C41C96
:100880009C43A04205D0211A300000F037F8431CE9
:100890001FD0256010E0002DD3DA0C230020336038
:1008A000F8BD0B2B05D86368A2421DD0536003E04E
:1008B00014002360E4182560300000F03BF92000AC
:1008C00007220B30231D9043C21AE9D01B1AA350F4
:1008D000E6E70C233000336000F02CF90020DFE75E
:1008E0000B2BE5D8140053683B60E5E7002130008E
:1008F00000F004F87860BBE714FFFF1F002370B519
:10090000064C05000800236000F0A2FA431C00D04A
:1009100070BD2368002BFBD02B60F9E7D8010020C5
:1009200003000A7801311A700133002AF9D17047A7
:1009300010B5830727D00378002B26D003000321AE
:1009400002E01A78002A1CD001330B42F9D1196851
:100950000F4A104C8A188A4322420FD10433196877
:100960000B4A8A188A43224208D104331968084A7C
:100970008A188A432242F1D000E001331A78002A13
:10098000FBD1181A10BD0300E1E70020FAE7C046CA
:10099000FFFEFEFE80808080F0B546464F46D6467C
:1009A000C0B51F002F4B82B01C6805000E0090469A
:1009B000002C2DD063681F2B50DC002D1CD088220A
:1009C000A0589146002834D07832825894469A0034
:1009D00091468144424649460A6001216246994057
:1009E0000A43944680228A46614652008150494615
:1009F000803A8F50022D16D000205A1C02339B00E3
:100A000062601E5102B01CBC90469946A246F0BDE1
:100A1000154C1C60154B002BCCD01B680193882310
:100A2000019AE250C6E75546843281580D438550FD
:100A3000E2E70F4B002B11D084204000FFF7E6FDCA
:100A400000280BD0802200235200835004328350B0
:100A50004B460022E05094466368B8E701204042CC
:100A6000D0E7C046A8FFFF1F1CFFFF1F00000000CB
:100A70000D060000F0B5DE464E46454657462B4B68
:100A800088469B46E0B51E6883B00190002E45D095
:100A900088237568F7586C1E40D40135AD00783353
:100AA00075199A460AE0002F05D03B00A20080335A
:100AB0009B58434505D0043D013C2FD34346002BB2
:100AC000F1D173682A68013BA34222D000232B6036
:100AD000002AF0D073689946002F18D001235146A0
:100AE000A3407958194212D0822040003858A10002
:100AF0007958009018420ED1019890475B46726871
:100B00001B684A4501D1B342D5D01E00BEE79047CD
:100B1000F4E77460DCE708009047EFE703B03CBC03
:100B200090469946A246AB46F0BDC046A8FFFF1FBF
:100B30007047C0467047C04602B471464908490034
:100B4000095C49008E4402BC7047C04603B471463C
:100B5000490840004900095E49008E4403BC7047C3
:100B6000002243088B4274D303098B425FD3030AEC
:100B70008B4244D3030B8B4228D3030C8B420DD3FF
:100B8000FF22090212BA030C8B4202D3121209028D
:100B900065D0030B8B4219D300E0090AC30B8B42CB
:100BA00001D3CB03C01A5241830B8B4201D38B0379
:100BB000C01A5241430B8B4201D34B03C01A52411E
:100BC000030B8B4201D30B03C01A5241C30A8B4261
:100BD00001D3CB02C01A5241830A8B4201D38B024C
:100BE000C01A5241430A8B4201D34B02C01A5241F0
:100BF000030A8B4201D30B02C01A5241CDD2C30962
:100C00008B4201D3CB01C01A524183098B4201D3DD
:100C10008B01C01A524143098B4201D34B01C01AC8
:100C2000524103098B4201D30B01C01A5241C30840
:100C30008B4201D3CB00C01A524183088B4201D3AF
:100C40008B00C01A524143088B4201D34B00C01A9B
:100C50005241411A00D20146524110467047FFE707
:100C600001B5002000F0F0F802BDC0460029F7D021
:100C700076E7704703460B437FD4002243088B423C
:100C800074D303098B425FD3030A8B4244D3030B13
:100C90008B4228D3030C8B420DD3FF22090212BAD8
:100CA000030C8B4202D31212090265D0030B8B4254
:100CB00019D300E0090AC30B8B4201D3CB03C01A3E
:100CC0005241830B8B4201D38B03C01A5241430B19
:100CD0008B4201D34B03C01A5241030B8B4201D309
:100CE0000B03C01A5241C30A8B4201D3CB02C01A74
:100CF0005241830A8B4201D38B02C01A5241430AEC
:100D00008B4201D34B02C01A5241030A8B4201D3DA
:100D10000B02C01A5241CDD2C3098B4201D3CB0181
:100D2000C01A524183098B4201D38B01C01A524130
:100D300043098B4201D34B01C01A524103098B4234
:100D400001D30B01C01A5241C3088B4201D3CB001F
:100D5000C01A524183088B4201D38B00C01A524102
:100D600043088B4201D34B00C01A5241411A00D2B2
:100D700001465241104670475DE0CA0F00D049421B
:100D8000031000D34042534000229C4603098B428B
:100D90002DD3030A8B4212D3FC22890112BA030A13
:100DA0008B420CD3890192118B4208D38901921195
:100DB0008B4204D389013AD0921100E08909C3091A
:100DC0008B4201D3CB01C01A524183098B4201D31C
:100DD0008B01C01A524143098B4201D34B01C01A07
:100DE000524103098B4201D30B01C01A5241C3087F
:100DF0008B4201D3CB00C01A524183088B4201D3EE
:100E00008B00C01A5241D9D243088B4201D34B0008
:100E1000C01A5241411A00D20146634652415B104A
:100E2000104601D34042002B00D54942704763462B
:100E30005B1000D3404201B5002000F005F802BD70
:100E40000029F8D016E770477047C046FEE7C04655
:100E50000A4A0300116810B5002901D10849116040
:100E600010680849C3188B4206D9FFF77DFB0C2395
:100E700003600120404210BD1360FCE7ACFFFF1F80
:100E8000E0010020E00100208378022098428041A8
:100E900040427047437A0020013B012B03D90B7875
:100EA000013001330B707047C023174A9B00136059
:100EB000164A1360164A13600023164A1360164A36
:100EC0001360164A1360164A1360164A1360164AD6
:100ED0001360164A1360164A1360164A1360164AC6
:100EE0001360164A1360164A1360164A1360164AB6
:100EF0001360164A1360164A1360164A1360164AA6
:100F00001360164A136070470090145404901454F0
:100F1000089014540C9014541090145414901454B9
:100F2000189014541C901454209014542490145469
:100F30003090145400A0145404A0145408A0145465
:100F40000CA0145410A0145414A0145418A0145439
:100F50001CA0145428A014542CA0145434A01454CD
:100F600003003038092805D91A00613A052A02D849
:100F7000573B180070471A00413A0020052AF9D85B
:100F8000373BF6E710B5002003F0E6F9002803D060
:100F90000021080003F0D4F910BD0000024A1368D4
:100FA000013313607047C04680FEFF1F10B5072154
:100FB000014802F07FFE10BD00C007400122024B35
:100FC00052421A607047C046A090044037B50020D6
:100FD00001F0E7FFC02300240D4A9B0013600D4A77
:100FE0000D4D13600D4A200013600D4B2C716C7178
:100FF000AC711A68FA239B0053430A492B6003F033
:10100000F9F92900200001AA03F05AFA37BDC046B9
:10101000189014541C9014545000002000A0145434
:1010200084FEFF1F2000002010B58024002003F064
:1010300023FA0A4B64001C60094B07201C60094B13
:101040001C6002F05FFA062002F05CFA200002F059
:1010500059FA002001F0AAFF10BDC04618901454A0
:101060001C90145400A0145410B5002001F0A8FFE7
:101070008023054A9B001360044A00200449136042
:1010800002F01CFB10BDC0460CA0145410A0145458
:10109000FCFFFF1F10B5002002F04CFB0020034BAB
:1010A0001860034B186001F090FF10BD0CA01454A1
:1010B00010A01454014B1B887047C04674FEFF1FDC
:1010C0000FB41FB50E4B1B78DCB2002B0FD107AB52
:1010D000039340232000009306990A4B03AA01F0D2
:1010E000BBF9002807DA2000074901F0D9F81FBC36
:1010F00008BC04B01847052001F025FDF7E7C046FD
:1011000076FEFF1FB9FFFF1F6A60000010B50400E4
:10111000002901D0FFF7C8FE0021022000F016FED2
:101120002100042000F012FE002802D00148FFF741
:10113000C7FF10BD2E4C0000F8B50E000400264875
:101140001500FFF7BDFF2548FFF7BAFF3200210069
:101150002348FFF7B5FF234B23481968234B244E40
:101160001A68244B244F1B68FFF7AAFF234B244C1B
:10117000F958244872693368FFF7A2FF2178627832
:10118000A3792148C9B2D2B2DBB2FFF799FF1F4B56
:10119000217A227E1B781E48C9B2D2B2DBB2FFF799
:1011A0008FFF1C4B1C4819785A781C4BC9B21B691D
:1011B000D2B2FFF785FF1A4B1A4899781A4BC9B279
:1011C000FA587368FFF77CFF184B2A78196818489B
:1011D000FFF776FFF8BDC0468C4C0000CC4C0000F9
:1011E000FE4C000078FEFF1F324D000084FEFF1F02
:1011F00000D003408CFEFF1F007004403C10000034
:1012000000400640694D00009F4D00000050064020
:10121000CE4D000000E00740FE4D000000ED00E074
:1012200000D00740384E00003410000080FEFF1F41
:10123000704E000010B501F03FF80028FBDB10BD38
:1012400070B5FFF7F7FF0400FFF7F4FFFF26050076
:1012500020003040FFF784FE040028003040FFF7F4
:101260007FFE24012018C0B270BD70B5FFF7E2FF09
:101270000600FFF7DFFF0500FFF7DCFF0400FFF7C4
:10128000D9FFFF22FA23642116401540303E144056
:101290009B00303D4D4373435A39303C4C435B19FE
:1012A00010401B193038181870BD000070B50C00C4
:1012B000160088B00CAA157806A908800A4A05A865
:1012C00005700A4D12682D684A6004AA16700193D1
:1012D000009023000020029502F054FB002800D06B
:1012E000022008B070BDC04678FEFF1F7CFEFF1FC5
:1012F000F7B56A46CB1DDB08DB00D31A02AF9D466B
:101300000C000500FFF762FE0021094B02AE1B68CE
:101310002A00019300943300080003F02DF9040023
:10132000FFF782FE002C00D00424BD462000F2BD51
:1013300088FEFF1FF0B50027B1B01DAC07223900B1
:101340002000FFF7CBF9DA4A0125249203220DABE6
:1013500027930FAB289311AB2A9315AB2C9317ABA4
:101360002D9319AB2E931BAB13AE09A938002F9305
:1013700024AB1A7126910C93257029942B9601F0B9
:10138000FBFD280001F0F8FD8022CA4B12021A6012
:1013900001F0F8FB3B003A0039003800009500F0FE
:1013A0009BFFC54A2B000221C44801F00FFC290015
:1013B000280001F017FC380002F00CFF7C21C04B24
:1013C0003800219304AB5B181F80023104AB5B181B
:1013D00021A91F70229502F029FF2A00390009A8CF
:1013E000FFF77CF93A201D9B04A91193A2880A8774
:1013F000A27909180A700322063804A909180A708C
:101400001393A28804A9B280A2790A38B271052286
:1014100032700D93A28802260A85A27909180A70F3
:10142000242104AA521816700F93A28804A90A86D0
:10143000A279083009180A700422063804A909188C
:101440000A701593A2881C3004A909180A80A27991
:10145000801904A909180A70442104AA5118082205
:1014600050200A701793A28804A909180A80A2794B
:10147000801904A909180A704C22092104A88018AF
:1014800001701993A3880C3204A880180380A379F3
:101490005A2404A8001903700A2304A8063C001962
:1014A00003705C2004AB1B180CAA1F7027A82B002C
:1014B00001F0E6FD8348FFF703FE3900300000F03D
:1014C00045FC082203009343DBB20590BB4202D0E7
:1014D0007D48FFF7F5FD7D48FFF7F2FD7C48FFF7FB
:1014E000EFFD7C497C4801F0E5FF7C4C2000FFF7D4
:1014F000E7FDC0237A4A9B0013607A4A7A4813605A
:101500007A4A1360FFF7DCFDFFF7CEFC2000FFF7FF
:10151000D7FDE1211D20C90000F0CCFC0122744B55
:1015200074481A70FFF7CCFD734B734A1C78002384
:1015300072481370FFF7C4FD6F4BE4B21C70704C1F
:1015400000F0BAFE0500012001F0FDFA002D10DACE
:10155000013C002CF4D16B4B09AA1888210080B201
:10156000FFF7EAFD9622684B520068481A60FFF7C1
:10157000A7FD6748FFF7A4FD002401F0CBF86548FC
:10158000FFF79EFD03230794069300235A4A5D4DFF
:1015900013702888210009AA80B2FFF7CDFD5E48AC
:1015A000FFF78EFD5D48FFF78BFD5D48FFF788FD77
:1015B0005C48FFF785FD5C48FFF782FD5B48FFF75D
:1015C0007FFD5B48FFF77CFD5A48FFF779FD5A48DD
:1015D000FFF776FD5948FFF773FD2100069A58483A
:1015E000FFF76EFD5748FFF76BFD5748FFF768FDA3
:1015F0005648FFF765FD5648FFF762FD5548FFF76F
:101600005FFD5548FFF75CFD5448FFF759FD54480E
:10161000FFF756FD5348FFF753FD5348FFF750FDC2
:101620005248FFF74DFD5248FFF74AFD5148FFF77A
:1016300047FDFFF7FFFDFF21060001400A2900D109
:1016400043E3080050382A2800D9D7E0FFF77EFA94
:101650003803D6009DFFD600D600D600D600D600AF
:10166000D600D6003603D600D600D600D600D60067
:10167000D6009600D800EA00FA0004010D014501E9
:10168000DD01D60050017E018B018B01C1019DFF60
:10169000C401D600D301DD01DF014402D600D6002B
:1016A0005002D600F802344B079301236CE7C04682
:1016B000950E0000CC01002064FEFF1FE0FEFF1F1E
:1016C000E00701009E4E0000C34E0000F74E0000F0
:1016D000FF4E000098FEFF1F90FEFF1F424F0000CC
:1016E00000901454049014541C4F0000089014549B
:1016F000B8FFFF1F3D4F000076FEFF1F494F00005F
:10170000B80B000074FEFF1F78FEFF1F386000005A
:10171000684F0000884F0000AD4F0000B74F000039
:10172000D44F0000F04F00000C5000002950000082
:10173000505000006F5000009B500000C650000049
:10174000E9500000185100003451000058510000C9
:101750007C510000A3510000CB510000E951000072
:101760000652000025520000445200005E52000064
:1017700089520000B4520000B0FFFF1FE048FFF79D
:101780009FFCE048FFF79CFCDF48FFF799FCDF482F
:10179000FFF796FCDE48FFF793FCDE48FFF790FC6E
:1017A000DD48FFF78DFCDD48FFF78AFCDC48FFF7DA
:1017B00087FCDC48FFF784FCDB48FFF781FCDB4853
:1017C000FFF77EFCDA48FFF77BFCDA48FFF778FC8E
:1017D000D948FFF775FCD948FFF772FCD848FFF7E6
:1017E0006FFCD848FFF76CFCD748FFF769FCFFF7A0
:1017F00021FDFF210140352900D154E7D3480EE0F7
:10180000D348FFF75DFCFFF730FDD24BD24A18609A
:101810001968914201D1D14A1A601968D048FFF77E
:101820004FFCB2E6CF48FFF74BFCFFF71EFDCE4B57
:10183000C94A18601968914201D1C84A1A601968EA
:10184000CA48ECE7CA48FFF73BFCFFF70EFDC94B5F
:1018500018601968C848E2E7C848FFF731FCFFF78D
:10186000EFFC04000100C648D9E7C648FFF728FC92
:10187000FFF7E6FCC44E010005003000FFF720FC36
:10188000C248FFF71DFCFFF7DBFC0AAF0100387010
:101890003000FFF715FCBE48992D00D1A8E0AD4BF4
:1018A0001FAE1B6835802093BA4B1A881B88FFF740
:1018B000DBFBB94B0BAA1B681470029301233100A8
:1018C00000200193009702F05DF8011E02D0B3489A
:1018D000FFF7F6FBFFF7DEFB57E6B148FFF7F0FB3B
:1018E000FFF7C3FC80B228802988AE4889B296E70A
:1018F0002100AD48FFF7E4FBFFF79CFCAB48FFF786
:10190000DFFBFFF797FCAA48FFF7DAFBFFF792FC33
:10191000A848FFF7D5FBFFF7A8FC0600A648FFF78D
:10192000CFFBFFF7A2FC0500A448FFF7C9FBFFF7B8
:101930009CFCA348FFF7C4FBFFF782FC2B002200AE
:101940000699A0480096FFF7BBFB1EE69E48FFF7EE
:10195000B7FB012420000021FFF7D8FB21003C2029
:10196000FFF7D4FBF6E79948FFF7AAFB9848FFF783
:10197000A7FBFFF765FC1FAF38709648FFF7A0FB89
:10198000FFF773FC834BF6B21B88050001003A7821
:101990009BB26C2E10D19048FFF792FB0026AE420E
:1019A00000DBF2E51FAB1A7800230121FF20009332
:1019B000FFF77CFC0136F2E78848FFF781FB002641
:1019C000AE4200DBE1E501211FA8FFF791FC0136E3
:1019D000F6E72B882B88D8E50021022000F0B6F925
:1019E000031E059000D1D0E57D48082B00D1CCE541
:1019F000FFF766FBC9E50021082000F0A7F9059B69
:101A00007848002B00D1C0E5F2E77048F0E71FA945
:101A1000002001F079FAFA211F988900FFF7A0F859
:101A200001007148FFF74CFB01F0C0FC01006F485A
:101A3000FFF746FB01F054F901006D48FFF740FB4A
:101A40006C4B6D4819684B1E9941FFF739FB00201C
:101A500001F0B1FA01006948FFF732FB002001F004
:101A6000B9FA01006648FFF72BFB002001F0B7FA36
:101A700001006448FFF724FB002001F085FA010013
:101A80006148FFF71DFB012001F07EFA01005F486D
:101A9000FFF716FB5E4B5F4819684B1E9941FFF735
:101AA0000FFB002001F078FA01005B48FFF708FB0C
:101AB0005A4B5B4819684B1E9941FFF701FB594B84
:101AC000594819684B1E9941FFF7FAFA002001F0B6
:101AD0008BFA01005548A2E6079B5548002B87D09A
:101AE0005448FFF7EDFAFFF7ABFB079B58704CE546
:101AF0005148FFF7E5FA194801F025F84F4877E714
:101B0000C7520000D2520000105300005253000090
:101B100093530000D35300000354000040540000CE
:101B20007F540000BD540000FA54000038550000F6
:101B300075550000B4550000F15500002E56000008
:101B400069560000A6560000E3560000F756000054
:101B50001357000078FEFF1F0F270000102700001A
:101B6000415700006157000084FEFF1F8F5700009F
:101B7000A95700008CFEFF1FD8570000F357000044
:101B80002958000040580000735800008958000090
:101B9000B258000074FEFF1F7CFEFF1FD8580000E3
:101BA000F958000032590000615900009B590000AB
:101BB000C4590000DD5900001C5A0000485A0000BA
:101BC000805A0000B15A0000EE5A0000115B00007C
:101BD0003F5B00005E5B00007E5B0000C95B0000B5
:101BE000145C0000725C0000CF5C0000E15C00004F
:101BF000F75C00003C80845E1E5D00002F5D0000ED
:101C0000405D0000515D0000655D0000795D0000F1
:101C10003C8004508D5D00009E5D0000348084593E
:101C2000AF5D00003480045AC05D0000D25D00004A
:101C3000E35D0000215E0000595E0000785E000058
:101C40002348FFF73DFAFFF710FB86B23100214829
:101C5000FFF736FA2048FFF733FAFFF7EBFAC5B281
:101C6000683D684245411D48FFF72AFA00F026FF0B
:101C70000121002000F024F907001948FFF720FA9D
:101C80001848FFF71DFA1848EDB2FFF719FA2800B7
:101C900000F06AF939001548FFF712FA002E08D053
:101CA0003100042000F052F8011E02D01048FFF766
:101CB00007FA00F001FB7128E9D10BE60D4897E621
:101CC0000D48FFF7FDF90D4892E60D4890E6C04635
:101CD000825E0000CE5E0000045F00003E580000FF
:101CE0002D5F00004F5F00003D580000F25C0000D7
:101CF000655F0000A35F0000B95F0000DB5F0000CC
:101D0000066000001FB5040001A9002002F0B6FA29
:101D1000694601A802F0F0F9009B68461C1901A968
:101D2000009402F071F9012201A9002002F0D2FA18
:101D30001FBD00000022034B1A608022024BD20517
:101D4000DA67704700901C5804E100E070B50D00A0
:101D50000A2408281CD8FEF7EFFE051D2A3F546709
:101D600071795C0001F022FB0524012810D0FFF7F7
:101D7000E1FF2800FFF7C6FF0021080001F0A2F9EB
:101D800001210400002000F02DFF002C22D10024AE
:101D9000200070BD01F00AFB06240128F8D0FFF7EF
:101DA000C9FF2800FFF7AEFF00210120E6E701F0A0
:101DB000FDFA08240128EBD000F092FF002803D0A0
:101DC0000121002000F00EFF0021022001F07AF92D
:101DD0000028DCD00924DBE701F0E8FA072400281A
:101DE000D6D0FFF7A7FF2800FFF78CFF00210320C4
:101DF00001F068F9040001F0D9FA01210028C4D1EA
:101E0000C1E7FFF797FF2800FFF77CFF00210420C0
:101E1000EEE70021082001F055F9041EDAD1012176
:101E2000080000F0DFFEB3E7FFF784FF2800FFF7AC
:101E300069FF0021052001F045F9CBE7FFF77AFFA4
:101E40002800FFF75FFF00210620F4E7FFF772FF8D
:101E50002800FFF757FF00210720ECE7F0B5060048
:101E60000D00114B89B05A7806AC22800F4A05AF9D
:101E700012680792D88880B2FFF71CF93E7004AE52
:101E80003570FFF7F1F80A4B3A001B682100029306
:101E9000012300200193009601F074FD002800D07A
:101EA000022009B0F0BDC046B0FFFF1F78FEFF1F43
:101EB0007CFEFF1F014B5870D9807047B0FFFF1F99
:101EC00070B50400084B0D00D88880B2FFF7F2F817
:101ED00021000920FFF7C2FF290004002A20FFF794
:101EE000BDFF2043C0B270BDB0FFFF1F70B588B00A
:101EF0006A46184B04001B780E001375182822D868
:101F0000C31F0320012B23D9134B06AD5A782A8017
:101F1000124A12680792D88880B2FFF7CBF86B4656
:101F20001C75FFF7A1F80E4B29001B6800200293D7
:101F30000C4B0196009305AA012301F030FD002807
:101F400006D0022004E023001D3B0320142BDBD924
:101F500008B070BD90600000B0FFFF1F78FEFF1F4B
:101F60007CFEFF1FB2FFFF1F70B5324C0500E088FA
:101F700080B2FFF79FF802210120FFF7B7FFA17899
:101F8000E278C9B2D2B200281DD02B48FFF798F8EA
:101F900002210320FFF7AAFFA178E278C9B2D2B2EA
:101FA000002822D02448FFF78BF802210520FFF7F4
:101FB0009DFFA178E278C9B2D2B2002827D01E488E
:101FC000FFF77EF870BD002D03D01C48FFF778F8AE
:101FD000DEE79208890111438022194B920151409A
:101FE0001848C918FFF76CF8D2E7002D03D0134842
:101FF000FFF766F8D9E79208890111438022104B58
:10200000920151400F48C918FFF75AF8CDE7002D4B
:1020100003D00A48FFF754F8D4E792088901114326
:102020008022074B920151400648C918FFF748F833
:10203000C8E7C046B0FFFF1F926000009960000033
:1020400000E0FFFFA96000000369C268934201D865
:1020500080681B18013B981A7047F7B58368C468FD
:1020600001931F1B436805000E001819A41897421E
:1020700007D83A00FEF7DEFA019B6868E41A2200EE
:10208000F119FEF7D7FAEC60F7BD0023F7B50600AB
:102090001700C568019100933369B4689D421FD24F
:1020A000013B5B1B641BBC4200D93C009C4200D935
:1020B0001C007368220058190199FEF7BBFA009BB7
:1020C0002D191B190093019B3F1B1B190193B3682A
:1020D000AB4200D10025F560002FDDD10098FEBD98
:1020E0001B19DDE7022310B50F4C104A2361636111
:1020F0000F4BA261E3616423A2640E4A2362E2648F
:1021000000230422A3626362E362A3656365E3655F
:1021100022650949E01DFEF703FC20000749FEF790
:10212000FFFB2023A37110BD58000020AE6000000B
:10213000D4000020D0000020B7600000BB60000089
:10214000F0B5274B85B01B780E0002900192002B52
:1021500001D1FFF7C7FF1823029A00255343204AF5
:10216000D3185A6D9C6D0392944219D91B6D019D31
:102170001B1B9D4200D91D001827029B30005F43A6
:10218000174B2A00DF19FB6C76191919FEF752FA62
:10219000019B64195B1B01933B6DA34200D100249A
:1021A000039B019F1B1B9F4200D91F00002F0CD0D7
:1021B0001823029A30005343094AED19D318D96CF9
:1021C0003A000919FEF736FAE419002D05D0182354
:1021D000029A03485343C0188465280005B0F0BD37
:1021E0005800002010B50B00EFF31084012181F39B
:1021F00010881900FFF7A4FF84F3108810BD0000B9
:10220000F8B516001822451C55434243164B0F00E3
:102210005D199B18DC6A012C10D0022C1BD0002CFD
:102220001FD12800FFF710FF864205D83200390081
:102230002800FFF712FF34002000F8BD2800FFF748
:1022400003FF3400864200D9040022003900280030
:10225000FFF703FFF0E732002800FFF716FF040046
:10226000EAE70024E8E7C04658000020F8B50B4B29
:1022700004001B780E001700002B01D1FFF732FF7E
:10228000EFF31085012181F310883A00310020001E
:10229000FFF7B6FF85F31088F8BDC0465800002050
:1022A00070B5050008000C00FEF742FB210002009B
:1022B0002800FFF7DBFF70BD13B56B46DC1D012264
:1022C00021000020FFF78EFF012801D1207816BDE4
:1022D00001204042FBE70000F7B5164C019323783C
:1022E00005000F001600002B01D1FFF7FBFE23694C
:1022F000AB421CD9EFF31082012181F31088002D2D
:102300000CD01823691C59436B43675061184E6009
:102310000199E31819620021996259621820454316
:10232000089B6419E36282F310880020FEBD01203F
:102330004042FBE758000020826810B50400406866
:10234000531C834205D820688154A360E36801339D
:10235000E360A26863689A4209D121682069FFF7A7
:1023600085FFA368984203D001235B42E36010BD60
:102370000023A360FBE70000F0B50500170008008C
:10238000012685B00A9C02910093B84219D2009AA6
:102390000196964200D2019201230B9A1A400392B1
:1023A0000B9A1A4202D1002C10D10024EB680126AE
:1023B000002B4BDB009B012B1FD9013B00937E437D
:1023C000F8E73900FEF7CCFB0136DEE70B9B202651
:1023D0009B0704D5009B1036002B00D0103E019BBC
:1023E000A342E3D231002800FFF7A6FFEB68013CCF
:1023F000002BDBDB002CF2D1D7E731000298FEF78F
:10240000AFFB8742DBD902983100FEF72FFC114B5E
:102410000291195C2800FFF78FFFEB68002B05DBAA
:1024200039003000FEF79CFBBE4211D2039B002B0B
:102430000CD0002C0AD0019BA34207D220212800F7
:10244000FFF77AFFEB68013C002BF2DA05B0F0BD34
:102450000600D8E7C2600000F0B58FB007900E000C
:102460001800149915000693FEF778F8069B079A52
:102470000993149B0D920A9300230B930C933178CC
:102480000136002907D10C9B0293002B00DD09E1E6
:102490000C980FB0F0BD252900D0B3E0002708222A
:1024A000042006E0302B0DD1022300E001231F435E
:1024B0000E003378711C2D2BF8D0F3D8232B10D0BD
:1024C0002B2B0CD000240A213378721C18003038D2
:1024D000092808D84C43303C16001C19F4E7074380
:1024E000E6E71743E4E7002102912E2B0ED11600F8
:1024F0000A203278711C1300303B092B06D8029B4E
:102500000E004343303BD3180293F2E704233178A3
:102510000A0001369A43682A01D13178F8E7782910
:1025200009D86F290BD8632967D017D8252969D016
:10253000582900D195E00C9B002BA0DAA3E7703955
:1025400008000829F7D8FEF701FBA500F6FFF6FF03
:102550009400F6FF8300F6FFF6FF8C006429EAD1B1
:102560002B681A1D1B682A60DA1798180393012339
:1025700050400493092849DC029B049A0593934236
:1025800000D20592002C05D0039B002B01DB7B07BA
:1025900000D5013C02231F4202D0029B002B05D034
:1025A00001231F4202D1002C36D100240C9B04933E
:1025B000002BC0DB039B002B3ADA2D215B420393F7
:1025C00009A8FFF7B9FE0C9B002BB4DB03233B40AB
:1025D000022B05D1029B002B02D1002C2CD1002410
:1025E0000C9B0493002BA6DB0A22029B0399019704
:1025F000009409A8FFF7C0FE9DE72B6819681A1D13
:102600002A60C9B209A8FFF797FE94E70A21FEF7EE
:1026100031FB049B0133ACE7059BA342C6D22021CA
:1026200009A8FFF789FE0C9B013C002BBBDABDE734
:102630007B07C8D52B21C3E7059BA342D0D230210D
:1026400009A8FFF779FE0C9B013C002BC5DAC7E710
:102650000A22296801970B1D2B60029B00940968D0
:10266000C7E7296801970B1D2B60029B009410227D
:10267000F5E72B681A1D2A601C68217801340029AF
:1026800000D158E709A8FFF757FE0C9B0293002BD7
:10269000F3DA50E729680B1D2B6000230193083300
:1026A0000093E4E70B9A002A03D006990798FFF7F6
:1026B000DDFD0C9B02930B9B0393039A029B9446B4
:1026C00063440C93E4E6000037B50E25FF350400A3
:1026D000280000F009FF0A2000F035FA280000F079
:1026E00011FF0C2000F00EFFFA23084A9B00147023
:1026F00000210193012308000093054B01F03CFFEA
:102700000400280000F0F0FE20003EBD390100204A
:1027100038010020C02310B580247D4A9B0013603F
:102720007C4A64001360FEF751FC7B4B20001C6068
:102730007A4B1C607A4B1C6000F0D6FE642000F0DF
:1027400002FA200000F0DEFE642000F0FCF9200018
:1027500000F0CAFE642000F0F6F9AE20FFF7B4FFE7
:10276000A020FFF7B1FF7220FFF7AEFFA120FFF717
:10277000ABFF0020FFF7A8FFA220FFF7A5FF002076
:10278000FFF7A2FFA420FFF79FFFA820FFF79CFF01
:102790003F20FFF799FFAD20FFF796FF8E20FFF750
:1027A00093FFB020FFF790FF0B20FFF78DFFB120C4
:1027B000FFF78AFF3120FFF787FFB320FFF784FF81
:1027C000F020FFF781FF8A20FFF77EFF6420FFF7EC
:1027D0007BFF8B20FFF778FF7820FFF775FF8A20BB
:1027E000FFF772FF6420FFF76FFFBB20FFF76CFF5E
:1027F0003A20FFF769FFBE20FFF766FF3E20FFF794
:1028000063FF8720FFF760FF0620FFF75DFF812051
:10281000FFF75AFF9120FFF757FF8220FFF754FF81
:102820005020FFF751FF8320FFF74EFF7D20FFF779
:102830004BFFAF20FFF748FF2620FFF745FF0120A1
:10284000FFF742FF2520FFF73FFF0020FFF73CFF87
:102850000020FFF739FF5F20FFF736FF3F20FFF72B
:1028600033FF8A20FFF730FFFF20FFF72DFF8B207B
:10287000FFF72AFFFF20FFF727FF8C20FFF724FF39
:10288000FF20FFF721FFBB20FFF71EFF1F20FFF7F0
:102890001BFF8720FFF718FF0F20FFF715FF812090
:1028A000FFF712FFFF20FFF70FFF8220FFF70CFF5B
:1028B000FF20FFF709FF8320FFF706FFFF20FFF748
:1028C00003FFAF20FFF700FF2220FFF7FDFE0020EF
:1028D000FFF7FAFE0020FFF7F7FE7F20FFF7F4FE78
:1028E0003F20FFF7F1FE0020FFF7EEFE3F20FFF74D
:1028F000EBFE0020FFF7E8FE0020FFF7E5FE3F209B
:10290000FFF7E2FE0020FFF7DFFE002010BDC0460B
:10291000209014542490145434A01454309014541F
:1029200000A0145410B5002000F0FAFD10BD10B541
:10293000002001F02DFD10BD10B5002001F006FAB9
:1029400010BD0000082310B5164A9178194202D034
:1029500091780B439370882100222220124B490169
:102960005A501249124C08708020124940025850A7
:102970001968114801401960195910480840C021D0
:1029800089040143195180210D4B1A7219767F3940
:102990001A7059700B490A700C3299791142FCD1A6
:1029A00010BDC04600D007400070044000E0074062
:1029B0000410000044100000FFFFF3FFFFFFFFF0D2
:1029C00000400640005006401249134810B58142AD
:1029D00005D00022114B9B089B009A420FD1104B4F
:1029E000104A9960002310491048521A9A420AD19D
:1029F00000210F4B0F4AD21A013A08D210BD845859
:102A00008C500432E9E7CC5CC4540133EEE7197012
:102A10000133F1E7000000000000000000000000AA
:102A200000ED00E02C6300003462000000FEFF1F98
:102A3000F8FEFF1FDC010020030041700020187029
:102A400058609860704710B5437804000120FF2B50
:102A500008D000F0DDFA63780133DBB2637000F078
:102A6000CBFA002010BD0020704770B504000D00A7
:102A700000F0CEFAE1682943E16000F0BDFA0020E1
:102A800070BD000000220A4B9A641A0040329A631B
:102A90001A0030329A621A0020329A611A001032FB
:102AA0009A60044A1360044B9B60DB607047C04629
:102AB000400100203C010020900100200022024B38
:102AC0001A60186880B270470C007C5070B543786B
:102AD00004000D00002B0BD0002500F099FA63785C
:102AE000013BDBB26370257000F086FA280070BDF0
:102AF00002200029FBD02378002B17D0FFF7DEFF40
:102B00006368A268834204D8C01A824206D30320B5
:102B1000EDE7C01A80235B02C018F6E700F078FAF0
:102B20000023237000F068FA0220E0E74B1CEED08F
:102B300000F06EFA0123237000F05EFAFFF7BEFF8B
:102B4000A5606060E3E770B50500FFF7B7FF80267A
:102B500004007602FFF7B2FF0300844203D8031B90
:102B60009D42F7D270BD301BC318F9E710B501289C
:102B700001D100F04DFA10BD10B5012801D100F0CF
:102B80003BFA10BD10B5FFF77DFF01230020084A76
:102B900008491360084A094C10600860042121604C
:102BA000074C216007490B6007490860136010BD9E
:102BB000388004500000845000000450000004518C
:102BC0000400045104000C500000045310B5044CE0
:102BD000206021710020A2602373637310BDC04682
:102BE000A00100200422F0B587B005AC3B4E019057
:102BF00002912070617033790092834226D90022BD
:102C0000337B1500737301230092A3700393334F3A
:102C10003B7BAB421DD8009B002B02D0029B012BBB
:102C200048D10120FFF7A2FF0C20019B002558434B
:102C30003368181800F0D6F8019B01207371022642
:102C4000FFF79AFFA6703B7BAB421AD8009807B0FB
:102C5000F0BDBA68AB009B58002B0FD01A790399CE
:102C60000A420BD020001A6899689047002805D0C6
:102C7000029B7D73002B1BD0052300930135EDB221
:102C8000C5E7BA68AB009B58002B0ED01A793242C8
:102C90000BD020001A6899689047002805D0029B45
:102CA0007D73002B17D0062300930135EDB2CAE7E0
:102CB000052300930023A370013DEDB2FF2DC5D085
:102CC000064BAA009B68D358002BF5D020001A6849
:102CD00099689047F0E706230093B7E7A00100202A
:102CE000014B58797047C046A001002013B504007D
:102CF000002021780190022920D0032922D0012927
:102D000025D1227901AB144801F00AF9002814D129
:102D1000A3795A1E9341114ADB01137063785A1E3E
:102D200093410F4A5B001370A2780E4B1A70E27841
:102D30000D4B1A7062790D4B1A7016BD0100227985
:102D400001ABE0E701A9044801F02CF9DEE701A995
:102D5000014801F0C9F8D9E7004006401840865301
:102D60000040865000400650014006501840165062
:102D7000084A43099B009B18F822C0051205104021
:102D8000184380235B0518430068431E9841C0B276
:102D90007047C04628800440074A43099B009B189F
:102DA000F822C00512051040184380235B05184324
:102DB000002303607047C04628800440F821084A79
:102DC00043099B009B180905C2050A401343802252
:102DD000520513431F2210401E3A82401A6070476A
:102DE00028800440072373B5009300230400104D8E
:102DF0001A000121280001F0BDFA2000FFF776FF3C
:102E0000637A280000930023217A1A0001F0B2FAB5
:102E1000E379084A9B041360074BA17A1D682800D8
:102E200001F0DCF82800E17A01F0E7F8002076BD37
:102E30000070044000700C592C61000010B505486A
:102E400001F012F8044B1968C9B20131FDF788FE90
:102E500010BDC0460040064044801C5E10B5FFF720
:102E6000EDFF10BD10B5054800F0FEFF044B1968DA
:102E7000C9B20131FDF774FE10BDC04600400640E6
:102E80004480145810B5FFF7EDFF10BD0B4B1B68C5
:102E9000DBB2022B0CD0032B0DD00020834206D1D5
:102EA000074A106880221202904200D01800704732
:102EB000044B1868FBE7FA208000F8E700700C5913
:102EC000CC010020D001002010B5FFF7DFFF10BDBE
:102ED000054B10B5186801F088F80023984201D01E
:102EE000024B1B68180010BD2C610000CC010020B3
:102EF000044B01201B6810B5DBB2002B01D0FFF79B
:102F0000E7FF10BD0480045210B50C0012282AD827
:102F1000FDF712FE0A0A0A0F290F12152929181B9C
:102F2000292929291E222600FFF788FF206000207A
:102F300010BDFFF797FFF9E7FFF7A8FFF6E7FFF7E8
:102F4000C7FFF3E70A4B2360F1E7FFF7D1FFEDE797
:102F5000084800F089FFE9E7064800F06FFFE5E761
:102F6000FA239B00EFE7002302202360E0E7C0463E
:102F7000006CDC020040064010B5024B185CFFF705
:102F80001DFF10BDD260000010B5024B185CFFF7AA
:102F9000EFFE10BDD260000010B5BB20FFF7E8FEC9
:102FA00010BD10B57620FFF709FF10BD10B57620D3
:102FB000FFF7F2FE10BD10B57620FFF7D9FE10BD69
:102FC00010B56620FFF7FAFE10BD10B56620FFF7BA
:102FD000E3FE10BD10B56620FFF7CAFE10BD10B5A8
:102FE0009420FFF7C5FE10BD10B5024B185CFFF72B
:102FF000BFFE10BDD4600000044A1368002B04D04B
:10300000013B1360002B00D162B67047B001002075
:1030100072B6024A1368013313607047B001002092
:1030200010B5064C064801F037FC042801D10020F9
:1030300010BD013C002CF5D10320F9E7EA030000A4
:1030400000E0074010B50B4B0B490A78002A07D067
:10305000084C0A4801F020FC012806D1002003E0BA
:10306000013B002BF1D1032010BD013C002CF0D11D
:10307000F9E7C046EA03000002D0075100E007402C
:10308000F7B507000E00150001200193002F15D0A1
:10309000002913D0FFF76AFD094C102200212000FF
:1030A000FDF71CFB27602671002D03D0019BA56056
:1030B000237363730120FFF75FFD0020FEBDC04650
:1030C000B4010020F0B5B14C8DB002900391237B88
:1030D00001206373FFF74AFD2379029A934206D8D1
:1030E0000120FFF749FD022738000DB0F0BD029A1C
:1030F00023689200D35809AC1D780193039B2A00E2
:103100002372029B2370019B636002239A43049203
:10311000012A01D0052D0AD101219D4801F010FBA3
:10312000002807D10120FFF727FD0127DCE7032155
:10313000072DF2D80123002763723C000593934EBC
:10314000337BA3422AD80120FFF716FD914800F0F7
:10315000AFFE049B012B4AD10138022835D9039BCD
:10316000012B00D00DE106270120FFF7FFFC002313
:10317000012609AD6B72013CE4B2FF2C00D1AFE037
:10318000824BA2009B68D358002BF4D01A793242AC
:10319000F1D028001A6899689047ECE7B268A3005C
:1031A0009B58002B0ED01A7905990A420AD01A684A
:1031B000996809A89047002804D0039B04277473DA
:1031C000012BC0D10134E4B2B9E7FFF75BFE724BCB
:1031D0009842C4D8FFF732FE704EB042BFD8FFF716
:1031E00041FEB042BBD8FFF739FEB042B7D8039BCF
:1031F000012B00D0C1E00A2D00D9BCE02800FDF76A
:103200009BFC060A0D1E879A7B822F737800002292
:1032100007AB1A702DE0032207ABFAE75C4801F018
:103220003BFB012808D00021594801F099FAFFF72B
:1032300009FF071E00D057E7012207ABE9E7544812
:1032400001F02AFB042808D00221514801F088FA35
:10325000FFF7E6FE071E00D046E7042207ABD8E7DB
:10326000072207AB1A80019AD2789A70019A1279D4
:10327000DA702B00083B022B06D8019B06AA5B796B
:103280009372019B9B79D372019B5B78002B0AD0D0
:10329000012D08D9019B02229978414B00294DD07C
:1032A00019690A431A613A4807A901F07DFA002812
:1032B00000D00327002D45D1FFF7C4FE071E00D024
:1032C00012E700270120FFF751FC029B2F4D00243D
:1032D000AB73022309AE737201932B7BA34236D8E2
:1032E0000120FFF749FCFFE6082207ABFF321A80F6
:1032F000BFE72C4A07ABFAE7022207AB1A7002229B
:10330000FF329A80B5E7022207AB1A70264AF8E727
:10331000022207AB1A70013A1D489A8001F0BCFAEC
:103320000128A6D000211A4801F01AFAFFF78AFEF8
:10333000071E9ED0D8E6052207AB6AE719699143BC
:103340001961B0E7012DBDD1FFF76AFEB6E7AA68A3
:10335000A3009B58002B0BD01A7901990A4207D081
:1033600030001A6899689047002801D005276C73CF
:103370000134E4B2B1E70327B6E6002F00D13AE703
:10338000F2E6002F00D0EFE6EDE6C046B4010020E3
:1033900000E007400040064040420F0080841E00CD
:1033A00000ED00E0070300000102000010B5064830
:1033B00001F072FA03000020012B03D00B30042B24
:1033C00000D10A3810BDC04600E00740F7B5FF2421
:1033D00003681D4A1E0A26401C40B3009F581B4A22
:1033E00005009B5830000193FFF7C6FD0022210025
:1033F000380001F059FA019BA400E41884232A79CB
:103400005B05234352001A6080236A795B052343DE
:103410001A609023AA795B05234312011A600C4BB2
:103420001C43EB791B042360EB79002B0AD0094B7A
:103430009B57002B06D01F2213401E3A9A401300C0
:10344000054A1360F7BDC0463061000038610000D6
:10345000000018184061000000E100E0F8B5FF240A
:1034600005000368114A180A20401C4083009F5839
:103470000F4A9E58FFF780FD38002100012201F01D
:1034800013FA6A682100380001F01DFA88232A7AAD
:10349000A400A4195B05234392001A6098235B05DE
:1034A0001C436B7A9B012360F8BDC046306100006D
:1034B0003861000070B50C00002807D1002C0FD136
:1034C00070BD05000835FFF781FF28000368013350
:1034D000F7D1F3E7250020000C35FFF7BFFF2C00E4
:1034E00023680133F6D1EBE7FF22030A04491340B6
:1034F0009B0059580123104083404B607047C046E1
:1035000030610000FF22030A044913409B00595810
:103510000123104083408B607047C046306100003B
:10352000084B8200D258942310B502325B05134336
:103530001B78002B02D000F03FFA10BD00F092FA89
:10354000FBE7C046D8600000020080230C325B0518
:1035500013431A78002AFCD00171704770B50D0032
:10356000084B8000C458200029001830FFF7AEFA3D
:103570000328F8D0002801D004232374207CC0B293
:1035800070BDC046C401002010B5104B8000C45867
:10359000E37C002B05D0237C052B02D0237C042B5D
:1035A0000BD10B4B18589823821C5B051343002248
:1035B0001A7001F0F7F901236374A37C002B03D088
:1035C00020001830FFF73FFA10BDC046C4010020AC
:1035D000D8600000F0B51700002289B005930EAB4B
:1035E0001B7805000393830032481E5832481C584C
:1035F00007AB1A80A37C880A04930223FF336382FB
:103600008B0A0193CBB21E2801D11A000B0A5B0072
:10361000D8B2019B00211E2B05D08F4203D101237C
:1036200003995B1A59B20143CBB2029302990198F4
:1036300007AB197001211E2801D15A704918A360E7
:103640003000E1600299FFF77FFF28000F99FFF734
:1036500085FF237C002B0CD1002F0AD0059BA7608F
:10366000E36030003978FFF76FFF28000F99FFF70C
:1036700075FF237C039A1A4314D1019B1E2B01D0A2
:10368000002F0FD0002301273000A360E76001F076
:1036900077F9029930003943FFF756FF28000F9958
:1036A000FFF75CFF0023207CE374049BC0B2A3748B
:1036B00009B0F0BDD8600000C4010020F7B5830058
:1036C0000193184B8200D75805000C000126002FEB
:1036D00026D1154B3900D358200024220193FCF742
:1036E000FDFF200039001830FFF7A6F92800FFF78A
:1036F00067FC019801F0EFF80A4BAA00D4501F2292
:103700000A4B5B5D134032009A40094B1A609C22C1
:10371000019B520502331343802266743E001A70E7
:103720003000FEBDC4010020D8600000DC60000055
:1037300000E100E0F7B50E4E8500AB59002701937C
:103740000C4B0400EA589C2302325B0513431F70A4
:10375000FFF73BFC084B01981A5D1F231A401E3BE4
:103760009340064A1830D367FFF77DF9AF51F7BD94
:10377000C4010020D8600000DC60000004E100E02B
:103780000A4B800070B5C5584B686A690C009342BB
:103790000BD0074BC658FFF765FB0023010062689A
:1037A000300001F0A7F863686B6170BDC4010020B0
:1037B000D8600000F0B587B004920593334A0FAB90
:1037C0001E7883009C580391627C0700002A03D175
:1037D0000320207407B0F0BD002E01D11E220E92EE
:1037E0002B4A3800D55800230399E360A360237463
:1037F00023606374A674FFF7C3FF90231021AA1CF3
:103800005B05134319708423E91C5B050B430221FC
:10381000197098235B05134302934023029A2800F2
:10382000137001F0ADF8039B380019880E9B049AC1
:10383000019301230093059BFFF7CCFE0D9B002B0A
:1038400017D0237C002B11D10C9B2800A3600D9B6B
:10385000E3600C9B1978FFF777FE002E03D0380049
:103860000E99FFF77BFE207CC0B2B3E7237C042BCC
:10387000F9D100230126029A1370EB785B093342D9
:1038800002D0280001F08EF86674ECE7C401002035
:10389000D8600000F0B589B0079311AB1B78069291
:1038A000364A029383009C580591627C0600002AE8
:1038B00003D10320207409B0F0BD029A002A01D17F
:1038C0001E32109200272E4A0599D5580E9B3000C3
:1038D00023600F9BA7606360029BE760A37427745B
:1038E0006774FFF74DFF9023AA1C5B051A43102352
:1038F0001370842304925B05EA1C134302221A709E
:103900009823AA185B051A434023280013700392DA
:1039100001F036F8059B069A1988109B3000019338
:103920000097079BFFF756FE237CDAB2BB4215D106
:10393000049BA91C1A708C235B050B430F9901296A
:1039400000D108221A702B79029B002B03D0300083
:103950001099FFF703FE207CC0B2ACE7237C042B58
:10396000F9D10126039B1F70EB785B09334202D02B
:10397000280001F017F86674EDE7C046C401002086
:10398000D86000001FB501240394089C0294079C92
:103990000194069C0094FFF70DFF04B010BD1FB505
:1039A00001240394089C0294079C0194069C0094B3
:1039B000FFF770FF04B010BD244B70B58400E558CC
:1039C0008423EA1C5B05134302221A709023A91872
:1039D0005B050B431B78EA78DBB292061DD5942277
:1039E00052050A431278002A17D0194AA458012B0D
:1039F00014D1EA781A4204D004332374FFF7C4FDCB
:103A00000BE0E368013BE360002BF7D0A3682800DC
:103A10005A1CA2605978FFF797FD70BD6268013AA1
:103A20006260002A06D08C235B05012A0AD000229E
:103A30000B4309E0FFF7A8FD23685A1C22602A798E
:103A40001A70EAE708220B431A70F5E7D860000005
:103A5000C4010020C31C84204005184302230370C6
:103A6000704700000122F0B5904B8100CD5889B01D
:103A7000EB1C0193EB7890261B091A40059201225A
:103A8000EB7876059B091A4002923200AB1D1A436F
:103A9000944612780090D2B20792942252051A43AB
:103AA0001278AF1CD0B203909820400503431878D9
:103AB000C0B206907E480C58310039430191097814
:103AC000C9B20491002A35D0079A002A0ED01023DB
:103AD000624628001370FFF7BDFF236B002B52D006
:103AE0006A4601211078626B98474CE0069A002ADA
:103AF00020D0402228001A70FFF7ACFF23002C339F
:103B00001B78002B03D19822520517433B70236B7F
:103B1000002B04D06A4680211078626B9847E37DC1
:103B2000002B04D0200080211830FEF79EFF0A23CE
:103B3000237028E02800FFF78DFF059B002B24D081
:103B4000EB1C1E4310233370029B002B10D0EB782C
:103B50005B07DA0F002B48DB019B1A70236B002BED
:103B600004D06A4604211078626B98472B790AE0EA
:103B7000082323702C342378002B04D198235B0571
:103B80001F43029B3B7009B0F0BD029B002BDED1AE
:103B9000049B012B54D1EB78049A134230D0019B43
:103BA000029A1A702B7923002C331B78002B07D133
:103BB000039B002B04D198235B051F43039B3B70A1
:103BC000236B002B04D06A4608211078626B98475B
:103BD000A37D002B04D0200008211830FEF745FFFC
:103BE00000236360E3602375CDE71023019A13700F
:103BF000236B002B04D06A4602211078626B984731
:103C00006368002B50D028008022E3680C305205F6
:103C10001978024310780028FCD029710133E36041
:103C20006368013B63606368002BACD1E36023757C
:103C3000236B002BA7D06A4610211078626B53E7E4
:103C40002B79A268DBB2002A2CD022691370236979
:103C500001332361A368013BA360A368002B00D05C
:103C600091E7039B002B11D123002C331B78002BF1
:103C700004D198235B051F43039B3B70E37D002B1E
:103C800004D0200020211830FEF7EFFE00236375DA
:103C90002361236B002B00D175E76A462021107841
:103CA000626B21E7072343E7062341E7D860000062
:103CB000C4010020042902D0072907D070479023AF
:103CC00003305B05184310230370F7E79C23033090
:103CD0005B0518438023F7E7DC2270B50024094B0D
:103CE0008000C558084B5205C35808331A43146066
:103CF000AA7CA24203D028001430FEF7A4FE2C7444
:103D000070BDC046C8010020E06000000C4B800080
:103D100070B5C5580B4B0024C058D42302005B0576
:103D2000083213431C602200074900F05CFEEB7C64
:103D3000A34203D028002030FEF785FE6C7470BDCE
:103D4000C8010020E06000001B000200F8B52B4A0B
:103D500083009C580600227C002A02D1627C002A43
:103D60003ED0274AD558DC232F005B051A000837C0
:103D70003A431268002A15D02A1D13431B68002BF2
:103D800010D0A368002B0DD023681A780133EA60A5
:103D90002360A368013BA360A368002B02D130001D
:103DA000FFF79AFFD4235B051F433A68002A0DD022
:103DB0002A1D13431B68002B08D0EB686268137040
:103DC000E36A002B0DD021003000984728000D49F0
:103DD00000F04AFE002803D028000A4900F048FEFF
:103DE000F8BD636801336360E368013BE360E36847
:103DF000002BEBD13000FFF789FFE7E7C801002077
:103E0000E060000013000100842252050243127892
:103E10000300D0B2002A0CD08020013340050343B8
:103E20001878013843425841024B40421840024B37
:103E3000C0187047808D5B0080841E00020070B542
:103E4000074B083213431C78064B103213431D787E
:103E5000FFF7DAFFEDB2E4B26419E04070BDC0468E
:103E6000000090100000101010B50D4B821D134380
:103E70001A780400D3B2002A0FD0012B07D1FFF724
:103E8000C3FF084B08341C432378D84010BD0020E2
:103E9000022BFBD1044B1868F8E70448F6E7C0464C
:103EA0000000081100009010CC010020006CDC0222
:103EB0000C4A811D0A4312780300D0B2012A04D0B3
:103EC00002280BD000280BD1704780220133520505
:103ED00013431B78002BF7D10220F5E70320F3E70B
:103EE0000520F1E70000081102009C2318325B0551
:103EF000134380221A700022064B03431A70064BAC
:103F0000063018430378DAB2002BFBD1034B1000C4
:103F10000B6070470000081300000811006CDC0201
:103F2000F8B504000D0016001F00FFF7C1FF0128BF
:103F300023D1002D25D08023621C5B0513431D7007
:103F4000842302225B0523431A702200104B08329F
:103F500013437200D2B21A7040220E4B0E48234314
:103F600006341A7004432378012BFCD1002D0DD1A7
:103F70000A4B334100203B60F8BD0228DBD1012D04
:103F8000D9D139002000FFF7AFFFD4E7044BF0E7A9
:103F900000009010000008130000081180841E002B
:103FA00000127A0010B50A4C030022680120002A92
:103FB0000CD0084A7F301A43107007480633034379
:103FC0001A78022AFCD1002023680B6010BDC0467D
:103FD000CC01002000000813000008119C23C90137
:103FE0005B050343C9B2197070479C235B0503430B
:103FF0001878431E9841C0B27047942349015B056D
:104000000343C9B21970704770B506680C003000E0
:104010002049FCF7A5FD1F4905003000FCF726FEEE
:104020000E00E12130000901FCF79AFDE121E0805A
:1040300009013000FCF71AFE0E003C213000FCF7AD
:104040008FFD3C2120813000FCF710FE6E22A17212
:104050000321114BFF322380238895420AD80F4950
:104060009B0700D10E490123CA5CAA420CD363808E
:10407000A58070BD01339BB223800B40AD1A5A421C
:104080005A416E32FF32E7E70133AD1A0D2BEBD107
:10409000EEE7C04680510100B20700000C6100004D
:1040A000E46000000188114A03008A18002030B53E
:1040B000812A17D85A88541E0B2C13D89C88651E49
:1040C0001E2D0FD8DD88172D0CD81D893B2D09D842
:1040D0009B7A3B2B06D88B0705D0054B9B5CA342F4
:1040E0004041C0B230BD034BF8E7C0464EF8FFFF79
:1040F0000C610000E460000070B5134D83880288F5
:104100005B196E25FF35554344885B1995085B198B
:104110000E4D6600755B5B19920710D00B600A6844
:104120000B4BC4885343827A00899B18E122120109
:1041300062439B183C2242439B180B6070BD022CCB
:10414000ECD8013BEAE7C0464A05F5FFF260000003
:10415000805101008023084A1B0212689A4209D14B
:10416000A02310305B0518430368002B02D10133F4
:10417000FF3303607047C046CC010020010080225D
:1041800010B5002301245205103111430C600B605F
:1041900090214360490504601C3001430B60882175
:1041A000490501430B6084214905014310430B601D
:1041B000036010BD0200902314325B0513430022FC
:1041C0001A604260103201601A60704703680B6029
:1041D00070470000104B820070B5D5588022040053
:1041E0000E4B92051A602800FFF7C8FF2800FFF762
:1041F000B1FF0B4B1F261A5D0123180009493240FD
:10420000095DC025314090408B40074A6D005051F8
:1042100053511060136070BD1C6100003C80845ECF
:10422000206100002161000000E100E0F7B50027F7
:10423000114B8000C55808000E000197FFF732FFB0
:104240000400B84216D001A93000FFF755FF38002E
:10425000FEF73AFE010080200002814206D0FCF702
:104260007FFC01000198FCF77BFC0190280001997C
:10427000FFF7A0FF2000FEBD1C610000F7B5002580
:10428000124B8000C4580E00200001A90195FFF7D1
:104290009DFF2800FEF718FE0500802000028542E1
:1042A0000ED00B4B290004341C43FCF759FC276843
:1042B000019C29004443B8B2FCF752FC2418019435
:1042C000310001A8FFF7A0FEF7BDC0461C61000049
:1042D00000007810F0B50027184B800085B0C55855
:1042E00008000E0001920397FFF7DCFE0400B842BD
:1042F00003D10024200005B0F0BD300003A9FFF772
:10430000FBFE38002E68FEF7DFFD01008020000272
:10431000814206D0FCF724FC01000398FCF720FC46
:104320000390039BB342E4D3AB6088231C355B0549
:104330001D43019B9A002A60DCE7C0461C61000017
:10434000044B8000C25888231C325B05134389004C
:10435000196070471C610000054B8000C25888231B
:1043600014325B0513431868431E9841C0B270476E
:104370001C6100006B46E0221B78D2021B04134034
:10438000024A09070B43801803607047441000007D
:10439000084B8200D258902310B503325B051343BB
:1043A0001B78002B02D000F013F910BD00F078F953
:1043B000FBE7C046246100009C210C4B0C4A8000A6
:1043C000C3588258002003324905114310B51871B3
:1043D0000870942149050A4310701A7F824203D065
:1043E00020331800FEF72FFB10BDC046D40100207B
:1043F00024610000F7B50C0005001B4B30220021A2
:1044000087002000FE58FCF769F92800FEF7C9FD77
:10441000FEF728FD2060300000F080FB2000002126
:104420002030FEF709FBF31C01939023F21C5B057F
:104430001343102230001A70032100F0ADFB30004E
:10444000002100F0CEFB094BFC50094B5A5D1F23A5
:104450001A401E3B9340074A13609823019A5B055C
:10446000134340221A70F7BD24610000D4010020DC
:104470002861000000E100E0F8B50D4E85000D4B0D
:10448000AF590400E85800F049FB38002030FEF72F
:10449000EAFA094B20001A5D1F231A401E3B934085
:1044A000064AD367FEF782FD0023AB51F8BDC04634
:1044B000D4010020246100002861000004E100E034
:1044C0000A4B800070B5C658094B0C00C358150044
:1044D00030001A68096800F028FB2860A3793000D2
:1044E0006279217900F06AFB70BDC046246100004A
:1044F000D4010020F7B51E4A83009C58050022799C
:104500000420002A16D11B4A9E58002903D02800F7
:1045100001AAFFF7D5FF982300214020F21C5B057C
:1045200013431970187027698F4204D12800FFF7D0
:1045300043FF0020FEBD0123237194235B05A1618D
:1045400033431B780720002BF4D0A368191E02D038
:1045500019780133A360B1712369013B2361A36919
:104560000133A3619C235B051A4380231370E0E7AA
:10457000D401002024610000F8B5134F134C8500CE
:104580002C59ED590127069E2777A2602661E3602A
:104590006661FFF7AFFF002814D120000799203093
:1045A000FEF794FA0328F8D000280BD09C230022B1
:1045B00003355B052B4322711A70942303205B059E
:1045C0001D432A70F8BDC04624610000D4010020BC
:1045D00010B51E4B8200D3581979002934D01C49DC
:1045E00051585A69002A11D09C2252050A43127868
:1045F000002A0BD08A79DC68D2B2002C03D022705A
:10460000DA680132DA605A69013A5A611A69002A95
:1046100012D0942252050A431278002A0CD09A68CC
:10462000141E02D0147801329A608C711A69013A12
:104630001A619A6901329A611A69002A04D15B6988
:10464000002B01D1FFF7B8FE10BDC046D4010020F9
:1046500024610000104A8000815800220F4B10B5E1
:10466000C3580331581CC2779C2040050843DA62C6
:104670001A701A835A629A621A6302709420400573
:1046800001430A701A0038321278002A03D001213F
:10469000181DFEF7EAF910BD24610000D4010020C6
:1046A00070B5254B8200D358591CC97F002942D0D0
:1046B00022495258D96A002917DB94214905114330
:1046C0000978002911D0D969CCB2596A002905D0DE
:1046D000DD6A002D02DD0C78013159629471D96ACE
:1046E0000139D962596B01315963D96A002905DA58
:1046F0009421D41C4905214300240C70196B002916
:1047000011DD9C2149051143097800290BD09279CC
:10471000996AD2B2002903D00A709A6A01329A6269
:104720001A6B013A1A63DA6A002A04DC1B6B002B4D
:1047300001DCFFF78FFF70BDD40100202461000071
:10474000012903D0032909D00020704794235B0579
:1047500018430078431E9841C0B2F6E78423F6E779
:10476000431C034849011843C9B201707047C04651
:1047700000008812831C9420490140051843C9B2E7
:1047800001707047831C034889011843C9B2017046
:104790007047C04600000813831C8C20C9004005E8
:1047A0001843C9B201707047F7B50400364EE31CD8
:1047B0001E43337808780D00DBB2072860D8FCF779
:1047C000BBF904192B0E192B2B45304B01341C431C
:1047D000002323703378012BFCD10020FEBD012B78
:1047E000FCD12A4B01341C43402323703378042B23
:1047F000FCD1F2E70021012801D0042002313378F6
:1048000098423FD12000FFF7ABFF0421204A1369F3
:104810008B43136130BFE0E70227B84207D100277E
:104820000B79BB4203D020004979FFF7ABFF194B4E
:1048300001341C4327703378154ADBB20193019B86
:1048400001330193042311690B43E2E70421114B67
:10485000621C1A4311706A78A11C0B431A70002A5B
:1048600006D1AB78002B03D02000E978FFF782FF58
:10487000AB79002BDFD02000E979FFF78DFFDAE775
:104880000120ABE70320A9E70000301000008812E8
:1048900000ED00E000001010C31C0248184300782F
:1048A000C0B2704700003010012314308B40012A41
:1048B00004D1802212051043036070478022D20485
:1048C000DB431043F8E701238B40002A01D043600B
:1048D00070478360FCE70023C2220370437083703B
:1048E000C37043718371C371037242728372C37266
:1048F00070470000F0B5002487B00293FA23012628
:10490000270025009B0053430390049100930194DA
:104910007642AB000593194BAA009B18598804985E
:10492000A140FCF71DF9009B009AC31A824200D9EE
:10493000131AB3421FD2114AA900525C27000192F8
:10494000002B02D00135322D13D10134032C01D0BC
:10495000002B0DD1029A002A00D013603F2201994A
:10496000BB0111400B43039ADBB2537007B0F0BD9B
:1049700000251E00CDE73300E4E7C0464261000099
:10498000942302305B0503431B78002B05D088235A
:104990005B05184304230370704780231B051843ED
:1049A0003023F8E7942210B55205841C2243117875
:1049B0000300CAB2022001290DD18021C90421437C
:1049C0008024CD300870E4000333197849090800C9
:1049D0001040114200D110BD013C002C01D0C04656
:1049E000F3E70920F7E7012310B58B400400080C1A
:1049F00004280AD8FCF7A0F8030E14171A00802028
:104A0000002A03D000050443236010BDC004DB432B
:104A10000443F9E7201D8024002A0AD02405F2E788
:104A200020000830F7E720000C30F4E720001030B9
:104A3000F1E7E404EBE70200002300B5080C0428CA
:104A400008D80133FCF778F803080A0C0E00106848
:104A5000C8400340180000BD5068F9E79068F7E7C8
:104A6000D068F5E71069F3E710B5FFF7E4FF10BD74
:104A7000294A0300881800B510284BD8FCF75CF8C9
:104A8000433C27201912094A4A4A4A2E4A4A4A4AAE
:104A90003500D02080220433400503435203002018
:104AA0001A6000BDCC20802204334005034312036A
:104AB000F5E7C8208022043340050343D202EEE725
:104AC000C42080220433400503439202E7E7C0205C
:104AD00080220433400503435202E0E7FC20802299
:104AE0000433400503431206D9E7F820802204333B
:104AF00040050343D205D2E7BC20802204334005A1
:104B000003431202CBE7B82080220433400503435D
:104B1000D201C4E70320C4E7F2FFFEFF0423C37001
:104B200000238370437003717047F0B5130B89B095
:104B30000126039308230124764202939B190790D0
:104B400004910592019302270025631E069321001C
:104B500005987943FCF704F8049B834207D31B1A9A
:104B6000B34204D21E00069B0390029501930135C7
:104B70007F00092D01D0002EE9D1082C02D001348C
:104B8000002EE0D1019B029A1B0103981343079A60
:104B9000DBB2537009B0F0BD842310B50224C21CEF
:104BA0005B0513434A0022401A70902300195B05ED
:104BB00018431023C9001940017010BD10B58C2492
:104BC00003306405C9000443C9B2217088219200F2
:104BD00049050143D2B20A70802252051043037086
:104BE00010BD8023012202305B0503430A401A7086
:104BF0008C235B0518430823890019400170704716
:104C000004FEFF1F096757617270537069436F6D2F
:104C10006D6F6E53696E6B4275666665725B256477
:104C20005D203D205B3078253032585D0A00776189
:104C300072705365744C6F77506F7765724D6F6407
:104C400065286B57617270506F7765724D6F646540
:104C5000564C50532C2030202F2A20736C656570E1
:104C6000207365636F6E6473203A20697272656C9D
:104C70006576616E742068657265202A2F2928295F
:104C8000206661696C65642E2E2E0A000D0A0A0AE0
:104C90000A5B202A090909095761727020284857C0
:104CA000207265766973696F6E204329202F204733
:104CB0006C61757820284857207265766973696F32
:104CC0006E2042290909092A205D0A000D5B202077
:104CD0000909090920202020202043616D627269A2
:104CE000646765202F2050687973636F6D706C6105
:104CF000622020200909090920205D0A0A000D0907
:104D0000537570706C793D25646D562C0944656649
:104D100061756C74205461726765742052656164BA
:104D20002052656769737465723D3078253032783A
:104D30000A000D094932433D25646B622F732C092B
:104D40005350493D25646B622F732C0955415254D1
:104D50003D2564622F732C094932432050756C6CD9
:104D60002D55703D25640A0A000D0953494D2D3E0D
:104D700053434743363D3078253032780909525441
:104D8000432D3E53523D3078253032780909525434
:104D9000432D3E5453523D3078253032780A000D71
:104DA000094D43475F43313D30782530327809095A
:104DB000094D43475F43323D307825303278090949
:104DC0004D43475F533D3078253032780A000D0956
:104DD0004D43475F53433D30782530327809090908
:104DE0004D43475F4D433D30782530327809094FB8
:104DF00053435F43523D3078253032780A000D0925
:104E0000534D435F504D50524F543D307825303212
:104E100078090909534D435F504D4354524C3D307E
:104E2000782530327809095343422D3E5343523D91
:104E30003078253032780A000D09504D435F5245D5
:104E40004753433D30782530327809090953494D9D
:104E50005F53434743343D3078253032780952540C
:104E6000432D3E5450523D3078253032780A0A00A6
:104E70000D0925647320696E205254432048616EE9
:104E8000646C657220746F2D646174652C092564EF
:104E900020506D6772204572726F72730A00416212
:104EA0006F757420746F2073776974636820435042
:104EB0005520746F20564C5052206D6F64652E2E15
:104EC0002E2000776172705365744C6F77506F7746
:104ED00065724D6F6465286B57617270506F7765AE
:104EE000724D6F6465564C50522829206661696C7A
:104EF00065642E2E2E0A00646F6E652E0A0D004129
:104F0000626F757420746F204750494F5F4452564A
:104F10005F496E697428292E2E2E200041626F751C
:104F20007420746F206C6F77506F77657250696E64
:104F300053746174657328292E2E2E2000426F6FE2
:104F40007420646F6E652E0A005072657373206161
:104F50006E79206B657920746F2073686F77206D90
:104F6000656E752E2E2E0A000A43616C6C696E67A1
:104F70002064657653534431333331696E69742844
:104F800029206E6F772E0A000A46696E697368657C
:104F9000642063616C6C696E67206465765353446A
:104FA00031333331696E697428292E0A000D536537
:104FB0006C6563743A0A000D2D202761273A20732F
:104FC00065742064656661756C742073656E736FBB
:104FD000722E0A000D2D202762273A207365742057
:104FE000493243206261756420726174652E0A0043
:104FF0000D2D202763273A207365742053504920D4
:105000006261756420726174652E0A000D2D20277F
:1050100064273A20736574205541525420626175AB
:105020006420726174652E0A000D2D202765273AD1
:10503000207365742064656661756C7420726567A1
:10504000697374657220616464726573732E0A00FB
:105050000D2D202766273A207772697465206279C2
:10506000746520746F2073656E736F722E0A000D65
:105070002D202767273A2073657420646566617563
:105080006C742073656E736F7220737570706C79B9
:1050900020766F6C746167652E0A000D2D202768DD
:1050A000273A20706F776572646F776E20636F6D3B
:1050B0006D616E6420746F20616C6C2073656E731B
:1050C0006F72732E0A000D2D202769273A20736511
:1050D000742070756C6C2D757020656E61626C65E6
:1050E0002076616C75652E0A000D2D20276A273AFF
:1050F00020726570656174207265616420726567F5
:1051000020307825303278206F6E2073656E736F93
:1051100072202325642E0A000D2D20276B273A20AC
:10512000736C65657020756E74696C20726573654B
:10513000742E0A000D2D20276C273A2073656E64AB
:105140002072657065617465642062797465206F92
:105150006E204932432E0A000D2D20276D273A205C
:1051600073656E6420726570656174656420627930
:105170007465206F6E205350492E0A000D2D202794
:105180006E273A20656E61626C652073656E736F81
:105190007220737570706C7920766F6C74616765BE
:1051A0002E0A000D2D20276F273A20646973616253
:1051B0006C652073656E736F7220737570706C7997
:1051C00020766F6C746167652E0A000D2D202770A4
:1051D000273A2073776974636820746F20564C50A7
:1051E00052206D6F64652E0A000D2D202772273A1C
:1051F0002073776974636820746F2052554E206D58
:105200006F64652E0A000D2D202773273A20706FDA
:1052100077657220757020616C6C2073656E736F9A
:1052200072732E0A000D2D202774273A2064756DA5
:10523000702070726F636573736F72207374617422
:10524000652E0A000D2D202775273A2073657420DE
:1052500049324320616464726573732E0A000D2D18
:10526000202778273A2064697361626C6520535760
:105270004420616E64207370696E20666F72203105
:105280003020736563732E0A000D2D20277A273A8C
:105290002070657270657475616C6C792064756DD1
:1052A0007020616C6C2073656E736F722064617422
:1052B000612E0A000D456E7465722073656C65631E
:1052C00074696F6E3E20000D0953656C6563743A16
:1052D0000A000D092D20273127204144584C333630
:1052E0003209090928307830302D2D3078324429A0
:1052F0003A20312E3656202D2D20332E355620289B
:10530000636F6D70696C6564206F757429200A0085
:105310000D092D2027322720424D58303535616345
:1053200063656C20090928307830302D2D307833B2
:1053300046293A20322E3456202D2D20332E365633
:105340002028636F6D70696C6564206F7574292007
:105350000A000D092D2027332720424D58303535BE
:105360006779726F09090928307830302D2D30782F
:105370003346293A20322E3456202D2D20332E3616
:10538000562028636F6D70696C6564206F75742991
:10539000200A000D092D2027342720424D58303592
:1053A000356D616709090928307834302D2D307842
:1053B0003532293A20322E3456202D2D20332E36E8
:1053C000562028636F6D70696C6564206F75742951
:1053D000200A000D092D20273527204D4D41383456
:1053E00035315109090928307830302D2D30783386
:1053F00031293A20312E393556202D2D20332E36A5
:10540000560A000D092D20273627204C50533235DF
:105410004809090928307830382D2D307832342960
:105420003A20312E3756202D2D20332E3656202867
:10543000636F6D70696C6564206F757429200A0054
:105440000D092D20273727204D41473331313009B1
:10545000090928307830302D2D30783131293A2023
:10546000312E393556202D2D20332E3656202863E7
:105470006F6D70696C6564206F757429200A000D6A
:10548000092D20273827204844433130303009097E
:105490000928307830302D2D30783146293A2033A4
:1054A0002E3056202D2D20352E30562028636F6D3E
:1054B00070696C6564206F757429200A000D092DD0
:1054C000202739272053493730323109090928303C
:1054D0007830302D2D30783046293A20312E39560B
:1054E000202D2D20332E36562028636F6D70696C69
:1054F0006564206F757429200A000D092D2027612D
:1055000027204C3347443230480909092830783085
:10551000462D2D30783339293A20322E3256202D1F
:105520002D20332E36562028636F6D70696C6564AC
:10553000206F757429200A000D092D20276227206D
:10554000424D4536383009090928307841412D2D22
:1055500030784638293A20312E3656202D2D2033EA
:105560002E36562028636F6D70696C6564206F75E8
:105570007429200A000D092D202764272054435345
:10558000333437323509090928307830302D2D3041
:10559000783144293A20322E3756202D2D20332EB3
:1055A00033562028636F6D70696C6564206F757465
:1055B00029200A000D092D2027652720534934375B
:1055C0003035090909286E2F61293A202020202032
:1055D000202020322E3756202D2D20352E355620D6
:1055E00028636F6D70696C6564206F757429200A7B
:1055F000000D092D202767272043435338313109F7
:10560000090928307830302D2D30784646293A2047
:10561000312E3856202D2D20332E36562028636FFC
:105620006D70696C6564206F757429200A000D091E
:105630002D2027682720414D473838333409090980
:1056400028307830302D2D3F293A20332E33562004
:105650002D2D20332E33562028636F6D70696C65B5
:1056600064206F757429200A000D092D20276A27F0
:105670002041533732363209090928307830302D2D
:105680002D30783242293A20322E3756202D2D20C7
:10569000332E36562028636F6D70696C6564206FF9
:1056A000757429200A000D092D20276B27204153EE
:1056B0003732363309090928307830302D2D3078CB
:1056C0003242293A20322E3756202D2D20332E36C5
:1056D000562028636F6D70696C6564206F7574293E
:1056E000200A000D09456E7465722073656C656350
:1056F00074696F6E3E20000D09496E76616C6964B5
:105700002073656C656374696F6E2027256327209D
:10571000210A000D0A095365742049324320626151
:105720007564207261746520696E206B62707320ED
:1057300028652E672E2C20273030303127293E2037
:10574000000D0A0949324320626175642072617458
:10575000652073657420746F202564206B622F733D
:10576000000D0A0953657420535049206261756425
:10577000207261746520696E206B627073202865E9
:105780002E672E2C20273030303127293E20000D67
:105790000A09535049206261756420726174653A48
:1057A000202564206B622F73000D0A095365742055
:1057B000554152542062617564207261746520699C
:1057C0006E206B6270732028652E672E2C20273088
:1057D00030303127293E20000D0A0955415254200E
:1057E0006261756420726174653A202564206B6281
:1057F0002F73000D0A09456E74657220322D6E7983
:1058000062626C6520726567697374657220686591
:105810007820616464726573732028652E672E2C6E
:105820002027336527293E20000D0A09456E74653F
:10583000726564205B3078253032785D2E0A0A006C
:105840000D0A09456E746572204932432061646413
:10585000722E2028652E672E2C20273066272920BF
:105860006F72202739392720666F722053504920E4
:105870003E20000D0A09456E7465726564205B3038
:1058800078253032785D2E0A000D0A09456E746560
:105890007220686578206279746520746F20736562
:1058A0006E642028652E672E2C2027306627293E1F
:1058B00020000D0A095350492077726974652066EB
:1058C00061696C65642E204144584C333632204463
:1058D000697361626C6564000D0A0949324320777F
:1058E00072697465206661696C65642C20657272EA
:1058F0006F722025642E0A0A000D0A094F76657220
:10590000726964652073656E736F72207375707051
:105910006C7920766F6C7461676520696E206D56B6
:105920002028652E672E2C20273138303027293E3D
:1059300020000D0A094F76657272696465207365EF
:105940006E736F7220737570706C7920766F6C74E3
:105950006167652073657420746F202564206D561F
:10596000000D0A094175746F2D696E6372656D656E
:105970006E742066726F6D2062617365206164646D
:1059800072657373203078253032783F205B273082
:1059900027207C202731275D3E20000D0A0943681F
:1059A000756E6B207265616473207065722061642E
:1059B00064726573732028652E672E2C202731278B
:1059C000293E20000D0A094368617474793F205B09
:1059D000273027207C202731275D3E20000D0A0933
:1059E000496E7465722D6F7065726174696F6E2097
:1059F0007370696E2064656C617920696E206D69D1
:105A00006C6C697365636F6E64732028652E672EF6
:105A10002C20273030303027293E20000D0A095233
:105A2000657065746974696F6E732070657220614A
:105A30006464726573732028652E672E2C202730CE
:105A400030303027293E20000D0A094D6178696DFC
:105A5000756D20766F6C7461676520666F7220616A
:105A60006461707469766520737570706C79202834
:105A7000652E672E2C20273030303027293E20001D
:105A80000D0A095265666572656E636520627974F8
:105A90006520666F7220636F6D70617269736F6EDF
:105AA000732028652E672E2C2027336527293E205A
:105AB000000D0A09526570656174696E672064653E
:105AC0007625642040203078253032782C2072658D
:105AD00070733D25642C2070756C6C3D25642C2002
:105AE00064656C61793D25646D733A0A0A000D0A9C
:105AF00009536C656570696E6720756E74696C20FA
:105B000073797374656D2072657365742E2E2E0A19
:105B1000000D0A094E4F54453A20466972737420AD
:105B2000706F7765722073656E736F727320616E2C
:105B30006420656E61626C65204932430A0A000D7B
:105B40000A094279746520746F2073656E64202899
:105B5000652E672E2C2027463027293E20000D0A6F
:105B60000952657065746974696F6E732028652EBB
:105B7000672E2C20273030303027293E20000D0A98
:105B80000953656E64696E672025642072657065CF
:105B9000746974696F6E73206F66205B307825308E
:105BA00032785D206F6E204932432C2073656E730E
:105BB0006F7220737570706C7920766F6C7461678A
:105BC000653D25646D560A0A000D0A0953656E6429
:105BD000696E672025642072657065746974696FE9
:105BE0006E73206F66205B3078253032785D206FD1
:105BF0006E205350492C2073656E736F722073753D
:105C000070706C7920766F6C746167653D25646D8A
:105C1000560A0A00776172705365744C6F77506F43
:105C20007765724D6F6465286B57617270506F773E
:105C300065724D6F6465564C50522C2030202F2ACF
:105C400020736C656570207365636F6E6473203AB2
:105C500020697272656C6576616E74206865726524
:105C6000202A2F292829206661696C65642E2E2E32
:105C70000A00776172705365744C6F77506F776567
:105C8000724D6F6465286B57617270506F776572E3
:105C90004D6F646552554E2C2030202F2A20736C96
:105CA000656570207365636F6E6473203A20697256
:105CB00072656C6576616E742068657265202A2F46
:105CC000292829206661696C65642E2E2E0A000D34
:105CD0000A0A094350552040202575204B487A0A6E
:105CE000000D0943505520706F776572206D6F6409
:105CF000653A2025750A000D0943505520636C6FE5
:105D0000636B206D616E6167657220636F6E66699B
:105D10006775726174696F6E3A2025750A000D0906
:105D200052544320636C6F636B3A2025640A000D64
:105D30000953504920636C6F636B3A2025640A0055
:105D40000D0949324320636C6F636B3A2025640A66
:105D5000000D094C505541525420636C6F636B3AEF
:105D60002025640A000D09504F5254204120636CD5
:105D70006F636B3A2025640A000D09504F5254207E
:105D80004220636C6F636B3A2025640A000D09465C
:105D9000544620636C6F636B3A2025640A000D093A
:105DA00041444320636C6F636B3A2025640A000D05
:105DB00009434D5020636C6F636B3A2025640A00E1
:105DC0000D095652454620636C6F636B3A2025647B
:105DD0000A000D0954504D20636C6F636B3A202507
:105DE000640A000D0A0943616E6E6F742073657456
:105DF0002049324320616464726573733A204669B6
:105E000072737420736574207468652064656661BC
:105E1000756C7420493243206465766963652E0A87
