S02B00002F686F6D652F73747564656E74732F6C706233322F576172702D436F75727365776F726B2D322F6267
S1130000000600201D050000450500004505000010
S113001000000000000000000000000000000000DC
S11300200000000000000000000000004505000082
S11300300000000000000000450500004505000028
S11300404505000045050000450500004505000084
S1130050450500004505000045050000E51D0000BC
S1130060893D000045050000933D00004505000062
S11300709D3D0000450500004505000045050000C4
S11300804505000045050000450500004505000044
S1130090BD1D0000D51D00004505000045050000FC
S11300A04505000045050000450500004505000024
S11300B04505000045050000F51D0000450500004C
S1130400FFFFFFFFFFFFFFFFFFFFFFFFFE3DFFFFBB
S11304100448054B10B5834203D0044B002B00D095
S1130420984710BD38FFFF1F38FFFF1F0000000072
S113043006480749091A8B10C90FC91810B5491085
S113044003D0044B002B00D0984710BD38FFFF1F8A
S113045038FFFF1F0000000010B5074C2378002B65
S113046009D1FFF7D5FF054B002B02D0044800E06B
S113047000BF0123237010BD38FFFF1F00000000E0
S1130480747C0000054B10B5002B03D004490548CB
S113049000E000BFFFF7CCFF10BDC0460000000025
S11304A03CFFFF1F747C0000402292029A1A92467D
S11304B07047C046154B002B00D1114B9D46FFF7EA
S11304C0F3FF00218B460F461148124A121A00F01E
S11304D009F90C4B002B00D098470B4B002B00D094
S11304E098470020002104000D000B4800F032F86A
S11304F000F06EF82000290001F01EFF00F03EF825
S113050000000800000000000000000000060020B9
S113051038FFFF1FA4030020A905000072B6064897
S11305200649074A02600A6003F03EFC03F07EFCC1
S113053062B6FFF7BFFF000080E100E080E200E068
S1130540FFFFFFFF0048004745050000C317C01820
S11305505840704710B5010000230022002000F02D
S11305601FFA10BD10B50A00002100F0BBF810BD41
S1130570014B18687047C04600FEFF1F084B10B5BA
S11305800400002B02D0002100F078FA054B186813
S1130590836A002B00D09847200001F073FBC0460B
S11305A07D0A00006460000070B5074D074C641BB1
S11305B0A41005D0013CA300EB589847002CF9D1B6
S11305C007F05EFB70BDC046987C00009C7C000078
S11305D070B50C4D0C4E761BB61005D0002408CD1A
S11305E001349847A642FAD107F044FB074D084E60
S11305F0761BB61005D0002408CD01349847A642D6
S1130600FAD170BD947C0000947C0000947C0000BE
S1130610987C000010B5034B0100186800F00CF939
S113062010BDC04600FEFF1F10B5034B0100186843
S113063000F0ACF810BDC04600FEFF1FF0B5C64682
S113064000B50F2A43D90B00032603431E400C00B8
S11306500300002E40D11500103D2D09AC462D019C
S1130660A846804400E03B00676825685F60E7684F
S11306701D60DF601F00A56810379D60103443457E
S1130680F1D165460F230C2401352D01491913407E
S11306904519144223D08C59AC5104369C1B032CAD
S11306A0F9D80324043B9B0801339B002240ED1836
S11306B0C918561E002A07D0002300E02300CA5C94
S11306C05C1CEA549E42F9D104BC9046F0BD05007E
S11306D0561E002AF0D1F7E7561E0500ECE71A0073
S11306E0F6E7C046F0B5050083074AD0541E002A39
S11306F044D0CEB20300032202E00135013C3DD3D5
S113070001332E701342F8D1032C2FD9FF220A4053
S1130710150215432A0415430F2C35D92700103F21
S11307203F093E01B4461E001A00103666441560A7
S113073055609560D5601032B242F8D10F260C2274
S113074001373F012640DB193700224217D03E1FF4
S1130750B608B400A4461A001C1D644420C2A24278
S1130760FCD103240136B6009B193C40002C05D073
S1130770C9B21C19197001339C42FBD1F0BD34007D
S1130780F4E714000300BFE72700E0E770B50500B5
S1130790002915D00C1F2368002B27DB280000F04C
S11307A0CBF9244B1A68002A05D0A2420CD921683F
S11307B06018824224D0626028001C6000F0BEF9F8
S11307C070BDA34203D81A005368002BF9D11168F5
S11307D05018A0421BD027D821686018834207D044
S11307E063605460280000F0A9F9E9E7E418D5E74C
S11307F018685B6884466144216063605460F1E773
S1130800106852688446614421606260D4E72068BD
S11308100918501811608342E4D118685B68844653
S1130820614411605360DDE70C2328002B6000F065
S113083085F9C5E754FFFF1FF8B50323CD1C9D437D
S1130840083506000C2D2AD20C25A94229D83000DF
S113085000F072F92A4F3A68002A0AD013685B1B29
S113086004D441E023685B1B1FD522005468002C8C
S1130870F8D17B68002B3DD02900300000F042F80D
S1130880431C2AD00323C41C9C43A04205D0211A34
S1130890300000F037F8431C1FD0256010E0002D15
S11308A0D3DA0C2300203360F8BD0B2B05D8636822
S11308B0A2421DD0536003E014002360E4182560B5
S11308C0300000F03BF9200007220B30231D904339
S11308D0C21AE9D01B1AA350E6E70C233000336098
S11308E000F02CF90020DFE70B2BE5D81400536847
S11308F03B60E5E70021300000F004F87860BBE7D6
S113090054FFFF1F002370B5064C05000800236048
S113091001F0BAF9431C00D070BD2368002BFBD052
S11309202B60F9E7A003002003000A7801311A7054
S11309300133002AF9D1704710B5830727D0037813
S1130940002B26D00300032102E01A78002A1CD0D1
S113095001330B42F9D119680F4A104C8A188A43A3
S113096022420FD1043319680B4A8A188A4322425F
S113097008D104331968084A8A188A432242F1D0FC
S113098000E001331A78002AFBD1181A10BD0300C5
S1130990E1E70020FAE7C046FFFEFEFE808080808B
S11309A0F0B546464F46D646C0B51F002F4B82B021
S11309B01C6805000E009046002C2DD063681F2B88
S11309C050DC002D1CD08822A0589146002834D039
S11309D07832825894469A00914681444246494668
S11309E00A600121624699400A43944680228A465D
S11309F06146520081504946803A8F50022D16D0EC
S1130A0000205A1C02339B0062601E5102B01CBCC1
S1130A1090469946A246F0BD154C1C60154B002B20
S1130A20CCD01B6801938823019AE250C6E755464F
S1130A30843281580D438550E2E70F4B002B11D0CF
S1130A4084204000FFF7E6FD00280BD0802200231D
S1130A5052008350043283504B460022E0509446A7
S1130A606368B8E701204042D0E7C046E8FFFF1FB3
S1130A705CFFFF1F0000000015060000F0B5DE4615
S1130A804E46454657462B4B88469B46E0B51E6866
S1130A9083B00190002E45D088237568F7586C1EEA
S1130AA040D40135AD00783375199A460AE0002F19
S1130AB005D03B00A20080339B58434505D0043D3C
S1130AC0013C2FD34346002BF1D173682A68013BC4
S1130AD0A34222D000232B60002AF0D073689946E9
S1130AE0002F18D001235146A3407958194212D03F
S1130AF0822040003858A1007958009018420ED145
S1130B00019890475B4672681B684A4501D1B3421D
S1130B10D5D01E00BEE79047F4E77460DCE7080018
S1130B209047EFE703B03CBC90469946A246AB46DB
S1130B30F0BDC046E8FFFF1F7047C0467047C0467F
S1130B4002B4714649084900095C49008E4402BC5C
S1130B507047C04603B47146490840004900095E25
S1130B6049008E4403BC7047002243088B4274D36F
S1130B7003098B425FD3030A8B4244D3030B8B429A
S1130B8028D3030C8B420DD3FF22090212BA030CA3
S1130B908B4202D31212090265D0030B8B4219D384
S1130BA000E0090AC30B8B4201D3CB03C01A5241A4
S1130BB0830B8B4201D38B03C01A5241430B8B42EC
S1130BC001D34B03C01A5241030B8B4201D30B03D5
S1130BD0C01A5241C30A8B4201D3CB02C01A5241FC
S1130BE0830A8B4201D38B02C01A5241430A8B42BF
S1130BF001D34B02C01A5241030A8B4201D30B02A8
S1130C00C01A5241CDD2C3098B4201D3CB01C01AC1
S1130C10524183098B4201D38B01C01A52414309CB
S1130C208B4201D34B01C01A524103098B4201D3B9
S1130C300B01C01A5241C3088B4201D3CB00C01A26
S1130C40524183088B4201D38B00C01A524143089E
S1130C508B4201D34B00C01A5241411A00D20146C3
S1130C60524110467047FFE701B5002000F0F0F84C
S1130C7002BDC0460029F7D076E7704703460B4310
S1130C807FD4002243088B4274D303098B425FD381
S1130C90030A8B4244D3030B8B4228D3030C8B42AD
S1130CA00DD3FF22090212BA030C8B4202D3121293
S1130CB0090265D0030B8B4219D300E0090AC30B68
S1130CC08B4201D3CB03C01A5241830B8B4201D315
S1130CD08B03C01A5241430B8B4201D34B03C01AFE
S1130CE05241030B8B4201D30B03C01A5241C30A76
S1130CF08B4201D3CB02C01A5241830A8B4201D3E7
S1130D008B02C01A5241430A8B4201D34B02C01AD0
S1130D105241030A8B4201D30B02C01A5241CDD275
S1130D20C3098B4201D3CB01C01A524183098B42C0
S1130D3001D38B01C01A524143098B4201D34B01A9
S1130D40C01A524103098B4201D30B01C01A52410C
S1130D50C3088B4201D3CB00C01A524183088B4293
S1130D6001D38B00C01A524143088B4201D34B007C
S1130D70C01A5241411A00D20146524110467047EE
S1130D805DE0CA0F00D04942031000D340425340F3
S1130D9000229C4603098B422DD3030A8B4212D3B3
S1130DA0FC22890112BA030A8B420CD389019211E5
S1130DB08B4208D3890192118B4204D389013AD022
S1130DC0921100E08909C3098B4201D3CB01C01AF7
S1130DD0524183098B4201D38B01C01A524143090A
S1130DE08B4201D34B01C01A524103098B4201D3F8
S1130DF00B01C01A5241C3088B4201D3CB00C01A65
S1130E00524183088B4201D38B00C01A5241D9D27C
S1130E1043088B4201D34B00C01A5241411A00D2FD
S1130E200146634652415B10104601D34042002BF9
S1130E3000D54942704763465B1000D3404201B578
S1130E40002000F005F802BD0029F8D016E770472D
S1130E507047C0468446101C62468C46191C634683
S1130E6000E0C0461FB500F043FB002801D4002178
S1130E70C8421FBD10B500F08DFA4042013010BDCC
S1130E8010B500F035FB002801DB002010BD012067
S1130E9010BDC04610B500F02BFB002801DD00207A
S1130EA010BD012010BDC04610B500F0AFFA0028F7
S1130EB001DC002010BD012010BDC04610B500F0BB
S1130EC0A5FA002801DA002010BD012010BDC0469B
S1130ED0F0B54F464646D6464502C0B547000C1C01
S1130EE06D0A3F0EC60F002F66D0FF2F6CD0002373
S1130EF0EA00802599469A46ED0415437F3F600237
S1130F006100430A9846090EE40F002948D0FF29DE
S1130F1010D08022D800D2040243904600207F39AA
S1130F204A4633007F1A02436C4992008A58634050
S1130F30DBB29746002B6DD10220FF3F33E0002344
S1130F4098462600454682465346022B00D17FE050
S1130F50032B00D194E0012B17D038007F300028F8
S1130F605FDD6B0704D00F232B40042B00D0043526
S1130F702B0103D538005A4B80301D40FE2867DC16
S1130F80AD016D0AC0B202E01E0000200025C005BC
S1130F902843F60730431CBC90469946A246F0BD50
S1130FA0002B2BD101204A4633004E4902439200C4
S1130FB08A586340DBB29746002D13D10423994627
S1130FC0033B00279A469AE7002D05D1082399464A
S1130FD0063BFF279A4692E70C239946093BFF27D5
S1130FE09A468CE7280000F02FFE7627431F9D4089
S1130FF000237F4299469A463F1A80E7180000F082
S113100023FE4246431F76219A404942091A9046DC
S1131010002085E7FF21032082E71E00FF20002532
S1131020B5E701231B1A1B2BAFDC9E372900BD40FB
S1131030D9406A1E95410D436B0704D00F232B4002
S1131040042B00D004356B0144D5012000259EE714
S1131050FF2000259BE780250026FF20ED0396E76F
S1131060002398468020C003054209D0434603422A
S113107006D1454605436D022600FF206D0A86E72A
S11310808020C00305436D02FF206D0A7FE74146BF
S11310906A014801824219D21B210025013F012621
S11310A014006D005200002C01DB904201D8121A8A
S11310B0354301390029F3D1501E824138007F3075
S11310C01E001543002800DD4BE7AAE71A2101257D
S11310D0121AE4E7AD0100206D0A58E768600000C9
S11310E0FFFFFFF7A8600000F8B557464E46454697
S11310F0DE464402E0B545000F1C640A2D0EC60FFF
S1131100002D47D0FF2D4DD0002380209A469B46CA
S1131110E400C00404437F3D7802430A99467A0000
S1131120FB0F9846120E4B4644D0FF2A11D0D8002C
S11311308023DB040343994600207F3AAD184746D9
S113114053467740691C0F2B3FD8724A9B00D358F3
S11311509F46FF35002B00D079E0524602231A4304
S113116092460220EBE747464C4683465B46022BF9
S113117028D0032B00D1C6E0012B4FD1002000243E
S1131180C005FF07204338433CBC90469946A2461D
S1131190AB46F8BD002C71D104239A46033B0025CD
S11311A09B46B9E7002C63D108239A46063BFF25EA
S11311B09B46B1E7002B50D1524601331A43924665
S11311C00120BCE7FF200024DAE74846260C24046B
S11311D0220C0404240C4B4620001B0C5043744383
S11311E05A435E431219030C9B189C4203D9802274
S11311F052029446664400041A04000C1218940126
S1131200601E84411B0C920E9B1914439B011C43CA
S11312101B0172D50120630804401C4308007F3081
S113122000283CDD630704D00F232340042B00D0A7
S11312300434230103D580310800374B1C40FE28B9
S1131240C0DCA401640AC0B29AE737008EE75246B4
S113125003231A439246032071E7484600F0F4FC46
S11312604A46431F9A402D1A91460020763D66E770
S11312700C239A46093BFF259B464DE7200000F0CE
S1131280E3FC7625431F9C4000236D429A469B460F
S11312902D1A41E780240027FF20E40370E701238F
S11312A01B1A1B2B00DD69E79E3120008C40D840BF
S11312B0631E9C410443630704D00F232340042B83
S11312C000D0043463011AD50120002458E780209B
S11312D0C003044209D04B46034206D14C460443A2
S11312E064024746FF20640A4AE78020C00304439F
S11312F064023700FF20640A42E729008EE7A40154
S11313000020640A3CE78020C00304436402FF20F9
S1131310640A35E7E8600000FFFFFFF770B5051EBB
S11313200ED000F091FC9E2304001B1A962B0CDCBB
S1131330082801DD083CA5406D026D0AD8B201E021
S113134000200025C005284370BD992B09DD02004B
S113135029001B3291404A1E91410522121AD540A0
S11313600D43052C01DD621F95402900084E3140D4
S11313706A0709D00F202840042805D004314A0107
S113138002D59F2331401B1B89014D0AD8B2D9E7EE
S1131390FFFFFFFBF0B54F464646D64694469146BE
S11313A01A03120B184DC0B54C000F0392465A0095
S11313B0060080463F0B0120640DC90F520DDB0F60
S11313C0AC420AD0AA4203D0944201D157450DD071
S11313D01CBC90469946A246F0BD3D003543F7D16A
S11313E0A242F5D1524665462A43F1D10120C845AF
S11313F0EED1994206D0002CEAD13E433000461E7D
S1131400B041E5E70020E3E7FF070000F0B54E46F2
S113141045465746DE4604001800E0B516001B0397
S11314201B0B324D0F034A0099464300A446B046B5
S11314303F0B520DC90F5B0DC00FAA4229D0AB421E
S113144018D0002A2AD13C43A34665426541002BAB
S113145002D14C46264327D0002D15D1814228D0F5
S113146002200139084001383CBC90469946A24606
S1131470AB46F0BD4D462E432FD1002AEED13C435E
S113148065426541002DE9D00028EDD1012040429C
S1131490EAE73D00254320D19342EBD0002BDDD178
S11314A04C462643DAD1DBE75B460020002BDBD039
S11314B0D6E79A420ADCE7DB4F45D1D810D00020AA
S11314C04F45D1D20029E1D00800CDE7434258412D
S11314D00223404218400138C6E702204042C3E7D5
S11314E0C445BDD80020C445BED2EBE7FF070000C9
S11314F0F0B54E4645465746DE4604001800E0B5B2
S113150016001B031B0B314D0F034A009946430081
S1131510A446B0463F0B520DC90F5B0DC00FAA4243
S113152011D0AB4214D0002A2FD13C43A3466542CC
S11315306541002B14D14C46264311D15B46002053
S1131540002B17D010E03D00254312D193421CD14B
S11315504D462E430DD1002A04D13C4365426541DA
S1131560002D0DD1814216D00220013908400138E6
S113157000E002203CBC90469946A246AB46F0BD32
S11315800028F7D101204042F4E7002BEAD14C4671
S11315902643E7D1E8E79A4206DD43425841022355
S11315A0404218400138E5E79A42E9DB4F45DBD871
S11315B006D000204F45DDD20029E3D00800D9E74A
S11315C0C445D1D80020C445D4D2F5E7FF070000B4
S11315D0F0B557464E464546DE46E0B598460C0300
S11315E04B000600924687B0240B5B0DCF0F002BF7
S11315F06CD0DD4A934200D186E0420FE4001443EC
S1131600802212041443D94AC500944663440093CB
S1131610002399469B46434642461E03D20F5B0075
S113162050469046360B5B0D00D178E0CE4A93428B
S11316301DD0CE49420F8C4600996344F6008C4677
S1131640164380229C44120463461643C2000020C1
S113165000930099434601318C4649467B400193EF
S11316600F2900D97EE0C24B890059588F46524653
S1131670009B324300D056E1BB4900268C466344AC
S1131680494600930223194389460220E1E7434671
S113169001933400150083465B46022B5ED0032B76
S11316A000D1F3E1012B00D018E100220024002531
S11316B0019B12052243DB071A432800110007B0DF
S11316C03CBC90469946A246AB46F0BD2500054376
S11316D000D141E1002C00D1ADE1200000F0B4FACA
S11316E0010002000B391D2310005B1A3100350084
S11316F008388440D94085400C439E48831A00939F
S1131700002399469B4686E70500254300D01CE14B
S1131710082200930223002491469B467BE752460D
S1131720324300D10AE1002E00D176E1300000F00E
S11317308BFA02000B3A1D2301009B1A524608390A
S1131740DA408E40164352468A40009B8949181A53
S113175003008C466344002000937AE700240025AC
S1131760814AA5E72F0C2D042D0C2B00110C12041B
S1131770120C53439846130028007B439946484370
S11317804844834640460B00000C824658467B433F
S113179050440293814506D99A4680235B029946B8
S11317A0CA4453460293030C9B4643461B0400045D
S11317B01B0C9846030043440493330C99462B00B6
S11317C03604360C7343984633007B439A464B46A3
S11317D05D435F4343465544180C4019824503D981
S11317E080235B029A465744050CEB190593434644
S11317F01D042D0C00044019250C2404240C27007E
S113180057436A4390462A003B0C9A464A43614335
S1131810414451448344884503D980235B0298465C
S113182042443F040B0C3F0C0904C9192700984695
S11318304B4677435C436E435D433B0C9946A41986
S11318404C4442440395A64204D980235B02984643
S113185045440395029B3F045B441E008342804140
S113186023049846059B3F0C4744984676188E42BD
S11318708941474440423D18A846934649428A4616
S1131880C3449F42BF4180458041039BDA4498464C
S1131890534640427F420743240C934592418A4574
S11318A089413F19DC0D049B75021D43681E854167
S11318B05346524249420A43BF184744F60D7F0239
S11318C035435A023C431543FB0100D4C1E00121D6
S11318D06A080D401543E20715436408264961442C
S11318E0002956DD6B0709D00F222A40042A05D0AF
S11318F02A1DAA42AD416D4264191500E30104D5C5
S113190080211E4AC900144061441D4A914200DDF1
S113191024E76207ED08640249051543240B4A0DC8
S1131920C6E60197B8E6104A0320944663444A4643
S1131930009303231A43914652468AE649460123FB
S1131940194389460026012083E60C2200930323D1
S1131950050091469B465EE60423994600230093C6
S1131960013300249B4656E6FF07000001FCFFFFFD
S1131970286100000DFCFFFFFF030000FFFFFFFED6
S1131980FE070000002380240025444A0193240319
S11319908EE60120401A382800DD86E61F285BDD2C
S11319A01F2223005242511ACB401900202803D091
S11319B03B4A6244944025436A1E95412A000A43E7
S11319C007210D000024154011425BD00F21002493
S11319D01140042953D0111D914292415242A4183E
S11319E00A0023024BD501220024002560E680234F
S11319F01B031C4209D01E4207D133431C03434638
S1131A001500240B254A019352E680221203144345
S1131A102403224A240B01974AE600F015F9030037
S1131A201A00153220301C2A00DC84E65646083B96
S1131A3000229E4089E600F007F9010002001531FA
S1131A4020321C2900DC4EE634000838002584408E
S1131A5053E6009B9C4641E71249220061442E0054
S1131A608D408A40C640691E8D4132432A43C4409A
S1131A705307B6D00F2111400429ACD1B1E7650753
S1131A806402240BD2081543002211E680221203BB
S1131A9014432403014A240B0AE6C046FF0700004E
S1131AA03E0400001E04000070B543004602C40F4B
S1131AB0FE201B0E591C750A08420CD0E02292002D
S1131AC094466D07360B63441B053343E4072343F5
S1131AD02800190070BD002B14D1002D1BD0280044
S1131AE000F0B2F80A281CDC0B232A001B1ADA4087
S1131AF0030015339D400E4B12031B1A5B05160B96
S1131B005B0DE1E7002D09D0320B80263603094B2B
S1131B106D071643D8E700230026D5E70026054BBA
S1131B20D2E703002A000B3B9A400025E3E7C046B6
S1131B3089030000FF07000002004B00F0B5080312
S1131B405B0D3D4ECC0F400A510F5F1C0843D5007E
S1131B5037420AD039495E18FE2E16DDFF230021D4
S1131B60DB050B43E0071843F0BD002B06D12843E7
S1131B7027D005218901490ADBB2F1E70543EDD0FD
S1131B808021C903FF230143EAE7002E1CDD9201F3
S1131B9011004A1E9141C0006D0F014329434B07B8
S1131BA048D00F230B40042B00D004318023DB04E6
S1131BB00B403FD0721CFE2ED0D08901490AD3B20B
S1131BC0CEE700230021CBE73200173222DB80214D
S1131BD01E2209040843921B1F2A1DDD02214942CB
S1131BE08E1B0100F1400E00202A04D0144A9446B2
S1131BF063449840054329004D1EA9413143002602
S1131C004B07CED180200B00C004012203400142C7
S1131C10D3D1AFE70023ACE70A498C4629006344DB
S1131C20D1409D400A00290098404D1EA94101431E
S1131C301143E4E733009DE7FE07000080FCFFFF4B
S1131C40A2FCFFFF82FCFFFF1C2101231B0498421E
S1131C5001D3000C10391B0A984201D3000A083939
S1131C601B09984201D30009043902A2105C4018F0
S1131C707047C04604030202010101010000000094
S1131C8000000000FEE7C0460A4A0300116810B5D0
S1131C90002901D10849116010680849C3188B4212
S1131CA006D9FEF765FC0C2303600120404210BDF9
S1131CB01360FCE7ECFFFF1FA8030020A80300202B
S1131CC0837802209842804140427047437A002042
S1131CD0013B012B03D90B78013001330B707047A2
S1131CE0C023174A9B001360164A1360164A1360F8
S1131CF00023164A1360164A1360164A1360164AE4
S1131D001360164A1360164A1360164A1360164A83
S1131D101360164A1360164A1360164A1360164A73
S1131D201360164A1360164A1360164A1360164A63
S1131D301360164A1360164A1360164A13607047FC
S1131D400090145404901454089014540C90145497
S1131D501090145414901454189014541C90145447
S1131D6020901454249014543090145400A014540B
S1131D7004A0145408A014540CA0145410A0145417
S1131D8014A0145418A014541CA0145428A01454BF
S1131D902CA0145434A0145403003038092805D955
S1131DA01A00613A052A02D8573B180070471A00F6
S1131DB0413A0020052AF9D8373BF6E710B5002050
S1131DC003F0FCFC002803D00021080003F0EAFC27
S1131DD010BD0000024A1368013313607047C04607
S1131DE080FEFF1F10B50721014803F095F910BDCF
S1131DF000C007400122024B52421A607047C0469D
S1131E00A090044037B5002002F0FDFAC02300245E
S1131E100D4A9B0013600D4A0D4D13600D4A2000BE
S1131E2013600D4B2C716C71AC711A68FA239B0012
S1131E3053430A492B6003F00FFD2900200001AA37
S1131E4003F070FD37BDC046189014541C90145410
S1131E509000002000A0145484FEFF1F60000020A6
S1131E6010B58024002003F039FD0A4B64001C6087
S1131E70094B07201C60094B1C6002F075FD06200D
S1131E8002F072FD200002F06FFD002002F0C0FAA3
S1131E9010BDC046189014541C90145400A014543F
S1131EA010B5002002F0BEFA8023054A9B0013609F
S1131EB0044A00200449136002F032FE10BDC046FB
S1131EC00CA0145410A014543C00002010B50020A1
S1131ED002F062FE0020034B1860034B186002F00E
S1131EE0A6FA10BD0CA0145410A01454014B1B8866
S1131EF07047C04674FEFF1F0FB41FB50E4B1B780E
S1131F00DCB2002B0FD107AB0393402320000093D6
S1131F1006990A4B03AA01F05DFB002807DA2000AA
S1131F20074901F07BFA1FBC08BC04B01847052020
S1131F3002F03BF8F7E7C04676FEFF1FFBFFFF1FEA
S1131F40AE77000010B50400002901D0FFF7C8FEE9
S1131F500021022000F05AFF2100042000F056FF67
S1131F60002802D00148FFF7C7FF10BD92610000AE
S1131F70F8B50E00040027481500FFF7BDFF2648FA
S1131F80FFF7BAFF2548FFF7B7FF320021002448C6
S1131F90FFF7B2FF234B24481968244B244E1A68D8
S1131FA0244B254F1B68FFF7A7FF244B244CF958FB
S1131FB0244872693368FFF79FFF21786278A37918
S1131FC02148C9B2D2B2DBB2FFF796FF1F4B217A88
S1131FD0227E1B781E48C9B2D2B2DBB2FFF78CFF57
S1131FE01C4B1D4819785A781C4BC9B21B69D2B2D4
S1131FF0FFF782FF1A4B1B4899781B4BC9B2FA585A
S11320007368FFF779FF194B2A7819681848FFF7A6
S113201073FFF8BDF06100003062000062620000EE
S11320209B62000078FEFF1FCF62000084FEFF1F4A
S113203000D003408CFEFF1F007004403C100000E1
S113204000400640066300003C6300000050064068
S11320506B63000000E007409B63000000ED00E0BC
S113206000D00740D56300003410000080FEFF1F3D
S11320700D64000010B501F0DDF90028FBDB10BD94
S113208070B5FFF7F7FF0400FFF7F4FFFF26050024
S113209020003040FFF780FE040028003040FFF7A6
S11320A07BFE24012018C0B270BD70B5FFF7E2FFBB
S11320B00600FFF7DFFF0500FFF7DCFF0400FFF772
S11320C0D9FFFF22FA23642116401540303E144004
S11320D09B00303D4D4373435A39303C4C435B19AC
S11320E010401B193038181870BD0000F0B591B0BD
S11320F01C0016AB0C91197817AB05921A7818AB23
S11321001B7805000D931CAB1B780EA80E931DAB1A
S11321101B880F1C099321231B18DB7F08931FAB1B
S11321201B880F9320AB1B780A93914200D9171C8C
S1132130059BFFB2002C05D1002B05D15448FFF7B5
S1132140DBFE01E0002BF9D1280000252E00514BC5
S11321501B88FFF7D1FE099B049502930695002383
S11321600793079B199A934200DC8FE00E9B002B88
S113217004D001370D9BFFB29F42F0D9069B31007A
S1132180F2184548FFF7B8FE322001F00EFF320086
S1132190089B04994148FFF7AFFE322001F005FF88
S11321A029003F48FFF7A8FE322001F0FEFE11B0DF
S11321B0F0BD039B2C22FB180B936B469B181878DD
S11321C001210C9B9847002848D1029B099A0136AB
S11321D0934204D9643B9BB202932E4B1B88002C80
S11321E027D0E368089A9B789B1A5A425341049A71
S11321F0D31804930A9B002B0BD0E268E368E068D1
S1132200039980785B781278791800902548FFF755
S113221073FE1B9B002B02DD180001F0C6FE039B1E
S113222001330393039B1A9A9342C2DB079B013346
S113223096E7059B089A9B789B1A5A425341049A45
S1132240D31804930A9B002BE3D0059B16489A7875
S1132250039BD2B2F918FFF74FFEDAE7022810D138
S11322600B991248FFF748FE069B0F9A0133069319
S1132270029B9342CDD264339BB20293054B1B88DD
S1132280C7E70338434258412D18C2E70023C8E783
S11322903B64000074FEFF1FB5640000CD640000C1
S11322A0FE640000686400008D640000A264000005
S11322B070B50C00160088B00CAA157806A9088021
S11322C00A4A05A805700A4D12682D684A6004AAD6
S11322D016700193009023000020029502F084FD03
S11322E0002800D0022008B070BDC04678FEFF1F51
S11322F07CFEFF1FF7B56A46CB1DDB08DB00D31A53
S113230002AF9D460C000500FFF77CFD0021094B40
S113231002AE1B682A00019300943300080003F006
S11323205DFB0400FFF79CFD002C00D00424BD4697
S11323302000F2BD88FEFF1FF0B50027BDB029AC18
S1132340072239002000FEF7CDF9CC4A012530924E
S1132350032219AB33931BAB34931DAB369321ABE0
S1132360389323AB399325AB3A9327AB1FAE15A90A
S113237038003B9330AB1A71329118932570359421
S1132380379602F02BF8280002F028F88022BC4B84
S113239012021A6001F028FE3B003A0039003800AE
S11323A0009501F057F8B748FFF7A6FDFA20800022
S11323B001F0FBFDB448FFF79FFDFA20800001F017
S11323C0F4FDB248FFF798FDFA20800001F0EDFD1E
S11323D0AF4A2B000221AF4801F02AFE2900280051
S11323E001F032FE380003F027F99C21AA4B380093
S11323F02D9308AB5B181F80023108AB5B182DA925
S11324001F702E9503F044F92A00390015A8FEF731
S113241069F95820299B08A91D93A28809180A80E4
S1132420A279023008A909180A700322063808A9FB
S113243009180A701F93A2880C38B280A27908A9DF
S1132440B271052232701993A28809180A80A27900
S1132450023008A909180A704421022608AA521851
S113246016701B93A288063008A909180A80A2795D
S1132470801908A909180A700422063808A909183D
S11324800A702193A2881C3008A909180A80A2792D
S1132490801908A909180A70642108AA5118082289
S11324A070200A702393A28808A909180A80A279C7
S11324B0801908A909180A706C22092108A8801833
S11324C001702593A3880C3208A880180380A3798F
S11324D07A2408A8001903700A2308A8063C0019E6
S11324E003707C2008AB1B1818AA1F7033A82B009C
S11324F001F0F8FF6948FFF7FFFC3900300000F0F5
S113250085FC082203009343DBB20D90BB4202D04A
S11325106348FFF7F1FC6348FFF7EEFC6248FFF7FE
S1132520EBFC6249624802F0F7F9624CFA2520009C
S1132530FFF7E2FCC023604A9B0013605F4A6048D7
S11325401360604A28271360FFF7D6FCFFF7C8FB27
S11325502000FFF7D1FCE1211D20C90000F038FD67
S11325600122594B59481A70FFF7C6FC0022584BF8
S113257058481A70FFF7C0FC01F08AF95648FFF773
S1132580BBFC564801F011FDE1211D20C90000F0FB
S11325901FFD524801F009FD5148FFF7ADFC6D00E5
S11325A001F04CFB013F280001F0FFFC002FF7D1A4
S11325B04C48FFF7A1FC03230F970E934A4C3900B4
S11325C0208815AA80B2FFF7D3FC4848FFF794FC93
S11325D04748FFF791FC4748FFF78EFC4648FFF752
S11325E08BFC4648FFF788FC4548FFF785FC4548C7
S11325F0FFF782FC4448FFF77FFC4448FFF77CFC6C
S11326004348FFF779FC39000E9A4248FFF774FCFF
S11326104148FFF771FC4148FFF76EFC4048FFF763
S11326206BFC4048FFF768FC3F48FFF765FC3F48F8
S1132630FFF762FC3E48FFF75FFC3E48FFF75CFC97
S11326403D48FFF759FC3D48FFF756FC3C48FFF76F
S113265053FC3C48FFF750FC3B48FFF74DFCFFF7A9
S113266009FDFF21060001400A2900D15FE30800AB
S113267050382A2800D9DCE068E0C046CD1C0000B0
S113268094030020136500002E65000034650000EB
S113269064FEFF1F20FFFF1FE00701003D650000EF
S11326A062650000966500009E650000C0FEFF1F85
S11326B0B8FEFF1FE1650000009014540490145408
S11326C0BB65000008901454FAFFFF1FDC6500008E
S11326D076FEFF1FE865000008660000881300000E
S11326E02D6600005266000074FEFF1F7C66000029
S11326F086660000A3660000BF660000DB6600007B
S1132700F86600001F6700003E6700006A6700006B
S113271095670000B8670000E767000003680000E1
S1132720276800004B680000726800009A68000087
S1132730B8680000D5680000F46800001369000060
S11327402D6900005869000083690000FEF702FA51
S1132750EA02710036FF71007100710071007100AE
S113276071007100E8027100710071007100710064
S113277071002F007300850095009F00A800E00001
S1132780AC017100EB00490156015601900136FF7E
S113279093017100A201AC012E0293027100710039
S11327A0A0027100A802C14B0F93012305E7C048A2
S11327B0FFF7A2FBBF48FFF79FFBBF48FFF79CFB57
S11327C0BE48FFF799FBBE48FFF796FBBD48FFF7ED
S11327D093FBBD48FFF790FBBC48FFF78DFBBC485B
S11327E0FFF78AFBBB48FFF787FBBB48FFF784FB77
S11327F0BA48FFF781FBBA48FFF77EFBB948FFF7F9
S11328007BFBB948FFF778FBB848FFF775FBB8487E
S1132810FFF772FBB748FFF76FFBB748FFF76CFB96
S1132820B648FFF769FBFFF725FCFF210140352976
S1132830B9D0B3480EE0B348FFF75EFBFFF735FCB1
S1132840B14BB24A18601968914201D1B04A1A607A
S11328501968B048FFF750FBB0E6AF48FFF74CFBF0
S1132860FFF723FCAD4BA94A18601968914201D1C6
S1132870A74A1A601968AA48ECE7AA48FFF73CFB84
S1132880FFF713FCA84B18601968A848E2E7A848AA
S1132890FFF732FBFFF7F4FB07000100A548D9E777
S11328A0A548FFF729FBFFF7EBFBA44D010004004B
S11328B02800FFF721FBA248FFF71EFBFFF7E0FB10
S11328C016AE010030702800FFF716FB9D48992CC6
S11328D000D1DCE08C4B2BAD1B682C802C939A4BE5
S11328E01A881B88FFF7DCFA984B17AA1B68177025
S11328F002930123290000200193009602F074FA48
S1132900011E02D09248FFF7F7FAFFF7DFFA55E607
S11329109048FFF7F1FAFFF7C8FB80B220802188C6
S11329208D4889B296E739008C48FFF7E5FAFFF73E
S1132930A1FB10908A48FFF7DFFAFFF79BFB119089
S11329408848FFF7D9FAFFF795FB12908648FFF7FE
S1132950D3FAFFF7AAFB06008448FFF7CDFAFFF786
S1132960A4FB05008248FFF7C7FAFFF79EFB0400AB
S11329708048FFF7C1FAFFF783FB2B003A0013905E
S11329800E997D480096FFF7B7FA6F4B0E9A1B8895
S11329909BB2022A21D07948032A1FD012980793A8
S11329A03038421E90410A901098139A3038431ED2
S11329B0984131230293002306901198A4B2303831
S11329C008920490394A6E496E4809940596039515
S11329D001930097FFF78AFB97E76B48FFF78CFAA0
S11329E093E76A48FFF788FA012420000021FFF7E3
S11329F0A9FA21003C20FFF7A5FAF6E76448FFF79F
S1132A007BFA6448FFF778FAFFF73AFB8C2308AAAD
S1132A10D21810706048FFF76FFAFFF746FB8C235B
S1132A2008AAD3181A782388F6B2050001009BB2CD
S1132A306C2E10D15948FFF75FFA0024AC4200DB3A
S1132A40BCE52BAB1A7800230121FF200093FFF78C
S1132A502FFC0134F2E75248FFF74EFA0024AC424F
S1132A6000DBABE501212BA8FFF744FC0134F6E7BA
S1132A7023882388A2E50021022000F0C7F9031E61
S1132A800D9000D19AE54748082B00D196E5FFF751
S1132A9033FA93E50021082000F0B8F90D9B424871
S1132AA0002B00D18AE5F2E73948F0E7F0FFFF1F79
S1132AB096690000A1690000DF690000216A000036
S1132AC0626A0000A26A0000D26A00000F6B000074
S1132AD04E6B00008C6B0000C96B0000076C00009B
S1132AE0446C0000836C0000C06C0000FD6C0000AE
S1132AF0386D0000756D0000B26D0000EF6D0000D0
S1132B00036E00001F6E000078FEFF1F0F270000F9
S1132B10102700004D6E00006D6E000084FEFF1F44
S1132B209B6E0000B56E00008CFEFF1FE46E00007B
S1132B30FF6E0000356F00004C6F00007F6F0000D7
S1132B40956F0000BE6F000074FEFF1F7CFEFF1F28
S1132B50E46F0000057000003E7000006D7000001E
S1132B60A7700000D0700000E97000002871000018
S1132B70547100008C710000BD71000033720000BC
S1132B8029300000FA71000008720000647200002D
S1132B9087720000B5720000D4720000F472000065
S1132BA03F7300008A730000E87300002BA9002023
S1132BB001F0DCFBFA212B988900FDF7D5FF010019
S1132BC05C48FFF799F901F023FE01005A48FFF72A
S1132BD093F901F0B7FA01005848FFF78DF9584B03
S1132BE0584819684B1E9941FFF786F9002001F0F7
S1132BF014FC01005448FFF77FF9002001F01CFC8D
S1132C0001005248FFF778F9002001F01AFC010096
S1132C104F48FFF771F9002001F0E8FB01004D482F
S1132C20FFF76AF9012001F0E1FB01004A48FFF7D0
S1132C3063F94A4B4A4819684B1E9941FFF75CF9FE
S1132C40002001F0DBFB01004648FFF755F9464B35
S1132C50464819684B1E9941FFF74EF9444B4548C5
S1132C6019684B1E9941FFF747F9002001F0EEFB6C
S1132C7001004148EEE50F9B4048002B00D106E7D8
S1132C803F48FFF739F9FFF7FBF90F9B587095E4BC
S1132C903C48FFF731F93C4801F087F93B48F6E638
S1132CA03B48FFF729F9FFF700FA85B229003948B4
S1132CB0FFF722F93848FFF71FF9FFF7DBF9C4B231
S1132CC0683C604244413548FFF716F901F028F9A1
S1132CD0002211230521100000F04CF906003048B1
S1132CE0FFF70AF92F48FFF707F92F48E4B2FFF777
S1132CF003F9200000F0F6F931002C48FFF7FCF846
S1132D00002D08D02900042000F080F8011E02D014
S1132D102748FFF7F1F800F08DFB7128E9D1F4E5BD
S1132D202448B4E62448FFF7E7F82448AFE62448EB
S1132D30ADE6C04645740000577400006D74000091
S1132D403C80845E94740000A5740000B674000096
S1132D50C7740000DB740000EF7400003C80045072
S1132D600375000014750000348084592575000033
S1132D703480045A36750000487500005975000007
S1132D8097750000CF75000010270000EE75000055
S1132D90F8750000447600007A7600004A6F00005F
S1132DA0A3760000C5760000496F00006874000037
S1132DB0DB760000197700002F77000051770000C0
S1132DC07C7700001FB5040001A9002002F088FCF4
S1132DD0694601A802F0C2FB009B68461C1901A9C0
S1132DE0009402F043FB012201A9002002F0A4FC9C
S1132DF01FBD00000022034B1A608022024BD20543
S1132E00DA67704700901C5804E100E070B50D00CB
S1132E100A2408281CD8FDF793FE051D2A3F546791
S1132E2071795C0001F0F4FC0524012810D0FFF74F
S1132E30E1FF2800FFF7C6FF0021080001F074FB42
S1132E4001210400002001F0FFF8002C22D100240D
S1132E50200070BD01F0DCFC06240128F8D0FFF747
S1132E60C9FF2800FFF7AEFF00210120E6E701F0CB
S1132E70CFFC08240128EBD001F064F9002803D02A
S1132E800121002001F0E0F80021022001F04CFBB8
S1132E900028DCD00924DBE701F0BAFC0724002871
S1132EA0D6D0FFF7A7FF2800FFF78CFF00210320EF
S1132EB001F03AFB040001F0ABFC01210028C4D16D
S1132EC0C1E7FFF797FF2800FFF77CFF00210420EC
S1132ED0EEE70021082001F027FB041EDAD10121CE
S1132EE0080001F0B1F8B3E7FFF784FF2800FFF70B
S1132EF069FF0021052001F017FBCBE7FFF77AFFFC
S1132F002800FFF75FFF00210620F4E7FFF772FFB8
S1132F102800FFF757FF00210720ECE7F0B5060073
S1132F200D00114B89B05A7806AC22800F4A05AFC8
S1132F3012680792188980B2FEF7D8FF3E7004AE7B
S1132F403570FEF7ADFF0A4B3A001B68210002936F
S1132F50012300200193009601F046FF002800D0D1
S1132F60022009B0F0BDC046F0FFFF1F78FEFF1F2E
S1132F707CFEFF1FF7B504000D001E00134B170065
S1132F80188980B2FEF7B2FF21000920FFF7C6FFBF
S1132F9001232900019099432A20FFF7BFFF39003C
S1132FA004000F20FFF7BAFF310007000E20FFF7DF
S1132FB0B5FF290006002A20FFF7B0FF019B1C4340
S1132FC027433E433043C0B2FEBDC046F0FFFF1F5F
S1132FD070B505000E480C00FEF78EFF00220D4B65
S1132FE010005D7005211C811123FFF7C3FF010050
S1132FF00948FEF781FF00231A00084808491A50BF
S11330005A5004334C2BFAD10648FEF775FF70BDB5
S1133010D4770000F0FFFF1FFA770000980000202B
S1133020E40000200D780000F0B5050089B02248C6
S11330300E00FEF761FF6A46204B21481B7813758A
S1133040FEF75AFF182D2FD8EB1F0324012B30D97C
S11330501C48FEF751FF1C4F06AC7B781B482380AD
S11330601B4B1B680793FEF747FF388980B2FEF7B6
S11330703DFF6B461D75FEF713FF1648FEF73CFF38
S1133080154B21001B6800200293144B01960093FA
S113309005AA012301F0B5FE04001148FEF72CFF38
S11330A0002C06D0022404E02B001D3B0324142B27
S11330B0CED9200009B0F0BD3C7800002D79000085
S11330C06478000095780000F0FFFF1FB0780000DE
S11330D078FEFF1FC47800007CFEFF1FF2FFFF1F75
S11330E0FD78000070B5324C0500208980B2FEF7EF
S11330F0FDFE02210120FFF797FFA178E278C9B213
S1133100D2B200281DD02B48FEF7F6FE0221032080
S1133110FFF78AFFA178E278C9B2D2B2002822D0A0
S11331202448FEF7E9FE02210520FFF77DFFA17880
S1133130E278C9B2D2B2002827D01E48FEF7DCFEDE
S113314070BD002D03D01C48FEF7D6FEDEE79208C2
S1133150890111438022194B920151401848C91822
S1133160FEF7CAFED2E7002D03D01348FEF7C4FED3
S1133170D9E79208890111438022104B92015140F2
S11331800F48C918FEF7B8FECDE7002D03D00A4852
S1133190FEF7B2FED4E79208890111438022074B5F
S11331A0920151400648C918FEF7A6FEC8E7C0467A
S11331B0F0FFFF1F2F7900003679000000E0FFFFC9
S11331C0467900000369C268934201D880681B18DD
S11331D0013B981A7047F7B58368C46801931F1BB5
S11331E0436805000E001819A418974207D83A003E
S11331F0FDF724FA019B6868E41A2200F119FDF72F
S11332001DFAEC60F7BD0023F7B506001700C5688A
S1133210019100933369B4689D421FD2013B5B1B4B
S1133220641BBC4200D93C009C4200D91C0073685A
S1133230220058190199FDF701FA009B2D191B1959
S11332400093019B3F1B1B190193B368AB4200D150
S11332500025F560002FDDD10098FEBD1B19DDE7C8
S1133260022310B50F4C104A236163610F4BA26116
S1133270E3616423A2640E4A2362E264002304220D
S1133280A3626362E362A3656365E365226509493A
S1133290E01DFDF749FB20000749FDF745FB20230E
S11332A0A37110BD300100204B790000AC01002057
S11332B0A80100205479000058790000F0B5274B8C
S11332C085B01B780E0002900192002B01D1FFF70C
S11332D0C7FF1823029A00255343204AD3185A6D76
S11332E09C6D0392944219D91B6D019D1B1B9D4239
S11332F000D91D001827029B30005F43174B2A009A
S1133300DF19FB6C76191919FDF798F9019B6419FB
S11333105B1B01933B6DA34200D10024039B019FDF
S11333201B1B9F4200D91F00002F0CD01823029AA8
S113333030005343094AED19D318D96C3A000919DE
S1133340FDF77CF9E419002D05D01823029A0348EF
S11333505343C0188465280005B0F0BD3001002037
S113336010B50B00EFF31084012181F310881900CC
S1133370FFF7A4FF84F3108810BD0000F8B5160011
S11333801822451C55434243164B0F005D199B18E8
S1133390DC6A012C10D0022C1BD0002C1FD1280079
S11333A0FFF710FF864205D8320039002800FFF7E6
S11333B012FF34002000F8BD2800FFF703FF34009B
S11333C0864200D90400220039002800FFF703FFD9
S11333D0F0E732002800FFF716FF0400EAE70024B4
S11333E0E8E7C04630010020F8B50B4B04001B7819
S11333F00E001700002B01D1FFF732FFEFF3108509
S1133400012181F310883A0031002000FFF7B6FF54
S113341085F31088F8BDC0463001002070B5050062
S113342008000C00FDF788FA210002002800FFF7CD
S1133430DBFF70BD13B56B46DC1D012221000020AB
S1133440FFF78EFF012801D1207816BD01204042EC
S1133450FBE70000F7B5164C0193237805000F0035
S11334601600002B01D1FFF7FBFE2369AB421CD9E8
S1133470EFF31082012181F31088002D0CD0182362
S1133480691C59436B43675061184E600199E318F6
S1133490196200219962596218204543089B6419F6
S11334A0E36282F310880020FEBD01204042FBE766
S11334B030010020826810B504004068531C834228
S11334C005D820688154A360E3680133E360A268EF
S11334D063689A4209D121682069FFF785FFA368D0
S11334E0984203D001235B42E36010BD0023A36034
S11334F0FBE70000F0B5050017000800012685B0C1
S11335000A9C02910093B84219D2009A01969642FD
S113351000D2019201230B9A1A4003920B9A1A4289
S113352002D1002C10D10024EB680126002B4BDBC8
S1133530009B012B1FD9013B00937E43F8E7390020
S1133540FDF712FB0136DEE70B9B20269B0704D513
S1133550009B1036002B00D0103E019BA342E3D207
S113356031002800FFF7A6FFEB68013C002BDBDBF2
S1133570002CF2D1D7E731000298FDF7F5FA874223
S1133580DBD902983100FDF775FB114B0291195CF0
S11335902800FFF78FFFEB68002B05DB39003000B4
S11335A0FDF7E2FABE4211D2039B002B0CD0002C93
S11335B00AD0019BA34207D220212800FFF77AFFFB
S11335C0EB68013C002BF2DA05B0F0BD0600D8E749
S11335D05F790000F0B58FB007900E0018001499C1
S11335E015000693FCF7BEFF069B079A0993149BEC
S11335F00D920A9300230B930C9331780136002922
S113360007D10C9B0293002B00DD09E10C980FB04D
S1133610F0BD252900D0B3E000270822042006E0ED
S1133620302B0DD1022300E001231F430E00337819
S1133630711C2D2BF8D0F3D8232B10D02B2B0CD0AE
S113364000240A213378721C18003038092808D85D
S11336504C43303C16001C19F4E70743E6E71743D4
S1133660E4E7002102912E2B0ED116000A203278B5
S1133670711C1300303B092B06D8029B0E004343F8
S1133680303BD3180293F2E7042331780A00013661
S11336909A43682A01D13178F8E7782909D86F2943
S11336A00BD8632967D017D8252969D0582900D1A8
S11336B095E00C9B002BA0DAA3E7703908000829D9
S11336C0F7D8FDF747FAA500F6FFF6FF9400F6FFDA
S11336D08300F6FFF6FF8C006429EAD12B681A1DDB
S11336E01B682A60DA179818039301235040049347
S11336F0092849DC029B049A0593934200D205925F
S1133700002C05D0039B002B01DB7B0700D5013C7B
S113371002231F4202D0029B002B05D001231F422B
S113372002D1002C36D100240C9B0493002BC0DB67
S1133730039B002B3ADA2D215B42039309A8FFF780
S1133740B9FE0C9B002BB4DB03233B40022B05D1B9
S1133750029B002B02D1002C2CD100240C9B04933F
S1133760002BA6DB0A22029B03990197009409A867
S1133770FFF7C0FE9DE72B6819681A1D2A60C9B2BD
S113378009A8FFF797FE94E70A21FDF777FA049B4F
S11337900133ACE7059BA342C6D2202109A8FFF759
S11337A089FE0C9B013C002BBBDABDE77B07C8D527
S11337B02B21C3E7059BA342D0D2302109A8FFF7F0
S11337C079FE0C9B013C002BC5DAC7E70A22296865
S11337D001970B1D2B60029B00940968C7E72968B9
S11337E001970B1D2B60029B00941022F5E72B68B8
S11337F01A1D2A601C6821780134002900D158E779
S113380009A8FFF757FE0C9B0293002BF3DA50E74D
S113381029680B1D2B600023019308330093E4E710
S11338200B9A002A03D006990798FFF7DDFD0C9B3D
S113383002930B9B0393039A029B944663440C9359
S1133840E4E6000037B50E25FF350400280001F03A
S11338507DF80A2000F0A9FB280001F085F80C206F
S113386001F082F8FA23084A9B00147000210193A6
S1133870012308000093054B02F0B0F8040028006F
S113388001F064F820003EBD300200201002002048
S1133890C02310B58024854A9B001360844A6400C9
S11338A01360FEF7AFFA834B20001C60824B1C6050
S11338B0824B1C6001F04AF8642000F076FB200083
S11338C001F052F8642000F070FB200001F03EF893
S11338D0642000F06AFBAE20FFF7B4FFA020FFF7DE
S11338E0B1FF7220FFF7AEFFA120FFF7ABFF00206E
S11338F0FFF7A8FFA220FFF7A5FF0020FFF7A2FF14
S1133900A420FFF79FFFA820FFF79CFF3F20FFF7AD
S113391099FFAD20FFF796FF8E20FFF793FFB020AD
S1133920FFF790FF0B20FFF78DFFB120FFF78AFF11
S11339303120FFF787FFB320FFF784FFF020FFF764
S113394081FF8A20FFF77EFF6420FFF77BFF8B2037
S1133950FFF778FF7820FFF775FF8A20FFF772FFE3
S11339606420FFF76FFFBB20FFF76CFF3A20FFF7DF
S113397069FFBE20FFF766FF3E20FFF763FF872045
S1133980FFF760FF0620FFF75DFF8120FFF75AFF76
S11339909120FFF757FF8220FFF754FF5020FFF7D5
S11339A051FF8320FFF74EFF7D20FFF74BFFAF2031
S11339B0FFF748FF42490020FFF730FD2620FFF7BC
S11339C041FF0120FFF73EFF3E490020FFF726FD9F
S11339D02520FFF737FF0020FFF734FF0020FFF713
S11339E031FF5F20FFF72EFF3F20FFF72BFF364903
S11339F00020FFF713FD8A20FFF724FFFF20FFF7C5
S1133A0021FF8B20FFF71EFFFF20FFF71BFF8C20F9
S1133A10FFF718FFFF20FFF715FFBB20FFF712FF8A
S1133A203E20FFF70FFF8720FFF70CFF0F20FFF763
S1133A3009FF8120FFF706FFFF20FFF703FF822025
S1133A40FFF700FFFF20FFF7FDFE8320FFF7FAFEDC
S1133A50FF20FFF7F7FEAF20FFF7F4FE2220FFF769
S1133A60F1FE0020FFF7EEFE0020FFF7EBFE5F20E3
S1133A70FFF7E8FE3F20FFF7E5FE0020FFF7E2FE38
S1133A803F20FFF7DFFE0020FFF7DCFE0020FFF7FA
S1133A90D9FE3F20FFF7D6FE0020FFF7D3FE0B49E7
S1133AA00020FFF7BBFC002010BDC046209014543A
S1133AB02490145434A014543090145400A014547A
S1133AC06F79000098790000B7790000D57900007B
S1133AD00121F0B58C4600250F4C104A238850680C
S1133AE017680131B84206D99668B04203D9013348
S1133AF065469BB204E0B84202D29668B042F6D35F
S1133B0004321229EBD1002D00D023802388044AEB
S1133B105B081380F0BDC046FC0200209C0200201C
S1133B20FE02002070B5040001280DD9C508690003
S1133B302000FDF719F82B006E083518E81AFCF779
S1133B4005FD0128F3DC6C1C200070BDF7B50621CF
S1133B500120FFF769FA071E04D02D48FEF7CCF9BF
S1133B603800FEBD8024FA212A4DA401A878EB7800
S1133B7080019B081843284B6040284EC018284BEE
S1133B8000B2188089007043FDF778F8FA2100909C
S1133B9028796B7980019B0818431F4B6040C0183B
S1133BA0204B00B2188089007043FDF767F8FA21B2
S1133BB00190A879EB7980019B081843164B444087
S1133BC0E418194B20B2188089007043FDF756F8A9
S1133BD0009B019A5B43524340439B181818FFF71C
S1133BE0A1FF124B124A1860124B0100140001206D
S1133BF01D005668013040C25E6840C31328F8D1E6
S1133C0000230D48AB64A164FEF776F9A8E7C0462B
S1133C10F5790000F0FFFF1F00E0FFFFB312000082
S1133C20E8020020EA020020EC020020F00200205A
S1133C30500200209C020020217A0000F0B585B0DB
S1133C40FFF784FF0024384BA500EA58374B610086
S1133C50C85A1100364B41439E6C71189964EB5855
S1133C602100029301942300009001343148FEF7AF
S1133C7043F9132CE7D1FFF72BFF2F4B2F4C198857
S1133C8022882F48FEF738F92088FDF747FB2D4995
S1133C90FDF72AFA2C4B2D491860FDF719F92C4928
S1133CA0FDF722FA2B4C2A492060FDF71DFAFDF797
S1133CB0FBFE02000B002848FEF71EF92068FDF702
S1133CC0F3FE264A264BFDF783FCFDF735FF20491A
S1133CD02060FDF709FAFDF7E7FE02000B0021481A
S1133CE0FEF70AF92068FDF7DFFE1F4A1F4B0600A6
S1133CF00F00FDF7D9F81E4C002806D002231D48FA
S1133D002370FEF7F9F805B0F0BD300039001A4A07
S1133D101A4BFDF7C9F8002803D001231848237073
S1133D20EFE720701748ECE75002002090FEFF1FD9
S1133D309C020020417A0000FC020020FE020020C8
S1133D408B7A0000C74B373FF80200200000204167
S1133D5000007A4400030020C07A0000CDCCCCCC13
S1133D60CCCC0C40D77A0000AE47E17A14AE1F40A9
S1133D70F4020020EE7A0000E5D022DBF97EEA3F6F
S1133D80067B00001E7B000010B5002000F0FAFD49
S1133D9010BD10B5002001F02DFD10BD10B50020A0
S1133DA001F006FA10BD0000082310B5164A9178F8
S1133DB0194202D091780B4393708821002222206B
S1133DC0124B49015A501249124C08708020124972
S1133DD04002585019681148014019601959104897
S1133DE00840C02189040143195180210D4B1A72E6
S1133DF019767F391A7059700B490A700C32997907
S1133E001142FCD110BDC04600D0074000700440F0
S1133E1000E007400410000044100000FFFFF3FF1F
S1133E20FFFFFFF0004006400050064012491348CF
S1133E3010B5814205D00022114B9B089B009A4289
S1133E400FD1104B104A9960002310491048521AA0
S1133E509A420AD100210F4B0F4AD21A013A08D2D2
S1133E6010BD84588C500432E9E7CC5CC45401334F
S1133E70EEE719700133F1E70000000000000000D4
S1133E800000000000ED00E0D47D00009C7C0000F8
S1133E9000FEFF1F38FFFF1FA40300200300417032
S1133EA00020187058609860704710B5437804007B
S1133EB00120FF2B08D000F0DDFA63780133DBB278
S1133EC0637000F0CBFA002010BD0020704770B57D
S1133ED004000D0000F0CEFAE1682943E16000F02F
S1133EE0BDFA002070BD000000220A4B9A641A003B
S1133EF040329A631A0030329A621A0020329A6170
S1133F001A0010329A60044A1360044B9B60DB6011
S1133F107047C04608030020040300205803002013
S1133F200022024B1A60186880B270470C007C5063
S1133F3070B5437804000D00002B0BD0002500F071
S1133F4099FA6378013BDBB26370257000F086FA5E
S1133F50280070BD02200029FBD02378002B17D045
S1133F60FFF7DEFF6368A268834204D8C01A824266
S1133F7006D30320EDE7C01A80235B02C018F6E7DE
S1133F8000F078FA0023237000F068FA0220E0E7DA
S1133F904B1CEED000F06EFA0123237000F05EFAA1
S1133FA0FFF7BEFFA5606060E3E770B50500FFF7AB
S1133FB0B7FF802604007602FFF7B2FF03008442B5
S1133FC003D8031B9D42F7D270BD301BC318F9E719
S1133FD010B5012801D100F04DFA10BD10B501282B
S1133FE001D100F03BFA10BD10B5FFF77DFF0123AE
S1133FF00020084A08491360084A094C1060086008
S113400004212160074C216007490B6007490860BF
S1134010136010BD38800450000084500000045028
S1134020000004510400045104000C500000045327
S113403010B5044C206021710020A26023736373C7
S113404010BDC046680300200422F0B587B005AC5B
S11340503B4E01900291207061703379009283424B
S113406026D90022337B1500737301230092A370B9
S11340700393334F3B7BAB421DD8009B002B02D0F4
S1134080029B012B48D10120FFF7A2FF0C20019BCA
S1134090002558433368181800F0D6F8019B012016
S11340A073710226FFF79AFFA6703B7BAB421AD8C6
S11340B0009807B0F0BDBA68AB009B58002B0FD036
S11340C01A7903990A420BD020001A68996890471C
S11340D0002805D0029B7D73002B1BD00523009381
S11340E00135EDB2C5E7BA68AB009B58002B0ED082
S11340F01A7932420BD020001A6899689047002838
S113410005D0029B7D73002B17D006230093013545
S1134110EDB2CAE7052300930023A370013DEDB27D
S1134120FF2DC5D0064BAA009B68D358002BF5D0B1
S113413020001A6899689047F0E706230093B7E7D0
S113414068030020014B58797047C046680300207B
S113415013B50400002021780190022920D00329FE
S113416022D0012925D1227901AB144801F00AF9A2
S1134170002814D1A3795A1E9341114ADB0113700C
S113418063785A1E93410F4A5B001370A2780E4B5A
S11341901A70E2780D4B1A7062790D4B1A7016BDC5
S11341A00100227901ABE0E701A9044801F02CF9F0
S11341B0DEE701A9014801F0C9F8D9E7004006404B
S11341C01840865300408650004006500140065077
S11341D018401650084A43099B009B18F822C00552
S11341E012051040184380235B0518430068431EE2
S11341F09841C0B27047C04628800440074A43092A
S11342009B009B18F822C005120510401843802318
S11342105B051843002303607047C04628800440B0
S1134220F821084A43099B009B180905C2050A4066
S113423013438022520513431F2210401E3A82402A
S11342401A60704728800440072373B50093002345
S11342500400104D1A000121280001F0BDFA2000CD
S1134260FFF776FF637A280000930023217A1A006F
S113427001F0B2FAE379084A9B041360074BA17A70
S11342801D68280001F0DCF82800E17A01F0E7F865
S1134290002076BD0070044000700C59947B00002F
S11342A010B5054801F012F8044B1968C9B2013180
S11342B0FCF75AFC10BDC0460040064044801C5E1A
S11342C010B5FFF7EDFF10BD10B5054800F0FEFF77
S11342D0044B1968C9B20131FCF746FC10BDC04655
S11342E0004006404480145810B5FFF7EDFF10BDA0
S11342F00B4B1B68DBB2022B0CD0032B0DD0002020
S1134300834206D1074A106880221202904200D0EC
S113431018007047044B1868FBE7FA208000F8E7A0
S113432000700C59940300209803002010B5FFF787
S1134330DFFF10BD054B10B5186801F088F80023A5
S1134340984201D0024B1B68180010BD947B0000FA
S113435094030020044B01201B6810B5DBB2002B32
S113436001D0FFF7E7FF10BD0480045210B50C0024
S113437012282AD8FCF7E4FB0A0A0A0F290F12159F
S11343802929181B292929291E222600FFF788FF1D
S11343902060002010BDFFF797FFF9E7FFF7A8FFA3
S11343A0F6E7FFF7C7FFF3E70A4B2360F1E7FFF7F0
S11343B0D1FFEDE7084800F089FFE9E7064800F07F
S11343C06FFFE5E7FA239B00EFE700230220236059
S11343D0E0E7C046006CDC020040064010B5024B2A
S11343E0185CFFF71DFF10BD397B000010B5024BB0
S11343F0185CFFF7EFFE10BD397B000010B5BB2041
S1134400FFF7E8FE10BD10B57620FFF709FF10BDD9
S113441010B57620FFF7F2FE10BD10B57620FFF739
S1134420D9FE10BD10B56620FFF7FAFE10BD10B519
S11344306620FFF7E3FE10BD10B56620FFF7CAFE45
S113444010BD10B59420FFF7C5FE10BD10B5024B8A
S1134450185CFFF7BFFE10BD3B7B0000044A1368E5
S1134460002B04D0013B1360002B00D162B67047CF
S11344707803002072B6024A136801331360704750
S11344807803002010B5064C064801F037FC0428D8
S113449001D1002010BD013C002CF5D10320F9E727
S11344A0EA03000000E0074010B50B4B0B490A7803
S11344B0002A07D0084C0A4801F020FC012806D144
S11344C0002003E0013B002BF1D1032010BD013C8F
S11344D0002CF0D1F9E7C046EA03000002D00751EE
S11344E000E00740F7B507000E0015000120019316
S11344F0002F15D0002913D0FFF76AFD094C1022B4
S113450000212000FCF7EEF827602671002D03D06F
S1134510019BA560237363730120FFF75FFD0020F7
S1134520FEBDC0467C030020F0B5B14C8DB00290B6
S11345300391237B01206373FFF74AFD2379029AD9
S1134540934206D80120FFF749FD022738000DB039
S1134550F0BD029A23689200D35809AC1D780193E8
S1134560039B2A002372029B2370019B6360022336
S11345709A430492012A01D0052D0AD101219D48B4
S113458001F010FB002807D10120FFF727FD0127C8
S1134590DCE70321072DF2D80123002763723C00D6
S11345A00593934E337BA3422AD80120FFF716FDCF
S11345B0914800F0AFFE049B012B4AD10138022838
S11345C035D9039B012B00D00DE106270120FFF70D
S11345D0FFFC0023012609AD6B72013CE4B2FF2C01
S11345E000D1AFE0824BA2009B68D358002BF4D0DB
S11345F01A793242F1D028001A6899689047ECE79A
S1134600B268A3009B58002B0ED01A7905990A4270
S11346100AD01A68996809A89047002804D0039B17
S113462004277473012BC0D10134E4B2B9E7FFF756
S11346305BFE724B9842C4D8FFF732FE704EB04214
S1134640BFD8FFF741FEB042BBD8FFF739FEB042F6
S1134650B7D8039B012B00D0C1E00A2D00D9BCE0E0
S11346602800FCF76DFA060A0D1E879A7B822F73C9
S11346707800002207AB1A702DE0032207ABFAE79B
S11346805C4801F03BFB012808D00021594801F0A7
S113469099FAFFF709FF071E00D057E7012207AB7D
S11346A0E9E7544801F02AFB042808D002215148C4
S11346B001F088FAFFF7E6FE071E00D046E7042261
S11346C007ABD8E7072207AB1A80019AD2789A7011
S11346D0019A1279DA702B00083B022B06D8019B51
S11346E006AA5B799372019B9B79D372019B5B78D9
S11346F0002B0AD0012D08D9019B02229978414B45
S113470000294DD019690A431A613A4807A901F0F2
S11347107DFA002800D00327002D45D1FFF7C4FE01
S1134720071E00D012E700270120FFF751FC029B6F
S11347302F4D0024AB73022309AE737201932B7BBC
S1134740A34236D80120FFF749FCFFE6082207AB55
S1134750FF321A80BFE72C4A07ABFAE7022207AB05
S11347601A700222FF329A80B5E7022207AB1A7050
S1134770264AF8E7022207AB1A70013A1D489A80CC
S113478001F0BCFA0128A6D000211A4801F01AFA57
S1134790FFF78AFE071E9ED0D8E6052207AB6AE71C
S11347A0196991431961B0E7012DBDD1FFF76AFE84
S11347B0B6E7AA68A3009B58002B0BD01A7901997D
S11347C00A4207D030001A6899689047002801D03F
S11347D005276C730134E4B2B1E70327B6E6002F72
S11347E000D13AE7F2E6002F00D0EFE6EDE6C0464E
S11347F07C03002000E007400040064040420F00D8
S113480080841E0000ED00E00703000001020000A8
S113481010B5064801F072FA03000020012B03D002
S11348200B30042B00D10A3810BDC04600E007400D
S1134830F7B5FF2403681D4A1E0A26401C40B30036
S11348409F581B4A05009B5830000193FFF7C6FD93
S113485000222100380001F059FA019BA400E41859
S113486084232A795B05234352001A6080236A79E2
S11348705B0523431A609023AA795B052343120145
S11348801A600C4B1C43EB791B042360EB79002B5F
S11348900AD0094B9B57002B06D01F2213401E3A07
S11348A09A401300054A1360F7BDC046987B000088
S11348B0A07B000000001818A87B000000E100E0C5
S11348C0F8B5FF2405000368114A180A20401C406B
S11348D083009F580F4A9E58FFF780FD380021003F
S11348E0012201F013FA6A682100380001F01DFA70
S11348F088232A7AA400A4195B05234392001A6032
S113490098235B051C436B7A9B012360F8BDC0466A
S1134910987B0000A07B000070B50C00002807D134
S1134920002C0FD170BD05000835FFF781FF28006A
S113493003680133F7D1F3E7250020000C35FFF7B6
S1134940BFFF2C0023680133F6D1EBE7FF22030AF3
S1134950044913409B0059580123104083404B6085
S11349607047C046987B0000FF22030A04491340A5
S11349709B0059580123104083408B607047C04608
S1134980987B0000084B8200D258942310B5023261
S11349905B0513431B78002B02D000F03FFA10BDD7
S11349A000F092FAFBE7C046407B0000020080233F
S11349B00C325B0513431A78002AFCD0017170474E
S11349C070B50D00084B8000C45820002900183031
S11349D0FFF7AEFA0328F8D0002801D0042323748B
S11349E0207CC0B270BDC0468C03002010B5104BB3
S11349F08000C458E37C002B05D0237C052B02D017
S1134A00237C042B0BD10B4B18589823821C5B0579
S1134A10134300221A7001F0F7F901236374A37C95
S1134A20002B03D020001830FFF73FFA10BDC0461A
S1134A308C030020407B0000F0B51700002289B0F1
S1134A4005930EAB1B7805000393830032481E5870
S1134A5032481C5807AB1A80A37C880A04930223AB
S1134A60FF3363828B0A0193CBB21E2801D11A0053
S1134A700B0A5B00D8B2019B00211E2B05D08F428C
S1134A8003D1012303995B1A59B20143CBB20293B8
S1134A900299019807AB197001211E2801D15A709F
S1134AA04918A3603000E1600299FFF77FFF2800F6
S1134AB00F99FFF785FF237C002B0CD1002F0AD020
S1134AC0059BA760E36030003978FFF76FFF28008B
S1134AD00F99FFF775FF237C039A1A4314D1019BA6
S1134AE01E2B01D0002F0FD0002301273000A3601C
S1134AF0E76001F077F9029930003943FFF756FF78
S1134B0028000F99FFF75CFF0023207CE374049BCB
S1134B10C0B2A37409B0F0BD407B00008C03002038
S1134B20F7B583000193184B8200D75805000C0099
S1134B300126002F26D1154B3900D35820002422FA
S1134B400193FBF7CFFD200039001830FFF7A6F9D9
S1134B502800FFF767FC019801F0EFF80A4BAA0060
S1134B60D4501F220A4B5B5D134032009A40094B1C
S1134B701A609C22019B52050233134380226674FF
S1134B803E001A703000FEBD8C030020407B000004
S1134B90447B000000E100E0F7B50E4E8500AB5900
S1134BA0002701930C4B0400EA589C2302325B0556
S1134BB013431F70FFF73BFC084B01981A5D1F233A
S1134BC01A401E3B9340064A1830D367FFF77DF91D
S1134BD0AF51F7BD8C030020407B0000447B0000F4
S1134BE004E100E00A4B800070B5C5584B686A695F
S1134BF00C0093420BD0074BC658FFF765FB00230C
S1134C0001006268300001F0A7F863686B6170BD51
S1134C108C030020407B0000F0B587B0049205931C
S1134C20334A0FAB1E7883009C580391627C0700C3
S1134C30002A03D10320207407B0F0BD002E01D157
S1134C401E220E922B4A3800D55800230399E360A4
S1134C50A360237423606374A674FFF7C3FF9023D7
S1134C601021AA1C5B05134319708423E91C5B05FE
S1134C700B430221197098235B05134302934023CD
S1134C80029A2800137001F0ADF8039B38001988CC
S1134C900E9B049A019301230093059BFFF7CCFE1E
S1134CA00D9B002B17D0237C002B11D10C9B2800CB
S1134CB0A3600D9BE3600C9B1978FFF777FE002E31
S1134CC003D038000E99FFF77BFE207CC0B2B3E717
S1134CD0237C042BF9D100230126029A1370EB786C
S1134CE05B09334202D0280001F08EF86674ECE7C9
S1134CF08C030020407B0000F0B589B0079311AB12
S1134D001B780692364A029383009C580591627C74
S1134D100600002A03D10320207409B0F0BD029AD2
S1134D20002A01D11E32109200272E4A0599D55827
S1134D300E9B300023600F9BA7606360029BE760BB
S1134D40A37427746774FFF74DFF9023AA1C5B05B7
S1134D501A4310231370842304925B05EA1C134343
S1134D6002221A709823AA185B051A4340232800CC
S1134D701370039201F036F8059B069A1988109B6C
S1134D80300001930097079BFFF756FE237CDAB2AD
S1134D90BB4215D1049BA91C1A708C235B050B43E1
S1134DA00F99012900D108221A702B79029B002B3C
S1134DB003D030001099FFF703FE207CC0B2ACE7AB
S1134DC0237C042BF9D10126039B1F70EB785B092C
S1134DD0334202D0280001F017F86674EDE7C046AC
S1134DE08C030020407B00001FB501240394089C21
S1134DF00294079C0194069C0094FFF70DFF04B0F5
S1134E0010BD1FB501240394089C0294079C0194CF
S1134E10069C0094FFF770FF04B010BD244B70B5DE
S1134E208400E5588423EA1C5B05134302221A70AC
S1134E309023A9185B050B431B78EA78DBB2920632
S1134E401DD5942252050A431278002A17D0194A14
S1134E50A458012B14D1EA781A4204D004332374E1
S1134E60FFF7C4FD0BE0E368013BE360002BF7D0E0
S1134E70A36828005A1CA2605978FFF797FD70BDFB
S1134E806268013A6260002A06D08C235B05012A1D
S1134E900AD000220B4309E0FFF7A8FD23685A1C3F
S1134EA022602A791A70EAE708220B431A70F5E7A0
S1134EB0407B00008C030020C31C84204005184361
S1134EC002230370704700000122F0B5904B81006B
S1134ED0CD5889B0EB1C0193EB7890261B091A403E
S1134EE005920122EB7876059B091A400292320062
S1134EF0AB1D1A43944612780090D2B207929422C2
S1134F0052051A431278AF1CD0B203909820400582
S1134F1003431878C0B206907E480C5831003943D8
S1134F2001910978C9B20491002A35D0079A002A60
S1134F300ED01023624628001370FFF7BDFF236BC9
S1134F40002B52D06A4601211078626B98474CE0DE
S1134F50069A002A20D0402228001A70FFF7ACFFDE
S1134F6023002C331B78002B03D1982252051743BE
S1134F703B70236B002B04D06A4680211078626B4F
S1134F809847E37D002B04D0200080211830FEF7E1
S1134F909EFF0A23237028E02800FFF78DFF059B5E
S1134FA0002B24D0EB1C1E4310233370029B002BD8
S1134FB010D0EB785B07DA0F002B48DB019B1A70EB
S1134FC0236B002B04D06A4604211078626B984747
S1134FD02B790AE0082323702C342378002B04D186
S1134FE098235B051F43029B3B7009B0F0BD029BF5
S1134FF0002BDED1049B012B54D1EB78049A13428D
S113500030D0019B029A1A702B7923002C331B7821
S1135010002B07D1039B002B04D198235B051F436E
S1135020039B3B70236B002B04D06A460821107845
S1135030626B9847A37D002B04D020000821183010
S1135040FEF745FF00236360E3602375CDE710237B
S1135050019A1370236B002B04D06A460221107846
S1135060626B98476368002B50D028008022E36865
S11350700C3052051978024310780028FCD02971AD
S11350800133E3606368013B63606368002BACD168
S1135090E3602375236B002BA7D06A461021107898
S11350A0626B53E72B79A268DBB2002A2CD0226909
S11350B01370236901332361A368013BA360A368D0
S11350C0002B00D091E7039B002B11D123002C333C
S11350D01B78002B04D198235B051F43039B3B7073
S11350E0E37D002B04D0200020211830FEF7EFFED2
S11350F0002363752361236B002B00D175E76A4697
S113510020211078626B21E7072343E7062341E758
S1135110407B00008C030020042902D0072907D01B
S11351207047902303305B05184310230370F7E79F
S11351309C2303305B0518438023F7E7DC2270B51A
S11351400024094B8000C558084B5205C358083346
S11351501A431460AA7CA24203D028001430FEF73C
S1135160A4FE2C7470BDC04690030020487B000050
S11351700C4B800070B5C5580B4B0024C058D42389
S113518002005B05083213431C602200074900F04B
S11351905CFEEB7CA34203D028002030FEF785FEA2
S11351A06C7470BD90030020487B00001B0002005B
S11351B0F8B52B4A83009C580600227C002A02D1B1
S11351C0627C002A3ED0274AD558DC232F005B0599
S11351D01A0008373A431268002A15D02A1D1343CF
S11351E01B68002B10D0A368002B0DD023681A78FD
S11351F00133EA602360A368013BA360A368002B2A
S113520002D13000FFF79AFFD4235B051F433A68AD
S1135210002A0DD02A1D13431B68002B08D0EB680D
S113522062681370E36A002B0DD0210030009847A8
S113523028000D4900F04AFE002803D028000A493E
S113524000F048FEF8BD636801336360E368013B26
S1135250E360E368002BEBD13000FFF789FFE7E759
S113526090030020487B00001300010084225205B3
S1135270024312780300D0B2002A0CD080200133FC
S1135280400503431878013843425841024B4042D9
S11352901840024BC0187047808D5B0080841E004C
S11352A0020070B5074B083213431C78064B1032CA
S11352B013431D78FFF7DAFFEDB2E4B26419E0405E
S11352C070BDC046000090100000101010B50D4BCA
S11352D0821D13431A780400D3B2002A0FD0012B85
S11352E007D1FFF7C3FF084B08341C432378D84089
S11352F010BD0020022BFBD1044B1868F8E70448CA
S1135300F6E7C04600000811000090109403002046
S1135310006CDC020C4A811D0A4312780300D0B2EF
S1135320012A04D002280BD000280BD17047802218
S11353300133520513431B78002BF7D10220F5E704
S11353400320F3E70520F1E70000081102009C2385
S113535018325B05134380221A700022064B034364
S11353601A70064B063018430378DAB2002BFBD1CF
S1135370034B10000B607047000008130000081175
S1135380006CDC02F8B504000D0016001F00FFF7E6
S1135390C1FF012823D1002D25D08023621C5B0589
S11353A013431D70842302225B0523431A702200D9
S11353B0104B083213437200D2B21A7040220E4BC3
S11353C00E48234306341A7004432378012BFCD17E
S11353D0002D0DD10A4B334100203B60F8BD02285B
S11353E0DBD1012DD9D139002000FFF7AFFFD4E77D
S11353F0044BF0E7000090100000081300000811AF
S113540080841E0000127A0010B50A4C0300226842
S11354100120002A0CD0084A7F301A431070074834
S1135420063303431A78022AFCD1002023680B6058
S113543010BDC046940300200000081300000811AA
S11354409C23C9015B050343C9B2197070479C23AF
S11354505B0503431878431E9841C0B270479423F8
S113546049015B050343C9B21970704770B50668FA
S11354700C0030002049FBF777FB1F490500300082
S1135480FBF7F8FB0E00E12130000901FBF76CFB90
S1135490E121E08009013000FBF7ECFB0E003C2128
S11354A03000FBF761FB3C2120813000FBF7E2FB7D
S11354B06E22A1720321114BFF322380238895426F
S11354C00AD80F499B0700D10E490123CA5CAA429E
S11354D00CD36380A58070BD01339BB223800B4045
S11354E0AD1A5A425A416E32FF32E7E70133AD1A20
S11354F00D2BEBD1EEE7C04680510100B20700004E
S1135500747B00004C7B00000188114A03008A1858
S1135510002030B5812A17D85A88541E0B2C13D872
S11355209C88651E1E2D0FD8DD88172D0CD81D896B
S11355303B2D09D89B7A3B2B06D88B0705D0054B0E
S11355409B5CA3424041C0B230BD034BF8E7C04668
S11355504EF8FFFF747B00004C7B000070B5134DC8
S1135560838802885B196E25FF35554344885B198F
S113557095085B190E4D6600755B5B19920710D098
S11355800B600A680B4BC4885343827A00899B18CA
S1135590E122120162439B183C2242439B180B6098
S11355A070BD022CECD8013BEAE7C0464A05F5FF82
S11355B05A7B0000805101008023084A1B021268B4
S11355C09A4209D1A02310305B0518430368002BCD
S11355D002D10133FF3303607047C04694030020B7
S11355E00100802210B5002301245205103111431B
S11355F00C600B6090214360490504601C3001433A
S11356000B608821490501430B608421490501434E
S113561010430B60036010BD0200902314325B053D
S1135620134300221A604260103201601A6070470E
S113563003680B6070470000104B820070B5D558AA
S1135640802204000E4B92051A602800FFF7C8FF61
S11356502800FFF7B1FF0B4B1F261A5D012318002A
S113566009493240095DC025314090408B40074ACA
S11356706D00505153511060136070BD847B000065
S11356803C80845E887B0000897B000000E100E0B0
S1135690F7B50027114B8000C55808000E0001978C
S11356A0FFF732FF0400B84216D001A93000FFF71B
S11356B055FF3800FEF73AFE0100802000028142C7
S11356C006D0FBF751FA01000198FBF74DFA01905F
S11356D028000199FFF7A0FF2000FEBD847B000095
S11356E0F7B50025124B8000C4580E00200001A914
S11356F00195FFF79DFF2800FEF718FE05008020A6
S1135700000285420ED00B4B290004341C43FBF7E6
S11357102BFA2768019C29004443B8B2FBF724FA0A
S113572024180194310001A8FFF7A0FEF7BDC0467C
S1135730847B000000007810F0B50027184B80002F
S113574085B0C55808000E0001920397FFF7DCFEF0
S11357500400B84203D10024200005B0F0BD30009D
S113576003A9FFF7FBFE38002E68FEF7DFFD0100FA
S113577080200002814206D0FBF7F6F9010003986D
S1135780FBF7F2F90390039BB342E4D3AB608823A5
S11357901C355B051D43019B9A002A60DCE7C0466B
S11357A0847B0000044B8000C25888231C325B05B4
S11357B01343890019607047847B0000054B800007
S11357C0C258882314325B0513431868431E98415A
S11357D0C0B27047847B00006B46E0221B78D20283
S11357E01B041340024A09070B43801803607047E7
S11357F044100000084B8200D258902310B50332A5
S11358005B0513431B78002B02D000F013F910BD85
S113581000F078F9FBE7C0468C7B00009C210C4B20
S11358200C4A8000C35882580020033249051143B2
S113583010B518710870942149050A4310701A7F35
S1135840824203D020331800FEF72FFB10BDC04660
S11358509C0300208C7B0000F7B50C0005001B4B5B
S11358603022002187002000FE58FAF73BFF280071
S1135870FEF7C9FDFEF728FD2060300000F080FB34
S1135880200000212030FEF709FBF31C0193902334
S1135890F21C5B051343102230001A70032100F040
S11358A0ADFB3000002100F0CEFB094BFC50094B4E
S11358B05A5D1F231A401E3B9340074A13609823E6
S11358C0019A5B05134340221A70F7BD8C7B0000DC
S11358D09C030020907B000000E100E0F8B50D4E31
S11358E085000D4BAF590400E85800F049FB38001F
S11358F02030FEF7EAFA094B20001A5D1F231A40F4
S11359001E3B9340064AD367FEF782FD0023AB514A
S1135910F8BDC0469C0300208C7B0000907B0000F7
S113592004E100E00A4B800070B5C658094B0C0036
S1135930C358150030001A68096800F028FB286075
S1135940A37930006279217900F06AFB70BDC0460A
S11359508C7B00009C030020F7B51E4A83009C58F2
S1135960050022790420002A16D11B4A9E580029DA
S113597003D0280001AAFFF7D5FF98230021402077
S1135980F21C5B0513431970187027698F4204D108
S11359902800FFF743FF0020FEBD01232371942359
S11359A05B05A16133431B780720002BF4D0A36867
S11359B0191E02D019780133A360B1712369013B28
S11359C02361A3690133A3619C235B051A438023EC
S11359D01370E0E79C0300208C7B0000F8B5134FA4
S11359E0134C85002C59ED590127069E2777A26098
S11359F02661E3606661FFF7AFFF002814D1200041
S1135A0007992030FEF794FA0328F8D000280BD029
S1135A109C23002203355B052B4322711A709423C7
S1135A2003205B051D432A70F8BDC0468C7B000033
S1135A309C03002010B51E4B8200D358197900290D
S1135A4034D01C4951585A69002A11D09C2252055D
S1135A500A431278002A0BD08A79DC68D2B2002C6F
S1135A6003D02270DA680132DA605A69013A5A6165
S1135A701A69002A12D0942252050A431278002A85
S1135A800CD09A68141E02D0147801329A608C717A
S1135A901A69013A1A619A6901329A611A69002AEB
S1135AA004D15B69002B01D1FFF7B8FE10BDC046DD
S1135AB09C0300208C7B0000104A80008158002247
S1135AC00F4B10B5C3580331581CC2779C204005B6
S1135AD00843DA621A701A835A629A621A6302706D
S1135AE09420400501430A701A0038321278002AC3
S1135AF003D00121181DFEF7EAF910BD8C7B0000CC
S1135B009C03002070B5254B8200D358591CC97FD3
S1135B10002942D022495258D96A002917DB94211E
S1135B20490511430978002911D0D969CCB2596AC1
S1135B30002905D0DD6A002D02DD0C78013159629F
S1135B409471D96A0139D962596B01315963D96A9F
S1135B50002905DA9421D41C4905214300240C7042
S1135B60196B002911DD9C2149051143097800298D
S1135B700BD09279996AD2B2002903D00A709A6A3A
S1135B8001329A621A6B013A1A63DA6A002A04DC57
S1135B901B6B002B01DCFFF78FFF70BD9C03002003
S1135BA08C7B0000012903D0032909D00020704711
S1135BB094235B0518430078431E9841C0B2F6E76E
S1135BC08423F6E7431C034849011843C9B2017012
S1135BD07047C04600008812831C94204901400588
S1135BE01843C9B201707047831C034889011843E4
S1135BF0C9B201707047C04600000813831C8C2092
S1135C00C90040051843C9B201707047F7B50400D4
S1135C10364EE31C1E43337808780D00DBB20728A8
S1135C2060D8FAF78DFF04192B0E192B2B45304B36
S1135C3001341C43002323703378012BFCD1002052
S1135C40FEBD012BFCD12A4B01341C43402323709D
S1135C503378042BFCD1F2E70021012801D0042081
S1135C600231337898423FD12000FFF7ABFF042183
S1135C70204A13698B43136130BFE0E70227B8421F
S1135C8007D100270B79BB4203D020004979FFF7E5
S1135C90ABFF194B01341C4327703378154ADBB230
S1135CA00193019B01330193042311690B43E2E740
S1135CB00421114B621C1A4311706A78A11C0B4316
S1135CC01A70002A06D1AB78002B03D02000E978A3
S1135CD0FFF782FFAB79002BDFD02000E979FFF7D3
S1135CE08DFFDAE70120ABE70320A9E700003010BD
S1135CF00000881200ED00E000001010C31C0248F0
S1135D0018430078C0B270470000301001231430EB
S1135D108B40012A04D1802212051043036070478E
S1135D208022D204DB431043F8E701238B40002A8E
S1135D3001D0436070478360FCE70023C2220370F4
S1135D4043708370C37043718371C3710372427271
S1135D508372C37270470000F0B5002487B00293C9
S1135D60FA230126270025009B0053430390049146
S1135D70009301947642AB000593194BAA009B183B
S1135D8059880498A140FAF7EFFE009B009AC31AC1
S1135D90824200D9131AB3421FD2114AA900525C9D
S1135DA027000192002B02D00135322D13D101348A
S1135DB0032C01D0002B0DD1029A002A00D01360CD
S1135DC03F220199BB0111400B43039ADBB253708C
S1135DD007B0F0BD00251E00CDE73300E4E7C04660
S1135DE0AA7B0000942302305B0503431B78002B3D
S1135DF005D088235B051843042303707047802370
S1135E001B0518433023F8E7942210B55205841C6F
S1135E10224311780300CAB2022001290DD1802146
S1135E20C90421438024CD300870E4000333197879
S1135E30490908001040114200D110BD013C002C5A
S1135E4001D0C046F3E70920F7E7012310B58B40E2
S1135E500400080C04280AD8FAF772FE030E14177B
S1135E601A008020002A03D000050443236010BDDB
S1135E70C004DB430443F9E7201D8024002A0AD030
S1135E802405F2E720000830F7E720000C30F4E79F
S1135E9020001030F1E7E404EBE70200002300B532
S1135EA0080C042808D80133FAF74AFE03080A0C40
S1135EB00E001068C8400340180000BD5068F9E7A0
S1135EC09068F7E7D068F5E71069F3E710B5FFF7D6
S1135ED0E4FF10BD294A0300881800B510284BD8E8
S1135EE0FAF72EFE433C27201912094A4A4A4A2E41
S1135EF04A4A4A4A3500D0208022043340050343ED
S1135F00520300201A6000BDCC20802204334005D7
S1135F1003431203F5E7C8208022043340050343FA
S1135F20D202EEE7C42080220433400503439202E8
S1135F30E7E7C02080220433400503435202E0E730
S1135F40FC2080220433400503431206D9E7F820DD
S1135F508022043340050343D205D2E7BC208022CB
S1135F600433400503431202CBE7B82080220433F4
S1135F7040050343D201C4E70320C4E7F2FFFEFF58
S1135F800423C37000238370437003717047F0B51A
S1135F90130B89B00126039308230124764202934C
S1135FA09B19079004910592019302270025631E13
S1135FB00693210005987943FAF7D6FD049B8342A2
S1135FC007D31B1AB34204D21E00069B039002950A
S1135FD0019301357F00092D01D0002EE9D1082C51
S1135FE002D00134002EE0D1019B029A1B010398D8
S1135FF01343079ADBB2537009B0F0BD842310B584
S11360000224C21C5B0513434A0022401A709023E9
S113601000195B0518431023C9001940017010BD15
