:10000000000600201D050000450500004505000014
:1000100000000000000000000000000000000000E0
:100020000000000000000000000000004505000086
:10003000000000000000000045050000450500002C
:100040004505000045050000450500004505000088
:10005000450500004505000045050000AD0F000006
:10006000DD2B000045050000E72B000045050000E2
:10007000F12B000045050000450500004505000086
:100080004505000045050000450500004505000048
:10009000850F00009D0F000045050000450500008C
:1000A0004505000045050000450500004505000028
:1000B0004505000045050000BD0F00004505000096
:10040000FFFFFFFFFFFFFFFFFFFFFFFFFE3DFFFFBF
:100410000448054B10B5834203D0044B002B00D099
:10042000984710BDF8FEFF1FF8FEFF1F00000000F8
:1004300006480749091A8B10C90FC91810B5491089
:1004400003D0044B002B00D0984710BDF8FEFF1FCF
:10045000F8FEFF1F0000000010B5074C2378002BAA
:1004600009D1FFF7D5FF054B002B02D0044800E06F
:1004700000BF0123237010BDF8FEFF1F0000000025
:1004800084670000054B10B5002B03D004490548D4
:1004900000E000BFFFF7CCFF10BDC0460000000029
:1004A000FCFEFF1F84670000402292029A1A9246C7
:1004B0007047C046154B002B00D1114B9D46FFF7EE
:1004C000F3FF00218B460F461148124A121A00F022
:1004D00005F90C4B002B00D098470B4B002B00D09C
:1004E00098470020002104000D000B4800F02EF872
:1004F00000F06AF82000290001F002F800F03AF854
:1005000000000800000000000000000000060020BD
:10051000F8FEFF1F18020020A105000072B6064871
:100520000649074A02600A6002F068FB02F0A8FB75
:1005300062B6FFF7BFFF000080E100E080E200E06C
:10054000FFFFFFFF004800474505000010B5010010
:1005500000230022002000F01FFA10BD10B50A0091
:10056000002100F0BBF810BD014B18687047C04671
:1005700000FEFF1F084B10B50400002B02D0002125
:1005800000F078FA054B1868836A002B00D0984772
:10059000200000F05BFCC046750A0000B84E000069
:1005A00070B5074D074C641BA41005D0013CA30097
:1005B000EB589847002CF9D106F0EAF870BDC04618
:1005C000A8670000AC67000070B50C4D0C4E761BA0
:1005D000B61005D0002408CD01349847A642FAD1C0
:1005E00006F0D0F8074D084E761BB61005D0002453
:1005F00008CD01349847A642FAD170BDA467000027
:10060000A4670000A4670000A867000010B5034BB2
:100610000100186800F00CF910BDC04600FEFF1F75
:1006200010B5034B0100186800F0ACF810BDC046CF
:1006300000FEFF1FF0B5C64600B50F2A43D90B00D8
:10064000032603431E400C000300002E40D115007A
:10065000103D2D09AC462D01A846804400E03B002A
:10066000676825685F60E7681D60DF601F00A56838
:1006700010379D6010344345F1D165460F230C249B
:1006800001352D01491913404519144223D08C59C5
:10069000AC5104369C1B032CF9D80324043B9B0863
:1006A00001339B002240ED18C918561E002A07D0BE
:1006B000002300E02300CA5C5C1CEA549E42F9D18E
:1006C00004BC9046F0BD0500561E002AF0D1F7E7A5
:1006D000561E0500ECE71A00F6E7C046F0B5050027
:1006E00083074AD0541E002A44D0CEB2030003220E
:1006F00002E00135013C3DD301332E701342F8D1A5
:10070000032C2FD9FF220A40150215432A04154352
:100710000F2C35D92700103F3F093E01B4461E007B
:100720001A0010366644156055609560D560103229
:10073000B242F8D10F260C2201373F012640DB19C7
:100740003700224217D03E1FB608B400A4461A0054
:100750001C1D644420C2A242FCD103240136B60011
:100760009B193C40002C05D0C9B21C1919700133EB
:100770009C42FBD1F0BD3400F4E714000300BFE756
:100780002700E0E770B50500002915D00C1F23688D
:10079000002B27DB280000F0CBF9244B1A68002A35
:1007A00005D0A2420CD921686018824224D0626030
:1007B00028001C6000F0BEF970BDA34203D81A00E7
:1007C0005368002BF9D111685018A0421BD027D8CC
:1007D00021686018834207D063605460280000F0ED
:1007E000A9F9E9E7E418D5E718685B68844661442D
:1007F000216063605460F1E7106852688446614488
:1008000021606260D4E720680918501811608342A3
:10081000E4D118685B688446614411605360DDE789
:100820000C2328002B6000F085F9C5E714FFFF1F9B
:10083000F8B50323CD1C9D43083506000C2D2AD2A4
:100840000C25A94229D8300000F072F92A4F3A68E5
:10085000002A0AD013685B1B04D441E023685B1BA9
:100860001FD522005468002CF8D17B68002B3DD0A6
:100870002900300000F042F8431C2AD00323C41C96
:100880009C43A04205D0211A300000F037F8431CE9
:100890001FD0256010E0002DD3DA0C230020336038
:1008A000F8BD0B2B05D86368A2421DD0536003E04E
:1008B00014002360E4182560300000F03BF92000AC
:1008C00007220B30231D9043C21AE9D01B1AA350F4
:1008D000E6E70C233000336000F02CF90020DFE75E
:1008E0000B2BE5D8140053683B60E5E7002130008E
:1008F00000F004F87860BBE714FFFF1F002370B519
:10090000064C05000800236000F0A2FA431C00D04A
:1009100070BD2368002BFBD02B60F9E71402002088
:1009200003000A7801311A700133002AF9D17047A7
:1009300010B5830727D00378002B26D003000321AE
:1009400002E01A78002A1CD001330B42F9D1196851
:100950000F4A104C8A188A4322420FD10433196877
:100960000B4A8A188A43224208D104331968084A7C
:100970008A188A432242F1D000E001331A78002A13
:10098000FBD1181A10BD0300E1E70020FAE7C046CA
:10099000FFFEFEFE80808080F0B546464F46D6467C
:1009A000C0B51F002F4B82B01C6805000E0090469A
:1009B000002C2DD063681F2B50DC002D1CD088220A
:1009C000A0589146002834D07832825894469A0034
:1009D00091468144424649460A6001216246994057
:1009E0000A43944680228A46614652008150494615
:1009F000803A8F50022D16D000205A1C02339B00E3
:100A000062601E5102B01CBC90469946A246F0BDE1
:100A1000154C1C60154B002BCCD01B680193882310
:100A2000019AE250C6E75546843281580D438550FD
:100A3000E2E70F4B002B11D084204000FFF7E6FDCA
:100A400000280BD0802200235200835004328350B0
:100A50004B460022E05094466368B8E701204042CC
:100A6000D0E7C046A8FFFF1F1CFFFF1F00000000CB
:100A70000D060000F0B5DE464E46454657462B4B68
:100A800088469B46E0B51E6883B00190002E45D095
:100A900088237568F7586C1E40D40135AD00783353
:100AA00075199A460AE0002F05D03B00A20080335A
:100AB0009B58434505D0043D013C2FD34346002BB2
:100AC000F1D173682A68013BA34222D000232B6036
:100AD000002AF0D073689946002F18D001235146A0
:100AE000A3407958194212D0822040003858A10002
:100AF0007958009018420ED1019890475B46726871
:100B00001B684A4501D1B342D5D01E00BEE79047CD
:100B1000F4E77460DCE708009047EFE703B03CBC03
:100B200090469946A246AB46F0BDC046A8FFFF1FBF
:100B30007047C0467047C04602B471464908490034
:100B4000095C49008E4402BC7047C04603B471463C
:100B5000490840004900095E49008E4403BC7047C3
:100B6000002243088B4274D303098B425FD3030AEC
:100B70008B4244D3030B8B4228D3030C8B420DD3FF
:100B8000FF22090212BA030C8B4202D3121209028D
:100B900065D0030B8B4219D300E0090AC30B8B42CB
:100BA00001D3CB03C01A5241830B8B4201D38B0379
:100BB000C01A5241430B8B4201D34B03C01A52411E
:100BC000030B8B4201D30B03C01A5241C30A8B4261
:100BD00001D3CB02C01A5241830A8B4201D38B024C
:100BE000C01A5241430A8B4201D34B02C01A5241F0
:100BF000030A8B4201D30B02C01A5241CDD2C30962
:100C00008B4201D3CB01C01A524183098B4201D3DD
:100C10008B01C01A524143098B4201D34B01C01AC8
:100C2000524103098B4201D30B01C01A5241C30840
:100C30008B4201D3CB00C01A524183088B4201D3AF
:100C40008B00C01A524143088B4201D34B00C01A9B
:100C50005241411A00D20146524110467047FFE707
:100C600001B5002000F0F0F802BDC0460029F7D021
:100C700076E7704703460B437FD4002243088B423C
:100C800074D303098B425FD3030A8B4244D3030B13
:100C90008B4228D3030C8B420DD3FF22090212BAD8
:100CA000030C8B4202D31212090265D0030B8B4254
:100CB00019D300E0090AC30B8B4201D3CB03C01A3E
:100CC0005241830B8B4201D38B03C01A5241430B19
:100CD0008B4201D34B03C01A5241030B8B4201D309
:100CE0000B03C01A5241C30A8B4201D3CB02C01A74
:100CF0005241830A8B4201D38B02C01A5241430AEC
:100D00008B4201D34B02C01A5241030A8B4201D3DA
:100D10000B02C01A5241CDD2C3098B4201D3CB0181
:100D2000C01A524183098B4201D38B01C01A524130
:100D300043098B4201D34B01C01A524103098B4234
:100D400001D30B01C01A5241C3088B4201D3CB001F
:100D5000C01A524183088B4201D38B00C01A524102
:100D600043088B4201D34B00C01A5241411A00D2B2
:100D700001465241104670475DE0CA0F00D049421B
:100D8000031000D34042534000229C4603098B428B
:100D90002DD3030A8B4212D3FC22890112BA030A13
:100DA0008B420CD3890192118B4208D38901921195
:100DB0008B4204D389013AD0921100E08909C3091A
:100DC0008B4201D3CB01C01A524183098B4201D31C
:100DD0008B01C01A524143098B4201D34B01C01A07
:100DE000524103098B4201D30B01C01A5241C3087F
:100DF0008B4201D3CB00C01A524183088B4201D3EE
:100E00008B00C01A5241D9D243088B4201D34B0008
:100E1000C01A5241411A00D20146634652415B104A
:100E2000104601D34042002B00D54942704763462B
:100E30005B1000D3404201B5002000F005F802BD70
:100E40000029F8D016E770477047C046FEE7C04655
:100E50000A4A0300116810B5002901D10849116040
:100E600010680849C3188B4206D9FFF77DFB0C2395
:100E700003600120404210BD1360FCE7ACFFFF1F80
:100E80001802002018020020837802209842804136
:100E900040427047437A0020013B012B03D90B7875
:100EA000013001330B707047C023174A9B00136059
:100EB000164A1360164A13600023164A1360164A36
:100EC0001360164A1360164A1360164A1360164AD6
:100ED0001360164A1360164A1360164A1360164AC6
:100EE0001360164A1360164A1360164A1360164AB6
:100EF0001360164A1360164A1360164A1360164AA6
:100F00001360164A136070470090145404901454F0
:100F1000089014540C9014541090145414901454B9
:100F2000189014541C901454209014542490145469
:100F30003090145400A0145404A0145408A0145465
:100F40000CA0145410A0145414A0145418A0145439
:100F50001CA0145428A014542CA0145434A01454CD
:100F600003003038092805D91A00613A052A02D849
:100F7000573B180070471A00413A0020052AF9D85B
:100F8000373BF6E710B5002003F042FB002803D002
:100F90000021080003F030FB10BD0000024A136876
:100FA000013313607047C04680FEFF1F10B5072154
:100FB000014802F0DBFF10BD00C007400122024BD8
:100FC00052421A607047C046A090044037B50020D6
:100FD00002F043F9C02300240D4A9B0013600D4A20
:100FE0000D4D13600D4A200013600D4B2C716C7178
:100FF000AC711A68FA239B0053430A492B6003F033
:1010000055FB2900200001AA03F0B6FB37BDC046FE
:10101000189014541C9014545000002000A0145434
:1010200084FEFF1F2000002010B58024002003F064
:101030007FFB0A4B64001C60094B07201C60094BB6
:101040001C6002F0BBFB062002F0B8FB200002F09F
:10105000B5FB002002F006F910BDC04618901454EC
:101060001C90145400A0145410B5002002F004F990
:101070008023054A9B001360044A00200449136042
:1010800002F078FC10BDC0460CA0145410A01454FB
:10109000FCFFFF1F10B5002002F0A8FC0020034B4E
:1010A0001860034B186002F0ECF810BD0CA014544B
:1010B00010A01454014B1B887047C04674FEFF1FDC
:1010C0000FB41FB50E4B1B78DCB2002B0FD107AB52
:1010D000039340232000009306990A4B03AA01F0D2
:1010E000FFFA002807DA2000074901F01DFA1FBCAB
:1010F00008BC04B01847052001F081FEF7E7C046A0
:1011000076FEFF1FB9FFFF1F5D65000010B50400EC
:10111000002901D0FFF7C8FE0021022000F05AFF8D
:101120002100042000F056FF002802D00148FFF7FC
:10113000C7FF10BDE64E0000F8B50E0004002748BA
:101140001500FFF7BDFF2648FFF7BAFF2548FFF758
:10115000B7FF320021002448FFF7B2FF234B244899
:101160001968244B244E1A68244B254F1B68FFF73F
:10117000A7FF244B244CF958244872693368FFF7C1
:101180009FFF21786278A3792148C9B2D2B2DBB23D
:10119000FFF796FF1F4B217A227E1B781E48C9B2AB
:1011A000D2B2DBB2FFF78CFF1C4B1D4819785A787E
:1011B0001C4BC9B21B69D2B2FFF782FF1A4B1B4806
:1011C00099781B4BC9B2FA587368FFF779FF194B2E
:1011D0002A7819681848FFF773FFF8BD444F0000DC
:1011E000844F0000B64F0000F04F000078FEFF1F54
:1011F0002450000084FEFF1F00D003408CFEFF1F20
:10120000007004403C100000004006405B500000AD
:101210009150000000500640C050000000E0074020
:10122000F050000000ED00E000D007402A5100001F
:101230003410000080FEFF1F6251000010B501F065
:101240007FF90028FBDB10BD70B5FFF7F7FF040046
:10125000FFF7F4FFFF26050020003040FFF780FE77
:10126000040028003040FFF77BFE24012018C0B2A4
:1012700070BD70B5FFF7E2FF0600FFF7DFFF050066
:10128000FFF7DCFF0400FFF7D9FFFF22FA236421F8
:1012900016401540303E14409B00303D4D43734393
:1012A0005A39303C4C435B1910401B193038181820
:1012B00070BD0000F0B591B01C0016AB0C91197810
:1012C00017AB05921A7818AB1B7805000D931CAB71
:1012D0001B780EA80E931DAB1B880F1C09932123AE
:1012E0001B18DB7F08931FAB1B880F9320AB1B7869
:1012F0000A93914200D9171C059BFFB2002C05D11F
:10130000002B05D15448FFF7DBFE01E0002BF9D19B
:10131000280000252E00514B1B88FFF7D1FE099BAA
:1013200004950293069500230793079B199A93420D
:1013300000DC8FE00E9B002B04D001370D9BFFB229
:101340009F42F0D9069B3100F2184548FFF7B8FEDE
:10135000322001F054FD3200089B04994148FFF708
:10136000AFFE322001F04BFD29003F48FFF7A8FEF9
:10137000322001F044FD11B0F0BD039B2C22FB187C
:101380000B936B469B18187801210C9B98470028FB
:1013900048D1029B099A0136934204D9643B9BB21F
:1013A00002932E4B1B88002C27D0E368089A9B7869
:1013B0009B1A5A425341049AD31804930A9B002B58
:1013C0000BD0E268E368E068039980785B78127874
:1013D000791800902548FFF773FE1B9B002B02DD58
:1013E000180001F00CFD039B01330393039B1A9A31
:1013F0009342C2DB079B013396E7059B089A9B78D3
:101400009B1A5A425341049AD31804930A9B002B07
:10141000E3D0059B16489A78039BD2B2F918FFF7E0
:101420004FFEDAE7022810D10B991248FFF748FE69
:10143000069B0F9A01330693029B9342CDD26433ED
:101440009BB20293054B1B88C7E7033843425841C0
:101450002D18C2E70023C8E79051000074FEFF1F5B
:101460000A5200002252000053520000BD510000F9
:10147000E2510000F751000070B50C00160088B072
:101480000CAA157806A908800A4A05A805700A4D15
:1014900012682D684A6004AA167001930090230018
:1014A0000020029502F0CAFB002800D0022008B0FC
:1014B00070BDC04678FEFF1F7CFEFF1FF7B56A4671
:1014C000CB1DDB08DB00D31A02AF9D460C000500E4
:1014D000FFF77CFD0021094B02AE1B682A00019337
:1014E00000943300080003F0A3F90400FFF79CFD0B
:1014F000002C00D00424BD462000F2BD88FEFF1F52
:10150000F0B50027BDB029AC072239002000FFF755
:10151000E5F8DE4A01253092032219AB33931BAB69
:1015200034931DAB369321AB389323AB399325AB62
:101530003A9327AB1FAE15A938003B9330AB1A7115
:101540003291189325703594379601F071FE28007A
:1015500001F06EFE8022CE4B12021A6001F06EFC8A
:101560003B003A0039003800009500F0F9FFC94A05
:101570002B000221C84801F085FC2900280001F059
:101580008DFC380002F082FF9C21C44B38002D9363
:1015900008AB5B181F80023108AB5B182DA91F70C8
:1015A0002E9502F09FFF2A00390015A8FFF796F844
:1015B0005820299B08A91D93A28809180A80A2799E
:1015C000023008A909180A700322063808A9091868
:1015D0000A701F93A2880C38B280A27908A9B27150
:1015E000052232701993A28809180A80A279023064
:1015F00008A909180A704421022608AA5218167070
:101600001B93A288063008A909180A80A2798019BC
:1016100008A909180A700422063808A909180A70CE
:101620002193A2881C3008A909180A80A279801980
:1016300008A909180A70642108AA51180822702004
:101640000A702393A28808A909180A80A279801930
:1016500008A909180A706C22092108A880180170CD
:101660002593A3880C3208A880180380A3797A24D4
:1016700008A8001903700A2308A8063C0019037083
:101680007C2008AB1B1818AA1F7033A82B0001F090
:1016900053FE8348FFF714FD3900300000F09AFC38
:1016A000082203009343DBB20D90BB4202D07D4879
:1016B000FFF706FD7C48FFF703FD7C48FFF700FDC0
:1016C0007B497C4802F052F87B4C2000FFF7F8FC85
:1016D000C0237A4A9B001360794A7A4813607A4A99
:1016E0001360FFF7EDFCFFF7DFFB2000FFF7E8FCDE
:1016F000E1211D20C90000F021FD0122734B744837
:101700001A70FFF7DDFC734B724A1C780023724895
:101710001370FFF7D5FC6F4BE4B21C706F4C00F0F8
:101720000FFF0500012001F06AFB002D10DA013CDB
:10173000002CF4D16A4B15AA1888210080B2FFF75B
:10174000FBFC9622674B520067481A60FFF7B8FC13
:101750006648FFF7B5FC002701F020F96448FFF761
:10176000AFFC03230F970E9300235A4A5C4C13706F
:101770002088390015AA80B2FFF7DEFC5D48FFF72C
:101780009FFC5D48FFF79CFC5C48FFF799FC5C48B8
:10179000FFF796FC5B48FFF793FC5B48FFF790FC74
:1017A0005A48FFF78DFC5A48FFF78AFC5948FFF763
:1017B00087FC5948FFF784FC39000E9A5748FFF719
:1017C0007FFC5748FFF77CFC5648FFF779FC5648EA
:1017D000FFF776FC5548FFF773FC5548FFF770FCA0
:1017E0005448FFF76DFC5448FFF76AFC5348FFF775
:1017F00067FC5348FFF764FC5248FFF761FC52480E
:10180000FFF75EFC5148FFF75BFC5148FFF758FCBF
:10181000FFF714FDFF21050001400A2900D16AE30A
:10182000080050382A2800D9D6E0FFF78FF95F0367
:10183000D5009DFFD500D500D500D500D500D50039
:10184000D5005D03D500D500D500D500D500D50065
:101850009500D700E900F90003010C0143014E0196
:10186000D5005F01BD01CA01CA0100029DFF03024C
:10187000D50010021A02A5020A03D500D5001703ED
:10188000D5001F03334B0F9301236CE7950E000027
:101890000802002064FEFF1FE0FEFF1FE0070100BA
:1018A000685200008D520000C1520000C952000071
:1018B00098FEFF1F90FEFF1F0C5300000090145471
:1018C00004901454E652000008901454B8FFFF1F0F
:1018D0000753000076FEFF1F13530000B80B0000F3
:1018E00074FEFF1F78FEFF1F2B65000032530000BF
:1018F0005253000077530000815300009E530000B4
:10190000BA530000D6530000F35300001A540000ED
:10191000395400006554000090540000B354000096
:10192000E2540000FE54000022550000465500001D
:101930006D55000095550000B3550000D0550000CE
:10194000EF5500000E5600002856000053560000C8
:101950007E560000B0FFFF1FC448FFF7B1FBC4482C
:10196000FFF7AEFBC348FFF7ABFBC348FFF7A8FB8D
:10197000C248FFF7A5FBC248FFF7A2FBC148FFF72B
:101980009FFBC148FFF79CFBC048FFF799FBC0488D
:10199000FFF796FBBF48FFF793FBBF48FFF790FBAD
:1019A000BE48FFF78DFBBE48FFF78AFBBD48FFF737
:1019B00087FBBD48FFF784FBBC48FFF781FBBC48B1
:1019C000FFF77EFBBB48FFF77BFBFFF737FCFF21F0
:1019D0000140352900D155E7B7480EE0B748FFF779
:1019E0006FFBFFF746FCB64BB64A18601968914288
:1019F00001D1B54A1A601968B448FFF761FBB3E634
:101A0000B348FFF75DFBFFF734FCB24BAD4A1860FB
:101A10001968914201D1AC4A1A601968AE48ECE7E6
:101A2000AE48FFF74DFBFFF724FCAD4B186019687B
:101A3000AC48E2E7AC48FFF743FBFFF705FC0700C3
:101A40000100AA48D9E7AA48FFF73AFBFFF7FCFBD9
:101A5000A84D010004002800FFF732FBA648FFF75D
:101A60002FFBFFF7F1FB16AE010030702800FFF7E7
:101A700027FBA248992C36D0914B2BAD1B682C80AC
:101A80002C939F4B1A881B88FFF7EEFA9D4B17AAE1
:101A90001B68177002930123290000200193009610
:101AA00002F0CCF8011E02D09748FFF709FBFFF7C0
:101AB000F1FA59E69548FFF703FBFFF7DAFB80B22E
:101AC00020802188924889B297E79248FFF7F8FA78
:101AD000914C2000FFF7F4FA2000FFF7F1FA8F484D
:101AE000FFF7EEFA8E48FFF7EBFA3DE639008D4836
:101AF000FFF7E6FAFFF7A2FB10908B48FFF7E0FA3A
:101B0000FFF79CFB11908948FFF7DAFAFFF796FB85
:101B100012908748FFF7D4FAFFF7ABFB0600854821
:101B2000FFF7CEFAFFF7A5FB05008348FFF7C8FAD9
:101B3000FFF79FFB04008148FFF7C2FAFFF784FB21
:101B40002B003A0013900E997D480096FFF7B8FAE3
:101B50006B4B0E9A1B889BB2022A21D07948032A2C
:101B60001FD0129807933038421E90410A90109867
:101B7000139A3038431E9841312302930023069074
:101B80001198A4B23038089204906F4A6F49704897
:101B900009940596039501930097FFF78BFB86E761
:101BA0006C48FFF78DFA82E76B48FFF789FA01244A
:101BB00020000021FFF7AAFA21003C20FFF7A6FA37
:101BC000F6E75448FFF77CFA6448FFF779FAFFF725
:101BD0003BFB2BAE30706248FFF772FAFFF749FB10
:101BE000474BEDB21B880400010032789BB26C2D8C
:101BF00010D15C48FFF764FA0025A54200DBB3E58D
:101C00002BAB1A7800230121FF200093FFF734FC4F
:101C10000135F2E75448FFF753FA0025A54200DBEF
:101C2000A2E501212BA8FFF749FC0135F6E723883F
:101C3000238899E50021022000F0CCF9031E0D90C5
:101C400000D191E54948082B00D18DE54BE70021F3
:101C5000082000F0BFF90D9B4548002B00D183E51B
:101C600041E72C48FFF72CFA42483CE79156000028
:101C70009C560000DA5600001C5700005D5700001B
:101C80009D570000CD5700000A5800004958000039
:101C900087580000C4580000025900003F59000056
:101CA0007E590000BB590000F8590000335A00006B
:101CB000705A0000AD5A0000C15A0000DD5A000001
:101CC00078FEFF1F0F270000102700000B5B0000AD
:101CD0002B5B000084FEFF1F595B0000735B00005C
:101CE0008CFEFF1FA25B0000BD5B0000F35B0000E9
:101CF0000A5C00003D5C0000535C00007C5C00005E
:101D000074FEFF1F7CFEFF1FA25C0000C35C00008E
:101D1000FC5C00002B5D0000595D0000895D000047
:101D2000BA5D0000EC5D0000265E00004F5E000022
:101D3000685E0000A75E0000D35E00000B5F00003D
:101D40003C5F0000B25F0000B0FFFF1F7521000084
:101D5000795F0000875F0000E35F0000066000001D
:101D6000256000004560000090600000DB6000001E
:101D700039610000966100002BA9002001F020FAD3
:101D8000FA212B988900FEF7EBFE01005B48FFF774
:101D900097F901F067FC01005948FFF791F901F04C
:101DA000FBF801005748FFF78BF9574B5748196864
:101DB0004B1E9941FFF784F9002001F058FA010009
:101DC0005348FFF77DF9002001F060FA0100514807
:101DD000FFF776F9002001F05EFA01004E48FFF7A8
:101DE0006FF9002001F02CFA01004C48FFF768F968
:101DF000012001F025FA01004948FFF761F9494B3C
:101E0000494819684B1E9941FFF75AF9002001F023
:101E10001FFA01004548FFF753F9454B454819683B
:101E20004B1E9941FFF74CF9434B444819684B1E30
:101E30009941FFF745F9002001F032FA01004048CE
:101E4000DBE50F9B3F48002B00D14CE63E48FFF7F7
:101E500037F9FFF7F9F90F9B587085E43B48FFF716
:101E60002FF93B4800F0CBFF3A483CE63A48FFF7F1
:101E700027F9FFF7FEF985B229003848FFF720F966
:101E80003748FFF71DF9FFF7D9F9C4B2683C604243
:101E900044413448FFF714F900F06CFF01210020A1
:101EA00000F052F906003048FFF70AF92F48FFF713
:101EB00007F92F48E4B2FFF703F9200000F098F982
:101EC00031002C48FFF7FCF8002D08D02900042031
:101ED00000F080F8011E02D02748FFF7F1F800F06B
:101EE0002FFB7128E9D1E2E52448FCE52448FFF7FF
:101EF000E7F82448F7E52448F5E5C046C26100004C
:101F0000D4610000EA6100003C80845E1162000040
:101F10002262000033620000446200005862000048
:101F20006C6200003C8004508062000091620000FE
:101F300034808459A26200003480045AB3620000E5
:101F4000C5620000D6620000146300004C6300000C
:101F5000102700006B63000075630000C163000080
:101F6000F7630000085C0000206400004264000089
:101F7000075C0000E5610000586400009664000002
:101F8000AC640000CE640000F96400001FB50400DA
:101F900001A9002002F0CEFA694601A802F008FA71
:101FA000009B68461C1901A9009402F089F90122DE
:101FB00001A9002002F0EAFA1FBD00000022034B35
:101FC0001A608022024BD205DA67704700901C58D5
:101FD00004E100E070B50D000A2408281CD8FEF7C3
:101FE000ABFD051D2A3F546771795C0001F03AFB97
:101FF0000524012810D0FFF7E1FF2800FFF7C6FFF6
:102000000021080001F0BAF901210400002000F0CD
:1020100045FF002C22D10024200070BD01F022FBDE
:1020200006240128F8D0FFF7C9FF2800FFF7AEFF0C
:1020300000210120E6E701F015FB08240128EBD080
:1020400000F0AAFF002803D00121002000F026FFA5
:102050000021022001F092F90028DCD00924DBE7FE
:1020600001F000FB07240028D6D0FFF7A7FF2800C7
:10207000FFF78CFF0021032001F080F9040001F03C
:10208000F1FA01210028C4D1C1E7FFF797FF28002A
:10209000FFF77CFF00210420EEE70021082001F07B
:1020A0006DF9041EDAD10121080000F0F7FEB3E754
:1020B000FFF784FF2800FFF769FF0021052001F0EA
:1020C0005DF9CBE7FFF77AFF2800FFF75FFF0021FC
:1020D0000620F4E7FFF772FF2800FFF757FF002103
:1020E0000720ECE7F0B506000D00114B89B05A78D7
:1020F00006AC22800F4A05AF12680792D88880B2DA
:10210000FEF7D8FF3E7004AE3570FEF7ADFF0A4B08
:102110003A001B68210002930123002001930096DE
:1021200001F08CFD002800D0022009B0F0BDC046AF
:10213000B0FFFF1F78FEFF1F7CFEFF1F014B587092
:10214000D9807047B0FFFF1F70B50400084B0D0029
:10215000D88880B2FEF7AEFF21000920FFF7C2FF4A
:10216000290004002A20FFF7BDFF2043C0B270BD44
:10217000B0FFFF1F70B588B06A46184B04001B788B
:102180000E001375182822D8C31F0320012B23D952
:10219000134B06AD5A782A80124A12680792D888E3
:1021A00080B2FEF787FF6B461C75FEF75DFF0E4B96
:1021B00029001B68002002930C4B0196009305AA8E
:1021C000012301F048FD002806D0022004E023008E
:1021D0001D3B0320142BDBD908B070BD83650000C4
:1021E000B0FFFF1F78FEFF1F7CFEFF1FB2FFFF1F27
:1021F00070B5324C0500E08880B2FEF75BFF02212B
:102200000120FFF7B7FFA178E278C9B2D2B2002867
:102210001DD02B48FEF754FF02210320FFF7AAFF31
:10222000A178E278C9B2D2B2002822D02448FEF7C1
:1022300047FF02210520FFF79DFFA178E278C9B290
:10224000D2B2002827D01E48FEF73AFF70BD002DFD
:1022500003D01C48FEF734FFDEE7920889011143E2
:102260008022194B920151401848C918FEF728FFE7
:10227000D2E7002D03D01348FEF722FFD9E79208DA
:10228000890111438022104B920151400F48C91817
:10229000FEF716FFCDE7002D03D00A48FEF710FF2A
:1022A000D4E79208890111438022074B92015140E3
:1022B0000648C918FEF704FFC8E7C046B0FFFF1F75
:1022C000856500008C65000000E0FFFF9C65000054
:1022D0000369C268934201D880681B18013B981AB1
:1022E0007047F7B58368C46801931F1B43680500F6
:1022F0000E001819A418974207D83A00FEF79AF969
:10230000019B6868E41A2200F119FEF793F9EC606A
:10231000F7BD0023F7B506001700C56801910093CB
:102320003369B4689D421FD2013B5B1B641BBC42F6
:1023300000D93C009C4200D91C0073682200581947
:102340000199FEF777F9009B2D191B190093019B4A
:102350003F1B1B190193B368AB4200D10025F56008
:10236000002FDDD10098FEBD1B19DDE7022310B55B
:102370000F4C104A236163610F4BA261E361642338
:10238000A2640E4A2362E26400230422A362636211
:10239000E362A3656365E36522650949E01DFEF715
:1023A000BFFA20000749FEF7BBFA2023A37110BD36
:1023B00058000020A1650000D4000020D0000020BB
:1023C000AA650000AE650000F0B5274B85B01B780C
:1023D0000E0002900192002B01D1FFF7C7FF1823D6
:1023E000029A00255343204AD3185A6D9C6D0392DC
:1023F000944219D91B6D019D1B1B9D4200D91D00E4
:102400001827029B30005F43174B2A00DF19FB6C33
:1024100076191919FEF70EF9019B64195B1B0193DC
:102420003B6DA34200D10024039B019F1B1B9F42D5
:1024300000D91F00002F0CD01823029A30005343FC
:10244000094AED19D318D96C3A000919FEF7F2F8C8
:10245000E419002D05D01823029A03485343C018ED
:102460008465280005B0F0BD5800002010B50B00B1
:10247000EFF31084012181F310881900FFF7A4FF06
:1024800084F3108810BD0000F8B516001822451C12
:1024900055434243164B0F005D199B18DC6A012C13
:1024A00010D0022C1BD0002C1FD12800FFF710FFEA
:1024B000864205D8320039002800FFF712FF3400A9
:1024C0002000F8BD2800FFF703FF3400864200D942
:1024D0000400220039002800FFF703FFF0E7320074
:1024E0002800FFF716FF0400EAE70024E8E7C046EB
:1024F00058000020F8B50B4B04001B780E001700A5
:10250000002B01D1FFF732FFEFF31085012181F39A
:1025100010883A0031002000FFF7B6FF85F31088DD
:10252000F8BDC0465800002070B5050008000C003A
:10253000FEF7FEF9210002002800FFF7DBFF70BD67
:1025400013B56B46DC1D012221000020FFF78EFF32
:10255000012801D1207816BD01204042FBE7000090
:10256000F7B5164C0193237805000F001600002BD9
:1025700001D1FFF7FBFE2369AB421CD9EFF31082B8
:10258000012181F31088002D0CD01823691C5943B8
:102590006B43675061184E600199E318196200217E
:1025A0009962596218204543089B6419E36282F3DB
:1025B00010880020FEBD01204042FBE758000020AB
:1025C000826810B504004068531C834205D8206817
:1025D0008154A360E3680133E360A26863689A42B0
:1025E00009D121682069FFF785FFA368984203D0CD
:1025F00001235B42E36010BD0023A360FBE7000002
:10260000F0B5050017000800012685B00A9C02916C
:102610000093B84219D2009A0196964200D20192D4
:1026200001230B9A1A4003920B9A1A4202D1002CF2
:1026300010D10024EB680126002B4BDB009B012B03
:102640001FD9013B00937E43F8E73900FEF788FA73
:102650000136DEE70B9B20269B0704D5009B103636
:10266000002B00D0103E019BA342E3D23100280092
:10267000FFF7A6FFEB68013C002BDBDB002CF2D15F
:10268000D7E731000298FEF76BFA8742DBD9029850
:102690003100FEF7EBFA114B0291195C2800FFF7AD
:1026A0008FFFEB68002B05DB39003000FEF758FA8E
:1026B000BE4211D2039B002B0CD0002C0AD0019BF0
:1026C000A34207D220212800FFF77AFFEB68013CE4
:1026D000002BF2DA05B0F0BD0600D8E7B5650000C2
:1026E000F0B58FB007900E001800149915000693EE
:1026F000FDF734FF069B079A0993149B0D920A93EA
:1027000000230B930C9331780136002907D10C9BE1
:102710000293002B00DD09E10C980FB0F0BD2529D4
:1027200000D0B3E000270822042006E0302B0DD1B2
:10273000022300E001231F430E003378711C2D2B70
:10274000F8D0F3D8232B10D02B2B0CD000240A2147
:102750003378721C18003038092808D84C43303CB4
:1027600016001C19F4E70743E6E71743E4E70021E6
:1027700002912E2B0ED116000A203278711C130004
:10278000303B092B06D8029B0E004343303BD31845
:102790000293F2E7042331780A0001369A43682A4B
:1027A00001D13178F8E7782909D86F290BD8632946
:1027B00067D017D8252969D0582900D195E00C9BFE
:1027C000002BA0DAA3E7703908000829F7D8FEF734
:1027D000BDF9A500F6FFF6FF9400F6FF8300F6FFB3
:1027E000F6FF8C006429EAD12B681A1D1B682A6049
:1027F000DA1798180393012350400493092849DC01
:10280000029B049A0593934200D20592002C05D0B6
:10281000039B002B01DB7B0700D5013C02231F42F9
:1028200002D0029B002B05D001231F4202D1002CB5
:1028300036D100240C9B0493002BC0DB039B002BA0
:102840003ADA2D215B42039309A8FFF7B9FE0C9BEE
:10285000002BB4DB03233B40022B05D1029B002B52
:1028600002D1002C2CD100240C9B0493002BA6DB5E
:102870000A22029B03990197009409A8FFF7C0FE62
:102880009DE72B6819681A1D2A60C9B209A8FFF7CD
:1028900097FE94E70A21FEF7EDF9049B0133ACE7BC
:1028A000059BA342C6D2202109A8FFF789FE0C9BF5
:1028B000013C002BBBDABDE77B07C8D52B21C3E762
:1028C000059BA342D0D2302109A8FFF779FE0C9BCB
:1028D000013C002BC5DAC7E70A22296801970B1DC6
:1028E0002B60029B00940968C7E7296801970B1DBC
:1028F0002B60029B00941022F5E72B681A1D2A60BA
:102900001C6821780134002900D158E709A8FFF795
:1029100057FE0C9B0293002BF3DA50E729680B1D3E
:102920002B600023019308330093E4E70B9A002AFD
:1029300003D006990798FFF7DDFD0C9B02930B9BD4
:102940000393039A029B944663440C93E4E60000CD
:1029500037B50E25FF350400280000F021FF0A20BE
:1029600000F04DFA280000F029FF0C2000F026FFAF
:10297000FA23084A9B0014700021019301230800E8
:102980000093054B01F054FF0400280000F008FFFD
:1029900020003EBD5801002038010020C02310B5A2
:1029A0008024854A9B001360844A64001360FEF70C
:1029B0000DFB834B20001C60824B1C60824B1C6013
:1029C00000F0EEFE642000F01AFA200000F0F6FE9F
:1029D000642000F014FA200000F0E2FE642000F011
:1029E0000EFAAE20FFF7B4FFA020FFF7B1FF722070
:1029F000FFF7AEFFA120FFF7ABFF0020FFF7A8FF16
:102A0000A220FFF7A5FF0020FFF7A2FFA420FFF7F9
:102A10009FFFA820FFF79CFF3F20FFF799FFAD2005
:102A2000FFF796FF8E20FFF793FFB020FFF790FF90
:102A30000B20FFF78DFFB120FFF78AFF3120FFF752
:102A400087FFB320FFF784FFF020FFF781FF8A2084
:102A5000FFF77EFF6420FFF77BFF8B20FFF778FFF7
:102A60007820FFF775FF8A20FFF772FF6420FFF7D9
:102A70006FFFBB20FFF76CFF3A20FFF769FFBE2016
:102A8000FFF766FF3E20FFF763FF8720FFF760FF39
:102A90000620FFF75DFF8120FFF75AFF9120FFF727
:102AA00057FF8220FFF754FF5020FFF751FF83208C
:102AB000FFF74EFF7D20FFF74BFFAF20FFF748FFEA
:102AC00042490020FFF730FD2620FFF741FF01209B
:102AD000FFF73EFF3E490020FFF726FD2520FFF7C8
:102AE00037FF0020FFF734FF0020FFF731FF5F20A2
:102AF000FFF72EFF3F20FFF72BFF36490020FFF79F
:102B000013FD8A20FFF724FFFF20FFF721FF8B2012
:102B1000FFF71EFFFF20FFF71BFF8C20FFF718FFBA
:102B2000FF20FFF715FFBB20FFF712FF3E20FFF746
:102B30000FFF8720FFF70CFF0F20FFF709FF812011
:102B4000FFF706FFFF20FFF703FF8220FFF700FFDC
:102B5000FF20FFF7FDFE8320FFF7FAFEFF20FFF7BF
:102B6000F7FEAF20FFF7F4FE2220FFF7F1FE002072
:102B7000FFF7EEFE0020FFF7EBFE5F20FFF7E8FE19
:102B80003F20FFF7E5FE0020FFF7E2FE3F20FFF7C2
:102B9000DFFE0020FFF7DCFE0020FFF7D9FE3F201C
:102BA000FFF7D6FE0020FFF7D3FE0B490020FFF70A
:102BB000BBFC002010BDC046209014542490145437
:102BC00034A014543090145400A01454C56500006F
:102BD000EE6500000D6600002B66000010B50020B9
:102BE00000F0FAFD10BD10B5002001F02DFD10BD64
:102BF00010B5002001F006FA10BD0000082310B542
:102C0000164A9178194202D091780B43937088212B
:102C100000222220124B49015A501249124C0870CE
:102C2000802012494002585019681148014019602B
:102C3000195910480840C0218904014319518021C5
:102C40000D4B1A7219767F391A7059700B490A7038
:102C50000C3299791142FCD110BDC04600D007401A
:102C60000070044000E00740041000004410000021
:102C7000FFFFF3FFFFFFFFF000400640005006405B
:102C80001249134810B5814205D00022114B9B0810
:102C90009B009A420FD1104B104A996000231049B3
:102CA0001048521A9A420AD100210F4B0F4AD21AE9
:102CB000013A08D210BD84588C500432E9E7CC5C4C
:102CC000C4540133EEE719700133F1E7000000004E
:102CD000000000000000000000ED00E0A46800001B
:102CE000AC67000000FEFF1FF8FEFF1F1802002067
:102CF000030041700020187058609860704710B54C
:102D0000437804000120FF2B08D000F0DDFA63783F
:102D10000133DBB2637000F0CBFA002010BD00205D
:102D2000704770B504000D0000F0CEFAE168294349
:102D3000E16000F0BDFA002070BD000000220A4BE7
:102D40009A641A0040329A631A0030329A621A006A
:102D500020329A611A0010329A60044A1360044BC0
:102D60009B60DB607047C0467C010020780100203A
:102D7000CC0100200022024B1A60186880B2704714
:102D80000C007C5070B5437804000D00002B0BD074
:102D9000002500F099FA6378013BDBB2637025707F
:102DA00000F086FA280070BD02200029FBD02378AD
:102DB000002B17D0FFF7DEFF6368A268834204D8B8
:102DC000C01A824206D30320EDE7C01A80235B02BB
:102DD000C018F6E700F078FA0023237000F068FAD4
:102DE0000220E0E74B1CEED000F06EFA01232370C6
:102DF00000F05EFAFFF7BEFFA5606060E3E770B524
:102E00000500FFF7B7FF802604007602FFF7B2FF48
:102E10000300844203D8031B9D42F7D270BD301BD0
:102E2000C318F9E710B5012801D100F04DFA10BD23
:102E300010B5012801D100F03BFA10BD10B5FFF725
:102E40007DFF01230020084A08491360084A094C05
:102E50001060086004212160074C216007490B6065
:102E600007490860136010BD38800450000084508A
:102E700000000450000004510400045104000C50F0
:102E80000000045310B5044C206021710020A260A2
:102E90002373637310BDC046DC0100200422F0B52B
:102EA00087B005AC3B4E0190029120706170337980
:102EB0000092834226D90022337B150073730123CD
:102EC0000092A3700393334F3B7BAB421DD8009B12
:102ED000002B02D0029B012B48D10120FFF7A2FF5B
:102EE0000C20019B002558433368181800F0D6F8D1
:102EF000019B012073710226FFF79AFFA6703B7BAE
:102F0000AB421AD8009807B0F0BDBA68AB009B5826
:102F1000002B0FD01A7903990A420BD020001A68AF
:102F200099689047002805D0029B7D73002B1BD029
:102F3000052300930135EDB2C5E7BA68AB009B5895
:102F4000002B0ED01A7932420BD020001A689968F3
:102F50009047002805D0029B7D73002B17D00623D5
:102F600000930135EDB2CAE7052300930023A37057
:102F7000013DEDB2FF2DC5D0064BAA009B68D3588A
:102F8000002BF5D020001A6899689047F0E70623D7
:102F90000093B7E7DC010020014B58797047C04629
:102FA000DC01002013B504000020217801900229E3
:102FB00020D0032922D0012925D1227901AB144840
:102FC00001F00AF9002814D1A3795A1E9341114A3D
:102FD000DB01137063785A1E93410F4A5B00137034
:102FE000A2780E4B1A70E2780D4B1A7062790D4B75
:102FF0001A7016BD0100227901ABE0E701A904486F
:1030000001F02CF9DEE701A9014801F0C9F8D9E780
:10301000004006401840865300408650004006504D
:103020000140065018401650084A43099B009B185F
:10303000F822C00512051040184380235B05184391
:103040000068431E9841C0B27047C04628800440C3
:10305000074A43099B009B18F822C005120510403F
:10306000184380235B051843002303607047C04664
:1030700028800440F821084A43099B009B18090551
:10308000C2050A4013438022520513431F221040F9
:103090001E3A82401A60704728800440072373B5A7
:1030A000009300230400104D1A000121280001F0B4
:1030B000BDFA2000FFF776FF637A28000093002313
:1030C000217A1A0001F0B2FAE379084A9B041360EE
:1030D000074BA17A1D68280001F0DCF82800E17A8E
:1030E00001F0E7F8002076BD0070044000700C5934
:1030F000A466000010B5054801F012F8044B1968E9
:10310000C9B20131FDF72CFD10BDC046004006409C
:1031100044801C5E10B5FFF7EDFF10BD10B50548EB
:1031200000F0FEFF044B1968C9B20131FDF718FD2C
:1031300010BDC046004006404480145810B5FFF74B
:10314000EDFF10BD0B4B1B68DBB2022B0CD0032B29
:103150000DD00020834206D1074A10688022120257
:10316000904200D018007047044B1868FBE7FA2023
:103170008000F8E700700C59080200200C020020C3
:1031800010B5FFF7DFFF10BD054B10B5186801F053
:1031900088F80023984201D0024B1B68180010BD2C
:1031A000A466000008020020044B01201B6810B533
:1031B000DBB2002B01D0FFF7E7FF10BD0480045203
:1031C00010B50C0012282AD8FDF7B6FC0A0A0A0F1F
:1031D000290F12152929181B292929291E22260001
:1031E000FFF788FF2060002010BDFFF797FFF9E789
:1031F000FFF7A8FFF6E7FFF7C7FFF3E70A4B2360E7
:10320000F1E7FFF7D1FFEDE7084800F089FFE9E7B4
:10321000064800F06FFFE5E7FA239B00EFE7002385
:1032200002202360E0E7C046006CDC02004006405C
:1032300010B5024B185CFFF71DFF10BD4B66000078
:1032400010B5024B185CFFF7EFFE10BD4B66000097
:1032500010B5BB20FFF7E8FE10BD10B57620FFF7D4
:1032600009FF10BD10B57620FFF7F2FE10BD10B5B6
:103270007620FFF7D9FE10BD10B56620FFF7FAFEE5
:1032800010BD10B56620FFF7E3FE10BD10B5662037
:10329000FFF7CAFE10BD10B59420FFF7C5FE10BDA4
:1032A00010B5024B185CFFF7BFFE10BD4D66000065
:1032B000044A1368002B04D0013B1360002B00D19B
:1032C00062B67047EC01002072B6024A13680133FF
:1032D00013607047EC01002010B5064C064801F061
:1032E00037FC042801D1002010BD013C002CF5D191
:1032F0000320F9E7EA03000000E0074010B50B4B9C
:103300000B490A78002A07D0084C0A4801F020FC33
:10331000012806D1002003E0013B002BF1D103205E
:1033200010BD013C002CF0D1F9E7C046EA030000D3
:1033300002D0075100E00740F7B507000E00150066
:1033400001200193002F15D0002913D0FFF76AFD4B
:10335000094C102200212000FDF7C0F927602671DA
:10336000002D03D0019BA560237363730120FFF739
:103370005FFD0020FEBDC046F0010020F0B5B14C5D
:103380008DB002900391237B01206373FFF74AFD08
:103390002379029A934206D80120FFF749FD0227BC
:1033A00038000DB0F0BD029A23689200D35809ACE2
:1033B0001D780193039B2A002372029B2370019BBB
:1033C000636002239A430492012A01D0052D0AD199
:1033D00001219D4801F010FB002807D10120FFF7D3
:1033E00027FD0127DCE70321072DF2D80123002761
:1033F00063723C000593934E337BA3422AD801208D
:10340000FFF716FD914800F0AFFE049B012B4AD157
:103410000138022835D9039B012B00D00DE1062786
:103420000120FFF7FFFC0023012609AD6B72013C70
:10343000E4B2FF2C00D1AFE0824BA2009B68D358CE
:10344000002BF4D01A793242F1D028001A6899681A
:103450009047ECE7B268A3009B58002B0ED01A7976
:1034600005990A420AD01A68996809A89047002865
:1034700004D0039B04277473012BC0D10134E4B240
:10348000B9E7FFF75BFE724B9842C4D8FFF732FEF4
:10349000704EB042BFD8FFF741FEB042BBD8FFF735
:1034A00039FEB042B7D8039B012B00D0C1E00A2DF2
:1034B00000D9BCE02800FDF73FFB060A0D1E879AE5
:1034C0007B822F737800002207AB1A702DE0032255
:1034D00007ABFAE75C4801F03BFB012808D000216C
:1034E000594801F099FAFFF709FF071E00D057E786
:1034F000012207ABE9E7544801F02AFB042808D071
:103500000221514801F088FAFFF7E6FE071E00D0BD
:1035100046E7042207ABD8E7072207AB1A80019AD7
:10352000D2789A70019A1279DA702B00083B022B3C
:1035300006D8019B06AA5B799372019B9B79D37293
:10354000019B5B78002B0AD0012D08D9019B022238
:103550009978414B00294DD019690A431A613A48BC
:1035600007A901F07DFA002800D00327002D45D1DE
:10357000FFF7C4FE071E00D012E700270120FFF767
:1035800051FC029B2F4D0024AB73022309AE7372D2
:1035900001932B7BA34236D80120FFF749FCFFE6BD
:1035A000082207ABFF321A80BFE72C4A07ABFAE7C5
:1035B000022207AB1A700222FF329A80B5E702227C
:1035C00007AB1A70264AF8E7022207AB1A70013AD5
:1035D0001D489A8001F0BCFA0128A6D000211A48A3
:1035E00001F01AFAFFF78AFE071E9ED0D8E60522E0
:1035F00007AB6AE7196991431961B0E7012DBDD1A5
:10360000FFF76AFEB6E7AA68A3009B58002B0BD011
:103610001A7901990A4207D030001A6899689047D0
:10362000002801D005276C730134E4B2B1E7032709
:10363000B6E6002F00D13AE7F2E6002F00D0EFE621
:10364000EDE6C046F001002000E0074000400640E3
:1036500040420F0080841E0000ED00E007030000E0
:103660000102000010B5064801F072FA03000020C4
:10367000012B03D00B30042B00D10A3810BDC046FB
:1036800000E00740F7B5FF2403681D4A1E0A2640E4
:103690001C40B3009F581B4A05009B583000019303
:1036A000FFF7C6FD00222100380001F059FA019B06
:1036B000A400E41884232A795B05234352001A608E
:1036C00080236A795B0523431A609023AA795B05FE
:1036D000234312011A600C4B1C43EB791B0423603B
:1036E000EB79002B0AD0094B9B57002B06D01F22E9
:1036F00013401E3A9A401300054A1360F7BDC046B6
:10370000A8660000B066000000001818B866000047
:1037100000E100E0F8B5FF2405000368114A180A2B
:1037200020401C4083009F580F4A9E58FFF780FDA1
:1037300038002100012201F013FA6A6821003800E4
:1037400001F01DFA88232A7AA400A4195B052343FB
:1037500092001A6098235B051C436B7A9B012360DF
:10376000F8BDC046A8660000B066000070B50C0049
:10377000002807D1002C0FD170BD05000835FFF7D8
:1037800081FF280003680133F7D1F3E7250020000B
:103790000C35FFF7BFFF2C0023680133F6D1EBE7B0
:1037A000FF22030A044913409B005958012310408B
:1037B00083404B607047C046A8660000FF22030AA2
:1037C000044913409B0059580123104083408B60EB
:1037D0007047C046A8660000084B8200D258942368
:1037E00010B502325B0513431B78002B02D000F0AA
:1037F0003FFA10BD00F092FAFBE7C04650660000A9
:10380000020080230C325B0513431A78002AFCD097
:103810000171704770B50D00084B8000C45820003E
:1038200029001830FFF7AEFA0328F8D0002801D09D
:1038300004232374207CC0B270BDC0460002002067
:1038400010B5104B8000C458E37C002B05D0237CBE
:10385000052B02D0237C042B0BD10B4B185898233B
:10386000821C5B05134300221A7001F0F7F9012353
:103870006374A37C002B03D020001830FFF73FFABD
:1038800010BDC0460002002050660000F0B51700D1
:10389000002289B005930EAB1B78050003938300CB
:1038A00032481E5832481C5807AB1A80A37C880A3D
:1038B00004930223FF3363828B0A0193CBB21E2849
:1038C00001D11A000B0A5B00D8B2019B00211E2B0C
:1038D00005D08F4203D1012303995B1A59B20143EA
:1038E000CBB202930299019807AB197001211E28EF
:1038F00001D15A704918A3603000E1600299FFF7C6
:103900007FFF28000F99FFF785FF237C002B0CD148
:10391000002F0AD0059BA760E36030003978FFF7DD
:103920006FFF28000F99FFF775FF237C039A1A4356
:1039300014D1019B1E2B01D0002F0FD00023012793
:103940003000A360E76001F077F902993000394355
:10395000FFF756FF28000F99FFF75CFF0023207C3C
:10396000E374049BC0B2A37409B0F0BD50660000BC
:1039700000020020F7B583000193184B8200D7584E
:1039800005000C000126002F26D1154B3900D35815
:10399000200024220193FCF7A1FE200039001830FA
:1039A000FFF7A6F92800FFF767FC019801F0EFF890
:1039B0000A4BAA00D4501F220A4B5B5D1340320011
:1039C0009A40094B1A609C22019B52050233134313
:1039D000802266743E001A703000FEBD0002002096
:1039E000506600005466000000E100E0F7B50E4E9E
:1039F0008500AB59002701930C4B0400EA589C2327
:103A000002325B0513431F70FFF73BFC084B019824
:103A10001A5D1F231A401E3B9340064A1830D36795
:103A2000FFF77DF9AF51F7BD00020020506600009E
:103A30005466000004E100E00A4B800070B5C558F0
:103A40004B686A690C0093420BD0074BC658FFF7CE
:103A500065FB002301006268300001F0A7F863688D
:103A60006B6170BD0002002050660000F0B587B0A9
:103A700004920593334A0FAB1E7883009C58039140
:103A8000627C0700002A03D10320207407B0F0BD38
:103A9000002E01D11E220E922B4A3800D558002349
:103AA0000399E360A360237423606374A674FFF733
:103AB000C3FF90231021AA1C5B05134319708423B4
:103AC000E91C5B050B430221197098235B05134326
:103AD00002934023029A2800137001F0ADF8039B73
:103AE000380019880E9B049A019301230093059BCB
:103AF000FFF7CCFE0D9B002B17D0237C002B11D1A0
:103B00000C9B2800A3600D9BE3600C9B1978FFF7CA
:103B100077FE002E03D038000E99FFF77BFE207C45
:103B2000C0B2B3E7237C042BF9D100230126029A0B
:103B30001370EB785B09334202D0280001F08EF855
:103B40006674ECE70002002050660000F0B589B012
:103B5000079311AB1B780692364A029383009C5858
:103B60000591627C0600002A03D10320207409B06D
:103B7000F0BD029A002A01D11E32109200272E4A6F
:103B80000599D5580E9B300023600F9BA76063609A
:103B9000029BE760A37427746774FFF74DFF9023BF
:103BA000AA1C5B051A4310231370842304925B053F
:103BB000EA1C134302221A709823AA185B051A43C1
:103BC000402328001370039201F036F8059B069AF3
:103BD0001988109B300001930097079BFFF756FE52
:103BE000237CDAB2BB4215D1049BA91C1A708C232A
:103BF0005B050B430F99012900D108221A702B791C
:103C0000029B002B03D030001099FFF703FE207CAD
:103C1000C0B2ACE7237C042BF9D10126039B1F70B3
:103C2000EB785B09334202D0280001F017F8667484
:103C3000EDE7C04600020020506600001FB50124D9
:103C40000394089C0294079C0194069C0094FFF73F
:103C50000DFF04B010BD1FB501240394089C02940D
:103C6000079C0194069C0094FFF770FF04B010BD00
:103C7000244B70B58400E5588423EA1C5B0513438C
:103C800002221A709023A9185B050B431B78EA786F
:103C9000DBB292061DD5942252050A431278002AFF
:103CA00017D0194AA458012B14D1EA781A4204D02B
:103CB00004332374FFF7C4FD0BE0E368013BE360CA
:103CC000002BF7D0A36828005A1CA2605978FFF790
:103CD00097FD70BD6268013A6260002A06D08C23AD
:103CE0005B05012A0AD000220B4309E0FFF7A8FD7B
:103CF00023685A1C22602A791A70EAE708220B43CB
:103D00001A70F5E75066000000020020C31C8420F2
:103D10004005184302230370704700000122F0B5EC
:103D2000904B8100CD5889B0EB1C0193EB78902625
:103D30001B091A4005920122EB7876059B091A406F
:103D400002923200AB1D1A43944612780090D2B210
:103D50000792942252051A431278AF1CD0B20390F6
:103D60009820400503431878C0B206907E480C584E
:103D70003100394301910978C9B20491002A35D044
:103D8000079A002A0ED01023624628001370FFF70E
:103D9000BDFF236B002B52D06A4601211078626B65
:103DA00098474CE0069A002A20D0402228001A703A
:103DB000FFF7ACFF23002C331B78002B03D1982294
:103DC000520517433B70236B002B04D06A468021B9
:103DD0001078626B9847E37D002B04D0200080218F
:103DE0001830FEF79EFF0A23237028E02800FFF713
:103DF0008DFF059B002B24D0EB1C1E43102333703A
:103E0000029B002B10D0EB785B07DA0F002B48DB0E
:103E1000019B1A70236B002B04D06A460421107892
:103E2000626B98472B790AE0082323702C3423789F
:103E3000002B04D198235B051F43029B3B7009B004
:103E4000F0BD029B002BDED1049B012B54D1EB78FB
:103E5000049A134230D0019B029A1A702B792300E6
:103E60002C331B78002B07D1039B002B04D1982304
:103E70005B051F43039B3B70236B002B04D06A46FA
:103E800008211078626B9847A37D002B04D0200096
:103E900008211830FEF745FF00236360E3602375B7
:103EA000CDE71023019A1370236B002B04D06A46D0
:103EB00002211078626B98476368002B50D028006D
:103EC0008022E3680C3052051978024310780028EC
:103ED000FCD029710133E3606368013B6360636870
:103EE000002BACD1E3602375236B002BA7D06A466F
:103EF00010211078626B53E72B79A268DBB2002A9D
:103F00002CD022691370236901332361A368013B1C
:103F1000A360A368002B00D091E7039B002B11D175
:103F200023002C331B78002B04D198235B051F43FF
:103F3000039B3B70E37D002B04D020002021183030
:103F4000FEF7EFFE002363752361236B002B00D186
:103F500075E76A4620211078626B21E7072343E763
:103F6000062341E75066000000020020042902D029
:103F7000072907D07047902303305B0518431023AF
:103F80000370F7E79C2303305B0518438023F7E7B2
:103F9000DC2270B50024094B8000C558084B52053F
:103FA000C35808331A431460AA7CA24203D02800E5
:103FB0001430FEF7A4FE2C7470BDC046040200202D
:103FC000586600000C4B800070B5C5580B4B0024A0
:103FD000C058D42302005B05083213431C60220042
:103FE000074900F05CFEEB7CA34203D028002030A0
:103FF000FEF785FE6C7470BD040200205866000058
:104000001B000200F8B52B4A83009C580600227C56
:10401000002A02D1627C002A3ED0274AD558DC23F0
:104020002F005B051A0008373A431268002A15D0A2
:104030002A1D13431B68002B10D0A368002B0DD042
:1040400023681A780133EA602360A368013BA36008
:10405000A368002B02D13000FFF79AFFD4235B0541
:104060001F433A68002A0DD02A1D13431B68002BFA
:1040700008D0EB6862681370E36A002B0DD0210052
:104080003000984728000D4900F04AFE002803D070
:1040900028000A4900F048FEF8BD636801336360F8
:1040A000E368013BE360E368002BEBD13000FFF7EE
:1040B00089FFE7E7040200205866000013000100B2
:1040C00084225205024312780300D0B2002A0CD099
:1040D000802001334005034318780138434258419A
:1040E000024B40421840024BC0187047808D5B0065
:1040F00080841E00020070B5074B083213431C7801
:10410000064B103213431D78FFF7DAFFEDB2E4B22D
:104110006419E04070BDC04600009010000010100F
:1041200010B50D4B821D13431A780400D3B2002A38
:104130000FD0012B07D1FFF7C3FF084B08341C43F6
:104140002378D84010BD0020022BFBD1044B186807
:10415000F8E70448F6E7C046000008110000901098
:1041600008020020006CDC020C4A811D0A43127810
:104170000300D0B2012A04D002280BD000280BD1B2
:10418000704780220133520513431B78002BF7D16F
:104190000220F5E70320F3E70520F1E7000008110E
:1041A00002009C2318325B05134380221A70002200
:1041B000064B03431A70064B063018430378DAB2F5
:1041C000002BFBD1034B10000B607047000008135D
:1041D00000000811006CDC02F8B504000D001600A8
:1041E0001F00FFF7C1FF012823D1002D25D0802318
:1041F000621C5B0513431D70842302225B0523436D
:104200001A702200104B083213437200D2B21A7097
:1042100040220E4B0E48234306341A700443237881
:10422000012BFCD1002D0DD10A4B334100203B6006
:10423000F8BD0228DBD1012DD9D139002000FFF7CC
:10424000AFFFD4E7044BF0E7000090100000081324
:104250000000081180841E0000127A0010B50A4C7C
:10426000030022680120002A0CD0084A7F301A433C
:1042700010700748063303431A78022AFCD1002045
:1042800023680B6010BDC046080200200000081320
:10429000000008119C23C9015B050343C9B21970D2
:1042A00070479C235B0503431878431E9841C0B2B6
:1042B0007047942349015B050343C9B219707047E5
:1042C00070B506680C0030002049FCF749FC1F4916
:1042D00005003000FCF7CAFC0E00E12130000901A6
:1042E000FCF73EFCE121E08009013000FCF7BEFC58
:1042F0000E003C213000FCF733FC3C2120813000D3
:10430000FCF7B4FC6E22A1720321114BFF32238013
:10431000238895420AD80F499B0700D10E490123F3
:10432000CA5CAA420CD36380A58070BD01339BB2E6
:1043300023800B40AD1A5A425A416E32FF32E7E7F2
:104340000133AD1A0D2BEBD1EEE7C04680510100D1
:10435000B2070000846600005C6600000188114A14
:1043600003008A18002030B5812A17D85A88541EB5
:104370000B2C13D89C88651E1E2D0FD8DD88172D99
:104380000CD81D893B2D09D89B7A3B2B06D88B076F
:1043900005D0054B9B5CA3424041C0B230BD034BEE
:1043A000F8E7C0464EF8FFFF846600005C66000038
:1043B00070B5134D838802885B196E25FF35554310
:1043C00044885B1995085B190E4D6600755B5B1997
:1043D000920710D00B600A680B4BC4885343827A53
:1043E00000899B18E122120162439B183C22424340
:1043F0009B180B6070BD022CECD8013BEAE7C0466D
:104400004A05F5FF6A660000805101008023084AD2
:104410001B0212689A4209D1A02310305B05184391
:104420000368002B02D10133FF3303607047C0469D
:10443000080200200100802210B50023012452054B
:10444000103111430C600B609021436049050460FA
:104450001C3001430B608821490501430B60842116
:104460004905014310430B60036010BD0200902317
:1044700014325B05134300221A604260103201605F
:104480001A60704703680B6070470000104B820091
:1044900070B5D558802204000E4B92051A60280092
:1044A000FFF7C8FF2800FFF7B1FF0B4B1F261A5D6F
:1044B0000123180009493240095DC0253140904070
:1044C0008B40074A6D00505153511060136070BD0E
:1044D000946600003C80845E986600009966000047
:1044E00000E100E0F7B50027114B8000C558080037
:1044F0000E000197FFF732FF0400B84216D001A961
:104500003000FFF755FF3800FEF73AFE010080202B
:104510000002814206D0FCF723FB01000198FCF762
:104520001FFB019028000199FFF7A0FF2000FEBDAE
:1045300094660000F7B50025124B8000C4580E00A9
:10454000200001A90195FFF79DFF2800FEF718FE46
:1045500005008020000285420ED00B4B2900043458
:104560001C43FCF7FDFA2768019C29004443B8B2BC
:10457000FCF7F6FA24180194310001A8FFF7A0FE19
:10458000F7BDC0469466000000007810F0B5002723
:10459000184B800085B0C55808000E0001920397A3
:1045A000FFF7DCFE0400B84203D10024200005B070
:1045B000F0BD300003A9FFF7FBFE38002E68FEF7C0
:1045C000DFFD010080200002814206D0FCF7C8FA1E
:1045D00001000398FCF7C4FA0390039BB342E4D3B1
:1045E000AB6088231C355B051D43019B9A002A6044
:1045F000DCE7C04694660000044B8000C258882364
:104600001C325B05134389001960704794660000F3
:10461000054B8000C258882314325B051343186889
:10462000431E9841C0B27047946600006B46E0227A
:104630001B78D2021B041340024A09070B4380185F
:104640000360704744100000084B8200D25890234A
:1046500010B503325B0513431B78002B02D000F02A
:1046600013F910BD00F078F9FBE7C0469C66000026
:104670009C210C4B0C4A8000C35882580020033206
:104680004905114310B518710870942149050A4372
:1046900010701A7F824203D020331800FEF72FFBE0
:1046A00010BDC046100200209C660000F7B50C004B
:1046B00005001B4B3022002187002000FE58FCF72C
:1046C0000DF82800FEF7C9FDFEF728FD2060300038
:1046D00000F080FB200000212030FEF709FBF31CD6
:1046E00001939023F21C5B051343102230001A70D3
:1046F000032100F0ADFB3000002100F0CEFB094BA0
:10470000FC50094B5A5D1F231A401E3B9340074A39
:1047100013609823019A5B05134340221A70F7BD7A
:104720009C66000010020020A066000000E100E08E
:10473000F8B50D4E85000D4BAF590400E85800F058
:1047400049FB38002030FEF7EAFA094B20001A5DD9
:104750001F231A401E3B9340064AD367FEF782FD93
:104760000023AB51F8BDC046100200209C6600003B
:10477000A066000004E100E00A4B800070B5C65856
:10478000094B0C00C358150030001A68096800F086
:1047900028FB2860A37930006279217900F06AFB58
:1047A00070BDC0469C66000010020020F7B51E4A8E
:1047B00083009C58050022790420002A16D11B4A48
:1047C0009E58002903D0280001AAFFF7D5FF98239F
:1047D00000214020F21C5B051343197018702769F3
:1047E0008F4204D12800FFF743FF0020FEBD0123C4
:1047F000237194235B05A16133431B780720002BB1
:10480000F4D0A368191E02D019780133A360B171E6
:104810002369013B2361A3690133A3619C235B05E9
:104820001A4380231370E0E7100200209C6600000A
:10483000F8B5134F134C85002C59ED590127069EEE
:104840002777A2602661E3606661FFF7AFFF00286B
:1048500014D1200007992030FEF794FA0328F8D0ED
:1048600000280BD09C23002203355B052B432271CB
:104870001A70942303205B051D432A70F8BDC046BF
:104880009C6600001002002010B51E4B8200D35819
:104890001979002934D01C4951585A69002A11D07D
:1048A0009C2252050A431278002A0BD08A79DC68D0
:1048B000D2B2002C03D02270DA680132DA605A6971
:1048C000013A5A611A69002A12D0942252050A4309
:1048D0001278002A0CD09A68141E02D01478013283
:1048E0009A608C711A69013A1A619A6901329A6167
:1048F0001A69002A04D15B69002B01D1FFF7B8FEC9
:1049000010BDC046100200209C660000104A8000C6
:10491000815800220F4B10B5C3580331581CC27781
:104920009C2040050843DA621A701A835A629A6220
:104930001A6302709420400501430A701A0038324D
:104940001278002A03D00121181DFEF7EAF910BDE4
:104950009C6600001002002070B5254B8200D358E1
:10496000591CC97F002942D022495258D96A0029CE
:1049700017DB9421490511430978002911D0D96921
:10498000CCB2596A002905D0DD6A002D02DD0C7811
:10499000013159629471D96A0139D962596B013177
:1049A0005963D96A002905DA9421D41C49052143A9
:1049B00000240C70196B002911DD9C21490511435D
:1049C000097800290BD09279996AD2B2002903D0D4
:1049D0000A709A6A01329A621A6B013A1A63DA6AA9
:1049E000002A04DC1B6B002B01DCFFF78FFF70BD7E
:1049F000100200209C660000012903D0032909D081
:104A00000020704794235B0518430078431E9841AB
:104A1000C0B2F6E78423F6E7431C03484901184374
:104A2000C9B201707047C04600008812831C9420F0
:104A3000490140051843C9B201707047831C0348FF
:104A400089011843C9B201707047C04600000813BD
:104A5000831C8C20C90040051843C9B201707047FF
:104A6000F7B50400364EE31C1E43337808780D007A
:104A7000DBB2072860D8FCF75FF804192B0E192B5E
:104A80002B45304B01341C43002323703378012B1A
:104A9000FCD10020FEBD012BFCD12A4B01341C436C
:104AA000402323703378042BFCD1F2E70021012846
:104AB00001D004200231337898423FD12000FFF723
:104AC000ABFF0421204A13698B43136130BFE0E739
:104AD0000227B84207D100270B79BB4203D0200040
:104AE0004979FFF7ABFF194B01341C43277033782A
:104AF000154ADBB20193019B013301930423116931
:104B00000B43E2E70421114B621C1A4311706A78CF
:104B1000A11C0B431A70002A06D1AB78002B03D0DE
:104B20002000E978FFF782FFAB79002BDFD020006F
:104B3000E979FFF78DFFDAE70120ABE70320A9E76A
:104B4000000030100000881200ED00E0000010109E
:104B5000C31C024818430078C0B2704700003010F0
:104B6000012314308B40012A04D180221205104306
:104B7000036070478022D204DB431043F8E701232F
:104B80008B40002A01D0436070478360FCE700231C
:104B9000C222037043708370C37043718371C37109
:104BA000037242728372C37270470000F0B5002432
:104BB00087B00293FA230126270025009B00534368
:104BC00003900491009301947642AB000593194B36
:104BD000AA009B1859880498A140FBF7C1FF009BCD
:104BE000009AC31A824200D9131AB3421FD2114A43
:104BF000A900525C27000192002B02D00135322D12
:104C000013D10134032C01D0002B0DD1029A002ABC
:104C100000D013603F220199BB0111400B43039A5E
:104C2000DBB2537007B0F0BD00251E00CDE73300A6
:104C3000E4E7C046BA660000942302305B050343F4
:104C40001B78002B05D088235B05184304230370D1
:104C5000704780231B0518433023F8E7942210B5D2
:104C60005205841C224311780300CAB20220012994
:104C70000DD18021C90421438024CD300870E40087
:104C800003331978490908001040114200D110BDC2
:104C9000013C002C01D0C046F3E70920F7E70123CF
:104CA00010B58B400400080C04280AD8FBF744FF19
:104CB000030E14171A008020002A03D000050443B5
:104CC000236010BDC004DB430443F9E7201D8024AA
:104CD000002A0AD02405F2E720000830F7E7200078
:104CE0000C30F4E720001030F1E7E404EBE70200B9
:104CF000002300B5080C042808D80133FBF71CFF7B
:104D000003080A0C0E001068C8400340180000BDDC
:104D10005068F9E79068F7E7D068F5E71069F3E7BE
:104D200010B5FFF7E4FF10BD294A0300881800B54D
:104D300010284BD8FBF700FF433C27201912094AE3
:104D40004A4A4A2E4A4A4A4A3500D0208022043331
:104D500040050343520300201A6000BDCC2080228E
:104D60000433400503431203F5E7C82080220433CF
:104D700040050343D202EEE7C420802204334005FD
:104D800003439202E7E7C020802204334005034337
:104D90005202E0E7FC208022043340050343120660
:104DA000D9E7F8208022043340050343D205D2E737
:104DB000BC2080220433400503431202CBE7B82015
:104DC0008022043340050343D201C4E70320C4E733
:104DD000F2FFFEFF0423C37000238370437003714E
:104DE0007047F0B5130B89B0012603930823012403
:104DF000764202939B190790049105920193022732
:104E00000025631E0693210005987943FBF7A8FE51
:104E1000049B834207D31B1AB34204D21E00069B95
:104E200003900295019301357F00092D01D0002EDA
:104E3000E9D1082C02D00134002EE0D1019B029A66
:104E40001B0103981343079ADBB2537009B0F0BDFE
:104E5000842310B50224C21C5B0513434A00224080
:104E60001A70902300195B0518431023C9001940DC
:104E7000017010BD10B58C2403306405C9000443D3
:104E8000C9B221708821920049050143D2B20A704B
:104E9000802252051043037010BD8023012202308E
:104EA0005B0503430A401A708C235B0518430823F3
:104EB000890019400170704704FEFF1F09675761A0
:104EC0007270537069436F6D6D6F6E53696E6B4294
:104ED00075666665725B25645D203D205B307825D4
:104EE0003032585D0A00776172705365744C6F7789
:104EF000506F7765724D6F6465286B5761727050A3
:104F00006F7765724D6F6465564C50532C2030207E
:104F10002F2A20736C656570207365636F6E6473F0
:104F2000203A20697272656C6576616E74206865DE
:104F30007265202A2F292829206661696C65642EF4
:104F40002E2E0A000D0A0A0A0A5B202A09090909FD
:104F50005761727020284857207265766973696FAF
:104F60006E204329202F20476C61757820284857F0
:104F7000207265766973696F6E2042290909092AD2
:104F8000205D0A000D5B202009090909202020204E
:104F9000202043616D627269646765202F2050682C
:104FA0007973636F6D706C616220202009090909B3
:104FB00020205D0A0A000D5B202009090909202034
:104FC000202020203442323520436F75727365777C
:104FD0006F726B202D204C656F6E204272696E647B
:104FE0006C65792020200909090920205D0A0A0042
:104FF0000D09537570706C793D25646D562C09440C
:10500000656661756C7420546172676574205265C1
:1050100061642052656769737465723D307825302C
:1050200032780A000D094932433D25646B622F73C3
:105030002C095350493D25646B622F732C0955414F
:1050400052543D2564622F732C0949324320507518
:105050006C6C2D55703D25640A0A000D0953494DAD
:105060002D3E53434743363D307825303278090989
:105070005254432D3E53523D307825303278090941
:105080005254432D3E5453523D3078253032780AE5
:10509000000D094D43475F43313D3078253032786C
:1050A0000909094D43475F43323D30782530327856
:1050B00009094D43475F533D3078253032780A0067
:1050C0000D094D43475F53433D3078253032780911
:1050D00009094D43475F4D433D307825303278090B
:1050E000094F53435F43523D3078253032780A00F0
:1050F0000D09534D435F504D50524F543D3078256C
:10510000303278090909534D435F504D4354524C96
:105110003D30782530327809095343422D3E5343C0
:10512000523D3078253032780A000D09504D435FEA
:1051300052454753433D30782530327809090953A9
:10514000494D5F53434743343D3078253032780929
:105150005254432D3E5450523D3078253032780A17
:105160000A000D0925647320696E205254432048BB
:10517000616E646C657220746F2D646174652C09B6
:10518000256420506D6772204572726F72730A0039
:105190001B5B306D1B5B343B34336D1B5B313B332E
:1051A000376D0D53616E69747920636865636B2098
:1051B0006661696C6564211B5B306D0A000D093006
:1051C0007825303278202D2D3E205B307825303206
:1051D0007820307825303278203078253032785D6C
:1051E0000A000D09307825303278202D2D3E2030F0
:1051F00078253032780A000D093078253032782051
:105200002D2D3E202D2D2D2D0A000D0A0925642F50
:105210002564207375636365737320726174652EF2
:105220000A000D0925642F25642073756363657377
:10523000736573206D617463686564207265662EA2
:105240002076616C7565206F662030782530327865
:105250002E0A000D0925642062616420636F6D6D64
:10526000616E64732E0A0A0041626F757420746F58
:10527000207377697463682043505520746F2056FB
:105280004C5052206D6F64652E2E2E200077617277
:10529000705365744C6F77506F7765724D6F6465AE
:1052A000286B57617270506F7765724D6F646556E9
:1052B0004C50522829206661696C65642E2E2E0A96
:1052C00000646F6E652E0A0D0041626F7574207464
:1052D0006F204750494F5F4452565F496E697428AA
:1052E000292E2E2E200041626F757420746F206C61
:1052F0006F77506F77657250696E53746174657320
:1053000028292E2E2E2000426F6F7420646F6E6548
:105310002E0A00507265737320616E79206B657977
:1053200020746F2073686F77206D656E752E2E2E3A
:105330000A000A43616C6C696E672064657653539A
:105340004431333331696E69742829206E6F772EAA
:105350000A000A46696E69736865642063616C6C53
:10536000696E672064657653534431333331696E17
:10537000697428292E0A000D53656C6563743A0A16
:10538000000D2D202761273A20736574206465661F
:1053900061756C742073656E736F722E0A000D2D2B
:1053A000202762273A2073657420493243206261C6
:1053B000756420726174652E0A000D2D2027632705
:1053C0003A207365742053504920626175642072DD
:1053D0006174652E0A000D2D202764273A2073651D
:1053E0007420554152542062617564207261746565
:1053F0002E0A000D2D202765273A2073657420643E
:10540000656661756C742072656769737465722076
:10541000616464726573732E0A000D2D2027662760
:105420003A207772697465206279746520746F2000
:1054300073656E736F722E0A000D2D202767273A51
:10544000207365742064656661756C742073656E85
:10545000736F7220737570706C7920766F6C7461E5
:1054600067652E0A000D2D202768273A20706F7778
:105470006572646F776E20636F6D6D616E6420740A
:105480006F20616C6C2073656E736F72732E0A00EF
:105490000D2D202769273A207365742070756C6C78
:1054A0002D757020656E61626C652076616C756526
:1054B0002E0A000D2D20276A273A2072657065613B
:1054C00074207265616420726567203078253032FF
:1054D00078206F6E2073656E736F72202325642EA3
:1054E0000A000D2D20276B273A20736C656570200C
:1054F000756E74696C2072657365742E0A000D2DCB
:1055000020276C273A2073656E6420726570656190
:105510007465642062797465206F6E204932432E71
:105520000A000D2D20276D273A2073656E642072C6
:10553000657065617465642062797465206F6E20A2
:105540005350492E0A000D2D20276E273A20656EF4
:1055500061626C652073656E736F72207375707015
:105560006C7920766F6C746167652E0A000D2D20B2
:10557000276F273A2064697361626C652073656EDA
:10558000736F7220737570706C7920766F6C7461B4
:1055900067652E0A000D2D202770273A2073776942
:1055A00074636820746F20564C5052206D6F646590
:1055B0002E0A000D2D202772273A20737769746315
:1055C0006820746F2052554E206D6F64652E0A005E
:1055D0000D2D202773273A20706F77657220757024
:1055E00020616C6C2073656E736F72732E0A000DF0
:1055F0002D202774273A2064756D702070726F63B8
:105600006573736F722073746174652E0A000D2DBB
:10561000202775273A20736574204932432061643E
:1056200064726573732E0A000D2D202778273A20A7
:1056300064697361626C652053574420616E642015
:105640007370696E20666F722031302073656373EA
:105650002E0A000D2D20277A273A2070657270657A
:105660007475616C6C792064756D7020616C6C2050
:1056700073656E736F7220646174612E0A000D454C
:105680006E7465722073656C656374696F6E3E201D
:10569000000D0953656C6563743A0A000D092D20ED
:1056A000273127204144584C333632090909283024
:1056B0007830302D2D30783244293A20312E36562C
:1056C000202D2D20332E35562028636F6D70696C88
:1056D0006564206F757429200A000D092D2027327A
:1056E0002720424D58303535616363656C200909C8
:1056F00028307830302D2D30783346293A20322E1C
:105700003456202D2D20332E36562028636F6D7091
:10571000696C6564206F757429200A000D092D20BD
:1057200027332720424D583035356779726F090984
:105730000928307830302D2D30783346293A203200
:105740002E3456202D2D20332E36562028636F6D93
:1057500070696C6564206F757429200A000D092D2D
:105760002027342720424D583035356D61670909AF
:105770000928307834302D2D30783532293A2032CE
:105780002E3456202D2D20332E36562028636F6D53
:1057900070696C6564206F757429200A000D092DED
:1057A00020273527204D4D4138343531510909091D
:1057B00028307830302D2D30783331293A20312E71
:1057C000393556202D2D20332E36560A000D092D41
:1057D00020273627204C50533235480909092830F4
:1057E0007830382D2D30783234293A20312E375602
:1057F000202D2D20332E36562028636F6D70696C56
:105800006564206F757429200A000D092D20273743
:1058100027204D414733313130090909283078308C
:10582000302D2D30783131293A20312E393556201E
:105830002D2D20332E36562028636F6D70696C65D0
:1058400064206F757429200A000D092D2027382740
:10585000204844433130303009090928307830304D
:105860002D2D30783146293A20332E3056202D2DDB
:1058700020352E30562028636F6D70696C6564206A
:105880006F757429200A000D092D20273927205310
:10589000493730323109090928307830302D2D3020
:1058A000783046293A20312E3956202D2D20332E9E
:1058B00036562028636F6D70696C6564206F75744F
:1058C00029200A000D092D20276127204C33474449
:1058D00032304809090928307830462D2D30783388
:1058E00039293A20322E3256202D2D20332E36568D
:1058F0002028636F6D70696C6564206F7574292052
:105900000A000D092D2027622720424D45363830E8
:1059100009090928307841412D2D30784638293A37
:1059200020312E3656202D2D20332E36562028633A
:105930006F6D70696C6564206F757429200A000DA5
:10594000092D202764272054435333343732350937
:10595000090928307830302D2D30783144293A200B
:10596000322E3756202D2D20332E33562028636FAC
:105970006D70696C6564206F757429200A000D09CB
:105980002D20276527205349343730350909092848
:105990006E2F61293A2020202020202020322E370F
:1059A00056202D2D20352E35562028636F6D7069B9
:1059B0006C6564206F757429200A000D092D20275D
:1059C000672720434353383131090909283078309B
:1059D000302D2D30784646293A20312E3856202D4C
:1059E0002D20332E36562028636F6D70696C6564E8
:1059F000206F757429200A000D092D2027682720A3
:105A0000414D473838333409090928307830302D72
:105A10002D3F293A20332E3356202D2D20332E337F
:105A2000562028636F6D70696C6564206F757429EA
:105A3000200A000D092D20276A27204153373236CE
:105A40003209090928307830302D2D30783242293A
:105A50003A20322E3756202D2D20332E3656202830
:105A6000636F6D70696C6564206F757429200A001E
:105A70000D092D20276B2720415337323633090972
:105A80000928307830302D2D30783242293A2032B2
:105A90002E3756202D2D20332E36562028636F6D3D
:105AA00070696C6564206F757429200A000D0945C2
:105AB0006E7465722073656C656374696F6E3E20E9
:105AC000000D09496E76616C69642073656C6563CD
:105AD00074696F6E202725632720210A000D0A09AB
:105AE0005365742049324320626175642072617489
:105AF0006520696E206B6270732028652E672E2CDE
:105B000020273030303127293E20000D0A09493244
:105B1000432062617564207261746520736574202E
:105B2000746F202564206B622F73000D0A09536582
:105B3000742053504920626175642072617465203D
:105B4000696E206B6270732028652E672E2C2027CB
:105B50003030303127293E20000D0A0953504920AA
:105B60006261756420726174653A202564206B62FD
:105B70002F73000D0A095365742055415254206259
:105B8000617564207261746520696E206B62707348
:105B90002028652E672E2C20273030303127293ED3
:105BA00020000D0A0955415254206261756420722B
:105BB0006174653A202564206B622F73000D0A0919
:105BC000456E74657220322D6E7962626C6520724A
:105BD00065676973746572206865782061646472B2
:105BE0006573732028652E672E2C2027336527299F
:105BF0003E20000D0A09456E7465726564205B30B5
:105C000078253032785D2E0A0A000D0A09456E7437
:105C100065722049324320616464722E2028652E0B
:105C2000672E2C202730662729206F7220273939CC
:105C30002720666F7220535049203E20000D0A092C
:105C4000456E7465726564205B3078253032785D0E
:105C50002E0A000D0A09456E746572206865782069
:105C60006279746520746F2073656E642028652ED8
:105C7000672E2C2027306627293E20000D0A095365
:105C80005049207772697465206661696C65642E7D
:105C9000204144584C3336322044697361626C654C
:105CA00064000D0A094932432077726974652066E1
:105CB00061696C65642C206572726F722025642E98
:105CC0000A0A000D0A094F766572726964652073CD
:105CD000656E736F7220737570706C7920766F6C5F
:105CE0007461676520696E206D562028652E672EC9
:105CF0002C20273138303027293E20000D0A094F4B
:105D0000766572726964652073656E736F72207355
:105D10007570706C7920766F6C746167652073653F
:105D20007420746F202564206D56000D0A094E4FB3
:105D300054453A20466972737420706F77657220FB
:105D400073656E736F727320616E6420656E61623D
:105D50006C65204932430A0A000D09506F7765725D
:105D6000646F776E20636F6D6D616E642061626138
:105D70006E646F6E65642E20424D58303535206458
:105D8000697361626C65640A000D09506F77657212
:105D9000646F776E20636F6D6D616E642061626108
:105DA0006E646F6E65642E204C3347443230482059
:105DB00064697361626C65640A000D09506F7765F0
:105DC00072646F776E20636F6D6D616E64206162C7
:105DD000616E646F6E65642E2054435333343732E2
:105DE000352064697361626C65640A000D0A0941BB
:105DF00075746F2D696E6372656D656E7420667261
:105E00006F6D2062617365206164647265737320D5
:105E10003078253032783F205B273027207C2027C0
